{
  "contracts/Randomness.sol": {
    "Randomness": {
      "abi": [
        {
          "inputs": [],
          "stateMutability": "nonpayable",
          "type": "constructor"
        },
        {
          "anonymous": false,
          "inputs": [
            {
              "indexed": true,
              "internalType": "bytes32",
              "name": "requestId",
              "type": "bytes32"
            },
            {
              "indexed": true,
              "internalType": "uint256",
              "name": "result",
              "type": "uint256"
            }
          ],
          "name": "DiceLanded",
          "type": "event"
        },
        {
          "anonymous": false,
          "inputs": [
            {
              "indexed": true,
              "internalType": "bytes32",
              "name": "requestId",
              "type": "bytes32"
            }
          ],
          "name": "DiceRolled",
          "type": "event"
        },
        {
          "inputs": [],
          "name": "LINK_token",
          "outputs": [
            {
              "internalType": "address",
              "name": "",
              "type": "address"
            }
          ],
          "stateMutability": "view",
          "type": "function"
        },
        {
          "inputs": [],
          "name": "VRF_Coordinator",
          "outputs": [
            {
              "internalType": "address",
              "name": "",
              "type": "address"
            }
          ],
          "stateMutability": "view",
          "type": "function"
        },
        {
          "inputs": [],
          "name": "fee",
          "outputs": [
            {
              "internalType": "uint256",
              "name": "",
              "type": "uint256"
            }
          ],
          "stateMutability": "view",
          "type": "function"
        },
        {
          "inputs": [],
          "name": "getRandomNumber",
          "outputs": [
            {
              "internalType": "bytes32",
              "name": "requestId",
              "type": "bytes32"
            }
          ],
          "stateMutability": "nonpayable",
          "type": "function"
        },
        {
          "inputs": [],
          "name": "keyHash",
          "outputs": [
            {
              "internalType": "bytes32",
              "name": "",
              "type": "bytes32"
            }
          ],
          "stateMutability": "view",
          "type": "function"
        },
        {
          "inputs": [],
          "name": "randomResult",
          "outputs": [
            {
              "internalType": "uint256",
              "name": "",
              "type": "uint256"
            }
          ],
          "stateMutability": "view",
          "type": "function"
        },
        {
          "inputs": [
            {
              "internalType": "bytes32",
              "name": "requestId",
              "type": "bytes32"
            },
            {
              "internalType": "uint256",
              "name": "randomness",
              "type": "uint256"
            }
          ],
          "name": "rawFulfillRandomness",
          "outputs": [],
          "stateMutability": "nonpayable",
          "type": "function"
        }
      ],
      "evm": {
        "bytecode": {
          "linkReferences": {},
          "object": "60c060405273dd3782915140c8f3b190b5d67eac6dc5760c46e9600460006101000a81548173ffffffffffffffffffffffffffffffffffffffff021916908373ffffffffffffffffffffffffffffffffffffffff16021790555073a36085f69e2889c224210f603d836748e7dc0088600560006101000a81548173ffffffffffffffffffffffffffffffffffffffff021916908373ffffffffffffffffffffffffffffffffffffffff1602179055503480156100ba57600080fd5b50600460009054906101000a900473ffffffffffffffffffffffffffffffffffffffff16600560009054906101000a900473ffffffffffffffffffffffffffffffffffffffff168173ffffffffffffffffffffffffffffffffffffffff1660a08173ffffffffffffffffffffffffffffffffffffffff1660601b815250508073ffffffffffffffffffffffffffffffffffffffff1660808173ffffffffffffffffffffffffffffffffffffffff1660601b8152505050507f6c3699283bda56ad74f6b855546325b68d482e983852a7a82979cc4807b641f460001b60018190555067016345785d8a000060028190555060805160601c60a05160601c610b596101e3600039600081816101ac015261040f01526000818161024d01526103d30152610b596000f3fe608060405234801561001057600080fd5b506004361061007d5760003560e01c806361728f391161005b57806361728f39146100dc57806394985ddd146100fa578063dbdff2c114610116578063ddca3f43146101345761007d565b8063297cf74c1461008257806342619f66146100a0578063592756a1146100be575b600080fd5b61008a610152565b60405161009791906107e5565b60405180910390f35b6100a8610178565b6040516100b59190610907565b60405180910390f35b6100c661017e565b6040516100d391906107e5565b60405180910390f35b6100e46101a4565b6040516100f1919061083e565b60405180910390f35b610114600480360381019061010f919061061a565b6101aa565b005b61011e610246565b60405161012b919061083e565b60405180910390f35b61013c610375565b6040516101499190610907565b60405180910390f35b600460009054906101000a900473ffffffffffffffffffffffffffffffffffffffff1681565b60035481565b600560009054906101000a900473ffffffffffffffffffffffffffffffffffffffff1681565b60015481565b7f000000000000000000000000000000000000000000000000000000000000000073ffffffffffffffffffffffffffffffffffffffff163373ffffffffffffffffffffffffffffffffffffffff1614610238576040517f08c379a000000000000000000000000000000000000000000000000000000000815260040161022f906108e7565b60405180910390fd5b610242828261037b565b5050565b60006002547f000000000000000000000000000000000000000000000000000000000000000073ffffffffffffffffffffffffffffffffffffffff166370a08231306040518263ffffffff1660e01b81526004016102a491906107e5565b60206040518083038186803b1580156102bc57600080fd5b505afa1580156102d0573d6000803e3d6000fd5b505050506040513d601f19601f820116820180604052508101906102f49190610656565b1015610335576040517f08c379a000000000000000000000000000000000000000000000000000000000815260040161032c906108c7565b60405180910390fd5b807f9a60e24d77db60770e329ff79cabe9da80fbdaf57c289a8d0d40f4b6921ccc3060405160405180910390a26103706001546002546103cf565b905090565b60025481565b60016123288261038b9190610a3e565b610395919061094f565b600381905550600354827f909dd726737b7ffa4ae9d137e9edebe8a74a9c2910a4b60e8112f93ab217083760405160405180910390a35050565b60007f000000000000000000000000000000000000000000000000000000000000000073ffffffffffffffffffffffffffffffffffffffff16634000aea07f000000000000000000000000000000000000000000000000000000000000000084866000604051602001610443929190610859565b6040516020818303038152906040526040518463ffffffff1660e01b815260040161047093929190610800565b602060405180830381600087803b15801561048a57600080fd5b505af115801561049e573d6000803e3d6000fd5b505050506040513d601f19601f820116820180604052508101906104c291906105f1565b5060006104e4846000306000808981526020019081526020016000205461052e565b9050600160008086815260200190815260200160002054610505919061094f565b60008086815260200190815260200160002081905550610525848261056a565b91505092915050565b6000848484846040516020016105479493929190610882565b6040516020818303038152906040528051906020012060001c9050949350505050565b6000828260405160200161057f9291906107b9565b60405160208183030381529060405280519060200120905092915050565b6000815190506105ac81610ade565b92915050565b6000813590506105c181610af5565b92915050565b6000813590506105d681610b0c565b92915050565b6000815190506105eb81610b0c565b92915050565b60006020828403121561060357600080fd5b60006106118482850161059d565b91505092915050565b6000806040838503121561062d57600080fd5b600061063b858286016105b2565b925050602061064c858286016105c7565b9150509250929050565b60006020828403121561066857600080fd5b6000610676848285016105dc565b91505092915050565b610688816109a5565b82525050565b610697816109c3565b82525050565b6106ae6106a9826109c3565b610a2a565b82525050565b60006106bf82610922565b6106c9818561092d565b93506106d98185602086016109f7565b6106e281610acd565b840191505092915050565b60006106fa602b8361093e565b91507f4e6f7420656e6f756768204c494e4b202d2066696c6c20636f6e74726163742060008301527f77697468206661756365740000000000000000000000000000000000000000006020830152604082019050919050565b6000610760601f8361093e565b91507f4f6e6c7920565246436f6f7264696e61746f722063616e2066756c66696c6c006000830152602082019050919050565b61079c816109ed565b82525050565b6107b36107ae826109ed565b610a34565b82525050565b60006107c5828561069d565b6020820191506107d582846107a2565b6020820191508190509392505050565b60006020820190506107fa600083018461067f565b92915050565b6000606082019050610815600083018661067f565b6108226020830185610793565b818103604083015261083481846106b4565b9050949350505050565b6000602082019050610853600083018461068e565b92915050565b600060408201905061086e600083018561068e565b61087b6020830184610793565b9392505050565b6000608082019050610897600083018761068e565b6108a46020830186610793565b6108b1604083018561067f565b6108be6060830184610793565b95945050505050565b600060208201905081810360008301526108e0816106ed565b9050919050565b6000602082019050818103600083015261090081610753565b9050919050565b600060208201905061091c6000830184610793565b92915050565b600081519050919050565b600082825260208201905092915050565b600082825260208201905092915050565b600061095a826109ed565b9150610965836109ed565b9250827fffffffffffffffffffffffffffffffffffffffffffffffffffffffffffffffff0382111561099a57610999610a6f565b5b828201905092915050565b60006109b0826109cd565b9050919050565b60008115159050919050565b6000819050919050565b600073ffffffffffffffffffffffffffffffffffffffff82169050919050565b6000819050919050565b60005b83811015610a155780820151818401526020810190506109fa565b83811115610a24576000848401525b50505050565b6000819050919050565b6000819050919050565b6000610a49826109ed565b9150610a54836109ed565b925082610a6457610a63610a9e565b5b828206905092915050565b7f4e487b7100000000000000000000000000000000000000000000000000000000600052601160045260246000fd5b7f4e487b7100000000000000000000000000000000000000000000000000000000600052601260045260246000fd5b6000601f19601f8301169050919050565b610ae7816109b7565b8114610af257600080fd5b50565b610afe816109c3565b8114610b0957600080fd5b50565b610b15816109ed565b8114610b2057600080fd5b5056fea264697066735822122099796467e7ae5738619af848475e36e210d3eb170198d7c988d13ad9c7322c1964736f6c63430008000033",
          "opcodes": "PUSH1 0xC0 PUSH1 0x40 MSTORE PUSH20 0xDD3782915140C8F3B190B5D67EAC6DC5760C46E9 PUSH1 0x4 PUSH1 0x0 PUSH2 0x100 EXP DUP2 SLOAD DUP2 PUSH20 0xFFFFFFFFFFFFFFFFFFFFFFFFFFFFFFFFFFFFFFFF MUL NOT AND SWAP1 DUP4 PUSH20 0xFFFFFFFFFFFFFFFFFFFFFFFFFFFFFFFFFFFFFFFF AND MUL OR SWAP1 SSTORE POP PUSH20 0xA36085F69E2889C224210F603D836748E7DC0088 PUSH1 0x5 PUSH1 0x0 PUSH2 0x100 EXP DUP2 SLOAD DUP2 PUSH20 0xFFFFFFFFFFFFFFFFFFFFFFFFFFFFFFFFFFFFFFFF MUL NOT AND SWAP1 DUP4 PUSH20 0xFFFFFFFFFFFFFFFFFFFFFFFFFFFFFFFFFFFFFFFF AND MUL OR SWAP1 SSTORE POP CALLVALUE DUP1 ISZERO PUSH2 0xBA JUMPI PUSH1 0x0 DUP1 REVERT JUMPDEST POP PUSH1 0x4 PUSH1 0x0 SWAP1 SLOAD SWAP1 PUSH2 0x100 EXP SWAP1 DIV PUSH20 0xFFFFFFFFFFFFFFFFFFFFFFFFFFFFFFFFFFFFFFFF AND PUSH1 0x5 PUSH1 0x0 SWAP1 SLOAD SWAP1 PUSH2 0x100 EXP SWAP1 DIV PUSH20 0xFFFFFFFFFFFFFFFFFFFFFFFFFFFFFFFFFFFFFFFF AND DUP2 PUSH20 0xFFFFFFFFFFFFFFFFFFFFFFFFFFFFFFFFFFFFFFFF AND PUSH1 0xA0 DUP2 PUSH20 0xFFFFFFFFFFFFFFFFFFFFFFFFFFFFFFFFFFFFFFFF AND PUSH1 0x60 SHL DUP2 MSTORE POP POP DUP1 PUSH20 0xFFFFFFFFFFFFFFFFFFFFFFFFFFFFFFFFFFFFFFFF AND PUSH1 0x80 DUP2 PUSH20 0xFFFFFFFFFFFFFFFFFFFFFFFFFFFFFFFFFFFFFFFF AND PUSH1 0x60 SHL DUP2 MSTORE POP POP POP POP PUSH32 0x6C3699283BDA56AD74F6B855546325B68D482E983852A7A82979CC4807B641F4 PUSH1 0x0 SHL PUSH1 0x1 DUP2 SWAP1 SSTORE POP PUSH8 0x16345785D8A0000 PUSH1 0x2 DUP2 SWAP1 SSTORE POP PUSH1 0x80 MLOAD PUSH1 0x60 SHR PUSH1 0xA0 MLOAD PUSH1 0x60 SHR PUSH2 0xB59 PUSH2 0x1E3 PUSH1 0x0 CODECOPY PUSH1 0x0 DUP2 DUP2 PUSH2 0x1AC ADD MSTORE PUSH2 0x40F ADD MSTORE PUSH1 0x0 DUP2 DUP2 PUSH2 0x24D ADD MSTORE PUSH2 0x3D3 ADD MSTORE PUSH2 0xB59 PUSH1 0x0 RETURN INVALID PUSH1 0x80 PUSH1 0x40 MSTORE CALLVALUE DUP1 ISZERO PUSH2 0x10 JUMPI PUSH1 0x0 DUP1 REVERT JUMPDEST POP PUSH1 0x4 CALLDATASIZE LT PUSH2 0x7D JUMPI PUSH1 0x0 CALLDATALOAD PUSH1 0xE0 SHR DUP1 PUSH4 0x61728F39 GT PUSH2 0x5B JUMPI DUP1 PUSH4 0x61728F39 EQ PUSH2 0xDC JUMPI DUP1 PUSH4 0x94985DDD EQ PUSH2 0xFA JUMPI DUP1 PUSH4 0xDBDFF2C1 EQ PUSH2 0x116 JUMPI DUP1 PUSH4 0xDDCA3F43 EQ PUSH2 0x134 JUMPI PUSH2 0x7D JUMP JUMPDEST DUP1 PUSH4 0x297CF74C EQ PUSH2 0x82 JUMPI DUP1 PUSH4 0x42619F66 EQ PUSH2 0xA0 JUMPI DUP1 PUSH4 0x592756A1 EQ PUSH2 0xBE JUMPI JUMPDEST PUSH1 0x0 DUP1 REVERT JUMPDEST PUSH2 0x8A PUSH2 0x152 JUMP JUMPDEST PUSH1 0x40 MLOAD PUSH2 0x97 SWAP2 SWAP1 PUSH2 0x7E5 JUMP JUMPDEST PUSH1 0x40 MLOAD DUP1 SWAP2 SUB SWAP1 RETURN JUMPDEST PUSH2 0xA8 PUSH2 0x178 JUMP JUMPDEST PUSH1 0x40 MLOAD PUSH2 0xB5 SWAP2 SWAP1 PUSH2 0x907 JUMP JUMPDEST PUSH1 0x40 MLOAD DUP1 SWAP2 SUB SWAP1 RETURN JUMPDEST PUSH2 0xC6 PUSH2 0x17E JUMP JUMPDEST PUSH1 0x40 MLOAD PUSH2 0xD3 SWAP2 SWAP1 PUSH2 0x7E5 JUMP JUMPDEST PUSH1 0x40 MLOAD DUP1 SWAP2 SUB SWAP1 RETURN JUMPDEST PUSH2 0xE4 PUSH2 0x1A4 JUMP JUMPDEST PUSH1 0x40 MLOAD PUSH2 0xF1 SWAP2 SWAP1 PUSH2 0x83E JUMP JUMPDEST PUSH1 0x40 MLOAD DUP1 SWAP2 SUB SWAP1 RETURN JUMPDEST PUSH2 0x114 PUSH1 0x4 DUP1 CALLDATASIZE SUB DUP2 ADD SWAP1 PUSH2 0x10F SWAP2 SWAP1 PUSH2 0x61A JUMP JUMPDEST PUSH2 0x1AA JUMP JUMPDEST STOP JUMPDEST PUSH2 0x11E PUSH2 0x246 JUMP JUMPDEST PUSH1 0x40 MLOAD PUSH2 0x12B SWAP2 SWAP1 PUSH2 0x83E JUMP JUMPDEST PUSH1 0x40 MLOAD DUP1 SWAP2 SUB SWAP1 RETURN JUMPDEST PUSH2 0x13C PUSH2 0x375 JUMP JUMPDEST PUSH1 0x40 MLOAD PUSH2 0x149 SWAP2 SWAP1 PUSH2 0x907 JUMP JUMPDEST PUSH1 0x40 MLOAD DUP1 SWAP2 SUB SWAP1 RETURN JUMPDEST PUSH1 0x4 PUSH1 0x0 SWAP1 SLOAD SWAP1 PUSH2 0x100 EXP SWAP1 DIV PUSH20 0xFFFFFFFFFFFFFFFFFFFFFFFFFFFFFFFFFFFFFFFF AND DUP2 JUMP JUMPDEST PUSH1 0x3 SLOAD DUP2 JUMP JUMPDEST PUSH1 0x5 PUSH1 0x0 SWAP1 SLOAD SWAP1 PUSH2 0x100 EXP SWAP1 DIV PUSH20 0xFFFFFFFFFFFFFFFFFFFFFFFFFFFFFFFFFFFFFFFF AND DUP2 JUMP JUMPDEST PUSH1 0x1 SLOAD DUP2 JUMP JUMPDEST PUSH32 0x0 PUSH20 0xFFFFFFFFFFFFFFFFFFFFFFFFFFFFFFFFFFFFFFFF AND CALLER PUSH20 0xFFFFFFFFFFFFFFFFFFFFFFFFFFFFFFFFFFFFFFFF AND EQ PUSH2 0x238 JUMPI PUSH1 0x40 MLOAD PUSH32 0x8C379A000000000000000000000000000000000000000000000000000000000 DUP2 MSTORE PUSH1 0x4 ADD PUSH2 0x22F SWAP1 PUSH2 0x8E7 JUMP JUMPDEST PUSH1 0x40 MLOAD DUP1 SWAP2 SUB SWAP1 REVERT JUMPDEST PUSH2 0x242 DUP3 DUP3 PUSH2 0x37B JUMP JUMPDEST POP POP JUMP JUMPDEST PUSH1 0x0 PUSH1 0x2 SLOAD PUSH32 0x0 PUSH20 0xFFFFFFFFFFFFFFFFFFFFFFFFFFFFFFFFFFFFFFFF AND PUSH4 0x70A08231 ADDRESS PUSH1 0x40 MLOAD DUP3 PUSH4 0xFFFFFFFF AND PUSH1 0xE0 SHL DUP2 MSTORE PUSH1 0x4 ADD PUSH2 0x2A4 SWAP2 SWAP1 PUSH2 0x7E5 JUMP JUMPDEST PUSH1 0x20 PUSH1 0x40 MLOAD DUP1 DUP4 SUB DUP2 DUP7 DUP1 EXTCODESIZE ISZERO DUP1 ISZERO PUSH2 0x2BC JUMPI PUSH1 0x0 DUP1 REVERT JUMPDEST POP GAS STATICCALL ISZERO DUP1 ISZERO PUSH2 0x2D0 JUMPI RETURNDATASIZE PUSH1 0x0 DUP1 RETURNDATACOPY RETURNDATASIZE PUSH1 0x0 REVERT JUMPDEST POP POP POP POP PUSH1 0x40 MLOAD RETURNDATASIZE PUSH1 0x1F NOT PUSH1 0x1F DUP3 ADD AND DUP3 ADD DUP1 PUSH1 0x40 MSTORE POP DUP2 ADD SWAP1 PUSH2 0x2F4 SWAP2 SWAP1 PUSH2 0x656 JUMP JUMPDEST LT ISZERO PUSH2 0x335 JUMPI PUSH1 0x40 MLOAD PUSH32 0x8C379A000000000000000000000000000000000000000000000000000000000 DUP2 MSTORE PUSH1 0x4 ADD PUSH2 0x32C SWAP1 PUSH2 0x8C7 JUMP JUMPDEST PUSH1 0x40 MLOAD DUP1 SWAP2 SUB SWAP1 REVERT JUMPDEST DUP1 PUSH32 0x9A60E24D77DB60770E329FF79CABE9DA80FBDAF57C289A8D0D40F4B6921CCC30 PUSH1 0x40 MLOAD PUSH1 0x40 MLOAD DUP1 SWAP2 SUB SWAP1 LOG2 PUSH2 0x370 PUSH1 0x1 SLOAD PUSH1 0x2 SLOAD PUSH2 0x3CF JUMP JUMPDEST SWAP1 POP SWAP1 JUMP JUMPDEST PUSH1 0x2 SLOAD DUP2 JUMP JUMPDEST PUSH1 0x1 PUSH2 0x2328 DUP3 PUSH2 0x38B SWAP2 SWAP1 PUSH2 0xA3E JUMP JUMPDEST PUSH2 0x395 SWAP2 SWAP1 PUSH2 0x94F JUMP JUMPDEST PUSH1 0x3 DUP2 SWAP1 SSTORE POP PUSH1 0x3 SLOAD DUP3 PUSH32 0x909DD726737B7FFA4AE9D137E9EDEBE8A74A9C2910A4B60E8112F93AB2170837 PUSH1 0x40 MLOAD PUSH1 0x40 MLOAD DUP1 SWAP2 SUB SWAP1 LOG3 POP POP JUMP JUMPDEST PUSH1 0x0 PUSH32 0x0 PUSH20 0xFFFFFFFFFFFFFFFFFFFFFFFFFFFFFFFFFFFFFFFF AND PUSH4 0x4000AEA0 PUSH32 0x0 DUP5 DUP7 PUSH1 0x0 PUSH1 0x40 MLOAD PUSH1 0x20 ADD PUSH2 0x443 SWAP3 SWAP2 SWAP1 PUSH2 0x859 JUMP JUMPDEST PUSH1 0x40 MLOAD PUSH1 0x20 DUP2 DUP4 SUB SUB DUP2 MSTORE SWAP1 PUSH1 0x40 MSTORE PUSH1 0x40 MLOAD DUP5 PUSH4 0xFFFFFFFF AND PUSH1 0xE0 SHL DUP2 MSTORE PUSH1 0x4 ADD PUSH2 0x470 SWAP4 SWAP3 SWAP2 SWAP1 PUSH2 0x800 JUMP JUMPDEST PUSH1 0x20 PUSH1 0x40 MLOAD DUP1 DUP4 SUB DUP2 PUSH1 0x0 DUP8 DUP1 EXTCODESIZE ISZERO DUP1 ISZERO PUSH2 0x48A JUMPI PUSH1 0x0 DUP1 REVERT JUMPDEST POP GAS CALL ISZERO DUP1 ISZERO PUSH2 0x49E JUMPI RETURNDATASIZE PUSH1 0x0 DUP1 RETURNDATACOPY RETURNDATASIZE PUSH1 0x0 REVERT JUMPDEST POP POP POP POP PUSH1 0x40 MLOAD RETURNDATASIZE PUSH1 0x1F NOT PUSH1 0x1F DUP3 ADD AND DUP3 ADD DUP1 PUSH1 0x40 MSTORE POP DUP2 ADD SWAP1 PUSH2 0x4C2 SWAP2 SWAP1 PUSH2 0x5F1 JUMP JUMPDEST POP PUSH1 0x0 PUSH2 0x4E4 DUP5 PUSH1 0x0 ADDRESS PUSH1 0x0 DUP1 DUP10 DUP2 MSTORE PUSH1 0x20 ADD SWAP1 DUP2 MSTORE PUSH1 0x20 ADD PUSH1 0x0 KECCAK256 SLOAD PUSH2 0x52E JUMP JUMPDEST SWAP1 POP PUSH1 0x1 PUSH1 0x0 DUP1 DUP7 DUP2 MSTORE PUSH1 0x20 ADD SWAP1 DUP2 MSTORE PUSH1 0x20 ADD PUSH1 0x0 KECCAK256 SLOAD PUSH2 0x505 SWAP2 SWAP1 PUSH2 0x94F JUMP JUMPDEST PUSH1 0x0 DUP1 DUP7 DUP2 MSTORE PUSH1 0x20 ADD SWAP1 DUP2 MSTORE PUSH1 0x20 ADD PUSH1 0x0 KECCAK256 DUP2 SWAP1 SSTORE POP PUSH2 0x525 DUP5 DUP3 PUSH2 0x56A JUMP JUMPDEST SWAP2 POP POP SWAP3 SWAP2 POP POP JUMP JUMPDEST PUSH1 0x0 DUP5 DUP5 DUP5 DUP5 PUSH1 0x40 MLOAD PUSH1 0x20 ADD PUSH2 0x547 SWAP5 SWAP4 SWAP3 SWAP2 SWAP1 PUSH2 0x882 JUMP JUMPDEST PUSH1 0x40 MLOAD PUSH1 0x20 DUP2 DUP4 SUB SUB DUP2 MSTORE SWAP1 PUSH1 0x40 MSTORE DUP1 MLOAD SWAP1 PUSH1 0x20 ADD KECCAK256 PUSH1 0x0 SHR SWAP1 POP SWAP5 SWAP4 POP POP POP POP JUMP JUMPDEST PUSH1 0x0 DUP3 DUP3 PUSH1 0x40 MLOAD PUSH1 0x20 ADD PUSH2 0x57F SWAP3 SWAP2 SWAP1 PUSH2 0x7B9 JUMP JUMPDEST PUSH1 0x40 MLOAD PUSH1 0x20 DUP2 DUP4 SUB SUB DUP2 MSTORE SWAP1 PUSH1 0x40 MSTORE DUP1 MLOAD SWAP1 PUSH1 0x20 ADD KECCAK256 SWAP1 POP SWAP3 SWAP2 POP POP JUMP JUMPDEST PUSH1 0x0 DUP2 MLOAD SWAP1 POP PUSH2 0x5AC DUP2 PUSH2 0xADE JUMP JUMPDEST SWAP3 SWAP2 POP POP JUMP JUMPDEST PUSH1 0x0 DUP2 CALLDATALOAD SWAP1 POP PUSH2 0x5C1 DUP2 PUSH2 0xAF5 JUMP JUMPDEST SWAP3 SWAP2 POP POP JUMP JUMPDEST PUSH1 0x0 DUP2 CALLDATALOAD SWAP1 POP PUSH2 0x5D6 DUP2 PUSH2 0xB0C JUMP JUMPDEST SWAP3 SWAP2 POP POP JUMP JUMPDEST PUSH1 0x0 DUP2 MLOAD SWAP1 POP PUSH2 0x5EB DUP2 PUSH2 0xB0C JUMP JUMPDEST SWAP3 SWAP2 POP POP JUMP JUMPDEST PUSH1 0x0 PUSH1 0x20 DUP3 DUP5 SUB SLT ISZERO PUSH2 0x603 JUMPI PUSH1 0x0 DUP1 REVERT JUMPDEST PUSH1 0x0 PUSH2 0x611 DUP5 DUP3 DUP6 ADD PUSH2 0x59D JUMP JUMPDEST SWAP2 POP POP SWAP3 SWAP2 POP POP JUMP JUMPDEST PUSH1 0x0 DUP1 PUSH1 0x40 DUP4 DUP6 SUB SLT ISZERO PUSH2 0x62D JUMPI PUSH1 0x0 DUP1 REVERT JUMPDEST PUSH1 0x0 PUSH2 0x63B DUP6 DUP3 DUP7 ADD PUSH2 0x5B2 JUMP JUMPDEST SWAP3 POP POP PUSH1 0x20 PUSH2 0x64C DUP6 DUP3 DUP7 ADD PUSH2 0x5C7 JUMP JUMPDEST SWAP2 POP POP SWAP3 POP SWAP3 SWAP1 POP JUMP JUMPDEST PUSH1 0x0 PUSH1 0x20 DUP3 DUP5 SUB SLT ISZERO PUSH2 0x668 JUMPI PUSH1 0x0 DUP1 REVERT JUMPDEST PUSH1 0x0 PUSH2 0x676 DUP5 DUP3 DUP6 ADD PUSH2 0x5DC JUMP JUMPDEST SWAP2 POP POP SWAP3 SWAP2 POP POP JUMP JUMPDEST PUSH2 0x688 DUP2 PUSH2 0x9A5 JUMP JUMPDEST DUP3 MSTORE POP POP JUMP JUMPDEST PUSH2 0x697 DUP2 PUSH2 0x9C3 JUMP JUMPDEST DUP3 MSTORE POP POP JUMP JUMPDEST PUSH2 0x6AE PUSH2 0x6A9 DUP3 PUSH2 0x9C3 JUMP JUMPDEST PUSH2 0xA2A JUMP JUMPDEST DUP3 MSTORE POP POP JUMP JUMPDEST PUSH1 0x0 PUSH2 0x6BF DUP3 PUSH2 0x922 JUMP JUMPDEST PUSH2 0x6C9 DUP2 DUP6 PUSH2 0x92D JUMP JUMPDEST SWAP4 POP PUSH2 0x6D9 DUP2 DUP6 PUSH1 0x20 DUP7 ADD PUSH2 0x9F7 JUMP JUMPDEST PUSH2 0x6E2 DUP2 PUSH2 0xACD JUMP JUMPDEST DUP5 ADD SWAP2 POP POP SWAP3 SWAP2 POP POP JUMP JUMPDEST PUSH1 0x0 PUSH2 0x6FA PUSH1 0x2B DUP4 PUSH2 0x93E JUMP JUMPDEST SWAP2 POP PUSH32 0x4E6F7420656E6F756768204C494E4B202D2066696C6C20636F6E747261637420 PUSH1 0x0 DUP4 ADD MSTORE PUSH32 0x7769746820666175636574000000000000000000000000000000000000000000 PUSH1 0x20 DUP4 ADD MSTORE PUSH1 0x40 DUP3 ADD SWAP1 POP SWAP2 SWAP1 POP JUMP JUMPDEST PUSH1 0x0 PUSH2 0x760 PUSH1 0x1F DUP4 PUSH2 0x93E JUMP JUMPDEST SWAP2 POP PUSH32 0x4F6E6C7920565246436F6F7264696E61746F722063616E2066756C66696C6C00 PUSH1 0x0 DUP4 ADD MSTORE PUSH1 0x20 DUP3 ADD SWAP1 POP SWAP2 SWAP1 POP JUMP JUMPDEST PUSH2 0x79C DUP2 PUSH2 0x9ED JUMP JUMPDEST DUP3 MSTORE POP POP JUMP JUMPDEST PUSH2 0x7B3 PUSH2 0x7AE DUP3 PUSH2 0x9ED JUMP JUMPDEST PUSH2 0xA34 JUMP JUMPDEST DUP3 MSTORE POP POP JUMP JUMPDEST PUSH1 0x0 PUSH2 0x7C5 DUP3 DUP6 PUSH2 0x69D JUMP JUMPDEST PUSH1 0x20 DUP3 ADD SWAP2 POP PUSH2 0x7D5 DUP3 DUP5 PUSH2 0x7A2 JUMP JUMPDEST PUSH1 0x20 DUP3 ADD SWAP2 POP DUP2 SWAP1 POP SWAP4 SWAP3 POP POP POP JUMP JUMPDEST PUSH1 0x0 PUSH1 0x20 DUP3 ADD SWAP1 POP PUSH2 0x7FA PUSH1 0x0 DUP4 ADD DUP5 PUSH2 0x67F JUMP JUMPDEST SWAP3 SWAP2 POP POP JUMP JUMPDEST PUSH1 0x0 PUSH1 0x60 DUP3 ADD SWAP1 POP PUSH2 0x815 PUSH1 0x0 DUP4 ADD DUP7 PUSH2 0x67F JUMP JUMPDEST PUSH2 0x822 PUSH1 0x20 DUP4 ADD DUP6 PUSH2 0x793 JUMP JUMPDEST DUP2 DUP2 SUB PUSH1 0x40 DUP4 ADD MSTORE PUSH2 0x834 DUP2 DUP5 PUSH2 0x6B4 JUMP JUMPDEST SWAP1 POP SWAP5 SWAP4 POP POP POP POP JUMP JUMPDEST PUSH1 0x0 PUSH1 0x20 DUP3 ADD SWAP1 POP PUSH2 0x853 PUSH1 0x0 DUP4 ADD DUP5 PUSH2 0x68E JUMP JUMPDEST SWAP3 SWAP2 POP POP JUMP JUMPDEST PUSH1 0x0 PUSH1 0x40 DUP3 ADD SWAP1 POP PUSH2 0x86E PUSH1 0x0 DUP4 ADD DUP6 PUSH2 0x68E JUMP JUMPDEST PUSH2 0x87B PUSH1 0x20 DUP4 ADD DUP5 PUSH2 0x793 JUMP JUMPDEST SWAP4 SWAP3 POP POP POP JUMP JUMPDEST PUSH1 0x0 PUSH1 0x80 DUP3 ADD SWAP1 POP PUSH2 0x897 PUSH1 0x0 DUP4 ADD DUP8 PUSH2 0x68E JUMP JUMPDEST PUSH2 0x8A4 PUSH1 0x20 DUP4 ADD DUP7 PUSH2 0x793 JUMP JUMPDEST PUSH2 0x8B1 PUSH1 0x40 DUP4 ADD DUP6 PUSH2 0x67F JUMP JUMPDEST PUSH2 0x8BE PUSH1 0x60 DUP4 ADD DUP5 PUSH2 0x793 JUMP JUMPDEST SWAP6 SWAP5 POP POP POP POP POP JUMP JUMPDEST PUSH1 0x0 PUSH1 0x20 DUP3 ADD SWAP1 POP DUP2 DUP2 SUB PUSH1 0x0 DUP4 ADD MSTORE PUSH2 0x8E0 DUP2 PUSH2 0x6ED JUMP JUMPDEST SWAP1 POP SWAP2 SWAP1 POP JUMP JUMPDEST PUSH1 0x0 PUSH1 0x20 DUP3 ADD SWAP1 POP DUP2 DUP2 SUB PUSH1 0x0 DUP4 ADD MSTORE PUSH2 0x900 DUP2 PUSH2 0x753 JUMP JUMPDEST SWAP1 POP SWAP2 SWAP1 POP JUMP JUMPDEST PUSH1 0x0 PUSH1 0x20 DUP3 ADD SWAP1 POP PUSH2 0x91C PUSH1 0x0 DUP4 ADD DUP5 PUSH2 0x793 JUMP JUMPDEST SWAP3 SWAP2 POP POP JUMP JUMPDEST PUSH1 0x0 DUP2 MLOAD SWAP1 POP SWAP2 SWAP1 POP JUMP JUMPDEST PUSH1 0x0 DUP3 DUP3 MSTORE PUSH1 0x20 DUP3 ADD SWAP1 POP SWAP3 SWAP2 POP POP JUMP JUMPDEST PUSH1 0x0 DUP3 DUP3 MSTORE PUSH1 0x20 DUP3 ADD SWAP1 POP SWAP3 SWAP2 POP POP JUMP JUMPDEST PUSH1 0x0 PUSH2 0x95A DUP3 PUSH2 0x9ED JUMP JUMPDEST SWAP2 POP PUSH2 0x965 DUP4 PUSH2 0x9ED JUMP JUMPDEST SWAP3 POP DUP3 PUSH32 0xFFFFFFFFFFFFFFFFFFFFFFFFFFFFFFFFFFFFFFFFFFFFFFFFFFFFFFFFFFFFFFFF SUB DUP3 GT ISZERO PUSH2 0x99A JUMPI PUSH2 0x999 PUSH2 0xA6F JUMP JUMPDEST JUMPDEST DUP3 DUP3 ADD SWAP1 POP SWAP3 SWAP2 POP POP JUMP JUMPDEST PUSH1 0x0 PUSH2 0x9B0 DUP3 PUSH2 0x9CD JUMP JUMPDEST SWAP1 POP SWAP2 SWAP1 POP JUMP JUMPDEST PUSH1 0x0 DUP2 ISZERO ISZERO SWAP1 POP SWAP2 SWAP1 POP JUMP JUMPDEST PUSH1 0x0 DUP2 SWAP1 POP SWAP2 SWAP1 POP JUMP JUMPDEST PUSH1 0x0 PUSH20 0xFFFFFFFFFFFFFFFFFFFFFFFFFFFFFFFFFFFFFFFF DUP3 AND SWAP1 POP SWAP2 SWAP1 POP JUMP JUMPDEST PUSH1 0x0 DUP2 SWAP1 POP SWAP2 SWAP1 POP JUMP JUMPDEST PUSH1 0x0 JUMPDEST DUP4 DUP2 LT ISZERO PUSH2 0xA15 JUMPI DUP1 DUP3 ADD MLOAD DUP2 DUP5 ADD MSTORE PUSH1 0x20 DUP2 ADD SWAP1 POP PUSH2 0x9FA JUMP JUMPDEST DUP4 DUP2 GT ISZERO PUSH2 0xA24 JUMPI PUSH1 0x0 DUP5 DUP5 ADD MSTORE JUMPDEST POP POP POP POP JUMP JUMPDEST PUSH1 0x0 DUP2 SWAP1 POP SWAP2 SWAP1 POP JUMP JUMPDEST PUSH1 0x0 DUP2 SWAP1 POP SWAP2 SWAP1 POP JUMP JUMPDEST PUSH1 0x0 PUSH2 0xA49 DUP3 PUSH2 0x9ED JUMP JUMPDEST SWAP2 POP PUSH2 0xA54 DUP4 PUSH2 0x9ED JUMP JUMPDEST SWAP3 POP DUP3 PUSH2 0xA64 JUMPI PUSH2 0xA63 PUSH2 0xA9E JUMP JUMPDEST JUMPDEST DUP3 DUP3 MOD SWAP1 POP SWAP3 SWAP2 POP POP JUMP JUMPDEST PUSH32 0x4E487B7100000000000000000000000000000000000000000000000000000000 PUSH1 0x0 MSTORE PUSH1 0x11 PUSH1 0x4 MSTORE PUSH1 0x24 PUSH1 0x0 REVERT JUMPDEST PUSH32 0x4E487B7100000000000000000000000000000000000000000000000000000000 PUSH1 0x0 MSTORE PUSH1 0x12 PUSH1 0x4 MSTORE PUSH1 0x24 PUSH1 0x0 REVERT JUMPDEST PUSH1 0x0 PUSH1 0x1F NOT PUSH1 0x1F DUP4 ADD AND SWAP1 POP SWAP2 SWAP1 POP JUMP JUMPDEST PUSH2 0xAE7 DUP2 PUSH2 0x9B7 JUMP JUMPDEST DUP2 EQ PUSH2 0xAF2 JUMPI PUSH1 0x0 DUP1 REVERT JUMPDEST POP JUMP JUMPDEST PUSH2 0xAFE DUP2 PUSH2 0x9C3 JUMP JUMPDEST DUP2 EQ PUSH2 0xB09 JUMPI PUSH1 0x0 DUP1 REVERT JUMPDEST POP JUMP JUMPDEST PUSH2 0xB15 DUP2 PUSH2 0x9ED JUMP JUMPDEST DUP2 EQ PUSH2 0xB20 JUMPI PUSH1 0x0 DUP1 REVERT JUMPDEST POP JUMP INVALID LOG2 PUSH5 0x6970667358 0x22 SLT KECCAK256 SWAP10 PUSH26 0x6467E7AE5738619AF848475E36E210D3EB170198D7C988D13AD9 0xC7 ORIGIN 0x2C NOT PUSH5 0x736F6C6343 STOP ADDMOD STOP STOP CALLER "
        },
        "methodIdentifiers": {
          "LINK_token()": "592756a1",
          "VRF_Coordinator()": "297cf74c",
          "fee()": "ddca3f43",
          "getRandomNumber()": "dbdff2c1",
          "keyHash()": "61728f39",
          "randomResult()": "42619f66",
          "rawFulfillRandomness(bytes32,uint256)": "94985ddd"
        }
      }
    }
  }
}