{
  "_format": "hh-sol-artifact-1",
  "contractName": "DeepEye",
  "sourceName": "contracts/DeepEye.sol",
  "abi": [
    {
      "inputs": [
        {
          "internalType": "string",
          "name": "_name",
          "type": "string"
        },
        {
          "internalType": "string",
          "name": "_symbol",
          "type": "string"
        },
        {
          "internalType": "string",
          "name": "_initBaseURI",
          "type": "string"
        },
        {
          "internalType": "string",
          "name": "_initNotRevealedUri",
          "type": "string"
        }
      ],
      "stateMutability": "nonpayable",
      "type": "constructor"
    },
    {
      "anonymous": false,
      "inputs": [
        {
          "indexed": true,
          "internalType": "address",
          "name": "owner",
          "type": "address"
        },
        {
          "indexed": true,
          "internalType": "address",
          "name": "approved",
          "type": "address"
        },
        {
          "indexed": true,
          "internalType": "uint256",
          "name": "tokenId",
          "type": "uint256"
        }
      ],
      "name": "Approval",
      "type": "event"
    },
    {
      "anonymous": false,
      "inputs": [
        {
          "indexed": true,
          "internalType": "address",
          "name": "owner",
          "type": "address"
        },
        {
          "indexed": true,
          "internalType": "address",
          "name": "operator",
          "type": "address"
        },
        {
          "indexed": false,
          "internalType": "bool",
          "name": "approved",
          "type": "bool"
        }
      ],
      "name": "ApprovalForAll",
      "type": "event"
    },
    {
      "anonymous": false,
      "inputs": [
        {
          "indexed": true,
          "internalType": "uint32",
          "name": "result",
          "type": "uint32"
        }
      ],
      "name": "DiceLanded",
      "type": "event"
    },
    {
      "anonymous": false,
      "inputs": [],
      "name": "DiceRolled",
      "type": "event"
    },
    {
      "anonymous": false,
      "inputs": [
        {
          "indexed": true,
          "internalType": "address",
          "name": "previousOwner",
          "type": "address"
        },
        {
          "indexed": true,
          "internalType": "address",
          "name": "newOwner",
          "type": "address"
        }
      ],
      "name": "OwnershipTransferred",
      "type": "event"
    },
    {
      "anonymous": false,
      "inputs": [
        {
          "indexed": true,
          "internalType": "address",
          "name": "from",
          "type": "address"
        },
        {
          "indexed": true,
          "internalType": "address",
          "name": "to",
          "type": "address"
        },
        {
          "indexed": true,
          "internalType": "uint256",
          "name": "tokenId",
          "type": "uint256"
        }
      ],
      "name": "Transfer",
      "type": "event"
    },
    {
      "inputs": [],
      "name": "LINK_token",
      "outputs": [
        {
          "internalType": "address",
          "name": "",
          "type": "address"
        }
      ],
      "stateMutability": "view",
      "type": "function"
    },
    {
      "inputs": [],
      "name": "VRF_Coordinator",
      "outputs": [
        {
          "internalType": "address",
          "name": "",
          "type": "address"
        }
      ],
      "stateMutability": "view",
      "type": "function"
    },
    {
      "inputs": [
        {
          "internalType": "address",
          "name": "to",
          "type": "address"
        },
        {
          "internalType": "uint256",
          "name": "tokenId",
          "type": "uint256"
        }
      ],
      "name": "approve",
      "outputs": [],
      "stateMutability": "nonpayable",
      "type": "function"
    },
    {
      "inputs": [
        {
          "internalType": "address",
          "name": "owner",
          "type": "address"
        }
      ],
      "name": "balanceOf",
      "outputs": [
        {
          "internalType": "uint256",
          "name": "",
          "type": "uint256"
        }
      ],
      "stateMutability": "view",
      "type": "function"
    },
    {
      "inputs": [],
      "name": "baseExtension",
      "outputs": [
        {
          "internalType": "string",
          "name": "",
          "type": "string"
        }
      ],
      "stateMutability": "view",
      "type": "function"
    },
    {
      "inputs": [],
      "name": "chainlink",
      "outputs": [
        {
          "internalType": "contract IERC20",
          "name": "",
          "type": "address"
        }
      ],
      "stateMutability": "view",
      "type": "function"
    },
    {
      "inputs": [],
      "name": "cost",
      "outputs": [
        {
          "internalType": "uint256",
          "name": "",
          "type": "uint256"
        }
      ],
      "stateMutability": "view",
      "type": "function"
    },
    {
      "inputs": [],
      "name": "fee",
      "outputs": [
        {
          "internalType": "uint256",
          "name": "",
          "type": "uint256"
        }
      ],
      "stateMutability": "view",
      "type": "function"
    },
    {
      "inputs": [
        {
          "internalType": "uint256",
          "name": "tokenId",
          "type": "uint256"
        }
      ],
      "name": "getApproved",
      "outputs": [
        {
          "internalType": "address",
          "name": "",
          "type": "address"
        }
      ],
      "stateMutability": "view",
      "type": "function"
    },
    {
      "inputs": [],
      "name": "getBalance",
      "outputs": [
        {
          "internalType": "uint256",
          "name": "",
          "type": "uint256"
        }
      ],
      "stateMutability": "view",
      "type": "function"
    },
    {
      "inputs": [],
      "name": "getRandomNumber",
      "outputs": [
        {
          "internalType": "bytes32",
          "name": "requestId",
          "type": "bytes32"
        }
      ],
      "stateMutability": "nonpayable",
      "type": "function"
    },
    {
      "inputs": [
        {
          "internalType": "address",
          "name": "owner",
          "type": "address"
        },
        {
          "internalType": "address",
          "name": "operator",
          "type": "address"
        }
      ],
      "name": "isApprovedForAll",
      "outputs": [
        {
          "internalType": "bool",
          "name": "",
          "type": "bool"
        }
      ],
      "stateMutability": "view",
      "type": "function"
    },
    {
      "inputs": [],
      "name": "keyHash",
      "outputs": [
        {
          "internalType": "bytes32",
          "name": "",
          "type": "bytes32"
        }
      ],
      "stateMutability": "view",
      "type": "function"
    },
    {
      "inputs": [],
      "name": "maxMintAmount",
      "outputs": [
        {
          "internalType": "uint256",
          "name": "",
          "type": "uint256"
        }
      ],
      "stateMutability": "view",
      "type": "function"
    },
    {
      "inputs": [],
      "name": "maxSupply",
      "outputs": [
        {
          "internalType": "uint256",
          "name": "",
          "type": "uint256"
        }
      ],
      "stateMutability": "view",
      "type": "function"
    },
    {
      "inputs": [
        {
          "internalType": "uint256",
          "name": "_mintAmount",
          "type": "uint256"
        }
      ],
      "name": "mint",
      "outputs": [],
      "stateMutability": "payable",
      "type": "function"
    },
    {
      "inputs": [],
      "name": "name",
      "outputs": [
        {
          "internalType": "string",
          "name": "",
          "type": "string"
        }
      ],
      "stateMutability": "view",
      "type": "function"
    },
    {
      "inputs": [],
      "name": "notRevealedUri",
      "outputs": [
        {
          "internalType": "string",
          "name": "",
          "type": "string"
        }
      ],
      "stateMutability": "view",
      "type": "function"
    },
    {
      "inputs": [],
      "name": "owner",
      "outputs": [
        {
          "internalType": "address",
          "name": "",
          "type": "address"
        }
      ],
      "stateMutability": "view",
      "type": "function"
    },
    {
      "inputs": [
        {
          "internalType": "uint256",
          "name": "tokenId",
          "type": "uint256"
        }
      ],
      "name": "ownerOf",
      "outputs": [
        {
          "internalType": "address",
          "name": "",
          "type": "address"
        }
      ],
      "stateMutability": "view",
      "type": "function"
    },
    {
      "inputs": [
        {
          "internalType": "bool",
          "name": "_state",
          "type": "bool"
        }
      ],
      "name": "pause",
      "outputs": [],
      "stateMutability": "nonpayable",
      "type": "function"
    },
    {
      "inputs": [],
      "name": "paused",
      "outputs": [
        {
          "internalType": "bool",
          "name": "",
          "type": "bool"
        }
      ],
      "stateMutability": "view",
      "type": "function"
    },
    {
      "inputs": [
        {
          "internalType": "bytes32",
          "name": "requestId",
          "type": "bytes32"
        },
        {
          "internalType": "uint256",
          "name": "randomness",
          "type": "uint256"
        }
      ],
      "name": "rawFulfillRandomness",
      "outputs": [],
      "stateMutability": "nonpayable",
      "type": "function"
    },
    {
      "inputs": [],
      "name": "refundOwner",
      "outputs": [],
      "stateMutability": "payable",
      "type": "function"
    },
    {
      "inputs": [],
      "name": "renounceOwnership",
      "outputs": [],
      "stateMutability": "nonpayable",
      "type": "function"
    },
    {
      "inputs": [],
      "name": "reveal",
      "outputs": [],
      "stateMutability": "nonpayable",
      "type": "function"
    },
    {
      "inputs": [],
      "name": "revealed",
      "outputs": [
        {
          "internalType": "bool",
          "name": "",
          "type": "bool"
        }
      ],
      "stateMutability": "view",
      "type": "function"
    },
    {
      "inputs": [
        {
          "internalType": "address",
          "name": "from",
          "type": "address"
        },
        {
          "internalType": "address",
          "name": "to",
          "type": "address"
        },
        {
          "internalType": "uint256",
          "name": "tokenId",
          "type": "uint256"
        }
      ],
      "name": "safeTransferFrom",
      "outputs": [],
      "stateMutability": "nonpayable",
      "type": "function"
    },
    {
      "inputs": [
        {
          "internalType": "address",
          "name": "from",
          "type": "address"
        },
        {
          "internalType": "address",
          "name": "to",
          "type": "address"
        },
        {
          "internalType": "uint256",
          "name": "tokenId",
          "type": "uint256"
        },
        {
          "internalType": "bytes",
          "name": "_data",
          "type": "bytes"
        }
      ],
      "name": "safeTransferFrom",
      "outputs": [],
      "stateMutability": "nonpayable",
      "type": "function"
    },
    {
      "inputs": [
        {
          "internalType": "address",
          "name": "operator",
          "type": "address"
        },
        {
          "internalType": "bool",
          "name": "approved",
          "type": "bool"
        }
      ],
      "name": "setApprovalForAll",
      "outputs": [],
      "stateMutability": "nonpayable",
      "type": "function"
    },
    {
      "inputs": [
        {
          "internalType": "string",
          "name": "_newBaseExtension",
          "type": "string"
        }
      ],
      "name": "setBaseExtension",
      "outputs": [],
      "stateMutability": "nonpayable",
      "type": "function"
    },
    {
      "inputs": [
        {
          "internalType": "string",
          "name": "_newBaseURI",
          "type": "string"
        }
      ],
      "name": "setBaseURI",
      "outputs": [],
      "stateMutability": "nonpayable",
      "type": "function"
    },
    {
      "inputs": [
        {
          "internalType": "uint256",
          "name": "_newCost",
          "type": "uint256"
        }
      ],
      "name": "setCost",
      "outputs": [],
      "stateMutability": "nonpayable",
      "type": "function"
    },
    {
      "inputs": [
        {
          "internalType": "string",
          "name": "_notRevealedURI",
          "type": "string"
        }
      ],
      "name": "setNotRevealedURI",
      "outputs": [],
      "stateMutability": "nonpayable",
      "type": "function"
    },
    {
      "inputs": [
        {
          "internalType": "uint256",
          "name": "_newmaxMintAmount",
          "type": "uint256"
        }
      ],
      "name": "setmaxMintAmount",
      "outputs": [],
      "stateMutability": "nonpayable",
      "type": "function"
    },
    {
      "inputs": [
        {
          "internalType": "bytes4",
          "name": "interfaceId",
          "type": "bytes4"
        }
      ],
      "name": "supportsInterface",
      "outputs": [
        {
          "internalType": "bool",
          "name": "",
          "type": "bool"
        }
      ],
      "stateMutability": "view",
      "type": "function"
    },
    {
      "inputs": [],
      "name": "symbol",
      "outputs": [
        {
          "internalType": "string",
          "name": "",
          "type": "string"
        }
      ],
      "stateMutability": "view",
      "type": "function"
    },
    {
      "inputs": [
        {
          "internalType": "uint256",
          "name": "index",
          "type": "uint256"
        }
      ],
      "name": "tokenByIndex",
      "outputs": [
        {
          "internalType": "uint256",
          "name": "",
          "type": "uint256"
        }
      ],
      "stateMutability": "view",
      "type": "function"
    },
    {
      "inputs": [],
      "name": "tokenIdShifter",
      "outputs": [
        {
          "internalType": "uint32",
          "name": "",
          "type": "uint32"
        }
      ],
      "stateMutability": "view",
      "type": "function"
    },
    {
      "inputs": [
        {
          "internalType": "address",
          "name": "owner",
          "type": "address"
        },
        {
          "internalType": "uint256",
          "name": "index",
          "type": "uint256"
        }
      ],
      "name": "tokenOfOwnerByIndex",
      "outputs": [
        {
          "internalType": "uint256",
          "name": "",
          "type": "uint256"
        }
      ],
      "stateMutability": "view",
      "type": "function"
    },
    {
      "inputs": [
        {
          "internalType": "uint256",
          "name": "tokenId",
          "type": "uint256"
        }
      ],
      "name": "tokenURI",
      "outputs": [
        {
          "internalType": "string",
          "name": "",
          "type": "string"
        }
      ],
      "stateMutability": "view",
      "type": "function"
    },
    {
      "inputs": [],
      "name": "totalSupply",
      "outputs": [
        {
          "internalType": "uint256",
          "name": "",
          "type": "uint256"
        }
      ],
      "stateMutability": "view",
      "type": "function"
    },
    {
      "inputs": [
        {
          "internalType": "address",
          "name": "from",
          "type": "address"
        },
        {
          "internalType": "address",
          "name": "to",
          "type": "address"
        },
        {
          "internalType": "uint256",
          "name": "tokenId",
          "type": "uint256"
        }
      ],
      "name": "transferFrom",
      "outputs": [],
      "stateMutability": "nonpayable",
      "type": "function"
    },
    {
      "inputs": [
        {
          "internalType": "address",
          "name": "newOwner",
          "type": "address"
        }
      ],
      "name": "transferOwnership",
      "outputs": [],
      "stateMutability": "nonpayable",
      "type": "function"
    },
    {
      "inputs": [],
      "name": "withdraw",
      "outputs": [],
      "stateMutability": "payable",
      "type": "function"
    }
  ],
  "bytecode": "0x60c060405273b3dccb4cf7a26f6cf6b120cf5a73875b7bbc655b600d60006101000a81548173ffffffffffffffffffffffffffffffffffffffff021916908373ffffffffffffffffffffffffffffffffffffffff1602179055507f2ed0feb3e7fd2022120aa84fab1945545a9f2ffc9076fd6156fa96eaff4c131160001b600e557301be23585060835e02b77ef475b0cc51aa1e0709600f60006101000a81548173ffffffffffffffffffffffffffffffffffffffff021916908373ffffffffffffffffffffffffffffffffffffffff16021790555067016345785d8a00006010556040518060400160405280600581526020017f2e6a736f6e000000000000000000000000000000000000000000000000000000815250601290805190602001906200012e92919062000596565b5066b1a2bc2ec50000601355606460145560036015556000601660006101000a81548160ff0219169083151502179055506000601660016101000a81548160ff0219169083151502179055503480156200018757600080fd5b50604051620057e6380380620057e68339818101604052810190620001ad9190620006b8565b8383600d60009054906101000a900473ffffffffffffffffffffffffffffffffffffffff16600f60009054906101000a900473ffffffffffffffffffffffffffffffffffffffff168173ffffffffffffffffffffffffffffffffffffffff1660a08173ffffffffffffffffffffffffffffffffffffffff1660601b815250508073ffffffffffffffffffffffffffffffffffffffff1660808173ffffffffffffffffffffffffffffffffffffffff1660601b81525050505081600190805190602001906200027d92919062000596565b5080600290805190602001906200029692919062000596565b505050620002b9620002ad6200034860201b60201c565b6200035060201b60201c565b600f60009054906101000a900473ffffffffffffffffffffffffffffffffffffffff16600c60006101000a81548173ffffffffffffffffffffffffffffffffffffffff021916908373ffffffffffffffffffffffffffffffffffffffff1602179055506200032d826200041660201b60201c565b6200033e81620004c160201b60201c565b505050506200092e565b600033905090565b6000600b60009054906101000a900473ffffffffffffffffffffffffffffffffffffffff16905081600b60006101000a81548173ffffffffffffffffffffffffffffffffffffffff021916908373ffffffffffffffffffffffffffffffffffffffff1602179055508173ffffffffffffffffffffffffffffffffffffffff168173ffffffffffffffffffffffffffffffffffffffff167f8be0079c531659141344cd1fd0a4f28419497f9722a3daafe3b4186f6b6457e060405160405180910390a35050565b620004266200034860201b60201c565b73ffffffffffffffffffffffffffffffffffffffff166200044c6200056c60201b60201c565b73ffffffffffffffffffffffffffffffffffffffff1614620004a5576040517f08c379a00000000000000000000000000000000000000000000000000000000081526004016200049c90620007ca565b60405180910390fd5b8060119080519060200190620004bd92919062000596565b5050565b620004d16200034860201b60201c565b73ffffffffffffffffffffffffffffffffffffffff16620004f76200056c60201b60201c565b73ffffffffffffffffffffffffffffffffffffffff161462000550576040517f08c379a00000000000000000000000000000000000000000000000000000000081526004016200054790620007ca565b60405180910390fd5b80601790805190602001906200056892919062000596565b5050565b6000600b60009054906101000a900473ffffffffffffffffffffffffffffffffffffffff16905090565b828054620005a4906200089a565b90600052602060002090601f016020900481019282620005c8576000855562000614565b82601f10620005e357805160ff191683800117855562000614565b8280016001018555821562000614579182015b8281111562000613578251825591602001919060010190620005f6565b5b50905062000623919062000627565b5090565b5b808211156200064257600081600090555060010162000628565b5090565b60006200065d620006578462000820565b620007ec565b9050828152602081018484840111156200067657600080fd5b6200068384828562000864565b509392505050565b600082601f8301126200069d57600080fd5b8151620006af84826020860162000646565b91505092915050565b60008060008060808587031215620006cf57600080fd5b600085015167ffffffffffffffff811115620006ea57600080fd5b620006f8878288016200068b565b945050602085015167ffffffffffffffff8111156200071657600080fd5b62000724878288016200068b565b935050604085015167ffffffffffffffff8111156200074257600080fd5b62000750878288016200068b565b925050606085015167ffffffffffffffff8111156200076e57600080fd5b6200077c878288016200068b565b91505092959194509250565b60006200079760208362000853565b91507f4f776e61626c653a2063616c6c6572206973206e6f7420746865206f776e65726000830152602082019050919050565b60006020820190508181036000830152620007e58162000788565b9050919050565b6000604051905081810181811067ffffffffffffffff82111715620008165762000815620008ff565b5b8060405250919050565b600067ffffffffffffffff8211156200083e576200083d620008ff565b5b601f19601f8301169050602081019050919050565b600082825260208201905092915050565b60005b838110156200088457808201518184015260208101905062000867565b8381111562000894576000848401525b50505050565b60006002820490506001821680620008b357607f821691505b60208210811415620008ca57620008c9620008d0565b5b50919050565b7f4e487b7100000000000000000000000000000000000000000000000000000000600052602260045260246000fd5b7f4e487b7100000000000000000000000000000000000000000000000000000000600052604160045260246000fd5b60805160601c60a05160601c614e7e62000968600039600081816116e00152612b5f015260008181611f180152612b230152614e7e6000f3fe6080604052600436106102725760003560e01c806361728f391161014f578063a22cb465116100c1578063da3ef23f1161007a578063da3ef23f146108f5578063dbdff2c11461091e578063ddca3f4314610949578063e985e9c514610974578063f2c4ce1e146109b1578063f2fde38b146109da57610272565b8063a22cb465146107f9578063a475b5dd14610822578063b88d4fde14610839578063c668286214610862578063c87b56dd1461088d578063d5abeb01146108ca57610272565b80638c47ddcc116101135780638c47ddcc146107295780638da5cb5b1461073357806394985ddd1461075e57806395d89b41146107875780639c3feeb7146107b2578063a0712d68146107dd57610272565b806361728f39146106445780636352211e1461066f57806370a08231146106ac578063715018a6146106e95780637f00c7a61461070057610272565b8063297cf74c116101e857806344a0d68a116101ac57806344a0d68a146105345780634f6ccce71461055d578063518302271461059a57806355f804b3146105c5578063592756a1146105ee5780635c975abb1461061957610272565b8063297cf74c1461046e57806329c16f4c146104995780632f745c59146104c45780633ccfd60b1461050157806342842e0e1461050b57610272565b8063095ea7b31161023a578063095ea7b31461037057806312065fe01461039957806313faede6146103c457806318160ddd146103ef578063239c70ae1461041a57806323b872dd1461044557610272565b806301ffc9a71461027757806302329a29146102b457806306fdde03146102dd578063081812fc14610308578063081c8c4414610345575b600080fd5b34801561028357600080fd5b5061029e60048036038101906102999190613a0b565b610a03565b6040516102ab9190614594565b60405180910390f35b3480156102c057600080fd5b506102db60048036038101906102d6919061397d565b610a7d565b005b3480156102e957600080fd5b506102f2610b16565b6040516102ff9190614653565b60405180910390f35b34801561031457600080fd5b5061032f600480360381019061032a9190613a9e565b610ba8565b60405161033c91906144c6565b60405180910390f35b34801561035157600080fd5b5061035a610c2d565b6040516103679190614653565b60405180910390f35b34801561037c57600080fd5b5061039760048036038101906103929190613941565b610cbb565b005b3480156103a557600080fd5b506103ae610dd3565b6040516103bb9190614915565b60405180910390f35b3480156103d057600080fd5b506103d9610e85565b6040516103e69190614915565b60405180910390f35b3480156103fb57600080fd5b50610404610e8b565b6040516104119190614915565b60405180910390f35b34801561042657600080fd5b5061042f610e98565b60405161043c9190614915565b60405180910390f35b34801561045157600080fd5b5061046c6004803603810190610467919061383b565b610e9e565b005b34801561047a57600080fd5b50610483610efe565b60405161049091906144c6565b60405180910390f35b3480156104a557600080fd5b506104ae610f24565b6040516104bb9190614930565b60405180910390f35b3480156104d057600080fd5b506104eb60048036038101906104e69190613941565b610f3a565b6040516104f89190614915565b60405180910390f35b610509610fdf565b005b34801561051757600080fd5b50610532600480360381019061052d919061383b565b6110db565b005b34801561054057600080fd5b5061055b60048036038101906105569190613a9e565b6110fb565b005b34801561056957600080fd5b50610584600480360381019061057f9190613a9e565b611181565b6040516105919190614915565b60405180910390f35b3480156105a657600080fd5b506105af611218565b6040516105bc9190614594565b60405180910390f35b3480156105d157600080fd5b506105ec60048036038101906105e79190613a5d565b61122b565b005b3480156105fa57600080fd5b506106036112c1565b60405161061091906144c6565b60405180910390f35b34801561062557600080fd5b5061062e6112e7565b60405161063b9190614594565b60405180910390f35b34801561065057600080fd5b506106596112fa565b60405161066691906145af565b60405180910390f35b34801561067b57600080fd5b5061069660048036038101906106919190613a9e565b611300565b6040516106a391906144c6565b60405180910390f35b3480156106b857600080fd5b506106d360048036038101906106ce91906137d6565b6113b2565b6040516106e09190614915565b60405180910390f35b3480156106f557600080fd5b506106fe61146a565b005b34801561070c57600080fd5b5061072760048036038101906107229190613a9e565b6114f2565b005b610731611578565b005b34801561073f57600080fd5b506107486116b4565b60405161075591906144c6565b60405180910390f35b34801561076a57600080fd5b50610785600480360381019061078091906139cf565b6116de565b005b34801561079357600080fd5b5061079c61177a565b6040516107a99190614653565b60405180910390f35b3480156107be57600080fd5b506107c761180c565b6040516107d49190614638565b60405180910390f35b6107f760048036038101906107f29190613a9e565b611832565b005b34801561080557600080fd5b50610820600480360381019061081b9190613905565b611954565b005b34801561082e57600080fd5b50610837611ad5565b005b34801561084557600080fd5b50610860600480360381019061085b919061388a565b611b6e565b005b34801561086e57600080fd5b50610877611bd0565b6040516108849190614653565b60405180910390f35b34801561089957600080fd5b506108b460048036038101906108af9190613a9e565b611c5e565b6040516108c19190614653565b60405180910390f35b3480156108d657600080fd5b506108df611df9565b6040516108ec9190614915565b60405180910390f35b34801561090157600080fd5b5061091c60048036038101906109179190613a5d565b611dff565b005b34801561092a57600080fd5b50610933611e95565b60405161094091906145af565b60405180910390f35b34801561095557600080fd5b5061095e61203f565b60405161096b9190614915565b60405180910390f35b34801561098057600080fd5b5061099b600480360381019061099691906137ff565b612045565b6040516109a89190614594565b60405180910390f35b3480156109bd57600080fd5b506109d860048036038101906109d39190613a5d565b6120d9565b005b3480156109e657600080fd5b50610a0160048036038101906109fc91906137d6565b61216f565b005b60007f780e9d63000000000000000000000000000000000000000000000000000000007bffffffffffffffffffffffffffffffffffffffffffffffffffffffff1916827bffffffffffffffffffffffffffffffffffffffffffffffffffffffff19161480610a765750610a7582612267565b5b9050919050565b610a85612349565b73ffffffffffffffffffffffffffffffffffffffff16610aa36116b4565b73ffffffffffffffffffffffffffffffffffffffff1614610af9576040517f08c379a0000000000000000000000000000000000000000000000000000000008152600401610af090614855565b60405180910390fd5b80601660006101000a81548160ff02191690831515021790555050565b606060018054610b2590614c48565b80601f0160208091040260200160405190810160405280929190818152602001828054610b5190614c48565b8015610b9e5780601f10610b7357610100808354040283529160200191610b9e565b820191906000526020600020905b815481529060010190602001808311610b8157829003601f168201915b5050505050905090565b6000610bb382612351565b610bf2576040517f08c379a0000000000000000000000000000000000000000000000000000000008152600401610be990614835565b60405180910390fd5b6005600083815260200190815260200160002060009054906101000a900473ffffffffffffffffffffffffffffffffffffffff169050919050565b60178054610c3a90614c48565b80601f0160208091040260200160405190810160405280929190818152602001828054610c6690614c48565b8015610cb35780601f10610c8857610100808354040283529160200191610cb3565b820191906000526020600020905b815481529060010190602001808311610c9657829003601f168201915b505050505081565b6000610cc682611300565b90508073ffffffffffffffffffffffffffffffffffffffff168373ffffffffffffffffffffffffffffffffffffffff161415610d37576040517f08c379a0000000000000000000000000000000000000000000000000000000008152600401610d2e906148b5565b60405180910390fd5b8073ffffffffffffffffffffffffffffffffffffffff16610d56612349565b73ffffffffffffffffffffffffffffffffffffffff161480610d855750610d8481610d7f612349565b612045565b5b610dc4576040517f08c379a0000000000000000000000000000000000000000000000000000000008152600401610dbb906147b5565b60405180910390fd5b610dce83836123bd565b505050565b6000600c60009054906101000a900473ffffffffffffffffffffffffffffffffffffffff1673ffffffffffffffffffffffffffffffffffffffff166370a08231306040518263ffffffff1660e01b8152600401610e3091906144c6565b60206040518083038186803b158015610e4857600080fd5b505afa158015610e5c573d6000803e3d6000fd5b505050506040513d601f19601f82011682018060405250810190610e809190613ac7565b905090565b60135481565b6000600980549050905090565b60155481565b610eaf610ea9612349565b82612476565b610eee576040517f08c379a0000000000000000000000000000000000000000000000000000000008152600401610ee5906148d5565b60405180910390fd5b610ef9838383612554565b505050565b600d60009054906101000a900473ffffffffffffffffffffffffffffffffffffffff1681565b600b60149054906101000a900463ffffffff1681565b6000610f45836113b2565b8210610f86576040517f08c379a0000000000000000000000000000000000000000000000000000000008152600401610f7d90614695565b60405180910390fd5b600760008473ffffffffffffffffffffffffffffffffffffffff1673ffffffffffffffffffffffffffffffffffffffff168152602001908152602001600020600083815260200190815260200160002054905092915050565b610fe7612349565b73ffffffffffffffffffffffffffffffffffffffff166110056116b4565b73ffffffffffffffffffffffffffffffffffffffff161461105b576040517f08c379a000000000000000000000000000000000000000000000000000000000815260040161105290614855565b60405180910390fd5b60006110656116b4565b73ffffffffffffffffffffffffffffffffffffffff1647604051611088906144b1565b60006040518083038185875af1925050503d80600081146110c5576040519150601f19603f3d011682016040523d82523d6000602084013e6110ca565b606091505b50509050806110d857600080fd5b50565b6110f683838360405180602001604052806000815250611b6e565b505050565b611103612349565b73ffffffffffffffffffffffffffffffffffffffff166111216116b4565b73ffffffffffffffffffffffffffffffffffffffff1614611177576040517f08c379a000000000000000000000000000000000000000000000000000000000815260040161116e90614855565b60405180910390fd5b8060138190555050565b600061118b610e8b565b82106111cc576040517f08c379a00000000000000000000000000000000000000000000000000000000081526004016111c3906148f5565b60405180910390fd5b60098281548110611206577f4e487b7100000000000000000000000000000000000000000000000000000000600052603260045260246000fd5b90600052602060002001549050919050565b601660019054906101000a900460ff1681565b611233612349565b73ffffffffffffffffffffffffffffffffffffffff166112516116b4565b73ffffffffffffffffffffffffffffffffffffffff16146112a7576040517f08c379a000000000000000000000000000000000000000000000000000000000815260040161129e90614855565b60405180910390fd5b80601190805190602001906112bd9291906135bb565b5050565b600f60009054906101000a900473ffffffffffffffffffffffffffffffffffffffff1681565b601660009054906101000a900460ff1681565b600e5481565b6000806003600084815260200190815260200160002060009054906101000a900473ffffffffffffffffffffffffffffffffffffffff169050600073ffffffffffffffffffffffffffffffffffffffff168173ffffffffffffffffffffffffffffffffffffffff1614156113a9576040517f08c379a00000000000000000000000000000000000000000000000000000000081526004016113a0906147f5565b60405180910390fd5b80915050919050565b60008073ffffffffffffffffffffffffffffffffffffffff168273ffffffffffffffffffffffffffffffffffffffff161415611423576040517f08c379a000000000000000000000000000000000000000000000000000000000815260040161141a906147d5565b60405180910390fd5b600460008373ffffffffffffffffffffffffffffffffffffffff1673ffffffffffffffffffffffffffffffffffffffff168152602001908152602001600020549050919050565b611472612349565b73ffffffffffffffffffffffffffffffffffffffff166114906116b4565b73ffffffffffffffffffffffffffffffffffffffff16146114e6576040517f08c379a00000000000000000000000000000000000000000000000000000000081526004016114dd90614855565b60405180910390fd5b6114f060006127b0565b565b6114fa612349565b73ffffffffffffffffffffffffffffffffffffffff166115186116b4565b73ffffffffffffffffffffffffffffffffffffffff161461156e576040517f08c379a000000000000000000000000000000000000000000000000000000000815260040161156590614855565b60405180910390fd5b8060158190555050565b611580612349565b73ffffffffffffffffffffffffffffffffffffffff1661159e6116b4565b73ffffffffffffffffffffffffffffffffffffffff16146115f4576040517f08c379a00000000000000000000000000000000000000000000000000000000081526004016115eb90614855565b60405180910390fd5b600c60009054906101000a900473ffffffffffffffffffffffffffffffffffffffff1673ffffffffffffffffffffffffffffffffffffffff1663a9059cbb61163a6116b4565b611642610dd3565b6040518363ffffffff1660e01b815260040161165f92919061452d565b602060405180830381600087803b15801561167957600080fd5b505af115801561168d573d6000803e3d6000fd5b505050506040513d601f19601f820116820180604052508101906116b191906139a6565b50565b6000600b60009054906101000a900473ffffffffffffffffffffffffffffffffffffffff16905090565b7f000000000000000000000000000000000000000000000000000000000000000073ffffffffffffffffffffffffffffffffffffffff163373ffffffffffffffffffffffffffffffffffffffff161461176c576040517f08c379a000000000000000000000000000000000000000000000000000000000815260040161176390614895565b60405180910390fd5b6117768282612876565b5050565b60606002805461178990614c48565b80601f01602080910402602001604051908101604052809291908181526020018280546117b590614c48565b80156118025780601f106117d757610100808354040283529160200191611802565b820191906000526020600020905b8154815290600101906020018083116117e557829003601f168201915b5050505050905090565b600c60009054906101000a900473ffffffffffffffffffffffffffffffffffffffff1681565b600061183c610e8b565b9050601660009054906101000a900460ff161561185857600080fd5b6000821161186557600080fd5b60155482111561187457600080fd5b60145482826118839190614a3f565b111561188e57600080fd5b6118966116b4565b73ffffffffffffffffffffffffffffffffffffffff163373ffffffffffffffffffffffffffffffffffffffff161461191957816013546118d69190614ac6565b341015611918576040517f08c379a000000000000000000000000000000000000000000000000000000000815260040161190f90614675565b60405180910390fd5b5b6000600190505b82811161194f5761193c3382846119379190614a3f565b6128f8565b808061194790614c7a565b915050611920565b505050565b61195c612349565b73ffffffffffffffffffffffffffffffffffffffff168273ffffffffffffffffffffffffffffffffffffffff1614156119ca576040517f08c379a00000000000000000000000000000000000000000000000000000000081526004016119c190614735565b60405180910390fd5b80600660006119d7612349565b73ffffffffffffffffffffffffffffffffffffffff1673ffffffffffffffffffffffffffffffffffffffff16815260200190815260200160002060008473ffffffffffffffffffffffffffffffffffffffff1673ffffffffffffffffffffffffffffffffffffffff16815260200190815260200160002060006101000a81548160ff0219169083151502179055508173ffffffffffffffffffffffffffffffffffffffff16611a84612349565b73ffffffffffffffffffffffffffffffffffffffff167f17307eab39ab6107e8899845ad3d59bd9653f200f220920489ca2b5937696c3183604051611ac99190614594565b60405180910390a35050565b611add612349565b73ffffffffffffffffffffffffffffffffffffffff16611afb6116b4565b73ffffffffffffffffffffffffffffffffffffffff1614611b51576040517f08c379a0000000000000000000000000000000000000000000000000000000008152600401611b4890614855565b60405180910390fd5b6001601660016101000a81548160ff021916908315150217905550565b611b7f611b79612349565b83612476565b611bbe576040517f08c379a0000000000000000000000000000000000000000000000000000000008152600401611bb5906148d5565b60405180910390fd5b611bca84848484612916565b50505050565b60128054611bdd90614c48565b80601f0160208091040260200160405190810160405280929190818152602001828054611c0990614c48565b8015611c565780601f10611c2b57610100808354040283529160200191611c56565b820191906000526020600020905b815481529060010190602001808311611c3957829003601f168201915b505050505081565b6060611c6982612351565b611ca8576040517f08c379a0000000000000000000000000000000000000000000000000000000008152600401611c9f90614795565b60405180910390fd5b60001515601660019054906101000a900460ff1615151415611d565760178054611cd190614c48565b80601f0160208091040260200160405190810160405280929190818152602001828054611cfd90614c48565b8015611d4a5780601f10611d1f57610100808354040283529160200191611d4a565b820191906000526020600020905b815481529060010190602001808311611d2d57829003601f168201915b50505050509050611df4565b600060016064600b60149054906101000a900463ffffffff1663ffffffff1685611d809190614a3f565b611d8a9190614cd7565b611d949190614a3f565b9050600060118054611da590614c48565b905011611dc15760405180602001604052806000815250611df0565b6011611dcc82612972565b6012604051602001611de093929190614480565b6040516020818303038152906040525b9150505b919050565b60145481565b611e07612349565b73ffffffffffffffffffffffffffffffffffffffff16611e256116b4565b73ffffffffffffffffffffffffffffffffffffffff1614611e7b576040517f08c379a0000000000000000000000000000000000000000000000000000000008152600401611e7290614855565b60405180910390fd5b8060129080519060200190611e919291906135bb565b5050565b6000611e9f612349565b73ffffffffffffffffffffffffffffffffffffffff16611ebd6116b4565b73ffffffffffffffffffffffffffffffffffffffff1614611f13576040517f08c379a0000000000000000000000000000000000000000000000000000000008152600401611f0a90614855565b60405180910390fd5b6010547f000000000000000000000000000000000000000000000000000000000000000073ffffffffffffffffffffffffffffffffffffffff166370a08231306040518263ffffffff1660e01b8152600401611f6f91906144c6565b60206040518083038186803b158015611f8757600080fd5b505afa158015611f9b573d6000803e3d6000fd5b505050506040513d601f19601f82011682018060405250810190611fbf9190613ac7565b1015612000576040517f08c379a0000000000000000000000000000000000000000000000000000000008152600401611ff790614755565b60405180910390fd5b7f48ed86bcf5a9db215d430a3d797d5fd900be09379a002b6f37891bd2aacbe5cf60405160405180910390a161203a600e54601054612b1f565b905090565b60105481565b6000600660008473ffffffffffffffffffffffffffffffffffffffff1673ffffffffffffffffffffffffffffffffffffffff16815260200190815260200160002060008373ffffffffffffffffffffffffffffffffffffffff1673ffffffffffffffffffffffffffffffffffffffff16815260200190815260200160002060009054906101000a900460ff16905092915050565b6120e1612349565b73ffffffffffffffffffffffffffffffffffffffff166120ff6116b4565b73ffffffffffffffffffffffffffffffffffffffff1614612155576040517f08c379a000000000000000000000000000000000000000000000000000000000815260040161214c90614855565b60405180910390fd5b806017908051906020019061216b9291906135bb565b5050565b612177612349565b73ffffffffffffffffffffffffffffffffffffffff166121956116b4565b73ffffffffffffffffffffffffffffffffffffffff16146121eb576040517f08c379a00000000000000000000000000000000000000000000000000000000081526004016121e290614855565b60405180910390fd5b600073ffffffffffffffffffffffffffffffffffffffff168173ffffffffffffffffffffffffffffffffffffffff16141561225b576040517f08c379a0000000000000000000000000000000000000000000000000000000008152600401612252906146d5565b60405180910390fd5b612264816127b0565b50565b60007f80ac58cd000000000000000000000000000000000000000000000000000000007bffffffffffffffffffffffffffffffffffffffffffffffffffffffff1916827bffffffffffffffffffffffffffffffffffffffffffffffffffffffff1916148061233257507f5b5e139f000000000000000000000000000000000000000000000000000000007bffffffffffffffffffffffffffffffffffffffffffffffffffffffff1916827bffffffffffffffffffffffffffffffffffffffffffffffffffffffff1916145b80612342575061234182612c7e565b5b9050919050565b600033905090565b60008073ffffffffffffffffffffffffffffffffffffffff166003600084815260200190815260200160002060009054906101000a900473ffffffffffffffffffffffffffffffffffffffff1673ffffffffffffffffffffffffffffffffffffffff1614159050919050565b816005600083815260200190815260200160002060006101000a81548173ffffffffffffffffffffffffffffffffffffffff021916908373ffffffffffffffffffffffffffffffffffffffff160217905550808273ffffffffffffffffffffffffffffffffffffffff1661243083611300565b73ffffffffffffffffffffffffffffffffffffffff167f8c5be1e5ebec7d5bd14f71427d1e84f3dd0314c0f7b2291e5b200ac8c7c3b92560405160405180910390a45050565b600061248182612351565b6124c0576040517f08c379a00000000000000000000000000000000000000000000000000000000081526004016124b790614775565b60405180910390fd5b60006124cb83611300565b90508073ffffffffffffffffffffffffffffffffffffffff168473ffffffffffffffffffffffffffffffffffffffff16148061253a57508373ffffffffffffffffffffffffffffffffffffffff1661252284610ba8565b73ffffffffffffffffffffffffffffffffffffffff16145b8061254b575061254a8185612045565b5b91505092915050565b8273ffffffffffffffffffffffffffffffffffffffff1661257482611300565b73ffffffffffffffffffffffffffffffffffffffff16146125ca576040517f08c379a00000000000000000000000000000000000000000000000000000000081526004016125c190614875565b60405180910390fd5b600073ffffffffffffffffffffffffffffffffffffffff168273ffffffffffffffffffffffffffffffffffffffff16141561263a576040517f08c379a000000000000000000000000000000000000000000000000000000000815260040161263190614715565b60405180910390fd5b612645838383612ce8565b6126506000826123bd565b6001600460008573ffffffffffffffffffffffffffffffffffffffff1673ffffffffffffffffffffffffffffffffffffffff16815260200190815260200160002060008282546126a09190614b20565b925050819055506001600460008473ffffffffffffffffffffffffffffffffffffffff1673ffffffffffffffffffffffffffffffffffffffff16815260200190815260200160002060008282546126f79190614a3f565b92505081905550816003600083815260200190815260200160002060006101000a81548173ffffffffffffffffffffffffffffffffffffffff021916908373ffffffffffffffffffffffffffffffffffffffff160217905550808273ffffffffffffffffffffffffffffffffffffffff168473ffffffffffffffffffffffffffffffffffffffff167fddf252ad1be2c89b69c2b068fc378daa952ba7f163c4a11628f55a4df523b3ef60405160405180910390a4505050565b6000600b60009054906101000a900473ffffffffffffffffffffffffffffffffffffffff16905081600b60006101000a81548173ffffffffffffffffffffffffffffffffffffffff021916908373ffffffffffffffffffffffffffffffffffffffff1602179055508173ffffffffffffffffffffffffffffffffffffffff168173ffffffffffffffffffffffffffffffffffffffff167f8be0079c531659141344cd1fd0a4f28419497f9722a3daafe3b4186f6b6457e060405160405180910390a35050565b60016064826128859190614cd7565b61288f9190614a3f565b600b60146101000a81548163ffffffff021916908363ffffffff160217905550600b60149054906101000a900463ffffffff1663ffffffff167f2bd582160d7ca70bab6d6431d305b4e34063eab1c51b172dccba45d6f2ad52e160405160405180910390a25050565b612912828260405180602001604052806000815250612dfc565b5050565b612921848484612554565b61292d84848484612e57565b61296c576040517f08c379a0000000000000000000000000000000000000000000000000000000008152600401612963906146b5565b60405180910390fd5b50505050565b606060008214156129ba576040518060400160405280600181526020017f30000000000000000000000000000000000000000000000000000000000000008152509050612b1a565b600082905060005b600082146129ec5780806129d590614c7a565b915050600a826129e59190614a95565b91506129c2565b60008167ffffffffffffffff811115612a2e577f4e487b7100000000000000000000000000000000000000000000000000000000600052604160045260246000fd5b6040519080825280601f01601f191660200182016040528015612a605781602001600182028036833780820191505090505b5090505b60008514612b1357600182612a799190614b20565b9150600a85612a889190614cd7565b6030612a949190614a3f565b60f81b818381518110612ad0577f4e487b7100000000000000000000000000000000000000000000000000000000600052603260045260246000fd5b60200101907effffffffffffffffffffffffffffffffffffffffffffffffffffffffffffff1916908160001a905350600a85612b0c9190614a95565b9450612a64565b8093505050505b919050565b60007f000000000000000000000000000000000000000000000000000000000000000073ffffffffffffffffffffffffffffffffffffffff16634000aea07f000000000000000000000000000000000000000000000000000000000000000084866000604051602001612b939291906145ca565b6040516020818303038152906040526040518463ffffffff1660e01b8152600401612bc093929190614556565b602060405180830381600087803b158015612bda57600080fd5b505af1158015612bee573d6000803e3d6000fd5b505050506040513d601f19601f82011682018060405250810190612c1291906139a6565b506000612c348460003060008089815260200190815260200160002054612fee565b9050600160008086815260200190815260200160002054612c559190614a3f565b60008086815260200190815260200160002081905550612c75848261302a565b91505092915050565b60007f01ffc9a7000000000000000000000000000000000000000000000000000000007bffffffffffffffffffffffffffffffffffffffffffffffffffffffff1916827bffffffffffffffffffffffffffffffffffffffffffffffffffffffff1916149050919050565b612cf383838361305d565b600073ffffffffffffffffffffffffffffffffffffffff168373ffffffffffffffffffffffffffffffffffffffff161415612d3657612d3181613062565b612d75565b8173ffffffffffffffffffffffffffffffffffffffff168373ffffffffffffffffffffffffffffffffffffffff1614612d7457612d7383826130ab565b5b5b600073ffffffffffffffffffffffffffffffffffffffff168273ffffffffffffffffffffffffffffffffffffffff161415612db857612db381613218565b612df7565b8273ffffffffffffffffffffffffffffffffffffffff168273ffffffffffffffffffffffffffffffffffffffff1614612df657612df5828261335b565b5b5b505050565b612e0683836133da565b612e136000848484612e57565b612e52576040517f08c379a0000000000000000000000000000000000000000000000000000000008152600401612e49906146b5565b60405180910390fd5b505050565b6000612e788473ffffffffffffffffffffffffffffffffffffffff166135a8565b15612fe1578373ffffffffffffffffffffffffffffffffffffffff1663150b7a02612ea1612349565b8786866040518563ffffffff1660e01b8152600401612ec394939291906144e1565b602060405180830381600087803b158015612edd57600080fd5b505af1925050508015612f0e57506040513d601f19601f82011682018060405250810190612f0b9190613a34565b60015b612f91573d8060008114612f3e576040519150601f19603f3d011682016040523d82523d6000602084013e612f43565b606091505b50600081511415612f89576040517f08c379a0000000000000000000000000000000000000000000000000000000008152600401612f80906146b5565b60405180910390fd5b805181602001fd5b63150b7a0260e01b7bffffffffffffffffffffffffffffffffffffffffffffffffffffffff1916817bffffffffffffffffffffffffffffffffffffffffffffffffffffffff191614915050612fe6565b600190505b949350505050565b60008484848460405160200161300794939291906145f3565b6040516020818303038152906040528051906020012060001c9050949350505050565b6000828260405160200161303f929190614454565b60405160208183030381529060405280519060200120905092915050565b505050565b600980549050600a600083815260200190815260200160002081905550600981908060018154018082558091505060019003906000526020600020016000909190919091505550565b600060016130b8846113b2565b6130c29190614b20565b90506000600860008481526020019081526020016000205490508181146131a7576000600760008673ffffffffffffffffffffffffffffffffffffffff1673ffffffffffffffffffffffffffffffffffffffff168152602001908152602001600020600084815260200190815260200160002054905080600760008773ffffffffffffffffffffffffffffffffffffffff1673ffffffffffffffffffffffffffffffffffffffff168152602001908152602001600020600084815260200190815260200160002081905550816008600083815260200190815260200160002081905550505b6008600084815260200190815260200160002060009055600760008573ffffffffffffffffffffffffffffffffffffffff1673ffffffffffffffffffffffffffffffffffffffff16815260200190815260200160002060008381526020019081526020016000206000905550505050565b6000600160098054905061322c9190614b20565b90506000600a6000848152602001908152602001600020549050600060098381548110613282577f4e487b7100000000000000000000000000000000000000000000000000000000600052603260045260246000fd5b9060005260206000200154905080600983815481106132ca577f4e487b7100000000000000000000000000000000000000000000000000000000600052603260045260246000fd5b906000526020600020018190555081600a600083815260200190815260200160002081905550600a600085815260200190815260200160002060009055600980548061333f577f4e487b7100000000000000000000000000000000000000000000000000000000600052603160045260246000fd5b6001900381819060005260206000200160009055905550505050565b6000613366836113b2565b905081600760008573ffffffffffffffffffffffffffffffffffffffff1673ffffffffffffffffffffffffffffffffffffffff168152602001908152602001600020600083815260200190815260200160002081905550806008600084815260200190815260200160002081905550505050565b600073ffffffffffffffffffffffffffffffffffffffff168273ffffffffffffffffffffffffffffffffffffffff16141561344a576040517f08c379a000000000000000000000000000000000000000000000000000000000815260040161344190614815565b60405180910390fd5b61345381612351565b15613493576040517f08c379a000000000000000000000000000000000000000000000000000000000815260040161348a906146f5565b60405180910390fd5b61349f60008383612ce8565b6001600460008473ffffffffffffffffffffffffffffffffffffffff1673ffffffffffffffffffffffffffffffffffffffff16815260200190815260200160002060008282546134ef9190614a3f565b92505081905550816003600083815260200190815260200160002060006101000a81548173ffffffffffffffffffffffffffffffffffffffff021916908373ffffffffffffffffffffffffffffffffffffffff160217905550808273ffffffffffffffffffffffffffffffffffffffff16600073ffffffffffffffffffffffffffffffffffffffff167fddf252ad1be2c89b69c2b068fc378daa952ba7f163c4a11628f55a4df523b3ef60405160405180910390a45050565b600080823b905060008111915050919050565b8280546135c790614c48565b90600052602060002090601f0160209004810192826135e95760008555613630565b82601f1061360257805160ff1916838001178555613630565b82800160010185558215613630579182015b8281111561362f578251825591602001919060010190613614565b5b50905061363d9190613641565b5090565b5b8082111561365a576000816000905550600101613642565b5090565b600061367161366c8461497c565b61494b565b90508281526020810184848401111561368957600080fd5b613694848285614c06565b509392505050565b60006136af6136aa846149ac565b61494b565b9050828152602081018484840111156136c757600080fd5b6136d2848285614c06565b509392505050565b6000813590506136e981614dd5565b92915050565b6000813590506136fe81614dec565b92915050565b60008151905061371381614dec565b92915050565b60008135905061372881614e03565b92915050565b60008135905061373d81614e1a565b92915050565b60008151905061375281614e1a565b92915050565b600082601f83011261376957600080fd5b813561377984826020860161365e565b91505092915050565b600082601f83011261379357600080fd5b81356137a384826020860161369c565b91505092915050565b6000813590506137bb81614e31565b92915050565b6000815190506137d081614e31565b92915050565b6000602082840312156137e857600080fd5b60006137f6848285016136da565b91505092915050565b6000806040838503121561381257600080fd5b6000613820858286016136da565b9250506020613831858286016136da565b9150509250929050565b60008060006060848603121561385057600080fd5b600061385e868287016136da565b935050602061386f868287016136da565b9250506040613880868287016137ac565b9150509250925092565b600080600080608085870312156138a057600080fd5b60006138ae878288016136da565b94505060206138bf878288016136da565b93505060406138d0878288016137ac565b925050606085013567ffffffffffffffff8111156138ed57600080fd5b6138f987828801613758565b91505092959194509250565b6000806040838503121561391857600080fd5b6000613926858286016136da565b9250506020613937858286016136ef565b9150509250929050565b6000806040838503121561395457600080fd5b6000613962858286016136da565b9250506020613973858286016137ac565b9150509250929050565b60006020828403121561398f57600080fd5b600061399d848285016136ef565b91505092915050565b6000602082840312156139b857600080fd5b60006139c684828501613704565b91505092915050565b600080604083850312156139e257600080fd5b60006139f085828601613719565b9250506020613a01858286016137ac565b9150509250929050565b600060208284031215613a1d57600080fd5b6000613a2b8482850161372e565b91505092915050565b600060208284031215613a4657600080fd5b6000613a5484828501613743565b91505092915050565b600060208284031215613a6f57600080fd5b600082013567ffffffffffffffff811115613a8957600080fd5b613a9584828501613782565b91505092915050565b600060208284031215613ab057600080fd5b6000613abe848285016137ac565b91505092915050565b600060208284031215613ad957600080fd5b6000613ae7848285016137c1565b91505092915050565b613af981614b54565b82525050565b613b0881614b66565b82525050565b613b1781614b72565b82525050565b613b2e613b2982614b72565b614cc3565b82525050565b6000613b3f826149f1565b613b498185614a07565b9350613b59818560208601614c15565b613b6281614dc4565b840191505092915050565b613b7681614be2565b82525050565b6000613b87826149fc565b613b918185614a23565b9350613ba1818560208601614c15565b613baa81614dc4565b840191505092915050565b6000613bc0826149fc565b613bca8185614a34565b9350613bda818560208601614c15565b80840191505092915050565b60008154613bf381614c48565b613bfd8186614a34565b94506001821660008114613c185760018114613c2957613c5c565b60ff19831686528186019350613c5c565b613c32856149dc565b60005b83811015613c5457815481890152600182019150602081019050613c35565b838801955050505b50505092915050565b6000613c72601e83614a23565b91507f4e65656420746f2061747463682073756666696369656e742066756e647300006000830152602082019050919050565b6000613cb2602b83614a23565b91507f455243373231456e756d657261626c653a206f776e657220696e646578206f7560008301527f74206f6620626f756e64730000000000000000000000000000000000000000006020830152604082019050919050565b6000613d18603283614a23565b91507f4552433732313a207472616e7366657220746f206e6f6e20455243373231526560008301527f63656976657220696d706c656d656e74657200000000000000000000000000006020830152604082019050919050565b6000613d7e602683614a23565b91507f4f776e61626c653a206e6577206f776e657220697320746865207a65726f206160008301527f64647265737300000000000000000000000000000000000000000000000000006020830152604082019050919050565b6000613de4601c83614a23565b91507f4552433732313a20746f6b656e20616c7265616479206d696e746564000000006000830152602082019050919050565b6000613e24602483614a23565b91507f4552433732313a207472616e7366657220746f20746865207a65726f2061646460008301527f72657373000000000000000000000000000000000000000000000000000000006020830152604082019050919050565b6000613e8a601983614a23565b91507f4552433732313a20617070726f766520746f2063616c6c6572000000000000006000830152602082019050919050565b6000613eca602b83614a23565b91507f4e6f7420656e6f756768204c494e4b202d2066696c6c20636f6e74726163742060008301527f77697468206661756365740000000000000000000000000000000000000000006020830152604082019050919050565b6000613f30602c83614a23565b91507f4552433732313a206f70657261746f7220717565727920666f72206e6f6e657860008301527f697374656e7420746f6b656e00000000000000000000000000000000000000006020830152604082019050919050565b6000613f96604583614a23565b91507f4552433732314d657461646174613a2055524920717565727920666f72206e6f60008301527f6e6578697374656e7420746f6b656e202849742773206e6f74206d696e74656460208301527f20796574290000000000000000000000000000000000000000000000000000006040830152606082019050919050565b6000614022603883614a23565b91507f4552433732313a20617070726f76652063616c6c6572206973206e6f74206f7760008301527f6e6572206e6f7220617070726f76656420666f7220616c6c00000000000000006020830152604082019050919050565b6000614088602a83614a23565b91507f4552433732313a2062616c616e636520717565727920666f7220746865207a6560008301527f726f2061646472657373000000000000000000000000000000000000000000006020830152604082019050919050565b60006140ee602983614a23565b91507f4552433732313a206f776e657220717565727920666f72206e6f6e657869737460008301527f656e7420746f6b656e00000000000000000000000000000000000000000000006020830152604082019050919050565b6000614154602083614a23565b91507f4552433732313a206d696e7420746f20746865207a65726f20616464726573736000830152602082019050919050565b6000614194602c83614a23565b91507f4552433732313a20617070726f76656420717565727920666f72206e6f6e657860008301527f697374656e7420746f6b656e00000000000000000000000000000000000000006020830152604082019050919050565b60006141fa602083614a23565b91507f4f776e61626c653a2063616c6c6572206973206e6f7420746865206f776e65726000830152602082019050919050565b600061423a602983614a23565b91507f4552433732313a207472616e73666572206f6620746f6b656e2074686174206960008301527f73206e6f74206f776e00000000000000000000000000000000000000000000006020830152604082019050919050565b60006142a0601f83614a23565b91507f4f6e6c7920565246436f6f7264696e61746f722063616e2066756c66696c6c006000830152602082019050919050565b60006142e0602183614a23565b91507f4552433732313a20617070726f76616c20746f2063757272656e74206f776e6560008301527f72000000000000000000000000000000000000000000000000000000000000006020830152604082019050919050565b6000614346600083614a18565b9150600082019050919050565b6000614360603183614a23565b91507f4552433732313a207472616e736665722063616c6c6572206973206e6f74206f60008301527f776e6572206e6f7220617070726f7665640000000000000000000000000000006020830152604082019050919050565b60006143c6602c83614a23565b91507f455243373231456e756d657261626c653a20676c6f62616c20696e646578206f60008301527f7574206f6620626f756e647300000000000000000000000000000000000000006020830152604082019050919050565b61442881614bc8565b82525050565b61443f61443a82614bc8565b614ccd565b82525050565b61444e81614bd2565b82525050565b60006144608285613b1d565b602082019150614470828461442e565b6020820191508190509392505050565b600061448c8286613be6565b91506144988285613bb5565b91506144a48284613be6565b9150819050949350505050565b60006144bc82614339565b9150819050919050565b60006020820190506144db6000830184613af0565b92915050565b60006080820190506144f66000830187613af0565b6145036020830186613af0565b614510604083018561441f565b81810360608301526145228184613b34565b905095945050505050565b60006040820190506145426000830185613af0565b61454f602083018461441f565b9392505050565b600060608201905061456b6000830186613af0565b614578602083018561441f565b818103604083015261458a8184613b34565b9050949350505050565b60006020820190506145a96000830184613aff565b92915050565b60006020820190506145c46000830184613b0e565b92915050565b60006040820190506145df6000830185613b0e565b6145ec602083018461441f565b9392505050565b60006080820190506146086000830187613b0e565b614615602083018661441f565b6146226040830185613af0565b61462f606083018461441f565b95945050505050565b600060208201905061464d6000830184613b6d565b92915050565b6000602082019050818103600083015261466d8184613b7c565b905092915050565b6000602082019050818103600083015261468e81613c65565b9050919050565b600060208201905081810360008301526146ae81613ca5565b9050919050565b600060208201905081810360008301526146ce81613d0b565b9050919050565b600060208201905081810360008301526146ee81613d71565b9050919050565b6000602082019050818103600083015261470e81613dd7565b9050919050565b6000602082019050818103600083015261472e81613e17565b9050919050565b6000602082019050818103600083015261474e81613e7d565b9050919050565b6000602082019050818103600083015261476e81613ebd565b9050919050565b6000602082019050818103600083015261478e81613f23565b9050919050565b600060208201905081810360008301526147ae81613f89565b9050919050565b600060208201905081810360008301526147ce81614015565b9050919050565b600060208201905081810360008301526147ee8161407b565b9050919050565b6000602082019050818103600083015261480e816140e1565b9050919050565b6000602082019050818103600083015261482e81614147565b9050919050565b6000602082019050818103600083015261484e81614187565b9050919050565b6000602082019050818103600083015261486e816141ed565b9050919050565b6000602082019050818103600083015261488e8161422d565b9050919050565b600060208201905081810360008301526148ae81614293565b9050919050565b600060208201905081810360008301526148ce816142d3565b9050919050565b600060208201905081810360008301526148ee81614353565b9050919050565b6000602082019050818103600083015261490e816143b9565b9050919050565b600060208201905061492a600083018461441f565b92915050565b60006020820190506149456000830184614445565b92915050565b6000604051905081810181811067ffffffffffffffff8211171561497257614971614d95565b5b8060405250919050565b600067ffffffffffffffff82111561499757614996614d95565b5b601f19601f8301169050602081019050919050565b600067ffffffffffffffff8211156149c7576149c6614d95565b5b601f19601f8301169050602081019050919050565b60008190508160005260206000209050919050565b600081519050919050565b600081519050919050565b600082825260208201905092915050565b600081905092915050565b600082825260208201905092915050565b600081905092915050565b6000614a4a82614bc8565b9150614a5583614bc8565b9250827fffffffffffffffffffffffffffffffffffffffffffffffffffffffffffffffff03821115614a8a57614a89614d08565b5b828201905092915050565b6000614aa082614bc8565b9150614aab83614bc8565b925082614abb57614aba614d37565b5b828204905092915050565b6000614ad182614bc8565b9150614adc83614bc8565b9250817fffffffffffffffffffffffffffffffffffffffffffffffffffffffffffffffff0483118215151615614b1557614b14614d08565b5b828202905092915050565b6000614b2b82614bc8565b9150614b3683614bc8565b925082821015614b4957614b48614d08565b5b828203905092915050565b6000614b5f82614ba8565b9050919050565b60008115159050919050565b6000819050919050565b60007fffffffff0000000000000000000000000000000000000000000000000000000082169050919050565b600073ffffffffffffffffffffffffffffffffffffffff82169050919050565b6000819050919050565b600063ffffffff82169050919050565b6000614bed82614bf4565b9050919050565b6000614bff82614ba8565b9050919050565b82818337600083830152505050565b60005b83811015614c33578082015181840152602081019050614c18565b83811115614c42576000848401525b50505050565b60006002820490506001821680614c6057607f821691505b60208210811415614c7457614c73614d66565b5b50919050565b6000614c8582614bc8565b91507fffffffffffffffffffffffffffffffffffffffffffffffffffffffffffffffff821415614cb857614cb7614d08565b5b600182019050919050565b6000819050919050565b6000819050919050565b6000614ce282614bc8565b9150614ced83614bc8565b925082614cfd57614cfc614d37565b5b828206905092915050565b7f4e487b7100000000000000000000000000000000000000000000000000000000600052601160045260246000fd5b7f4e487b7100000000000000000000000000000000000000000000000000000000600052601260045260246000fd5b7f4e487b7100000000000000000000000000000000000000000000000000000000600052602260045260246000fd5b7f4e487b7100000000000000000000000000000000000000000000000000000000600052604160045260246000fd5b6000601f19601f8301169050919050565b614dde81614b54565b8114614de957600080fd5b50565b614df581614b66565b8114614e0057600080fd5b50565b614e0c81614b72565b8114614e1757600080fd5b50565b614e2381614b7c565b8114614e2e57600080fd5b50565b614e3a81614bc8565b8114614e4557600080fd5b5056fea26469706673582212208f46dd81e092c045a0c1948199effe40284420d28260d06309b58fa7502e5eef64736f6c63430008000033",
  "linkReferences": {},
  "deployedLinkReferences": {}
}