{
  "_format": "hh-sol-artifact-1",
  "contractName": "DeepEye",
  "sourceName": "contracts/DeepEye.sol",
  "abi": [
    {
      "inputs": [
        {
          "internalType": "string",
          "name": "_name",
          "type": "string"
        },
        {
          "internalType": "string",
          "name": "_symbol",
          "type": "string"
        },
        {
          "internalType": "string",
          "name": "_initBaseURI",
          "type": "string"
        },
        {
          "internalType": "string",
          "name": "_initNotRevealedUri",
          "type": "string"
        }
      ],
      "stateMutability": "nonpayable",
      "type": "constructor"
    },
    {
      "anonymous": false,
      "inputs": [
        {
          "indexed": true,
          "internalType": "address",
          "name": "owner",
          "type": "address"
        },
        {
          "indexed": true,
          "internalType": "address",
          "name": "approved",
          "type": "address"
        },
        {
          "indexed": true,
          "internalType": "uint256",
          "name": "tokenId",
          "type": "uint256"
        }
      ],
      "name": "Approval",
      "type": "event"
    },
    {
      "anonymous": false,
      "inputs": [
        {
          "indexed": true,
          "internalType": "address",
          "name": "owner",
          "type": "address"
        },
        {
          "indexed": true,
          "internalType": "address",
          "name": "operator",
          "type": "address"
        },
        {
          "indexed": false,
          "internalType": "bool",
          "name": "approved",
          "type": "bool"
        }
      ],
      "name": "ApprovalForAll",
      "type": "event"
    },
    {
      "anonymous": false,
      "inputs": [
        {
          "indexed": true,
          "internalType": "uint256",
          "name": "result",
          "type": "uint256"
        }
      ],
      "name": "DiceLanded",
      "type": "event"
    },
    {
      "anonymous": false,
      "inputs": [],
      "name": "DiceRolled",
      "type": "event"
    },
    {
      "anonymous": false,
      "inputs": [
        {
          "indexed": true,
          "internalType": "address",
          "name": "previousOwner",
          "type": "address"
        },
        {
          "indexed": true,
          "internalType": "address",
          "name": "newOwner",
          "type": "address"
        }
      ],
      "name": "OwnershipTransferred",
      "type": "event"
    },
    {
      "anonymous": false,
      "inputs": [
        {
          "indexed": true,
          "internalType": "address",
          "name": "from",
          "type": "address"
        },
        {
          "indexed": true,
          "internalType": "address",
          "name": "to",
          "type": "address"
        },
        {
          "indexed": true,
          "internalType": "uint256",
          "name": "tokenId",
          "type": "uint256"
        }
      ],
      "name": "Transfer",
      "type": "event"
    },
    {
      "inputs": [],
      "name": "LINK_token",
      "outputs": [
        {
          "internalType": "address",
          "name": "",
          "type": "address"
        }
      ],
      "stateMutability": "view",
      "type": "function"
    },
    {
      "inputs": [],
      "name": "VRF_Coordinator",
      "outputs": [
        {
          "internalType": "address",
          "name": "",
          "type": "address"
        }
      ],
      "stateMutability": "view",
      "type": "function"
    },
    {
      "inputs": [
        {
          "internalType": "address",
          "name": "to",
          "type": "address"
        },
        {
          "internalType": "uint256",
          "name": "tokenId",
          "type": "uint256"
        }
      ],
      "name": "approve",
      "outputs": [],
      "stateMutability": "nonpayable",
      "type": "function"
    },
    {
      "inputs": [
        {
          "internalType": "address",
          "name": "owner",
          "type": "address"
        }
      ],
      "name": "balanceOf",
      "outputs": [
        {
          "internalType": "uint256",
          "name": "",
          "type": "uint256"
        }
      ],
      "stateMutability": "view",
      "type": "function"
    },
    {
      "inputs": [],
      "name": "baseExtension",
      "outputs": [
        {
          "internalType": "string",
          "name": "",
          "type": "string"
        }
      ],
      "stateMutability": "view",
      "type": "function"
    },
    {
      "inputs": [],
      "name": "cost",
      "outputs": [
        {
          "internalType": "uint256",
          "name": "",
          "type": "uint256"
        }
      ],
      "stateMutability": "view",
      "type": "function"
    },
    {
      "inputs": [],
      "name": "fee",
      "outputs": [
        {
          "internalType": "uint256",
          "name": "",
          "type": "uint256"
        }
      ],
      "stateMutability": "view",
      "type": "function"
    },
    {
      "inputs": [
        {
          "internalType": "uint256",
          "name": "tokenId",
          "type": "uint256"
        }
      ],
      "name": "getApproved",
      "outputs": [
        {
          "internalType": "address",
          "name": "",
          "type": "address"
        }
      ],
      "stateMutability": "view",
      "type": "function"
    },
    {
      "inputs": [],
      "name": "getRandomNumber",
      "outputs": [
        {
          "internalType": "bytes32",
          "name": "requestId",
          "type": "bytes32"
        }
      ],
      "stateMutability": "nonpayable",
      "type": "function"
    },
    {
      "inputs": [
        {
          "internalType": "address",
          "name": "owner",
          "type": "address"
        },
        {
          "internalType": "address",
          "name": "operator",
          "type": "address"
        }
      ],
      "name": "isApprovedForAll",
      "outputs": [
        {
          "internalType": "bool",
          "name": "",
          "type": "bool"
        }
      ],
      "stateMutability": "view",
      "type": "function"
    },
    {
      "inputs": [],
      "name": "keyHash",
      "outputs": [
        {
          "internalType": "bytes32",
          "name": "",
          "type": "bytes32"
        }
      ],
      "stateMutability": "view",
      "type": "function"
    },
    {
      "inputs": [],
      "name": "maxMintAmount",
      "outputs": [
        {
          "internalType": "uint256",
          "name": "",
          "type": "uint256"
        }
      ],
      "stateMutability": "view",
      "type": "function"
    },
    {
      "inputs": [],
      "name": "maxSupply",
      "outputs": [
        {
          "internalType": "uint256",
          "name": "",
          "type": "uint256"
        }
      ],
      "stateMutability": "view",
      "type": "function"
    },
    {
      "inputs": [
        {
          "internalType": "uint256",
          "name": "_mintAmount",
          "type": "uint256"
        }
      ],
      "name": "mint",
      "outputs": [],
      "stateMutability": "payable",
      "type": "function"
    },
    {
      "inputs": [],
      "name": "name",
      "outputs": [
        {
          "internalType": "string",
          "name": "",
          "type": "string"
        }
      ],
      "stateMutability": "view",
      "type": "function"
    },
    {
      "inputs": [],
      "name": "notRevealedUri",
      "outputs": [
        {
          "internalType": "string",
          "name": "",
          "type": "string"
        }
      ],
      "stateMutability": "view",
      "type": "function"
    },
    {
      "inputs": [],
      "name": "owner",
      "outputs": [
        {
          "internalType": "address",
          "name": "",
          "type": "address"
        }
      ],
      "stateMutability": "view",
      "type": "function"
    },
    {
      "inputs": [
        {
          "internalType": "uint256",
          "name": "tokenId",
          "type": "uint256"
        }
      ],
      "name": "ownerOf",
      "outputs": [
        {
          "internalType": "address",
          "name": "",
          "type": "address"
        }
      ],
      "stateMutability": "view",
      "type": "function"
    },
    {
      "inputs": [
        {
          "internalType": "bool",
          "name": "_state",
          "type": "bool"
        }
      ],
      "name": "pause",
      "outputs": [],
      "stateMutability": "nonpayable",
      "type": "function"
    },
    {
      "inputs": [],
      "name": "paused",
      "outputs": [
        {
          "internalType": "bool",
          "name": "",
          "type": "bool"
        }
      ],
      "stateMutability": "view",
      "type": "function"
    },
    {
      "inputs": [
        {
          "internalType": "bytes32",
          "name": "requestId",
          "type": "bytes32"
        },
        {
          "internalType": "uint256",
          "name": "randomness",
          "type": "uint256"
        }
      ],
      "name": "rawFulfillRandomness",
      "outputs": [],
      "stateMutability": "nonpayable",
      "type": "function"
    },
    {
      "inputs": [],
      "name": "renounceOwnership",
      "outputs": [],
      "stateMutability": "nonpayable",
      "type": "function"
    },
    {
      "inputs": [],
      "name": "reveal",
      "outputs": [],
      "stateMutability": "nonpayable",
      "type": "function"
    },
    {
      "inputs": [],
      "name": "revealed",
      "outputs": [
        {
          "internalType": "bool",
          "name": "",
          "type": "bool"
        }
      ],
      "stateMutability": "view",
      "type": "function"
    },
    {
      "inputs": [
        {
          "internalType": "address",
          "name": "from",
          "type": "address"
        },
        {
          "internalType": "address",
          "name": "to",
          "type": "address"
        },
        {
          "internalType": "uint256",
          "name": "tokenId",
          "type": "uint256"
        }
      ],
      "name": "safeTransferFrom",
      "outputs": [],
      "stateMutability": "nonpayable",
      "type": "function"
    },
    {
      "inputs": [
        {
          "internalType": "address",
          "name": "from",
          "type": "address"
        },
        {
          "internalType": "address",
          "name": "to",
          "type": "address"
        },
        {
          "internalType": "uint256",
          "name": "tokenId",
          "type": "uint256"
        },
        {
          "internalType": "bytes",
          "name": "_data",
          "type": "bytes"
        }
      ],
      "name": "safeTransferFrom",
      "outputs": [],
      "stateMutability": "nonpayable",
      "type": "function"
    },
    {
      "inputs": [
        {
          "internalType": "address",
          "name": "operator",
          "type": "address"
        },
        {
          "internalType": "bool",
          "name": "approved",
          "type": "bool"
        }
      ],
      "name": "setApprovalForAll",
      "outputs": [],
      "stateMutability": "nonpayable",
      "type": "function"
    },
    {
      "inputs": [
        {
          "internalType": "string",
          "name": "_newBaseExtension",
          "type": "string"
        }
      ],
      "name": "setBaseExtension",
      "outputs": [],
      "stateMutability": "nonpayable",
      "type": "function"
    },
    {
      "inputs": [
        {
          "internalType": "string",
          "name": "_newBaseURI",
          "type": "string"
        }
      ],
      "name": "setBaseURI",
      "outputs": [],
      "stateMutability": "nonpayable",
      "type": "function"
    },
    {
      "inputs": [
        {
          "internalType": "uint256",
          "name": "_newCost",
          "type": "uint256"
        }
      ],
      "name": "setCost",
      "outputs": [],
      "stateMutability": "nonpayable",
      "type": "function"
    },
    {
      "inputs": [
        {
          "internalType": "string",
          "name": "_notRevealedURI",
          "type": "string"
        }
      ],
      "name": "setNotRevealedURI",
      "outputs": [],
      "stateMutability": "nonpayable",
      "type": "function"
    },
    {
      "inputs": [
        {
          "internalType": "uint256",
          "name": "_newmaxMintAmount",
          "type": "uint256"
        }
      ],
      "name": "setmaxMintAmount",
      "outputs": [],
      "stateMutability": "nonpayable",
      "type": "function"
    },
    {
      "inputs": [
        {
          "internalType": "bytes4",
          "name": "interfaceId",
          "type": "bytes4"
        }
      ],
      "name": "supportsInterface",
      "outputs": [
        {
          "internalType": "bool",
          "name": "",
          "type": "bool"
        }
      ],
      "stateMutability": "view",
      "type": "function"
    },
    {
      "inputs": [],
      "name": "symbol",
      "outputs": [
        {
          "internalType": "string",
          "name": "",
          "type": "string"
        }
      ],
      "stateMutability": "view",
      "type": "function"
    },
    {
      "inputs": [
        {
          "internalType": "uint256",
          "name": "index",
          "type": "uint256"
        }
      ],
      "name": "tokenByIndex",
      "outputs": [
        {
          "internalType": "uint256",
          "name": "",
          "type": "uint256"
        }
      ],
      "stateMutability": "view",
      "type": "function"
    },
    {
      "inputs": [],
      "name": "tokenIdShifter",
      "outputs": [
        {
          "internalType": "uint32",
          "name": "",
          "type": "uint32"
        }
      ],
      "stateMutability": "view",
      "type": "function"
    },
    {
      "inputs": [
        {
          "internalType": "address",
          "name": "owner",
          "type": "address"
        },
        {
          "internalType": "uint256",
          "name": "index",
          "type": "uint256"
        }
      ],
      "name": "tokenOfOwnerByIndex",
      "outputs": [
        {
          "internalType": "uint256",
          "name": "",
          "type": "uint256"
        }
      ],
      "stateMutability": "view",
      "type": "function"
    },
    {
      "inputs": [
        {
          "internalType": "uint256",
          "name": "tokenId",
          "type": "uint256"
        }
      ],
      "name": "tokenURI",
      "outputs": [
        {
          "internalType": "string",
          "name": "",
          "type": "string"
        }
      ],
      "stateMutability": "view",
      "type": "function"
    },
    {
      "inputs": [],
      "name": "totalSupply",
      "outputs": [
        {
          "internalType": "uint256",
          "name": "",
          "type": "uint256"
        }
      ],
      "stateMutability": "view",
      "type": "function"
    },
    {
      "inputs": [
        {
          "internalType": "address",
          "name": "from",
          "type": "address"
        },
        {
          "internalType": "address",
          "name": "to",
          "type": "address"
        },
        {
          "internalType": "uint256",
          "name": "tokenId",
          "type": "uint256"
        }
      ],
      "name": "transferFrom",
      "outputs": [],
      "stateMutability": "nonpayable",
      "type": "function"
    },
    {
      "inputs": [
        {
          "internalType": "address",
          "name": "newOwner",
          "type": "address"
        }
      ],
      "name": "transferOwnership",
      "outputs": [],
      "stateMutability": "nonpayable",
      "type": "function"
    },
    {
      "inputs": [],
      "name": "withdraw",
      "outputs": [],
      "stateMutability": "payable",
      "type": "function"
    }
  ],
  "bytecode": "0x60c060405273dd3782915140c8f3b190b5d67eac6dc5760c46e9600e60046101000a81548173ffffffffffffffffffffffffffffffffffffffff021916908373ffffffffffffffffffffffffffffffffffffffff16021790555073a36085f69e2889c224210f603d836748e7dc0088600f60006101000a81548173ffffffffffffffffffffffffffffffffffffffff021916908373ffffffffffffffffffffffffffffffffffffffff1602179055506040518060400160405280600581526020017f2e6a736f6e00000000000000000000000000000000000000000000000000000081525060119080519060200190620000fb9291906200055b565b5066b1a2bc2ec50000601255606460135560036014556000601560006101000a81548160ff0219169083151502179055506000601560016101000a81548160ff0219169083151502179055503480156200015457600080fd5b50604051620054233803806200542383398181016040528101906200017a91906200067d565b8383600e60049054906101000a900473ffffffffffffffffffffffffffffffffffffffff16600f60009054906101000a900473ffffffffffffffffffffffffffffffffffffffff168173ffffffffffffffffffffffffffffffffffffffff1660a08173ffffffffffffffffffffffffffffffffffffffff1660601b815250508073ffffffffffffffffffffffffffffffffffffffff1660808173ffffffffffffffffffffffffffffffffffffffff1660601b81525050505081600190805190602001906200024a9291906200055b565b508060029080519060200190620002639291906200055b565b505050620002866200027a6200030d60201b60201c565b6200031560201b60201c565b7f6c3699283bda56ad74f6b855546325b68d482e983852a7a82979cc4807b641f460001b600c8190555067016345785d8a0000600d819055506000600e60006101000a81548163ffffffff021916908363ffffffff160217905550620002f282620003db60201b60201c565b62000303816200048660201b60201c565b50505050620008f3565b600033905090565b6000600b60009054906101000a900473ffffffffffffffffffffffffffffffffffffffff16905081600b60006101000a81548173ffffffffffffffffffffffffffffffffffffffff021916908373ffffffffffffffffffffffffffffffffffffffff1602179055508173ffffffffffffffffffffffffffffffffffffffff168173ffffffffffffffffffffffffffffffffffffffff167f8be0079c531659141344cd1fd0a4f28419497f9722a3daafe3b4186f6b6457e060405160405180910390a35050565b620003eb6200030d60201b60201c565b73ffffffffffffffffffffffffffffffffffffffff16620004116200053160201b60201c565b73ffffffffffffffffffffffffffffffffffffffff16146200046a576040517f08c379a000000000000000000000000000000000000000000000000000000000815260040162000461906200078f565b60405180910390fd5b8060109080519060200190620004829291906200055b565b5050565b620004966200030d60201b60201c565b73ffffffffffffffffffffffffffffffffffffffff16620004bc6200053160201b60201c565b73ffffffffffffffffffffffffffffffffffffffff161462000515576040517f08c379a00000000000000000000000000000000000000000000000000000000081526004016200050c906200078f565b60405180910390fd5b80601690805190602001906200052d9291906200055b565b5050565b6000600b60009054906101000a900473ffffffffffffffffffffffffffffffffffffffff16905090565b82805462000569906200085f565b90600052602060002090601f0160209004810192826200058d5760008555620005d9565b82601f10620005a857805160ff1916838001178555620005d9565b82800160010185558215620005d9579182015b82811115620005d8578251825591602001919060010190620005bb565b5b509050620005e89190620005ec565b5090565b5b8082111562000607576000816000905550600101620005ed565b5090565b6000620006226200061c84620007e5565b620007b1565b9050828152602081018484840111156200063b57600080fd5b6200064884828562000829565b509392505050565b600082601f8301126200066257600080fd5b8151620006748482602086016200060b565b91505092915050565b600080600080608085870312156200069457600080fd5b600085015167ffffffffffffffff811115620006af57600080fd5b620006bd8782880162000650565b945050602085015167ffffffffffffffff811115620006db57600080fd5b620006e98782880162000650565b935050604085015167ffffffffffffffff8111156200070757600080fd5b620007158782880162000650565b925050606085015167ffffffffffffffff8111156200073357600080fd5b620007418782880162000650565b91505092959194509250565b60006200075c60208362000818565b91507f4f776e61626c653a2063616c6c6572206973206e6f7420746865206f776e65726000830152602082019050919050565b60006020820190508181036000830152620007aa816200074d565b9050919050565b6000604051905081810181811067ffffffffffffffff82111715620007db57620007da620008c4565b5b8060405250919050565b600067ffffffffffffffff821115620008035762000802620008c4565b5b601f19601f8301169050602081019050919050565b600082825260208201905092915050565b60005b83811015620008495780820151818401526020810190506200082c565b8381111562000859576000848401525b50505050565b600060028204905060018216806200087857607f821691505b602082108114156200088f576200088e62000895565b5b50919050565b7f4e487b7100000000000000000000000000000000000000000000000000000000600052602260045260246000fd5b7f4e487b7100000000000000000000000000000000000000000000000000000000600052604160045260246000fd5b60805160601c60a05160601c614af66200092d6000396000818161147101526128d4015260008181611c7601526128980152614af66000f3fe6080604052600436106102515760003560e01c806361728f3911610139578063a475b5dd116100b6578063da3ef23f1161007a578063da3ef23f14610874578063dbdff2c11461089d578063ddca3f43146108c8578063e985e9c5146108f3578063f2c4ce1e14610930578063f2fde38b1461095957610251565b8063a475b5dd146107a1578063b88d4fde146107b8578063c6682862146107e1578063c87b56dd1461080c578063d5abeb011461084957610251565b80638da5cb5b116100fd5780638da5cb5b146106dd57806394985ddd1461070857806395d89b4114610731578063a0712d681461075c578063a22cb4651461077857610251565b806361728f39146105f85780636352211e1461062357806370a0823114610660578063715018a61461069d5780637f00c7a6146106b457610251565b8063297cf74c116101d257806344a0d68a1161019657806344a0d68a146104e85780634f6ccce714610511578063518302271461054e57806355f804b314610579578063592756a1146105a25780635c975abb146105cd57610251565b8063297cf74c1461042257806329c16f4c1461044d5780632f745c59146104785780633ccfd60b146104b557806342842e0e146104bf57610251565b8063095ea7b311610219578063095ea7b31461034f57806313faede61461037857806318160ddd146103a3578063239c70ae146103ce57806323b872dd146103f957610251565b806301ffc9a71461025657806302329a291461029357806306fdde03146102bc578063081812fc146102e7578063081c8c4414610324575b600080fd5b34801561026257600080fd5b5061027d60048036038101906102789190613780565b610982565b60405161028a919061426b565b60405180910390f35b34801561029f57600080fd5b506102ba60048036038101906102b591906136f2565b6109fc565b005b3480156102c857600080fd5b506102d1610a95565b6040516102de919061430f565b60405180910390f35b3480156102f357600080fd5b5061030e60048036038101906103099190613813565b610b27565b60405161031b91906141c6565b60405180910390f35b34801561033057600080fd5b50610339610bac565b604051610346919061430f565b60405180910390f35b34801561035b57600080fd5b50610376600480360381019061037191906136b6565b610c3a565b005b34801561038457600080fd5b5061038d610d52565b60405161039a91906145b1565b60405180910390f35b3480156103af57600080fd5b506103b8610d58565b6040516103c591906145b1565b60405180910390f35b3480156103da57600080fd5b506103e3610d65565b6040516103f091906145b1565b60405180910390f35b34801561040557600080fd5b50610420600480360381019061041b91906135b0565b610d6b565b005b34801561042e57600080fd5b50610437610dcb565b60405161044491906141c6565b60405180910390f35b34801561045957600080fd5b50610462610df1565b60405161046f91906145cc565b60405180910390f35b34801561048457600080fd5b5061049f600480360381019061049a91906136b6565b610e07565b6040516104ac91906145b1565b60405180910390f35b6104bd610eac565b005b3480156104cb57600080fd5b506104e660048036038101906104e191906135b0565b610fa8565b005b3480156104f457600080fd5b5061050f600480360381019061050a9190613813565b610fc8565b005b34801561051d57600080fd5b5061053860048036038101906105339190613813565b61104e565b60405161054591906145b1565b60405180910390f35b34801561055a57600080fd5b506105636110e5565b604051610570919061426b565b60405180910390f35b34801561058557600080fd5b506105a0600480360381019061059b91906137d2565b6110f8565b005b3480156105ae57600080fd5b506105b761118e565b6040516105c491906141c6565b60405180910390f35b3480156105d957600080fd5b506105e26111b4565b6040516105ef919061426b565b60405180910390f35b34801561060457600080fd5b5061060d6111c7565b60405161061a9190614286565b60405180910390f35b34801561062f57600080fd5b5061064a60048036038101906106459190613813565b6111cd565b60405161065791906141c6565b60405180910390f35b34801561066c57600080fd5b506106876004803603810190610682919061354b565b61127f565b60405161069491906145b1565b60405180910390f35b3480156106a957600080fd5b506106b2611337565b005b3480156106c057600080fd5b506106db60048036038101906106d69190613813565b6113bf565b005b3480156106e957600080fd5b506106f2611445565b6040516106ff91906141c6565b60405180910390f35b34801561071457600080fd5b5061072f600480360381019061072a9190613744565b61146f565b005b34801561073d57600080fd5b5061074661150b565b604051610753919061430f565b60405180910390f35b61077660048036038101906107719190613813565b61159d565b005b34801561078457600080fd5b5061079f600480360381019061079a919061367a565b611689565b005b3480156107ad57600080fd5b506107b661180a565b005b3480156107c457600080fd5b506107df60048036038101906107da91906135ff565b6118ac565b005b3480156107ed57600080fd5b506107f661190e565b604051610803919061430f565b60405180910390f35b34801561081857600080fd5b50610833600480360381019061082e9190613813565b61199c565b604051610840919061430f565b60405180910390f35b34801561085557600080fd5b5061085e611b57565b60405161086b91906145b1565b60405180910390f35b34801561088057600080fd5b5061089b600480360381019061089691906137d2565b611b5d565b005b3480156108a957600080fd5b506108b2611bf3565b6040516108bf9190614286565b60405180910390f35b3480156108d457600080fd5b506108dd611d9d565b6040516108ea91906145b1565b60405180910390f35b3480156108ff57600080fd5b5061091a60048036038101906109159190613574565b611da3565b604051610927919061426b565b60405180910390f35b34801561093c57600080fd5b50610957600480360381019061095291906137d2565b611e37565b005b34801561096557600080fd5b50610980600480360381019061097b919061354b565b611ecd565b005b60007f780e9d63000000000000000000000000000000000000000000000000000000007bffffffffffffffffffffffffffffffffffffffffffffffffffffffff1916827bffffffffffffffffffffffffffffffffffffffffffffffffffffffff191614806109f557506109f482611fc5565b5b9050919050565b610a046120a7565b73ffffffffffffffffffffffffffffffffffffffff16610a22611445565b73ffffffffffffffffffffffffffffffffffffffff1614610a78576040517f08c379a0000000000000000000000000000000000000000000000000000000008152600401610a6f906144d1565b60405180910390fd5b80601560006101000a81548160ff02191690831515021790555050565b606060018054610aa4906148c0565b80601f0160208091040260200160405190810160405280929190818152602001828054610ad0906148c0565b8015610b1d5780601f10610af257610100808354040283529160200191610b1d565b820191906000526020600020905b815481529060010190602001808311610b0057829003601f168201915b5050505050905090565b6000610b32826120af565b610b71576040517f08c379a0000000000000000000000000000000000000000000000000000000008152600401610b68906144b1565b60405180910390fd5b6005600083815260200190815260200160002060009054906101000a900473ffffffffffffffffffffffffffffffffffffffff169050919050565b60168054610bb9906148c0565b80601f0160208091040260200160405190810160405280929190818152602001828054610be5906148c0565b8015610c325780601f10610c0757610100808354040283529160200191610c32565b820191906000526020600020905b815481529060010190602001808311610c1557829003601f168201915b505050505081565b6000610c45826111cd565b90508073ffffffffffffffffffffffffffffffffffffffff168373ffffffffffffffffffffffffffffffffffffffff161415610cb6576040517f08c379a0000000000000000000000000000000000000000000000000000000008152600401610cad90614551565b60405180910390fd5b8073ffffffffffffffffffffffffffffffffffffffff16610cd56120a7565b73ffffffffffffffffffffffffffffffffffffffff161480610d045750610d0381610cfe6120a7565b611da3565b5b610d43576040517f08c379a0000000000000000000000000000000000000000000000000000000008152600401610d3a90614431565b60405180910390fd5b610d4d838361211b565b505050565b60125481565b6000600980549050905090565b60145481565b610d7c610d766120a7565b826121d4565b610dbb576040517f08c379a0000000000000000000000000000000000000000000000000000000008152600401610db290614571565b60405180910390fd5b610dc68383836122b2565b505050565b600e60049054906101000a900473ffffffffffffffffffffffffffffffffffffffff1681565b600e60009054906101000a900463ffffffff1681565b6000610e128361127f565b8210610e53576040517f08c379a0000000000000000000000000000000000000000000000000000000008152600401610e4a90614331565b60405180910390fd5b600760008473ffffffffffffffffffffffffffffffffffffffff1673ffffffffffffffffffffffffffffffffffffffff168152602001908152602001600020600083815260200190815260200160002054905092915050565b610eb46120a7565b73ffffffffffffffffffffffffffffffffffffffff16610ed2611445565b73ffffffffffffffffffffffffffffffffffffffff1614610f28576040517f08c379a0000000000000000000000000000000000000000000000000000000008152600401610f1f906144d1565b60405180910390fd5b6000610f32611445565b73ffffffffffffffffffffffffffffffffffffffff1647604051610f55906141b1565b60006040518083038185875af1925050503d8060008114610f92576040519150601f19603f3d011682016040523d82523d6000602084013e610f97565b606091505b5050905080610fa557600080fd5b50565b610fc3838383604051806020016040528060008152506118ac565b505050565b610fd06120a7565b73ffffffffffffffffffffffffffffffffffffffff16610fee611445565b73ffffffffffffffffffffffffffffffffffffffff1614611044576040517f08c379a000000000000000000000000000000000000000000000000000000000815260040161103b906144d1565b60405180910390fd5b8060128190555050565b6000611058610d58565b8210611099576040517f08c379a000000000000000000000000000000000000000000000000000000000815260040161109090614591565b60405180910390fd5b600982815481106110d3577f4e487b7100000000000000000000000000000000000000000000000000000000600052603260045260246000fd5b90600052602060002001549050919050565b601560019054906101000a900460ff1681565b6111006120a7565b73ffffffffffffffffffffffffffffffffffffffff1661111e611445565b73ffffffffffffffffffffffffffffffffffffffff1614611174576040517f08c379a000000000000000000000000000000000000000000000000000000000815260040161116b906144d1565b60405180910390fd5b806010908051906020019061118a929190613330565b5050565b600f60009054906101000a900473ffffffffffffffffffffffffffffffffffffffff1681565b601560009054906101000a900460ff1681565b600c5481565b6000806003600084815260200190815260200160002060009054906101000a900473ffffffffffffffffffffffffffffffffffffffff169050600073ffffffffffffffffffffffffffffffffffffffff168173ffffffffffffffffffffffffffffffffffffffff161415611276576040517f08c379a000000000000000000000000000000000000000000000000000000000815260040161126d90614471565b60405180910390fd5b80915050919050565b60008073ffffffffffffffffffffffffffffffffffffffff168273ffffffffffffffffffffffffffffffffffffffff1614156112f0576040517f08c379a00000000000000000000000000000000000000000000000000000000081526004016112e790614451565b60405180910390fd5b600460008373ffffffffffffffffffffffffffffffffffffffff1673ffffffffffffffffffffffffffffffffffffffff168152602001908152602001600020549050919050565b61133f6120a7565b73ffffffffffffffffffffffffffffffffffffffff1661135d611445565b73ffffffffffffffffffffffffffffffffffffffff16146113b3576040517f08c379a00000000000000000000000000000000000000000000000000000000081526004016113aa906144d1565b60405180910390fd5b6113bd600061250e565b565b6113c76120a7565b73ffffffffffffffffffffffffffffffffffffffff166113e5611445565b73ffffffffffffffffffffffffffffffffffffffff161461143b576040517f08c379a0000000000000000000000000000000000000000000000000000000008152600401611432906144d1565b60405180910390fd5b8060148190555050565b6000600b60009054906101000a900473ffffffffffffffffffffffffffffffffffffffff16905090565b7f000000000000000000000000000000000000000000000000000000000000000073ffffffffffffffffffffffffffffffffffffffff163373ffffffffffffffffffffffffffffffffffffffff16146114fd576040517f08c379a00000000000000000000000000000000000000000000000000000000081526004016114f490614531565b60405180910390fd5b61150782826125d4565b5050565b60606002805461151a906148c0565b80601f0160208091040260200160405190810160405280929190818152602001828054611546906148c0565b80156115935780601f1061156857610100808354040283529160200191611593565b820191906000526020600020905b81548152906001019060200180831161157657829003601f168201915b5050505050905090565b60006115a7610d58565b9050601560009054906101000a900460ff16156115c357600080fd5b600082116115d057600080fd5b6014548211156115df57600080fd5b60135482826115ee91906146db565b11156115f957600080fd5b611601611445565b73ffffffffffffffffffffffffffffffffffffffff163373ffffffffffffffffffffffffffffffffffffffff161461164e57816012546116419190614762565b34101561164d57600080fd5b5b6000600190505b8281116116845761167133828461166c91906146db565b612656565b808061167c906148f2565b915050611655565b505050565b6116916120a7565b73ffffffffffffffffffffffffffffffffffffffff168273ffffffffffffffffffffffffffffffffffffffff1614156116ff576040517f08c379a00000000000000000000000000000000000000000000000000000000081526004016116f6906143d1565b60405180910390fd5b806006600061170c6120a7565b73ffffffffffffffffffffffffffffffffffffffff1673ffffffffffffffffffffffffffffffffffffffff16815260200190815260200160002060008473ffffffffffffffffffffffffffffffffffffffff1673ffffffffffffffffffffffffffffffffffffffff16815260200190815260200160002060006101000a81548160ff0219169083151502179055508173ffffffffffffffffffffffffffffffffffffffff166117b96120a7565b73ffffffffffffffffffffffffffffffffffffffff167f17307eab39ab6107e8899845ad3d59bd9653f200f220920489ca2b5937696c31836040516117fe919061426b565b60405180910390a35050565b6118126120a7565b73ffffffffffffffffffffffffffffffffffffffff16611830611445565b73ffffffffffffffffffffffffffffffffffffffff1614611886576040517f08c379a000000000000000000000000000000000000000000000000000000000815260040161187d906144d1565b60405180910390fd5b61188e611bf3565b506001601560016101000a81548160ff021916908315150217905550565b6118bd6118b76120a7565b836121d4565b6118fc576040517f08c379a00000000000000000000000000000000000000000000000000000000081526004016118f390614571565b60405180910390fd5b61190884848484612674565b50505050565b6011805461191b906148c0565b80601f0160208091040260200160405190810160405280929190818152602001828054611947906148c0565b80156119945780601f1061196957610100808354040283529160200191611994565b820191906000526020600020905b81548152906001019060200180831161197757829003601f168201915b505050505081565b60606119a7826120af565b6119e6576040517f08c379a00000000000000000000000000000000000000000000000000000000081526004016119dd90614511565b60405180910390fd5b60001515601560019054906101000a900460ff161515148015611a2157506000600e60009054906101000a900463ffffffff1663ffffffff16145b15611ab85760168054611a33906148c0565b80601f0160208091040260200160405190810160405280929190818152602001828054611a5f906148c0565b8015611aac5780601f10611a8157610100808354040283529160200191611aac565b820191906000526020600020905b815481529060010190602001808311611a8f57829003601f168201915b50505050509050611b52565b6000611ac26126d0565b905060016064600e60009054906101000a900463ffffffff1663ffffffff1685611aec91906146db565b611af6919061494f565b611b0091906146db565b92506000815111611b205760405180602001604052806000815250611b4e565b80611b2a846126e7565b6011604051602001611b3e93929190614180565b6040516020818303038152906040525b9150505b919050565b60135481565b611b656120a7565b73ffffffffffffffffffffffffffffffffffffffff16611b83611445565b73ffffffffffffffffffffffffffffffffffffffff1614611bd9576040517f08c379a0000000000000000000000000000000000000000000000000000000008152600401611bd0906144d1565b60405180910390fd5b8060119080519060200190611bef929190613330565b5050565b6000611bfd6120a7565b73ffffffffffffffffffffffffffffffffffffffff16611c1b611445565b73ffffffffffffffffffffffffffffffffffffffff1614611c71576040517f08c379a0000000000000000000000000000000000000000000000000000000008152600401611c68906144d1565b60405180910390fd5b600d547f000000000000000000000000000000000000000000000000000000000000000073ffffffffffffffffffffffffffffffffffffffff166370a08231306040518263ffffffff1660e01b8152600401611ccd91906141c6565b60206040518083038186803b158015611ce557600080fd5b505afa158015611cf9573d6000803e3d6000fd5b505050506040513d601f19601f82011682018060405250810190611d1d919061383c565b1015611d5e576040517f08c379a0000000000000000000000000000000000000000000000000000000008152600401611d55906143f1565b60405180910390fd5b7f48ed86bcf5a9db215d430a3d797d5fd900be09379a002b6f37891bd2aacbe5cf60405160405180910390a1611d98600c54600d54612894565b905090565b600d5481565b6000600660008473ffffffffffffffffffffffffffffffffffffffff1673ffffffffffffffffffffffffffffffffffffffff16815260200190815260200160002060008373ffffffffffffffffffffffffffffffffffffffff1673ffffffffffffffffffffffffffffffffffffffff16815260200190815260200160002060009054906101000a900460ff16905092915050565b611e3f6120a7565b73ffffffffffffffffffffffffffffffffffffffff16611e5d611445565b73ffffffffffffffffffffffffffffffffffffffff1614611eb3576040517f08c379a0000000000000000000000000000000000000000000000000000000008152600401611eaa906144d1565b60405180910390fd5b8060169080519060200190611ec9929190613330565b5050565b611ed56120a7565b73ffffffffffffffffffffffffffffffffffffffff16611ef3611445565b73ffffffffffffffffffffffffffffffffffffffff1614611f49576040517f08c379a0000000000000000000000000000000000000000000000000000000008152600401611f40906144d1565b60405180910390fd5b600073ffffffffffffffffffffffffffffffffffffffff168173ffffffffffffffffffffffffffffffffffffffff161415611fb9576040517f08c379a0000000000000000000000000000000000000000000000000000000008152600401611fb090614371565b60405180910390fd5b611fc28161250e565b50565b60007f80ac58cd000000000000000000000000000000000000000000000000000000007bffffffffffffffffffffffffffffffffffffffffffffffffffffffff1916827bffffffffffffffffffffffffffffffffffffffffffffffffffffffff1916148061209057507f5b5e139f000000000000000000000000000000000000000000000000000000007bffffffffffffffffffffffffffffffffffffffffffffffffffffffff1916827bffffffffffffffffffffffffffffffffffffffffffffffffffffffff1916145b806120a0575061209f826129f3565b5b9050919050565b600033905090565b60008073ffffffffffffffffffffffffffffffffffffffff166003600084815260200190815260200160002060009054906101000a900473ffffffffffffffffffffffffffffffffffffffff1673ffffffffffffffffffffffffffffffffffffffff1614159050919050565b816005600083815260200190815260200160002060006101000a81548173ffffffffffffffffffffffffffffffffffffffff021916908373ffffffffffffffffffffffffffffffffffffffff160217905550808273ffffffffffffffffffffffffffffffffffffffff1661218e836111cd565b73ffffffffffffffffffffffffffffffffffffffff167f8c5be1e5ebec7d5bd14f71427d1e84f3dd0314c0f7b2291e5b200ac8c7c3b92560405160405180910390a45050565b60006121df826120af565b61221e576040517f08c379a000000000000000000000000000000000000000000000000000000000815260040161221590614411565b60405180910390fd5b6000612229836111cd565b90508073ffffffffffffffffffffffffffffffffffffffff168473ffffffffffffffffffffffffffffffffffffffff16148061229857508373ffffffffffffffffffffffffffffffffffffffff1661228084610b27565b73ffffffffffffffffffffffffffffffffffffffff16145b806122a957506122a88185611da3565b5b91505092915050565b8273ffffffffffffffffffffffffffffffffffffffff166122d2826111cd565b73ffffffffffffffffffffffffffffffffffffffff1614612328576040517f08c379a000000000000000000000000000000000000000000000000000000000815260040161231f906144f1565b60405180910390fd5b600073ffffffffffffffffffffffffffffffffffffffff168273ffffffffffffffffffffffffffffffffffffffff161415612398576040517f08c379a000000000000000000000000000000000000000000000000000000000815260040161238f906143b1565b60405180910390fd5b6123a3838383612a5d565b6123ae60008261211b565b6001600460008573ffffffffffffffffffffffffffffffffffffffff1673ffffffffffffffffffffffffffffffffffffffff16815260200190815260200160002060008282546123fe91906147bc565b925050819055506001600460008473ffffffffffffffffffffffffffffffffffffffff1673ffffffffffffffffffffffffffffffffffffffff168152602001908152602001600020600082825461245591906146db565b92505081905550816003600083815260200190815260200160002060006101000a81548173ffffffffffffffffffffffffffffffffffffffff021916908373ffffffffffffffffffffffffffffffffffffffff160217905550808273ffffffffffffffffffffffffffffffffffffffff168473ffffffffffffffffffffffffffffffffffffffff167fddf252ad1be2c89b69c2b068fc378daa952ba7f163c4a11628f55a4df523b3ef60405160405180910390a4505050565b6000600b60009054906101000a900473ffffffffffffffffffffffffffffffffffffffff16905081600b60006101000a81548173ffffffffffffffffffffffffffffffffffffffff021916908373ffffffffffffffffffffffffffffffffffffffff1602179055508173ffffffffffffffffffffffffffffffffffffffff168173ffffffffffffffffffffffffffffffffffffffff167f8be0079c531659141344cd1fd0a4f28419497f9722a3daafe3b4186f6b6457e060405160405180910390a35050565b60016064826125e3919061494f565b6125ed91906146db565b600e60006101000a81548163ffffffff021916908363ffffffff160217905550600e60009054906101000a900463ffffffff1663ffffffff167f0fa143af3152b0314efb7493de77eccd78bf3b5a8520cf84c9894d597cca08c060405160405180910390a25050565b612670828260405180602001604052806000815250612b71565b5050565b61267f8484846122b2565b61268b84848484612bcc565b6126ca576040517f08c379a00000000000000000000000000000000000000000000000000000000081526004016126c190614351565b60405180910390fd5b50505050565b606060405180602001604052806000815250905090565b6060600082141561272f576040518060400160405280600181526020017f3000000000000000000000000000000000000000000000000000000000000000815250905061288f565b600082905060005b6000821461276157808061274a906148f2565b915050600a8261275a9190614731565b9150612737565b60008167ffffffffffffffff8111156127a3577f4e487b7100000000000000000000000000000000000000000000000000000000600052604160045260246000fd5b6040519080825280601f01601f1916602001820160405280156127d55781602001600182028036833780820191505090505b5090505b60008514612888576001826127ee91906147bc565b9150600a856127fd919061494f565b603061280991906146db565b60f81b818381518110612845577f4e487b7100000000000000000000000000000000000000000000000000000000600052603260045260246000fd5b60200101907effffffffffffffffffffffffffffffffffffffffffffffffffffffffffffff1916908160001a905350600a856128819190614731565b94506127d9565b8093505050505b919050565b60007f000000000000000000000000000000000000000000000000000000000000000073ffffffffffffffffffffffffffffffffffffffff16634000aea07f0000000000000000000000000000000000000000000000000000000000000000848660006040516020016129089291906142a1565b6040516020818303038152906040526040518463ffffffff1660e01b81526004016129359392919061422d565b602060405180830381600087803b15801561294f57600080fd5b505af1158015612963573d6000803e3d6000fd5b505050506040513d601f19601f82011682018060405250810190612987919061371b565b5060006129a98460003060008089815260200190815260200160002054612d63565b90506001600080868152602001908152602001600020546129ca91906146db565b600080868152602001908152602001600020819055506129ea8482612d9f565b91505092915050565b60007f01ffc9a7000000000000000000000000000000000000000000000000000000007bffffffffffffffffffffffffffffffffffffffffffffffffffffffff1916827bffffffffffffffffffffffffffffffffffffffffffffffffffffffff1916149050919050565b612a68838383612dd2565b600073ffffffffffffffffffffffffffffffffffffffff168373ffffffffffffffffffffffffffffffffffffffff161415612aab57612aa681612dd7565b612aea565b8173ffffffffffffffffffffffffffffffffffffffff168373ffffffffffffffffffffffffffffffffffffffff1614612ae957612ae88382612e20565b5b5b600073ffffffffffffffffffffffffffffffffffffffff168273ffffffffffffffffffffffffffffffffffffffff161415612b2d57612b2881612f8d565b612b6c565b8273ffffffffffffffffffffffffffffffffffffffff168273ffffffffffffffffffffffffffffffffffffffff1614612b6b57612b6a82826130d0565b5b5b505050565b612b7b838361314f565b612b886000848484612bcc565b612bc7576040517f08c379a0000000000000000000000000000000000000000000000000000000008152600401612bbe90614351565b60405180910390fd5b505050565b6000612bed8473ffffffffffffffffffffffffffffffffffffffff1661331d565b15612d56578373ffffffffffffffffffffffffffffffffffffffff1663150b7a02612c166120a7565b8786866040518563ffffffff1660e01b8152600401612c3894939291906141e1565b602060405180830381600087803b158015612c5257600080fd5b505af1925050508015612c8357506040513d601f19601f82011682018060405250810190612c8091906137a9565b60015b612d06573d8060008114612cb3576040519150601f19603f3d011682016040523d82523d6000602084013e612cb8565b606091505b50600081511415612cfe576040517f08c379a0000000000000000000000000000000000000000000000000000000008152600401612cf590614351565b60405180910390fd5b805181602001fd5b63150b7a0260e01b7bffffffffffffffffffffffffffffffffffffffffffffffffffffffff1916817bffffffffffffffffffffffffffffffffffffffffffffffffffffffff191614915050612d5b565b600190505b949350505050565b600084848484604051602001612d7c94939291906142ca565b6040516020818303038152906040528051906020012060001c9050949350505050565b60008282604051602001612db4929190614154565b60405160208183030381529060405280519060200120905092915050565b505050565b600980549050600a600083815260200190815260200160002081905550600981908060018154018082558091505060019003906000526020600020016000909190919091505550565b60006001612e2d8461127f565b612e3791906147bc565b9050600060086000848152602001908152602001600020549050818114612f1c576000600760008673ffffffffffffffffffffffffffffffffffffffff1673ffffffffffffffffffffffffffffffffffffffff168152602001908152602001600020600084815260200190815260200160002054905080600760008773ffffffffffffffffffffffffffffffffffffffff1673ffffffffffffffffffffffffffffffffffffffff168152602001908152602001600020600084815260200190815260200160002081905550816008600083815260200190815260200160002081905550505b6008600084815260200190815260200160002060009055600760008573ffffffffffffffffffffffffffffffffffffffff1673ffffffffffffffffffffffffffffffffffffffff16815260200190815260200160002060008381526020019081526020016000206000905550505050565b60006001600980549050612fa191906147bc565b90506000600a6000848152602001908152602001600020549050600060098381548110612ff7577f4e487b7100000000000000000000000000000000000000000000000000000000600052603260045260246000fd5b90600052602060002001549050806009838154811061303f577f4e487b7100000000000000000000000000000000000000000000000000000000600052603260045260246000fd5b906000526020600020018190555081600a600083815260200190815260200160002081905550600a60008581526020019081526020016000206000905560098054806130b4577f4e487b7100000000000000000000000000000000000000000000000000000000600052603160045260246000fd5b6001900381819060005260206000200160009055905550505050565b60006130db8361127f565b905081600760008573ffffffffffffffffffffffffffffffffffffffff1673ffffffffffffffffffffffffffffffffffffffff168152602001908152602001600020600083815260200190815260200160002081905550806008600084815260200190815260200160002081905550505050565b600073ffffffffffffffffffffffffffffffffffffffff168273ffffffffffffffffffffffffffffffffffffffff1614156131bf576040517f08c379a00000000000000000000000000000000000000000000000000000000081526004016131b690614491565b60405180910390fd5b6131c8816120af565b15613208576040517f08c379a00000000000000000000000000000000000000000000000000000000081526004016131ff90614391565b60405180910390fd5b61321460008383612a5d565b6001600460008473ffffffffffffffffffffffffffffffffffffffff1673ffffffffffffffffffffffffffffffffffffffff168152602001908152602001600020600082825461326491906146db565b92505081905550816003600083815260200190815260200160002060006101000a81548173ffffffffffffffffffffffffffffffffffffffff021916908373ffffffffffffffffffffffffffffffffffffffff160217905550808273ffffffffffffffffffffffffffffffffffffffff16600073ffffffffffffffffffffffffffffffffffffffff167fddf252ad1be2c89b69c2b068fc378daa952ba7f163c4a11628f55a4df523b3ef60405160405180910390a45050565b600080823b905060008111915050919050565b82805461333c906148c0565b90600052602060002090601f01602090048101928261335e57600085556133a5565b82601f1061337757805160ff19168380011785556133a5565b828001600101855582156133a5579182015b828111156133a4578251825591602001919060010190613389565b5b5090506133b291906133b6565b5090565b5b808211156133cf5760008160009055506001016133b7565b5090565b60006133e66133e184614618565b6145e7565b9050828152602081018484840111156133fe57600080fd5b61340984828561487e565b509392505050565b600061342461341f84614648565b6145e7565b90508281526020810184848401111561343c57600080fd5b61344784828561487e565b509392505050565b60008135905061345e81614a4d565b92915050565b60008135905061347381614a64565b92915050565b60008151905061348881614a64565b92915050565b60008135905061349d81614a7b565b92915050565b6000813590506134b281614a92565b92915050565b6000815190506134c781614a92565b92915050565b600082601f8301126134de57600080fd5b81356134ee8482602086016133d3565b91505092915050565b600082601f83011261350857600080fd5b8135613518848260208601613411565b91505092915050565b60008135905061353081614aa9565b92915050565b60008151905061354581614aa9565b92915050565b60006020828403121561355d57600080fd5b600061356b8482850161344f565b91505092915050565b6000806040838503121561358757600080fd5b60006135958582860161344f565b92505060206135a68582860161344f565b9150509250929050565b6000806000606084860312156135c557600080fd5b60006135d38682870161344f565b93505060206135e48682870161344f565b92505060406135f586828701613521565b9150509250925092565b6000806000806080858703121561361557600080fd5b60006136238782880161344f565b94505060206136348782880161344f565b935050604061364587828801613521565b925050606085013567ffffffffffffffff81111561366257600080fd5b61366e878288016134cd565b91505092959194509250565b6000806040838503121561368d57600080fd5b600061369b8582860161344f565b92505060206136ac85828601613464565b9150509250929050565b600080604083850312156136c957600080fd5b60006136d78582860161344f565b92505060206136e885828601613521565b9150509250929050565b60006020828403121561370457600080fd5b600061371284828501613464565b91505092915050565b60006020828403121561372d57600080fd5b600061373b84828501613479565b91505092915050565b6000806040838503121561375757600080fd5b60006137658582860161348e565b925050602061377685828601613521565b9150509250929050565b60006020828403121561379257600080fd5b60006137a0848285016134a3565b91505092915050565b6000602082840312156137bb57600080fd5b60006137c9848285016134b8565b91505092915050565b6000602082840312156137e457600080fd5b600082013567ffffffffffffffff8111156137fe57600080fd5b61380a848285016134f7565b91505092915050565b60006020828403121561382557600080fd5b600061383384828501613521565b91505092915050565b60006020828403121561384e57600080fd5b600061385c84828501613536565b91505092915050565b61386e816147f0565b82525050565b61387d81614802565b82525050565b61388c8161480e565b82525050565b6138a361389e8261480e565b61493b565b82525050565b60006138b48261468d565b6138be81856146a3565b93506138ce81856020860161488d565b6138d781614a3c565b840191505092915050565b60006138ed82614698565b6138f781856146bf565b935061390781856020860161488d565b61391081614a3c565b840191505092915050565b600061392682614698565b61393081856146d0565b935061394081856020860161488d565b80840191505092915050565b60008154613959816148c0565b61396381866146d0565b9450600182166000811461397e576001811461398f576139c2565b60ff198316865281860193506139c2565b61399885614678565b60005b838110156139ba5781548189015260018201915060208101905061399b565b838801955050505b50505092915050565b60006139d8602b836146bf565b91507f455243373231456e756d657261626c653a206f776e657220696e646578206f7560008301527f74206f6620626f756e64730000000000000000000000000000000000000000006020830152604082019050919050565b6000613a3e6032836146bf565b91507f4552433732313a207472616e7366657220746f206e6f6e20455243373231526560008301527f63656976657220696d706c656d656e74657200000000000000000000000000006020830152604082019050919050565b6000613aa46026836146bf565b91507f4f776e61626c653a206e6577206f776e657220697320746865207a65726f206160008301527f64647265737300000000000000000000000000000000000000000000000000006020830152604082019050919050565b6000613b0a601c836146bf565b91507f4552433732313a20746f6b656e20616c7265616479206d696e746564000000006000830152602082019050919050565b6000613b4a6024836146bf565b91507f4552433732313a207472616e7366657220746f20746865207a65726f2061646460008301527f72657373000000000000000000000000000000000000000000000000000000006020830152604082019050919050565b6000613bb06019836146bf565b91507f4552433732313a20617070726f766520746f2063616c6c6572000000000000006000830152602082019050919050565b6000613bf0602b836146bf565b91507f4e6f7420656e6f756768204c494e4b202d2066696c6c20636f6e74726163742060008301527f77697468206661756365740000000000000000000000000000000000000000006020830152604082019050919050565b6000613c56602c836146bf565b91507f4552433732313a206f70657261746f7220717565727920666f72206e6f6e657860008301527f697374656e7420746f6b656e00000000000000000000000000000000000000006020830152604082019050919050565b6000613cbc6038836146bf565b91507f4552433732313a20617070726f76652063616c6c6572206973206e6f74206f7760008301527f6e6572206e6f7220617070726f76656420666f7220616c6c00000000000000006020830152604082019050919050565b6000613d22602a836146bf565b91507f4552433732313a2062616c616e636520717565727920666f7220746865207a6560008301527f726f2061646472657373000000000000000000000000000000000000000000006020830152604082019050919050565b6000613d886029836146bf565b91507f4552433732313a206f776e657220717565727920666f72206e6f6e657869737460008301527f656e7420746f6b656e00000000000000000000000000000000000000000000006020830152604082019050919050565b6000613dee6020836146bf565b91507f4552433732313a206d696e7420746f20746865207a65726f20616464726573736000830152602082019050919050565b6000613e2e602c836146bf565b91507f4552433732313a20617070726f76656420717565727920666f72206e6f6e657860008301527f697374656e7420746f6b656e00000000000000000000000000000000000000006020830152604082019050919050565b6000613e946020836146bf565b91507f4f776e61626c653a2063616c6c6572206973206e6f7420746865206f776e65726000830152602082019050919050565b6000613ed46029836146bf565b91507f4552433732313a207472616e73666572206f6620746f6b656e2074686174206960008301527f73206e6f74206f776e00000000000000000000000000000000000000000000006020830152604082019050919050565b6000613f3a602f836146bf565b91507f4552433732314d657461646174613a2055524920717565727920666f72206e6f60008301527f6e6578697374656e7420746f6b656e00000000000000000000000000000000006020830152604082019050919050565b6000613fa0601f836146bf565b91507f4f6e6c7920565246436f6f7264696e61746f722063616e2066756c66696c6c006000830152602082019050919050565b6000613fe06021836146bf565b91507f4552433732313a20617070726f76616c20746f2063757272656e74206f776e6560008301527f72000000000000000000000000000000000000000000000000000000000000006020830152604082019050919050565b60006140466000836146b4565b9150600082019050919050565b60006140606031836146bf565b91507f4552433732313a207472616e736665722063616c6c6572206973206e6f74206f60008301527f776e6572206e6f7220617070726f7665640000000000000000000000000000006020830152604082019050919050565b60006140c6602c836146bf565b91507f455243373231456e756d657261626c653a20676c6f62616c20696e646578206f60008301527f7574206f6620626f756e647300000000000000000000000000000000000000006020830152604082019050919050565b61412881614864565b82525050565b61413f61413a82614864565b614945565b82525050565b61414e8161486e565b82525050565b60006141608285613892565b602082019150614170828461412e565b6020820191508190509392505050565b600061418c828661391b565b9150614198828561391b565b91506141a4828461394c565b9150819050949350505050565b60006141bc82614039565b9150819050919050565b60006020820190506141db6000830184613865565b92915050565b60006080820190506141f66000830187613865565b6142036020830186613865565b614210604083018561411f565b818103606083015261422281846138a9565b905095945050505050565b60006060820190506142426000830186613865565b61424f602083018561411f565b818103604083015261426181846138a9565b9050949350505050565b60006020820190506142806000830184613874565b92915050565b600060208201905061429b6000830184613883565b92915050565b60006040820190506142b66000830185613883565b6142c3602083018461411f565b9392505050565b60006080820190506142df6000830187613883565b6142ec602083018661411f565b6142f96040830185613865565b614306606083018461411f565b95945050505050565b6000602082019050818103600083015261432981846138e2565b905092915050565b6000602082019050818103600083015261434a816139cb565b9050919050565b6000602082019050818103600083015261436a81613a31565b9050919050565b6000602082019050818103600083015261438a81613a97565b9050919050565b600060208201905081810360008301526143aa81613afd565b9050919050565b600060208201905081810360008301526143ca81613b3d565b9050919050565b600060208201905081810360008301526143ea81613ba3565b9050919050565b6000602082019050818103600083015261440a81613be3565b9050919050565b6000602082019050818103600083015261442a81613c49565b9050919050565b6000602082019050818103600083015261444a81613caf565b9050919050565b6000602082019050818103600083015261446a81613d15565b9050919050565b6000602082019050818103600083015261448a81613d7b565b9050919050565b600060208201905081810360008301526144aa81613de1565b9050919050565b600060208201905081810360008301526144ca81613e21565b9050919050565b600060208201905081810360008301526144ea81613e87565b9050919050565b6000602082019050818103600083015261450a81613ec7565b9050919050565b6000602082019050818103600083015261452a81613f2d565b9050919050565b6000602082019050818103600083015261454a81613f93565b9050919050565b6000602082019050818103600083015261456a81613fd3565b9050919050565b6000602082019050818103600083015261458a81614053565b9050919050565b600060208201905081810360008301526145aa816140b9565b9050919050565b60006020820190506145c6600083018461411f565b92915050565b60006020820190506145e16000830184614145565b92915050565b6000604051905081810181811067ffffffffffffffff8211171561460e5761460d614a0d565b5b8060405250919050565b600067ffffffffffffffff82111561463357614632614a0d565b5b601f19601f8301169050602081019050919050565b600067ffffffffffffffff82111561466357614662614a0d565b5b601f19601f8301169050602081019050919050565b60008190508160005260206000209050919050565b600081519050919050565b600081519050919050565b600082825260208201905092915050565b600081905092915050565b600082825260208201905092915050565b600081905092915050565b60006146e682614864565b91506146f183614864565b9250827fffffffffffffffffffffffffffffffffffffffffffffffffffffffffffffffff0382111561472657614725614980565b5b828201905092915050565b600061473c82614864565b915061474783614864565b925082614757576147566149af565b5b828204905092915050565b600061476d82614864565b915061477883614864565b9250817fffffffffffffffffffffffffffffffffffffffffffffffffffffffffffffffff04831182151516156147b1576147b0614980565b5b828202905092915050565b60006147c782614864565b91506147d283614864565b9250828210156147e5576147e4614980565b5b828203905092915050565b60006147fb82614844565b9050919050565b60008115159050919050565b6000819050919050565b60007fffffffff0000000000000000000000000000000000000000000000000000000082169050919050565b600073ffffffffffffffffffffffffffffffffffffffff82169050919050565b6000819050919050565b600063ffffffff82169050919050565b82818337600083830152505050565b60005b838110156148ab578082015181840152602081019050614890565b838111156148ba576000848401525b50505050565b600060028204905060018216806148d857607f821691505b602082108114156148ec576148eb6149de565b5b50919050565b60006148fd82614864565b91507fffffffffffffffffffffffffffffffffffffffffffffffffffffffffffffffff8214156149305761492f614980565b5b600182019050919050565b6000819050919050565b6000819050919050565b600061495a82614864565b915061496583614864565b925082614975576149746149af565b5b828206905092915050565b7f4e487b7100000000000000000000000000000000000000000000000000000000600052601160045260246000fd5b7f4e487b7100000000000000000000000000000000000000000000000000000000600052601260045260246000fd5b7f4e487b7100000000000000000000000000000000000000000000000000000000600052602260045260246000fd5b7f4e487b7100000000000000000000000000000000000000000000000000000000600052604160045260246000fd5b6000601f19601f8301169050919050565b614a56816147f0565b8114614a6157600080fd5b50565b614a6d81614802565b8114614a7857600080fd5b50565b614a848161480e565b8114614a8f57600080fd5b50565b614a9b81614818565b8114614aa657600080fd5b50565b614ab281614864565b8114614abd57600080fd5b5056fea26469706673582212209af3ff70843af563f60723cc2726062bb084541d80dcd5250ec2dc590ac6201464736f6c63430008000033",
  "linkReferences": {},
  "deployedLinkReferences": {}
}