{
  "_format": "hh-sol-artifact-1",
  "contractName": "DeepEye",
  "sourceName": "contracts/DeepEye.sol",
  "abi": [
    {
      "inputs": [
        {
          "internalType": "string",
          "name": "_name",
          "type": "string"
        },
        {
          "internalType": "string",
          "name": "_symbol",
          "type": "string"
        },
        {
          "internalType": "string",
          "name": "_initBaseURI",
          "type": "string"
        },
        {
          "internalType": "string",
          "name": "_initNotRevealedUri",
          "type": "string"
        }
      ],
      "stateMutability": "nonpayable",
      "type": "constructor"
    },
    {
      "anonymous": false,
      "inputs": [
        {
          "indexed": true,
          "internalType": "address",
          "name": "owner",
          "type": "address"
        },
        {
          "indexed": true,
          "internalType": "address",
          "name": "approved",
          "type": "address"
        },
        {
          "indexed": true,
          "internalType": "uint256",
          "name": "tokenId",
          "type": "uint256"
        }
      ],
      "name": "Approval",
      "type": "event"
    },
    {
      "anonymous": false,
      "inputs": [
        {
          "indexed": true,
          "internalType": "address",
          "name": "owner",
          "type": "address"
        },
        {
          "indexed": true,
          "internalType": "address",
          "name": "operator",
          "type": "address"
        },
        {
          "indexed": false,
          "internalType": "bool",
          "name": "approved",
          "type": "bool"
        }
      ],
      "name": "ApprovalForAll",
      "type": "event"
    },
    {
      "anonymous": false,
      "inputs": [
        {
          "indexed": true,
          "internalType": "address",
          "name": "previousOwner",
          "type": "address"
        },
        {
          "indexed": true,
          "internalType": "address",
          "name": "newOwner",
          "type": "address"
        }
      ],
      "name": "OwnershipTransferred",
      "type": "event"
    },
    {
      "anonymous": false,
      "inputs": [
        {
          "indexed": true,
          "internalType": "address",
          "name": "from",
          "type": "address"
        },
        {
          "indexed": true,
          "internalType": "address",
          "name": "to",
          "type": "address"
        },
        {
          "indexed": true,
          "internalType": "uint256",
          "name": "tokenId",
          "type": "uint256"
        }
      ],
      "name": "Transfer",
      "type": "event"
    },
    {
      "inputs": [
        {
          "internalType": "address",
          "name": "to",
          "type": "address"
        },
        {
          "internalType": "uint256",
          "name": "tokenId",
          "type": "uint256"
        }
      ],
      "name": "approve",
      "outputs": [],
      "stateMutability": "nonpayable",
      "type": "function"
    },
    {
      "inputs": [
        {
          "internalType": "address",
          "name": "owner",
          "type": "address"
        }
      ],
      "name": "balanceOf",
      "outputs": [
        {
          "internalType": "uint256",
          "name": "",
          "type": "uint256"
        }
      ],
      "stateMutability": "view",
      "type": "function"
    },
    {
      "inputs": [],
      "name": "baseExtension",
      "outputs": [
        {
          "internalType": "string",
          "name": "",
          "type": "string"
        }
      ],
      "stateMutability": "view",
      "type": "function"
    },
    {
      "inputs": [],
      "name": "cost",
      "outputs": [
        {
          "internalType": "uint256",
          "name": "",
          "type": "uint256"
        }
      ],
      "stateMutability": "view",
      "type": "function"
    },
    {
      "inputs": [],
      "name": "generateRandomTokenIdShifter",
      "outputs": [],
      "stateMutability": "nonpayable",
      "type": "function"
    },
    {
      "inputs": [
        {
          "internalType": "uint256",
          "name": "tokenId",
          "type": "uint256"
        }
      ],
      "name": "getApproved",
      "outputs": [
        {
          "internalType": "address",
          "name": "",
          "type": "address"
        }
      ],
      "stateMutability": "view",
      "type": "function"
    },
    {
      "inputs": [],
      "name": "getTokenIdShifter",
      "outputs": [
        {
          "internalType": "uint32",
          "name": "",
          "type": "uint32"
        }
      ],
      "stateMutability": "view",
      "type": "function"
    },
    {
      "inputs": [
        {
          "internalType": "address",
          "name": "owner",
          "type": "address"
        },
        {
          "internalType": "address",
          "name": "operator",
          "type": "address"
        }
      ],
      "name": "isApprovedForAll",
      "outputs": [
        {
          "internalType": "bool",
          "name": "",
          "type": "bool"
        }
      ],
      "stateMutability": "view",
      "type": "function"
    },
    {
      "inputs": [],
      "name": "maxMintAmount",
      "outputs": [
        {
          "internalType": "uint256",
          "name": "",
          "type": "uint256"
        }
      ],
      "stateMutability": "view",
      "type": "function"
    },
    {
      "inputs": [],
      "name": "maxSupply",
      "outputs": [
        {
          "internalType": "uint256",
          "name": "",
          "type": "uint256"
        }
      ],
      "stateMutability": "view",
      "type": "function"
    },
    {
      "inputs": [
        {
          "internalType": "uint256",
          "name": "_mintAmount",
          "type": "uint256"
        }
      ],
      "name": "mint",
      "outputs": [],
      "stateMutability": "payable",
      "type": "function"
    },
    {
      "inputs": [],
      "name": "name",
      "outputs": [
        {
          "internalType": "string",
          "name": "",
          "type": "string"
        }
      ],
      "stateMutability": "view",
      "type": "function"
    },
    {
      "inputs": [],
      "name": "notRevealedUri",
      "outputs": [
        {
          "internalType": "string",
          "name": "",
          "type": "string"
        }
      ],
      "stateMutability": "view",
      "type": "function"
    },
    {
      "inputs": [],
      "name": "owner",
      "outputs": [
        {
          "internalType": "address",
          "name": "",
          "type": "address"
        }
      ],
      "stateMutability": "view",
      "type": "function"
    },
    {
      "inputs": [
        {
          "internalType": "uint256",
          "name": "tokenId",
          "type": "uint256"
        }
      ],
      "name": "ownerOf",
      "outputs": [
        {
          "internalType": "address",
          "name": "",
          "type": "address"
        }
      ],
      "stateMutability": "view",
      "type": "function"
    },
    {
      "inputs": [
        {
          "internalType": "bool",
          "name": "_state",
          "type": "bool"
        }
      ],
      "name": "pause",
      "outputs": [],
      "stateMutability": "nonpayable",
      "type": "function"
    },
    {
      "inputs": [],
      "name": "paused",
      "outputs": [
        {
          "internalType": "bool",
          "name": "",
          "type": "bool"
        }
      ],
      "stateMutability": "view",
      "type": "function"
    },
    {
      "inputs": [],
      "name": "randomness",
      "outputs": [
        {
          "internalType": "contract Randomness",
          "name": "",
          "type": "address"
        }
      ],
      "stateMutability": "view",
      "type": "function"
    },
    {
      "inputs": [],
      "name": "renounceOwnership",
      "outputs": [],
      "stateMutability": "nonpayable",
      "type": "function"
    },
    {
      "inputs": [],
      "name": "reveal",
      "outputs": [],
      "stateMutability": "nonpayable",
      "type": "function"
    },
    {
      "inputs": [],
      "name": "revealed",
      "outputs": [
        {
          "internalType": "bool",
          "name": "",
          "type": "bool"
        }
      ],
      "stateMutability": "view",
      "type": "function"
    },
    {
      "inputs": [
        {
          "internalType": "address",
          "name": "from",
          "type": "address"
        },
        {
          "internalType": "address",
          "name": "to",
          "type": "address"
        },
        {
          "internalType": "uint256",
          "name": "tokenId",
          "type": "uint256"
        }
      ],
      "name": "safeTransferFrom",
      "outputs": [],
      "stateMutability": "nonpayable",
      "type": "function"
    },
    {
      "inputs": [
        {
          "internalType": "address",
          "name": "from",
          "type": "address"
        },
        {
          "internalType": "address",
          "name": "to",
          "type": "address"
        },
        {
          "internalType": "uint256",
          "name": "tokenId",
          "type": "uint256"
        },
        {
          "internalType": "bytes",
          "name": "_data",
          "type": "bytes"
        }
      ],
      "name": "safeTransferFrom",
      "outputs": [],
      "stateMutability": "nonpayable",
      "type": "function"
    },
    {
      "inputs": [
        {
          "internalType": "address",
          "name": "operator",
          "type": "address"
        },
        {
          "internalType": "bool",
          "name": "approved",
          "type": "bool"
        }
      ],
      "name": "setApprovalForAll",
      "outputs": [],
      "stateMutability": "nonpayable",
      "type": "function"
    },
    {
      "inputs": [
        {
          "internalType": "string",
          "name": "_newBaseExtension",
          "type": "string"
        }
      ],
      "name": "setBaseExtension",
      "outputs": [],
      "stateMutability": "nonpayable",
      "type": "function"
    },
    {
      "inputs": [
        {
          "internalType": "string",
          "name": "_newBaseURI",
          "type": "string"
        }
      ],
      "name": "setBaseURI",
      "outputs": [],
      "stateMutability": "nonpayable",
      "type": "function"
    },
    {
      "inputs": [
        {
          "internalType": "uint256",
          "name": "_newCost",
          "type": "uint256"
        }
      ],
      "name": "setCost",
      "outputs": [],
      "stateMutability": "nonpayable",
      "type": "function"
    },
    {
      "inputs": [
        {
          "internalType": "string",
          "name": "_notRevealedURI",
          "type": "string"
        }
      ],
      "name": "setNotRevealedURI",
      "outputs": [],
      "stateMutability": "nonpayable",
      "type": "function"
    },
    {
      "inputs": [
        {
          "internalType": "uint256",
          "name": "_newmaxMintAmount",
          "type": "uint256"
        }
      ],
      "name": "setmaxMintAmount",
      "outputs": [],
      "stateMutability": "nonpayable",
      "type": "function"
    },
    {
      "inputs": [
        {
          "internalType": "bytes4",
          "name": "interfaceId",
          "type": "bytes4"
        }
      ],
      "name": "supportsInterface",
      "outputs": [
        {
          "internalType": "bool",
          "name": "",
          "type": "bool"
        }
      ],
      "stateMutability": "view",
      "type": "function"
    },
    {
      "inputs": [],
      "name": "symbol",
      "outputs": [
        {
          "internalType": "string",
          "name": "",
          "type": "string"
        }
      ],
      "stateMutability": "view",
      "type": "function"
    },
    {
      "inputs": [
        {
          "internalType": "uint256",
          "name": "index",
          "type": "uint256"
        }
      ],
      "name": "tokenByIndex",
      "outputs": [
        {
          "internalType": "uint256",
          "name": "",
          "type": "uint256"
        }
      ],
      "stateMutability": "view",
      "type": "function"
    },
    {
      "inputs": [
        {
          "internalType": "address",
          "name": "owner",
          "type": "address"
        },
        {
          "internalType": "uint256",
          "name": "index",
          "type": "uint256"
        }
      ],
      "name": "tokenOfOwnerByIndex",
      "outputs": [
        {
          "internalType": "uint256",
          "name": "",
          "type": "uint256"
        }
      ],
      "stateMutability": "view",
      "type": "function"
    },
    {
      "inputs": [
        {
          "internalType": "uint256",
          "name": "tokenId",
          "type": "uint256"
        }
      ],
      "name": "tokenURI",
      "outputs": [
        {
          "internalType": "string",
          "name": "",
          "type": "string"
        }
      ],
      "stateMutability": "view",
      "type": "function"
    },
    {
      "inputs": [],
      "name": "totalSupply",
      "outputs": [
        {
          "internalType": "uint256",
          "name": "",
          "type": "uint256"
        }
      ],
      "stateMutability": "view",
      "type": "function"
    },
    {
      "inputs": [
        {
          "internalType": "address",
          "name": "from",
          "type": "address"
        },
        {
          "internalType": "address",
          "name": "to",
          "type": "address"
        },
        {
          "internalType": "uint256",
          "name": "tokenId",
          "type": "uint256"
        }
      ],
      "name": "transferFrom",
      "outputs": [],
      "stateMutability": "nonpayable",
      "type": "function"
    },
    {
      "inputs": [
        {
          "internalType": "address",
          "name": "newOwner",
          "type": "address"
        }
      ],
      "name": "transferOwnership",
      "outputs": [],
      "stateMutability": "nonpayable",
      "type": "function"
    },
    {
      "inputs": [],
      "name": "withdraw",
      "outputs": [],
      "stateMutability": "payable",
      "type": "function"
    }
  ],
  "bytecode": "0x608060405260405162000012906200040c565b604051809103906000f0801580156200002f573d6000803e3d6000fd5b50600b60006101000a81548173ffffffffffffffffffffffffffffffffffffffff021916908373ffffffffffffffffffffffffffffffffffffffff1602179055506040518060400160405280600581526020017f2e6a736f6e000000000000000000000000000000000000000000000000000000815250600d9080519060200190620000bd9291906200041a565b5066b1a2bc2ec50000600e556064600f5560036010556000601160006101000a81548160ff0219169083151502179055506000601160016101000a81548160ff0219169083151502179055503480156200011657600080fd5b5060405162005c9a38038062005c9a83398181016040528101906200013c91906200053c565b83838160009080519060200190620001569291906200041a565b5080600190805190602001906200016f9291906200041a565b5050506200019262000186620001be60201b60201c565b620001c660201b60201c565b620001a3826200028c60201b60201c565b620001b4816200033760201b60201c565b50505050620007b2565b600033905090565b6000600a60009054906101000a900473ffffffffffffffffffffffffffffffffffffffff16905081600a60006101000a81548173ffffffffffffffffffffffffffffffffffffffff021916908373ffffffffffffffffffffffffffffffffffffffff1602179055508173ffffffffffffffffffffffffffffffffffffffff168173ffffffffffffffffffffffffffffffffffffffff167f8be0079c531659141344cd1fd0a4f28419497f9722a3daafe3b4186f6b6457e060405160405180910390a35050565b6200029c620001be60201b60201c565b73ffffffffffffffffffffffffffffffffffffffff16620002c2620003e260201b60201c565b73ffffffffffffffffffffffffffffffffffffffff16146200031b576040517f08c379a000000000000000000000000000000000000000000000000000000000815260040162000312906200064e565b60405180910390fd5b80600c9080519060200190620003339291906200041a565b5050565b62000347620001be60201b60201c565b73ffffffffffffffffffffffffffffffffffffffff166200036d620003e260201b60201c565b73ffffffffffffffffffffffffffffffffffffffff1614620003c6576040517f08c379a0000000000000000000000000000000000000000000000000000000008152600401620003bd906200064e565b60405180910390fd5b8060129080519060200190620003de9291906200041a565b5050565b6000600a60009054906101000a900473ffffffffffffffffffffffffffffffffffffffff16905090565b610dd58062004ec583390190565b82805462000428906200071e565b90600052602060002090601f0160209004810192826200044c576000855562000498565b82601f106200046757805160ff191683800117855562000498565b8280016001018555821562000498579182015b82811115620004975782518255916020019190600101906200047a565b5b509050620004a79190620004ab565b5090565b5b80821115620004c6576000816000905550600101620004ac565b5090565b6000620004e1620004db84620006a4565b62000670565b905082815260208101848484011115620004fa57600080fd5b62000507848285620006e8565b509392505050565b600082601f8301126200052157600080fd5b815162000533848260208601620004ca565b91505092915050565b600080600080608085870312156200055357600080fd5b600085015167ffffffffffffffff8111156200056e57600080fd5b6200057c878288016200050f565b945050602085015167ffffffffffffffff8111156200059a57600080fd5b620005a8878288016200050f565b935050604085015167ffffffffffffffff811115620005c657600080fd5b620005d4878288016200050f565b925050606085015167ffffffffffffffff811115620005f257600080fd5b62000600878288016200050f565b91505092959194509250565b60006200061b602083620006d7565b91507f4f776e61626c653a2063616c6c6572206973206e6f7420746865206f776e65726000830152602082019050919050565b6000602082019050818103600083015262000669816200060c565b9050919050565b6000604051905081810181811067ffffffffffffffff821117156200069a576200069962000783565b5b8060405250919050565b600067ffffffffffffffff821115620006c257620006c162000783565b5b601f19601f8301169050602081019050919050565b600082825260208201905092915050565b60005b8381101562000708578082015181840152602081019050620006eb565b8381111562000718576000848401525b50505050565b600060028204905060018216806200073757607f821691505b602082108114156200074e576200074d62000754565b5b50919050565b7f4e487b7100000000000000000000000000000000000000000000000000000000600052602260045260246000fd5b7f4e487b7100000000000000000000000000000000000000000000000000000000600052604160045260246000fd5b61470380620007c26000396000f3fe6080604052600436106102255760003560e01c806355f804b311610123578063a22cb465116100ab578063d5abeb011161006f578063d5abeb01146107b5578063da3ef23f146107e0578063e985e9c514610809578063f2c4ce1e14610846578063f2fde38b1461086f57610225565b8063a22cb465146106e4578063a475b5dd1461070d578063b88d4fde14610724578063c66828621461074d578063c87b56dd1461077857610225565b8063715018a6116100f2578063715018a6146106325780637f00c7a6146106495780638da5cb5b1461067257806395d89b411461069d578063a0712d68146106c857610225565b806355f804b3146105645780635c975abb1461058d5780636352211e146105b857806370a08231146105f557610225565b806323b872dd116101b157806344a0d68a1161017557806344a0d68a1461049157806349883b57146104ba5780634f6ccce7146104e55780635183022714610522578063550a15191461054d57610225565b806323b872dd146103cd5780632f745c59146103f657806336013189146104335780633ccfd60b1461045e57806342842e0e1461046857610225565b8063081c8c44116101f8578063081c8c44146102f8578063095ea7b31461032357806313faede61461034c57806318160ddd14610377578063239c70ae146103a257610225565b806301ffc9a71461022a57806302329a291461026757806306fdde0314610290578063081812fc146102bb575b600080fd5b34801561023657600080fd5b50610251600480360381019061024c9190613523565b610898565b60405161025e9190613ed0565b60405180910390f35b34801561027357600080fd5b5061028e600480360381019061028991906134d1565b610912565b005b34801561029c57600080fd5b506102a56109ab565b6040516102b29190613f06565b60405180910390f35b3480156102c757600080fd5b506102e260048036038101906102dd91906135b6565b610a3d565b6040516102ef9190613e69565b60405180910390f35b34801561030457600080fd5b5061030d610ac2565b60405161031a9190613f06565b60405180910390f35b34801561032f57600080fd5b5061034a60048036038101906103459190613495565b610b50565b005b34801561035857600080fd5b50610361610c68565b60405161036e9190614168565b60405180910390f35b34801561038357600080fd5b5061038c610c6e565b6040516103999190614168565b60405180910390f35b3480156103ae57600080fd5b506103b7610c7b565b6040516103c49190614168565b60405180910390f35b3480156103d957600080fd5b506103f460048036038101906103ef919061338f565b610c81565b005b34801561040257600080fd5b5061041d60048036038101906104189190613495565b610ce1565b60405161042a9190614168565b60405180910390f35b34801561043f57600080fd5b50610448610d86565b6040516104559190613eeb565b60405180910390f35b610466610dac565b005b34801561047457600080fd5b5061048f600480360381019061048a919061338f565b610ea8565b005b34801561049d57600080fd5b506104b860048036038101906104b391906135b6565b610ec8565b005b3480156104c657600080fd5b506104cf610f4e565b6040516104dc9190614183565b60405180910390f35b3480156104f157600080fd5b5061050c600480360381019061050791906135b6565b611016565b6040516105199190614168565b60405180910390f35b34801561052e57600080fd5b506105376110ad565b6040516105449190613ed0565b60405180910390f35b34801561055957600080fd5b506105626110c0565b005b34801561057057600080fd5b5061058b60048036038101906105869190613575565b6111e1565b005b34801561059957600080fd5b506105a2611277565b6040516105af9190613ed0565b60405180910390f35b3480156105c457600080fd5b506105df60048036038101906105da91906135b6565b61128a565b6040516105ec9190613e69565b60405180910390f35b34801561060157600080fd5b5061061c6004803603810190610617919061332a565b61133c565b6040516106299190614168565b60405180910390f35b34801561063e57600080fd5b506106476113f4565b005b34801561065557600080fd5b50610670600480360381019061066b91906135b6565b61147c565b005b34801561067e57600080fd5b50610687611502565b6040516106949190613e69565b60405180910390f35b3480156106a957600080fd5b506106b261152c565b6040516106bf9190613f06565b60405180910390f35b6106e260048036038101906106dd91906135b6565b6115be565b005b3480156106f057600080fd5b5061070b60048036038101906107069190613459565b6116aa565b005b34801561071957600080fd5b5061072261182b565b005b34801561073057600080fd5b5061074b600480360381019061074691906133de565b6118c4565b005b34801561075957600080fd5b50610762611926565b60405161076f9190613f06565b60405180910390f35b34801561078457600080fd5b5061079f600480360381019061079a91906135b6565b6119b4565b6040516107ac9190613f06565b60405180910390f35b3480156107c157600080fd5b506107ca611c89565b6040516107d79190614168565b60405180910390f35b3480156107ec57600080fd5b5061080760048036038101906108029190613575565b611c8f565b005b34801561081557600080fd5b50610830600480360381019061082b9190613353565b611d25565b60405161083d9190613ed0565b60405180910390f35b34801561085257600080fd5b5061086d60048036038101906108689190613575565b611db9565b005b34801561087b57600080fd5b506108966004803603810190610891919061332a565b611e4f565b005b60007f780e9d63000000000000000000000000000000000000000000000000000000007bffffffffffffffffffffffffffffffffffffffffffffffffffffffff1916827bffffffffffffffffffffffffffffffffffffffffffffffffffffffff1916148061090b575061090a82611f47565b5b9050919050565b61091a612029565b73ffffffffffffffffffffffffffffffffffffffff16610938611502565b73ffffffffffffffffffffffffffffffffffffffff161461098e576040517f08c379a0000000000000000000000000000000000000000000000000000000008152600401610985906140a8565b60405180910390fd5b80601160006101000a81548160ff02191690831515021790555050565b6060600080546109ba9061449b565b80601f01602080910402602001604051908101604052809291908181526020018280546109e69061449b565b8015610a335780601f10610a0857610100808354040283529160200191610a33565b820191906000526020600020905b815481529060010190602001808311610a1657829003601f168201915b5050505050905090565b6000610a4882612031565b610a87576040517f08c379a0000000000000000000000000000000000000000000000000000000008152600401610a7e90614088565b60405180910390fd5b6004600083815260200190815260200160002060009054906101000a900473ffffffffffffffffffffffffffffffffffffffff169050919050565b60128054610acf9061449b565b80601f0160208091040260200160405190810160405280929190818152602001828054610afb9061449b565b8015610b485780601f10610b1d57610100808354040283529160200191610b48565b820191906000526020600020905b815481529060010190602001808311610b2b57829003601f168201915b505050505081565b6000610b5b8261128a565b90508073ffffffffffffffffffffffffffffffffffffffff168373ffffffffffffffffffffffffffffffffffffffff161415610bcc576040517f08c379a0000000000000000000000000000000000000000000000000000000008152600401610bc390614108565b60405180910390fd5b8073ffffffffffffffffffffffffffffffffffffffff16610beb612029565b73ffffffffffffffffffffffffffffffffffffffff161480610c1a5750610c1981610c14612029565b611d25565b5b610c59576040517f08c379a0000000000000000000000000000000000000000000000000000000008152600401610c5090614008565b60405180910390fd5b610c63838361209d565b505050565b600e5481565b6000600880549050905090565b60105481565b610c92610c8c612029565b82612156565b610cd1576040517f08c379a0000000000000000000000000000000000000000000000000000000008152600401610cc890614128565b60405180910390fd5b610cdc838383612234565b505050565b6000610cec8361133c565b8210610d2d576040517f08c379a0000000000000000000000000000000000000000000000000000000008152600401610d2490613f28565b60405180910390fd5b600660008473ffffffffffffffffffffffffffffffffffffffff1673ffffffffffffffffffffffffffffffffffffffff168152602001908152602001600020600083815260200190815260200160002054905092915050565b600b60009054906101000a900473ffffffffffffffffffffffffffffffffffffffff1681565b610db4612029565b73ffffffffffffffffffffffffffffffffffffffff16610dd2611502565b73ffffffffffffffffffffffffffffffffffffffff1614610e28576040517f08c379a0000000000000000000000000000000000000000000000000000000008152600401610e1f906140a8565b60405180910390fd5b6000610e32611502565b73ffffffffffffffffffffffffffffffffffffffff1647604051610e5590613e54565b60006040518083038185875af1925050503d8060008114610e92576040519150601f19603f3d011682016040523d82523d6000602084013e610e97565b606091505b5050905080610ea557600080fd5b50565b610ec3838383604051806020016040528060008152506118c4565b505050565b610ed0612029565b73ffffffffffffffffffffffffffffffffffffffff16610eee611502565b73ffffffffffffffffffffffffffffffffffffffff1614610f44576040517f08c379a0000000000000000000000000000000000000000000000000000000008152600401610f3b906140a8565b60405180910390fd5b80600e8190555050565b6000610f716040518060600160405280602f815260200161469f602f9139612490565b600b60009054906101000a900473ffffffffffffffffffffffffffffffffffffffff1673ffffffffffffffffffffffffffffffffffffffff166329c16f4c6040518163ffffffff1660e01b815260040160206040518083038186803b158015610fd957600080fd5b505afa158015610fed573d6000803e3d6000fd5b505050506040513d601f19601f8201168201806040525081019061101191906135df565b905090565b6000611020610c6e565b8210611061576040517f08c379a000000000000000000000000000000000000000000000000000000000815260040161105890614148565b60405180910390fd5b6008828154811061109b577f4e487b7100000000000000000000000000000000000000000000000000000000600052603260045260246000fd5b90600052602060002001549050919050565b601160019054906101000a900460ff1681565b6110c8612029565b73ffffffffffffffffffffffffffffffffffffffff166110e6611502565b73ffffffffffffffffffffffffffffffffffffffff161461113c576040517f08c379a0000000000000000000000000000000000000000000000000000000008152600401611133906140a8565b60405180910390fd5b600b60009054906101000a900473ffffffffffffffffffffffffffffffffffffffff1673ffffffffffffffffffffffffffffffffffffffff1663dbdff2c16040518163ffffffff1660e01b8152600401602060405180830381600087803b1580156111a657600080fd5b505af11580156111ba573d6000803e3d6000fd5b505050506040513d601f19601f820116820180604052508101906111de91906134fa565b50565b6111e9612029565b73ffffffffffffffffffffffffffffffffffffffff16611207611502565b73ffffffffffffffffffffffffffffffffffffffff161461125d576040517f08c379a0000000000000000000000000000000000000000000000000000000008152600401611254906140a8565b60405180910390fd5b80600c9080519060200190611273929190613124565b5050565b601160009054906101000a900460ff1681565b6000806002600084815260200190815260200160002060009054906101000a900473ffffffffffffffffffffffffffffffffffffffff169050600073ffffffffffffffffffffffffffffffffffffffff168173ffffffffffffffffffffffffffffffffffffffff161415611333576040517f08c379a000000000000000000000000000000000000000000000000000000000815260040161132a90614048565b60405180910390fd5b80915050919050565b60008073ffffffffffffffffffffffffffffffffffffffff168273ffffffffffffffffffffffffffffffffffffffff1614156113ad576040517f08c379a00000000000000000000000000000000000000000000000000000000081526004016113a490614028565b60405180910390fd5b600360008373ffffffffffffffffffffffffffffffffffffffff1673ffffffffffffffffffffffffffffffffffffffff168152602001908152602001600020549050919050565b6113fc612029565b73ffffffffffffffffffffffffffffffffffffffff1661141a611502565b73ffffffffffffffffffffffffffffffffffffffff1614611470576040517f08c379a0000000000000000000000000000000000000000000000000000000008152600401611467906140a8565b60405180910390fd5b61147a6000612529565b565b611484612029565b73ffffffffffffffffffffffffffffffffffffffff166114a2611502565b73ffffffffffffffffffffffffffffffffffffffff16146114f8576040517f08c379a00000000000000000000000000000000000000000000000000000000081526004016114ef906140a8565b60405180910390fd5b8060108190555050565b6000600a60009054906101000a900473ffffffffffffffffffffffffffffffffffffffff16905090565b60606001805461153b9061449b565b80601f01602080910402602001604051908101604052809291908181526020018280546115679061449b565b80156115b45780601f10611589576101008083540402835291602001916115b4565b820191906000526020600020905b81548152906001019060200180831161159757829003601f168201915b5050505050905090565b60006115c8610c6e565b9050601160009054906101000a900460ff16156115e457600080fd5b600082116115f157600080fd5b60105482111561160057600080fd5b600f54828261160f9190614292565b111561161a57600080fd5b611622611502565b73ffffffffffffffffffffffffffffffffffffffff163373ffffffffffffffffffffffffffffffffffffffff161461166f5781600e546116629190614319565b34101561166e57600080fd5b5b6000600190505b8281116116a55761169233828461168d9190614292565b6125ef565b808061169d906144cd565b915050611676565b505050565b6116b2612029565b73ffffffffffffffffffffffffffffffffffffffff168273ffffffffffffffffffffffffffffffffffffffff161415611720576040517f08c379a000000000000000000000000000000000000000000000000000000000815260040161171790613fc8565b60405180910390fd5b806005600061172d612029565b73ffffffffffffffffffffffffffffffffffffffff1673ffffffffffffffffffffffffffffffffffffffff16815260200190815260200160002060008473ffffffffffffffffffffffffffffffffffffffff1673ffffffffffffffffffffffffffffffffffffffff16815260200190815260200160002060006101000a81548160ff0219169083151502179055508173ffffffffffffffffffffffffffffffffffffffff166117da612029565b73ffffffffffffffffffffffffffffffffffffffff167f17307eab39ab6107e8899845ad3d59bd9653f200f220920489ca2b5937696c318360405161181f9190613ed0565b60405180910390a35050565b611833612029565b73ffffffffffffffffffffffffffffffffffffffff16611851611502565b73ffffffffffffffffffffffffffffffffffffffff16146118a7576040517f08c379a000000000000000000000000000000000000000000000000000000000815260040161189e906140a8565b60405180910390fd5b6001601160016101000a81548160ff021916908315150217905550565b6118d56118cf612029565b83612156565b611914576040517f08c379a000000000000000000000000000000000000000000000000000000000815260040161190b90614128565b60405180910390fd5b6119208484848461260d565b50505050565b600d80546119339061449b565b80601f016020809104026020016040519081016040528092919081815260200182805461195f9061449b565b80156119ac5780601f10611981576101008083540402835291602001916119ac565b820191906000526020600020905b81548152906001019060200180831161198f57829003601f168201915b505050505081565b60606119bf82612031565b6119fe576040517f08c379a00000000000000000000000000000000000000000000000000000000081526004016119f5906140e8565b60405180910390fd5b60001515601160019054906101000a900460ff161515148015611ac657506000600b60009054906101000a900473ffffffffffffffffffffffffffffffffffffffff1673ffffffffffffffffffffffffffffffffffffffff166329c16f4c6040518163ffffffff1660e01b815260040160206040518083038186803b158015611a8657600080fd5b505afa158015611a9a573d6000803e3d6000fd5b505050506040513d601f19601f82011682018060405250810190611abe91906135df565b63ffffffff16145b15611b5d5760128054611ad89061449b565b80601f0160208091040260200160405190810160405280929190818152602001828054611b049061449b565b8015611b515780601f10611b2657610100808354040283529160200191611b51565b820191906000526020600020905b815481529060010190602001808311611b3457829003601f168201915b50505050509050611c84565b6000611b67612669565b905060016064600b60009054906101000a900473ffffffffffffffffffffffffffffffffffffffff1673ffffffffffffffffffffffffffffffffffffffff166329c16f4c6040518163ffffffff1660e01b815260040160206040518083038186803b158015611bd557600080fd5b505afa158015611be9573d6000803e3d6000fd5b505050506040513d601f19601f82011682018060405250810190611c0d91906135df565b63ffffffff1685611c1e9190614292565b611c289190614516565b611c329190614292565b92506000815111611c525760405180602001604052806000815250611c80565b80611c5c84612680565b600d604051602001611c7093929190613e23565b6040516020818303038152906040525b9150505b919050565b600f5481565b611c97612029565b73ffffffffffffffffffffffffffffffffffffffff16611cb5611502565b73ffffffffffffffffffffffffffffffffffffffff1614611d0b576040517f08c379a0000000000000000000000000000000000000000000000000000000008152600401611d02906140a8565b60405180910390fd5b80600d9080519060200190611d21929190613124565b5050565b6000600560008473ffffffffffffffffffffffffffffffffffffffff1673ffffffffffffffffffffffffffffffffffffffff16815260200190815260200160002060008373ffffffffffffffffffffffffffffffffffffffff1673ffffffffffffffffffffffffffffffffffffffff16815260200190815260200160002060009054906101000a900460ff16905092915050565b611dc1612029565b73ffffffffffffffffffffffffffffffffffffffff16611ddf611502565b73ffffffffffffffffffffffffffffffffffffffff1614611e35576040517f08c379a0000000000000000000000000000000000000000000000000000000008152600401611e2c906140a8565b60405180910390fd5b8060129080519060200190611e4b929190613124565b5050565b611e57612029565b73ffffffffffffffffffffffffffffffffffffffff16611e75611502565b73ffffffffffffffffffffffffffffffffffffffff1614611ecb576040517f08c379a0000000000000000000000000000000000000000000000000000000008152600401611ec2906140a8565b60405180910390fd5b600073ffffffffffffffffffffffffffffffffffffffff168173ffffffffffffffffffffffffffffffffffffffff161415611f3b576040517f08c379a0000000000000000000000000000000000000000000000000000000008152600401611f3290613f68565b60405180910390fd5b611f4481612529565b50565b60007f80ac58cd000000000000000000000000000000000000000000000000000000007bffffffffffffffffffffffffffffffffffffffffffffffffffffffff1916827bffffffffffffffffffffffffffffffffffffffffffffffffffffffff1916148061201257507f5b5e139f000000000000000000000000000000000000000000000000000000007bffffffffffffffffffffffffffffffffffffffffffffffffffffffff1916827bffffffffffffffffffffffffffffffffffffffffffffffffffffffff1916145b8061202257506120218261282d565b5b9050919050565b600033905090565b60008073ffffffffffffffffffffffffffffffffffffffff166002600084815260200190815260200160002060009054906101000a900473ffffffffffffffffffffffffffffffffffffffff1673ffffffffffffffffffffffffffffffffffffffff1614159050919050565b816004600083815260200190815260200160002060006101000a81548173ffffffffffffffffffffffffffffffffffffffff021916908373ffffffffffffffffffffffffffffffffffffffff160217905550808273ffffffffffffffffffffffffffffffffffffffff166121108361128a565b73ffffffffffffffffffffffffffffffffffffffff167f8c5be1e5ebec7d5bd14f71427d1e84f3dd0314c0f7b2291e5b200ac8c7c3b92560405160405180910390a45050565b600061216182612031565b6121a0576040517f08c379a000000000000000000000000000000000000000000000000000000000815260040161219790613fe8565b60405180910390fd5b60006121ab8361128a565b90508073ffffffffffffffffffffffffffffffffffffffff168473ffffffffffffffffffffffffffffffffffffffff16148061221a57508373ffffffffffffffffffffffffffffffffffffffff1661220284610a3d565b73ffffffffffffffffffffffffffffffffffffffff16145b8061222b575061222a8185611d25565b5b91505092915050565b8273ffffffffffffffffffffffffffffffffffffffff166122548261128a565b73ffffffffffffffffffffffffffffffffffffffff16146122aa576040517f08c379a00000000000000000000000000000000000000000000000000000000081526004016122a1906140c8565b60405180910390fd5b600073ffffffffffffffffffffffffffffffffffffffff168273ffffffffffffffffffffffffffffffffffffffff16141561231a576040517f08c379a000000000000000000000000000000000000000000000000000000000815260040161231190613fa8565b60405180910390fd5b612325838383612897565b61233060008261209d565b6001600360008573ffffffffffffffffffffffffffffffffffffffff1673ffffffffffffffffffffffffffffffffffffffff16815260200190815260200160002060008282546123809190614373565b925050819055506001600360008473ffffffffffffffffffffffffffffffffffffffff1673ffffffffffffffffffffffffffffffffffffffff16815260200190815260200160002060008282546123d79190614292565b92505081905550816002600083815260200190815260200160002060006101000a81548173ffffffffffffffffffffffffffffffffffffffff021916908373ffffffffffffffffffffffffffffffffffffffff160217905550808273ffffffffffffffffffffffffffffffffffffffff168473ffffffffffffffffffffffffffffffffffffffff167fddf252ad1be2c89b69c2b068fc378daa952ba7f163c4a11628f55a4df523b3ef60405160405180910390a4505050565b612526816040516024016124a49190613f06565b6040516020818303038152906040527f41304fac000000000000000000000000000000000000000000000000000000007bffffffffffffffffffffffffffffffffffffffffffffffffffffffff19166020820180517bffffffffffffffffffffffffffffffffffffffffffffffffffffffff83818316178352505050506129ab565b50565b6000600a60009054906101000a900473ffffffffffffffffffffffffffffffffffffffff16905081600a60006101000a81548173ffffffffffffffffffffffffffffffffffffffff021916908373ffffffffffffffffffffffffffffffffffffffff1602179055508173ffffffffffffffffffffffffffffffffffffffff168173ffffffffffffffffffffffffffffffffffffffff167f8be0079c531659141344cd1fd0a4f28419497f9722a3daafe3b4186f6b6457e060405160405180910390a35050565b6126098282604051806020016040528060008152506129d4565b5050565b612618848484612234565b61262484848484612a2f565b612663576040517f08c379a000000000000000000000000000000000000000000000000000000000815260040161265a90613f48565b60405180910390fd5b50505050565b606060405180602001604052806000815250905090565b606060008214156126c8576040518060400160405280600181526020017f30000000000000000000000000000000000000000000000000000000000000008152509050612828565b600082905060005b600082146126fa5780806126e3906144cd565b915050600a826126f391906142e8565b91506126d0565b60008167ffffffffffffffff81111561273c577f4e487b7100000000000000000000000000000000000000000000000000000000600052604160045260246000fd5b6040519080825280601f01601f19166020018201604052801561276e5781602001600182028036833780820191505090505b5090505b60008514612821576001826127879190614373565b9150600a856127969190614516565b60306127a29190614292565b60f81b8183815181106127de577f4e487b7100000000000000000000000000000000000000000000000000000000600052603260045260246000fd5b60200101907effffffffffffffffffffffffffffffffffffffffffffffffffffffffffffff1916908160001a905350600a8561281a91906142e8565b9450612772565b8093505050505b919050565b60007f01ffc9a7000000000000000000000000000000000000000000000000000000007bffffffffffffffffffffffffffffffffffffffffffffffffffffffff1916827bffffffffffffffffffffffffffffffffffffffffffffffffffffffff1916149050919050565b6128a2838383612bc6565b600073ffffffffffffffffffffffffffffffffffffffff168373ffffffffffffffffffffffffffffffffffffffff1614156128e5576128e081612bcb565b612924565b8173ffffffffffffffffffffffffffffffffffffffff168373ffffffffffffffffffffffffffffffffffffffff1614612923576129228382612c14565b5b5b600073ffffffffffffffffffffffffffffffffffffffff168273ffffffffffffffffffffffffffffffffffffffff1614156129675761296281612d81565b6129a6565b8273ffffffffffffffffffffffffffffffffffffffff168273ffffffffffffffffffffffffffffffffffffffff16146129a5576129a48282612ec4565b5b5b505050565b60008151905060006a636f6e736f6c652e6c6f679050602083016000808483855afa5050505050565b6129de8383612f43565b6129eb6000848484612a2f565b612a2a576040517f08c379a0000000000000000000000000000000000000000000000000000000008152600401612a2190613f48565b60405180910390fd5b505050565b6000612a508473ffffffffffffffffffffffffffffffffffffffff16613111565b15612bb9578373ffffffffffffffffffffffffffffffffffffffff1663150b7a02612a79612029565b8786866040518563ffffffff1660e01b8152600401612a9b9493929190613e84565b602060405180830381600087803b158015612ab557600080fd5b505af1925050508015612ae657506040513d601f19601f82011682018060405250810190612ae3919061354c565b60015b612b69573d8060008114612b16576040519150601f19603f3d011682016040523d82523d6000602084013e612b1b565b606091505b50600081511415612b61576040517f08c379a0000000000000000000000000000000000000000000000000000000008152600401612b5890613f48565b60405180910390fd5b805181602001fd5b63150b7a0260e01b7bffffffffffffffffffffffffffffffffffffffffffffffffffffffff1916817bffffffffffffffffffffffffffffffffffffffffffffffffffffffff191614915050612bbe565b600190505b949350505050565b505050565b6008805490506009600083815260200190815260200160002081905550600881908060018154018082558091505060019003906000526020600020016000909190919091505550565b60006001612c218461133c565b612c2b9190614373565b9050600060076000848152602001908152602001600020549050818114612d10576000600660008673ffffffffffffffffffffffffffffffffffffffff1673ffffffffffffffffffffffffffffffffffffffff168152602001908152602001600020600084815260200190815260200160002054905080600660008773ffffffffffffffffffffffffffffffffffffffff1673ffffffffffffffffffffffffffffffffffffffff168152602001908152602001600020600084815260200190815260200160002081905550816007600083815260200190815260200160002081905550505b6007600084815260200190815260200160002060009055600660008573ffffffffffffffffffffffffffffffffffffffff1673ffffffffffffffffffffffffffffffffffffffff16815260200190815260200160002060008381526020019081526020016000206000905550505050565b60006001600880549050612d959190614373565b9050600060096000848152602001908152602001600020549050600060088381548110612deb577f4e487b7100000000000000000000000000000000000000000000000000000000600052603260045260246000fd5b906000526020600020015490508060088381548110612e33577f4e487b7100000000000000000000000000000000000000000000000000000000600052603260045260246000fd5b906000526020600020018190555081600960008381526020019081526020016000208190555060096000858152602001908152602001600020600090556008805480612ea8577f4e487b7100000000000000000000000000000000000000000000000000000000600052603160045260246000fd5b6001900381819060005260206000200160009055905550505050565b6000612ecf8361133c565b905081600660008573ffffffffffffffffffffffffffffffffffffffff1673ffffffffffffffffffffffffffffffffffffffff168152602001908152602001600020600083815260200190815260200160002081905550806007600084815260200190815260200160002081905550505050565b600073ffffffffffffffffffffffffffffffffffffffff168273ffffffffffffffffffffffffffffffffffffffff161415612fb3576040517f08c379a0000000000000000000000000000000000000000000000000000000008152600401612faa90614068565b60405180910390fd5b612fbc81612031565b15612ffc576040517f08c379a0000000000000000000000000000000000000000000000000000000008152600401612ff390613f88565b60405180910390fd5b61300860008383612897565b6001600360008473ffffffffffffffffffffffffffffffffffffffff1673ffffffffffffffffffffffffffffffffffffffff16815260200190815260200160002060008282546130589190614292565b92505081905550816002600083815260200190815260200160002060006101000a81548173ffffffffffffffffffffffffffffffffffffffff021916908373ffffffffffffffffffffffffffffffffffffffff160217905550808273ffffffffffffffffffffffffffffffffffffffff16600073ffffffffffffffffffffffffffffffffffffffff167fddf252ad1be2c89b69c2b068fc378daa952ba7f163c4a11628f55a4df523b3ef60405160405180910390a45050565b600080823b905060008111915050919050565b8280546131309061449b565b90600052602060002090601f0160209004810192826131525760008555613199565b82601f1061316b57805160ff1916838001178555613199565b82800160010185558215613199579182015b8281111561319857825182559160200191906001019061317d565b5b5090506131a691906131aa565b5090565b5b808211156131c35760008160009055506001016131ab565b5090565b60006131da6131d5846141cf565b61419e565b9050828152602081018484840111156131f257600080fd5b6131fd848285614459565b509392505050565b6000613218613213846141ff565b61419e565b90508281526020810184848401111561323057600080fd5b61323b848285614459565b509392505050565b60008135905061325281614614565b92915050565b6000813590506132678161462b565b92915050565b60008151905061327c81614642565b92915050565b60008135905061329181614659565b92915050565b6000815190506132a681614659565b92915050565b600082601f8301126132bd57600080fd5b81356132cd8482602086016131c7565b91505092915050565b600082601f8301126132e757600080fd5b81356132f7848260208601613205565b91505092915050565b60008135905061330f81614670565b92915050565b60008151905061332481614687565b92915050565b60006020828403121561333c57600080fd5b600061334a84828501613243565b91505092915050565b6000806040838503121561336657600080fd5b600061337485828601613243565b925050602061338585828601613243565b9150509250929050565b6000806000606084860312156133a457600080fd5b60006133b286828701613243565b93505060206133c386828701613243565b92505060406133d486828701613300565b9150509250925092565b600080600080608085870312156133f457600080fd5b600061340287828801613243565b945050602061341387828801613243565b935050604061342487828801613300565b925050606085013567ffffffffffffffff81111561344157600080fd5b61344d878288016132ac565b91505092959194509250565b6000806040838503121561346c57600080fd5b600061347a85828601613243565b925050602061348b85828601613258565b9150509250929050565b600080604083850312156134a857600080fd5b60006134b685828601613243565b92505060206134c785828601613300565b9150509250929050565b6000602082840312156134e357600080fd5b60006134f184828501613258565b91505092915050565b60006020828403121561350c57600080fd5b600061351a8482850161326d565b91505092915050565b60006020828403121561353557600080fd5b600061354384828501613282565b91505092915050565b60006020828403121561355e57600080fd5b600061356c84828501613297565b91505092915050565b60006020828403121561358757600080fd5b600082013567ffffffffffffffff8111156135a157600080fd5b6135ad848285016132d6565b91505092915050565b6000602082840312156135c857600080fd5b60006135d684828501613300565b91505092915050565b6000602082840312156135f157600080fd5b60006135ff84828501613315565b91505092915050565b613611816143a7565b82525050565b613620816143b9565b82525050565b600061363182614244565b61363b818561425a565b935061364b818560208601614468565b61365481614603565b840191505092915050565b61366881614435565b82525050565b60006136798261424f565b6136838185614276565b9350613693818560208601614468565b61369c81614603565b840191505092915050565b60006136b28261424f565b6136bc8185614287565b93506136cc818560208601614468565b80840191505092915050565b600081546136e58161449b565b6136ef8186614287565b9450600182166000811461370a576001811461371b5761374e565b60ff1983168652818601935061374e565b6137248561422f565b60005b8381101561374657815481890152600182019150602081019050613727565b838801955050505b50505092915050565b6000613764602b83614276565b91507f455243373231456e756d657261626c653a206f776e657220696e646578206f7560008301527f74206f6620626f756e64730000000000000000000000000000000000000000006020830152604082019050919050565b60006137ca603283614276565b91507f4552433732313a207472616e7366657220746f206e6f6e20455243373231526560008301527f63656976657220696d706c656d656e74657200000000000000000000000000006020830152604082019050919050565b6000613830602683614276565b91507f4f776e61626c653a206e6577206f776e657220697320746865207a65726f206160008301527f64647265737300000000000000000000000000000000000000000000000000006020830152604082019050919050565b6000613896601c83614276565b91507f4552433732313a20746f6b656e20616c7265616479206d696e746564000000006000830152602082019050919050565b60006138d6602483614276565b91507f4552433732313a207472616e7366657220746f20746865207a65726f2061646460008301527f72657373000000000000000000000000000000000000000000000000000000006020830152604082019050919050565b600061393c601983614276565b91507f4552433732313a20617070726f766520746f2063616c6c6572000000000000006000830152602082019050919050565b600061397c602c83614276565b91507f4552433732313a206f70657261746f7220717565727920666f72206e6f6e657860008301527f697374656e7420746f6b656e00000000000000000000000000000000000000006020830152604082019050919050565b60006139e2603883614276565b91507f4552433732313a20617070726f76652063616c6c6572206973206e6f74206f7760008301527f6e6572206e6f7220617070726f76656420666f7220616c6c00000000000000006020830152604082019050919050565b6000613a48602a83614276565b91507f4552433732313a2062616c616e636520717565727920666f7220746865207a6560008301527f726f2061646472657373000000000000000000000000000000000000000000006020830152604082019050919050565b6000613aae602983614276565b91507f4552433732313a206f776e657220717565727920666f72206e6f6e657869737460008301527f656e7420746f6b656e00000000000000000000000000000000000000000000006020830152604082019050919050565b6000613b14602083614276565b91507f4552433732313a206d696e7420746f20746865207a65726f20616464726573736000830152602082019050919050565b6000613b54602c83614276565b91507f4552433732313a20617070726f76656420717565727920666f72206e6f6e657860008301527f697374656e7420746f6b656e00000000000000000000000000000000000000006020830152604082019050919050565b6000613bba602083614276565b91507f4f776e61626c653a2063616c6c6572206973206e6f7420746865206f776e65726000830152602082019050919050565b6000613bfa602983614276565b91507f4552433732313a207472616e73666572206f6620746f6b656e2074686174206960008301527f73206e6f74206f776e00000000000000000000000000000000000000000000006020830152604082019050919050565b6000613c60602f83614276565b91507f4552433732314d657461646174613a2055524920717565727920666f72206e6f60008301527f6e6578697374656e7420746f6b656e00000000000000000000000000000000006020830152604082019050919050565b6000613cc6602183614276565b91507f4552433732313a20617070726f76616c20746f2063757272656e74206f776e6560008301527f72000000000000000000000000000000000000000000000000000000000000006020830152604082019050919050565b6000613d2c60008361426b565b9150600082019050919050565b6000613d46603183614276565b91507f4552433732313a207472616e736665722063616c6c6572206973206e6f74206f60008301527f776e6572206e6f7220617070726f7665640000000000000000000000000000006020830152604082019050919050565b6000613dac602c83614276565b91507f455243373231456e756d657261626c653a20676c6f62616c20696e646578206f60008301527f7574206f6620626f756e647300000000000000000000000000000000000000006020830152604082019050919050565b613e0e8161441b565b82525050565b613e1d81614425565b82525050565b6000613e2f82866136a7565b9150613e3b82856136a7565b9150613e4782846136d8565b9150819050949350505050565b6000613e5f82613d1f565b9150819050919050565b6000602082019050613e7e6000830184613608565b92915050565b6000608082019050613e996000830187613608565b613ea66020830186613608565b613eb36040830185613e05565b8181036060830152613ec58184613626565b905095945050505050565b6000602082019050613ee56000830184613617565b92915050565b6000602082019050613f00600083018461365f565b92915050565b60006020820190508181036000830152613f20818461366e565b905092915050565b60006020820190508181036000830152613f4181613757565b9050919050565b60006020820190508181036000830152613f61816137bd565b9050919050565b60006020820190508181036000830152613f8181613823565b9050919050565b60006020820190508181036000830152613fa181613889565b9050919050565b60006020820190508181036000830152613fc1816138c9565b9050919050565b60006020820190508181036000830152613fe18161392f565b9050919050565b600060208201905081810360008301526140018161396f565b9050919050565b60006020820190508181036000830152614021816139d5565b9050919050565b6000602082019050818103600083015261404181613a3b565b9050919050565b6000602082019050818103600083015261406181613aa1565b9050919050565b6000602082019050818103600083015261408181613b07565b9050919050565b600060208201905081810360008301526140a181613b47565b9050919050565b600060208201905081810360008301526140c181613bad565b9050919050565b600060208201905081810360008301526140e181613bed565b9050919050565b6000602082019050818103600083015261410181613c53565b9050919050565b6000602082019050818103600083015261412181613cb9565b9050919050565b6000602082019050818103600083015261414181613d39565b9050919050565b6000602082019050818103600083015261416181613d9f565b9050919050565b600060208201905061417d6000830184613e05565b92915050565b60006020820190506141986000830184613e14565b92915050565b6000604051905081810181811067ffffffffffffffff821117156141c5576141c46145d4565b5b8060405250919050565b600067ffffffffffffffff8211156141ea576141e96145d4565b5b601f19601f8301169050602081019050919050565b600067ffffffffffffffff82111561421a576142196145d4565b5b601f19601f8301169050602081019050919050565b60008190508160005260206000209050919050565b600081519050919050565b600081519050919050565b600082825260208201905092915050565b600081905092915050565b600082825260208201905092915050565b600081905092915050565b600061429d8261441b565b91506142a88361441b565b9250827fffffffffffffffffffffffffffffffffffffffffffffffffffffffffffffffff038211156142dd576142dc614547565b5b828201905092915050565b60006142f38261441b565b91506142fe8361441b565b92508261430e5761430d614576565b5b828204905092915050565b60006143248261441b565b915061432f8361441b565b9250817fffffffffffffffffffffffffffffffffffffffffffffffffffffffffffffffff048311821515161561436857614367614547565b5b828202905092915050565b600061437e8261441b565b91506143898361441b565b92508282101561439c5761439b614547565b5b828203905092915050565b60006143b2826143fb565b9050919050565b60008115159050919050565b6000819050919050565b60007fffffffff0000000000000000000000000000000000000000000000000000000082169050919050565b600073ffffffffffffffffffffffffffffffffffffffff82169050919050565b6000819050919050565b600063ffffffff82169050919050565b600061444082614447565b9050919050565b6000614452826143fb565b9050919050565b82818337600083830152505050565b60005b8381101561448657808201518184015260208101905061446b565b83811115614495576000848401525b50505050565b600060028204905060018216806144b357607f821691505b602082108114156144c7576144c66145a5565b5b50919050565b60006144d88261441b565b91507fffffffffffffffffffffffffffffffffffffffffffffffffffffffffffffffff82141561450b5761450a614547565b5b600182019050919050565b60006145218261441b565b915061452c8361441b565b92508261453c5761453b614576565b5b828206905092915050565b7f4e487b7100000000000000000000000000000000000000000000000000000000600052601160045260246000fd5b7f4e487b7100000000000000000000000000000000000000000000000000000000600052601260045260246000fd5b7f4e487b7100000000000000000000000000000000000000000000000000000000600052602260045260246000fd5b7f4e487b7100000000000000000000000000000000000000000000000000000000600052604160045260246000fd5b6000601f19601f8301169050919050565b61461d816143a7565b811461462857600080fd5b50565b614634816143b9565b811461463f57600080fd5b50565b61464b816143c5565b811461465657600080fd5b50565b614662816143cf565b811461466d57600080fd5b50565b6146798161441b565b811461468457600080fd5b50565b61469081614425565b811461469b57600080fd5b5056fe484f54454c4c4c4c4c4c5f5f5f5f5f5f5f5f5f5f5f5f5f5f5f5f5f5f2d2d2d2d2d2d2d2d2d2d2d2d2d2d2d2d2d2d2da26469706673582212206e20d5de148a492a58fe060b7cd4adb1cb546224a8a6aaba8b89de25caaffa3864736f6c6343000800003360c060405273dd3782915140c8f3b190b5d67eac6dc5760c46e9600360046101000a81548173ffffffffffffffffffffffffffffffffffffffff021916908373ffffffffffffffffffffffffffffffffffffffff16021790555073a36085f69e2889c224210f603d836748e7dc0088600460006101000a81548173ffffffffffffffffffffffffffffffffffffffff021916908373ffffffffffffffffffffffffffffffffffffffff1602179055503480156100ba57600080fd5b50600360049054906101000a900473ffffffffffffffffffffffffffffffffffffffff16600460009054906101000a900473ffffffffffffffffffffffffffffffffffffffff168173ffffffffffffffffffffffffffffffffffffffff1660a08173ffffffffffffffffffffffffffffffffffffffff1660601b815250508073ffffffffffffffffffffffffffffffffffffffff1660808173ffffffffffffffffffffffffffffffffffffffff1660601b8152505050507f6c3699283bda56ad74f6b855546325b68d482e983852a7a82979cc4807b641f460001b60018190555067016345785d8a00006002819055506000600360006101000a81548163ffffffff021916908363ffffffff16021790555060805160601c60a05160601c610bd0610205600039600081816101bc015261044c01526000818161025d01526104100152610bd06000f3fe608060405234801561001057600080fd5b506004361061007d5760003560e01c806361728f391161005b57806361728f39146100dc57806394985ddd146100fa578063dbdff2c114610116578063ddca3f43146101345761007d565b8063297cf74c1461008257806329c16f4c146100a0578063592756a1146100be575b600080fd5b61008a610152565b6040516100979190610831565b60405180910390f35b6100a8610178565b6040516100b5919061096e565b60405180910390f35b6100c661018e565b6040516100d39190610831565b60405180910390f35b6100e46101b4565b6040516100f1919061088a565b60405180910390f35b610114600480360381019061010f9190610657565b6101ba565b005b61011e610256565b60405161012b919061088a565b60405180910390f35b61013c610384565b6040516101499190610953565b60405180910390f35b600360049054906101000a900473ffffffffffffffffffffffffffffffffffffffff1681565b600360009054906101000a900463ffffffff1681565b600460009054906101000a900473ffffffffffffffffffffffffffffffffffffffff1681565b60015481565b7f000000000000000000000000000000000000000000000000000000000000000073ffffffffffffffffffffffffffffffffffffffff163373ffffffffffffffffffffffffffffffffffffffff1614610248576040517f08c379a000000000000000000000000000000000000000000000000000000000815260040161023f90610933565b60405180910390fd5b610252828261038a565b5050565b60006002547f000000000000000000000000000000000000000000000000000000000000000073ffffffffffffffffffffffffffffffffffffffff166370a08231306040518263ffffffff1660e01b81526004016102b49190610831565b60206040518083038186803b1580156102cc57600080fd5b505afa1580156102e0573d6000803e3d6000fd5b505050506040513d601f19601f820116820180604052508101906103049190610693565b1015610345576040517f08c379a000000000000000000000000000000000000000000000000000000000815260040161033c90610913565b60405180910390fd5b7f48ed86bcf5a9db215d430a3d797d5fd900be09379a002b6f37891bd2aacbe5cf60405160405180910390a161037f60015460025461040c565b905090565b60025481565b60016064826103999190610ab5565b6103a391906109b6565b600360006101000a81548163ffffffff021916908363ffffffff160217905550600360009054906101000a900463ffffffff1663ffffffff167f0fa143af3152b0314efb7493de77eccd78bf3b5a8520cf84c9894d597cca08c060405160405180910390a25050565b60007f000000000000000000000000000000000000000000000000000000000000000073ffffffffffffffffffffffffffffffffffffffff16634000aea07f0000000000000000000000000000000000000000000000000000000000000000848660006040516020016104809291906108a5565b6040516020818303038152906040526040518463ffffffff1660e01b81526004016104ad9392919061084c565b602060405180830381600087803b1580156104c757600080fd5b505af11580156104db573d6000803e3d6000fd5b505050506040513d601f19601f820116820180604052508101906104ff919061062e565b506000610521846000306000808981526020019081526020016000205461056b565b905060016000808681526020019081526020016000205461054291906109b6565b6000808681526020019081526020016000208190555061056284826105a7565b91505092915050565b60008484848460405160200161058494939291906108ce565b6040516020818303038152906040528051906020012060001c9050949350505050565b600082826040516020016105bc929190610805565b60405160208183030381529060405280519060200120905092915050565b6000815190506105e981610b55565b92915050565b6000813590506105fe81610b6c565b92915050565b60008135905061061381610b83565b92915050565b60008151905061062881610b83565b92915050565b60006020828403121561064057600080fd5b600061064e848285016105da565b91505092915050565b6000806040838503121561066a57600080fd5b6000610678858286016105ef565b925050602061068985828601610604565b9150509250929050565b6000602082840312156106a557600080fd5b60006106b384828501610619565b91505092915050565b6106c581610a0c565b82525050565b6106d481610a2a565b82525050565b6106eb6106e682610a2a565b610aa1565b82525050565b60006106fc82610989565b6107068185610994565b9350610716818560208601610a6e565b61071f81610b44565b840191505092915050565b6000610737602b836109a5565b91507f4e6f7420656e6f756768204c494e4b202d2066696c6c20636f6e74726163742060008301527f77697468206661756365740000000000000000000000000000000000000000006020830152604082019050919050565b600061079d601f836109a5565b91507f4f6e6c7920565246436f6f7264696e61746f722063616e2066756c66696c6c006000830152602082019050919050565b6107d981610a54565b82525050565b6107f06107eb82610a54565b610aab565b82525050565b6107ff81610a5e565b82525050565b600061081182856106da565b60208201915061082182846107df565b6020820191508190509392505050565b600060208201905061084660008301846106bc565b92915050565b600060608201905061086160008301866106bc565b61086e60208301856107d0565b818103604083015261088081846106f1565b9050949350505050565b600060208201905061089f60008301846106cb565b92915050565b60006040820190506108ba60008301856106cb565b6108c760208301846107d0565b9392505050565b60006080820190506108e360008301876106cb565b6108f060208301866107d0565b6108fd60408301856106bc565b61090a60608301846107d0565b95945050505050565b6000602082019050818103600083015261092c8161072a565b9050919050565b6000602082019050818103600083015261094c81610790565b9050919050565b600060208201905061096860008301846107d0565b92915050565b600060208201905061098360008301846107f6565b92915050565b600081519050919050565b600082825260208201905092915050565b600082825260208201905092915050565b60006109c182610a54565b91506109cc83610a54565b9250827fffffffffffffffffffffffffffffffffffffffffffffffffffffffffffffffff03821115610a0157610a00610ae6565b5b828201905092915050565b6000610a1782610a34565b9050919050565b60008115159050919050565b6000819050919050565b600073ffffffffffffffffffffffffffffffffffffffff82169050919050565b6000819050919050565b600063ffffffff82169050919050565b60005b83811015610a8c578082015181840152602081019050610a71565b83811115610a9b576000848401525b50505050565b6000819050919050565b6000819050919050565b6000610ac082610a54565b9150610acb83610a54565b925082610adb57610ada610b15565b5b828206905092915050565b7f4e487b7100000000000000000000000000000000000000000000000000000000600052601160045260246000fd5b7f4e487b7100000000000000000000000000000000000000000000000000000000600052601260045260246000fd5b6000601f19601f8301169050919050565b610b5e81610a1e565b8114610b6957600080fd5b50565b610b7581610a2a565b8114610b8057600080fd5b50565b610b8c81610a54565b8114610b9757600080fd5b5056fea26469706673582212208a27a8d74fc2f0219002c3c7114b6d61dee64c6c232fd8026c30795a06b5816264736f6c63430008000033",
  "linkReferences": {},
  "deployedLinkReferences": {}
}