{
  "_format": "hh-sol-artifact-1",
  "contractName": "DeepEye",
  "sourceName": "contracts/DeepEye.sol",
  "abi": [
    {
      "inputs": [
        {
          "internalType": "string",
          "name": "_name",
          "type": "string"
        },
        {
          "internalType": "string",
          "name": "_symbol",
          "type": "string"
        },
        {
          "internalType": "string",
          "name": "_initBaseURI",
          "type": "string"
        },
        {
          "internalType": "string",
          "name": "_initNotRevealedUri",
          "type": "string"
        }
      ],
      "stateMutability": "nonpayable",
      "type": "constructor"
    },
    {
      "anonymous": false,
      "inputs": [
        {
          "indexed": true,
          "internalType": "address",
          "name": "owner",
          "type": "address"
        },
        {
          "indexed": true,
          "internalType": "address",
          "name": "approved",
          "type": "address"
        },
        {
          "indexed": true,
          "internalType": "uint256",
          "name": "tokenId",
          "type": "uint256"
        }
      ],
      "name": "Approval",
      "type": "event"
    },
    {
      "anonymous": false,
      "inputs": [
        {
          "indexed": true,
          "internalType": "address",
          "name": "owner",
          "type": "address"
        },
        {
          "indexed": true,
          "internalType": "address",
          "name": "operator",
          "type": "address"
        },
        {
          "indexed": false,
          "internalType": "bool",
          "name": "approved",
          "type": "bool"
        }
      ],
      "name": "ApprovalForAll",
      "type": "event"
    },
    {
      "anonymous": false,
      "inputs": [
        {
          "indexed": true,
          "internalType": "uint32",
          "name": "result",
          "type": "uint32"
        }
      ],
      "name": "DiceLanded",
      "type": "event"
    },
    {
      "anonymous": false,
      "inputs": [],
      "name": "DiceRolled",
      "type": "event"
    },
    {
      "anonymous": false,
      "inputs": [
        {
          "indexed": true,
          "internalType": "address",
          "name": "previousOwner",
          "type": "address"
        },
        {
          "indexed": true,
          "internalType": "address",
          "name": "newOwner",
          "type": "address"
        }
      ],
      "name": "OwnershipTransferred",
      "type": "event"
    },
    {
      "anonymous": false,
      "inputs": [
        {
          "indexed": true,
          "internalType": "address",
          "name": "from",
          "type": "address"
        },
        {
          "indexed": true,
          "internalType": "address",
          "name": "to",
          "type": "address"
        },
        {
          "indexed": true,
          "internalType": "uint256",
          "name": "tokenId",
          "type": "uint256"
        }
      ],
      "name": "Transfer",
      "type": "event"
    },
    {
      "inputs": [],
      "name": "LINK_token",
      "outputs": [
        {
          "internalType": "address",
          "name": "",
          "type": "address"
        }
      ],
      "stateMutability": "view",
      "type": "function"
    },
    {
      "inputs": [],
      "name": "VRF_Coordinator",
      "outputs": [
        {
          "internalType": "address",
          "name": "",
          "type": "address"
        }
      ],
      "stateMutability": "view",
      "type": "function"
    },
    {
      "inputs": [
        {
          "internalType": "address",
          "name": "to",
          "type": "address"
        },
        {
          "internalType": "uint256",
          "name": "tokenId",
          "type": "uint256"
        }
      ],
      "name": "approve",
      "outputs": [],
      "stateMutability": "nonpayable",
      "type": "function"
    },
    {
      "inputs": [
        {
          "internalType": "address",
          "name": "owner",
          "type": "address"
        }
      ],
      "name": "balanceOf",
      "outputs": [
        {
          "internalType": "uint256",
          "name": "",
          "type": "uint256"
        }
      ],
      "stateMutability": "view",
      "type": "function"
    },
    {
      "inputs": [],
      "name": "baseExtension",
      "outputs": [
        {
          "internalType": "string",
          "name": "",
          "type": "string"
        }
      ],
      "stateMutability": "view",
      "type": "function"
    },
    {
      "inputs": [],
      "name": "chainlink",
      "outputs": [
        {
          "internalType": "contract IERC20",
          "name": "",
          "type": "address"
        }
      ],
      "stateMutability": "view",
      "type": "function"
    },
    {
      "inputs": [],
      "name": "cost",
      "outputs": [
        {
          "internalType": "uint256",
          "name": "",
          "type": "uint256"
        }
      ],
      "stateMutability": "view",
      "type": "function"
    },
    {
      "inputs": [],
      "name": "fee",
      "outputs": [
        {
          "internalType": "uint256",
          "name": "",
          "type": "uint256"
        }
      ],
      "stateMutability": "view",
      "type": "function"
    },
    {
      "inputs": [
        {
          "internalType": "uint256",
          "name": "tokenId",
          "type": "uint256"
        }
      ],
      "name": "getApproved",
      "outputs": [
        {
          "internalType": "address",
          "name": "",
          "type": "address"
        }
      ],
      "stateMutability": "view",
      "type": "function"
    },
    {
      "inputs": [],
      "name": "getBalance",
      "outputs": [
        {
          "internalType": "uint256",
          "name": "",
          "type": "uint256"
        }
      ],
      "stateMutability": "view",
      "type": "function"
    },
    {
      "inputs": [],
      "name": "getRandomNumber",
      "outputs": [
        {
          "internalType": "bytes32",
          "name": "requestId",
          "type": "bytes32"
        }
      ],
      "stateMutability": "nonpayable",
      "type": "function"
    },
    {
      "inputs": [
        {
          "internalType": "address",
          "name": "owner",
          "type": "address"
        },
        {
          "internalType": "address",
          "name": "operator",
          "type": "address"
        }
      ],
      "name": "isApprovedForAll",
      "outputs": [
        {
          "internalType": "bool",
          "name": "",
          "type": "bool"
        }
      ],
      "stateMutability": "view",
      "type": "function"
    },
    {
      "inputs": [],
      "name": "keyHash",
      "outputs": [
        {
          "internalType": "bytes32",
          "name": "",
          "type": "bytes32"
        }
      ],
      "stateMutability": "view",
      "type": "function"
    },
    {
      "inputs": [],
      "name": "maxMintAmount",
      "outputs": [
        {
          "internalType": "uint256",
          "name": "",
          "type": "uint256"
        }
      ],
      "stateMutability": "view",
      "type": "function"
    },
    {
      "inputs": [],
      "name": "maxSupply",
      "outputs": [
        {
          "internalType": "uint256",
          "name": "",
          "type": "uint256"
        }
      ],
      "stateMutability": "view",
      "type": "function"
    },
    {
      "inputs": [
        {
          "internalType": "uint256",
          "name": "_mintAmount",
          "type": "uint256"
        }
      ],
      "name": "mint",
      "outputs": [],
      "stateMutability": "payable",
      "type": "function"
    },
    {
      "inputs": [],
      "name": "name",
      "outputs": [
        {
          "internalType": "string",
          "name": "",
          "type": "string"
        }
      ],
      "stateMutability": "view",
      "type": "function"
    },
    {
      "inputs": [],
      "name": "notRevealedUri",
      "outputs": [
        {
          "internalType": "string",
          "name": "",
          "type": "string"
        }
      ],
      "stateMutability": "view",
      "type": "function"
    },
    {
      "inputs": [],
      "name": "owner",
      "outputs": [
        {
          "internalType": "address",
          "name": "",
          "type": "address"
        }
      ],
      "stateMutability": "view",
      "type": "function"
    },
    {
      "inputs": [
        {
          "internalType": "uint256",
          "name": "tokenId",
          "type": "uint256"
        }
      ],
      "name": "ownerOf",
      "outputs": [
        {
          "internalType": "address",
          "name": "",
          "type": "address"
        }
      ],
      "stateMutability": "view",
      "type": "function"
    },
    {
      "inputs": [
        {
          "internalType": "bool",
          "name": "_state",
          "type": "bool"
        }
      ],
      "name": "pause",
      "outputs": [],
      "stateMutability": "nonpayable",
      "type": "function"
    },
    {
      "inputs": [],
      "name": "paused",
      "outputs": [
        {
          "internalType": "bool",
          "name": "",
          "type": "bool"
        }
      ],
      "stateMutability": "view",
      "type": "function"
    },
    {
      "inputs": [
        {
          "internalType": "bytes32",
          "name": "requestId",
          "type": "bytes32"
        },
        {
          "internalType": "uint256",
          "name": "randomness",
          "type": "uint256"
        }
      ],
      "name": "rawFulfillRandomness",
      "outputs": [],
      "stateMutability": "nonpayable",
      "type": "function"
    },
    {
      "inputs": [],
      "name": "refundOwner",
      "outputs": [],
      "stateMutability": "payable",
      "type": "function"
    },
    {
      "inputs": [],
      "name": "renounceOwnership",
      "outputs": [],
      "stateMutability": "nonpayable",
      "type": "function"
    },
    {
      "inputs": [],
      "name": "reveal",
      "outputs": [],
      "stateMutability": "nonpayable",
      "type": "function"
    },
    {
      "inputs": [],
      "name": "revealed",
      "outputs": [
        {
          "internalType": "bool",
          "name": "",
          "type": "bool"
        }
      ],
      "stateMutability": "view",
      "type": "function"
    },
    {
      "inputs": [
        {
          "internalType": "address",
          "name": "from",
          "type": "address"
        },
        {
          "internalType": "address",
          "name": "to",
          "type": "address"
        },
        {
          "internalType": "uint256",
          "name": "tokenId",
          "type": "uint256"
        }
      ],
      "name": "safeTransferFrom",
      "outputs": [],
      "stateMutability": "nonpayable",
      "type": "function"
    },
    {
      "inputs": [
        {
          "internalType": "address",
          "name": "from",
          "type": "address"
        },
        {
          "internalType": "address",
          "name": "to",
          "type": "address"
        },
        {
          "internalType": "uint256",
          "name": "tokenId",
          "type": "uint256"
        },
        {
          "internalType": "bytes",
          "name": "_data",
          "type": "bytes"
        }
      ],
      "name": "safeTransferFrom",
      "outputs": [],
      "stateMutability": "nonpayable",
      "type": "function"
    },
    {
      "inputs": [
        {
          "internalType": "address",
          "name": "operator",
          "type": "address"
        },
        {
          "internalType": "bool",
          "name": "approved",
          "type": "bool"
        }
      ],
      "name": "setApprovalForAll",
      "outputs": [],
      "stateMutability": "nonpayable",
      "type": "function"
    },
    {
      "inputs": [
        {
          "internalType": "string",
          "name": "_newBaseExtension",
          "type": "string"
        }
      ],
      "name": "setBaseExtension",
      "outputs": [],
      "stateMutability": "nonpayable",
      "type": "function"
    },
    {
      "inputs": [
        {
          "internalType": "string",
          "name": "_newBaseURI",
          "type": "string"
        }
      ],
      "name": "setBaseURI",
      "outputs": [],
      "stateMutability": "nonpayable",
      "type": "function"
    },
    {
      "inputs": [
        {
          "internalType": "uint256",
          "name": "_newCost",
          "type": "uint256"
        }
      ],
      "name": "setCost",
      "outputs": [],
      "stateMutability": "nonpayable",
      "type": "function"
    },
    {
      "inputs": [
        {
          "internalType": "string",
          "name": "_notRevealedURI",
          "type": "string"
        }
      ],
      "name": "setNotRevealedURI",
      "outputs": [],
      "stateMutability": "nonpayable",
      "type": "function"
    },
    {
      "inputs": [
        {
          "internalType": "uint256",
          "name": "_newmaxMintAmount",
          "type": "uint256"
        }
      ],
      "name": "setmaxMintAmount",
      "outputs": [],
      "stateMutability": "nonpayable",
      "type": "function"
    },
    {
      "inputs": [
        {
          "internalType": "bytes4",
          "name": "interfaceId",
          "type": "bytes4"
        }
      ],
      "name": "supportsInterface",
      "outputs": [
        {
          "internalType": "bool",
          "name": "",
          "type": "bool"
        }
      ],
      "stateMutability": "view",
      "type": "function"
    },
    {
      "inputs": [],
      "name": "symbol",
      "outputs": [
        {
          "internalType": "string",
          "name": "",
          "type": "string"
        }
      ],
      "stateMutability": "view",
      "type": "function"
    },
    {
      "inputs": [
        {
          "internalType": "uint256",
          "name": "index",
          "type": "uint256"
        }
      ],
      "name": "tokenByIndex",
      "outputs": [
        {
          "internalType": "uint256",
          "name": "",
          "type": "uint256"
        }
      ],
      "stateMutability": "view",
      "type": "function"
    },
    {
      "inputs": [],
      "name": "tokenIdShifter",
      "outputs": [
        {
          "internalType": "uint32",
          "name": "",
          "type": "uint32"
        }
      ],
      "stateMutability": "view",
      "type": "function"
    },
    {
      "inputs": [
        {
          "internalType": "address",
          "name": "owner",
          "type": "address"
        },
        {
          "internalType": "uint256",
          "name": "index",
          "type": "uint256"
        }
      ],
      "name": "tokenOfOwnerByIndex",
      "outputs": [
        {
          "internalType": "uint256",
          "name": "",
          "type": "uint256"
        }
      ],
      "stateMutability": "view",
      "type": "function"
    },
    {
      "inputs": [
        {
          "internalType": "uint256",
          "name": "tokenId",
          "type": "uint256"
        }
      ],
      "name": "tokenURI",
      "outputs": [
        {
          "internalType": "string",
          "name": "",
          "type": "string"
        }
      ],
      "stateMutability": "view",
      "type": "function"
    },
    {
      "inputs": [],
      "name": "totalSupply",
      "outputs": [
        {
          "internalType": "uint256",
          "name": "",
          "type": "uint256"
        }
      ],
      "stateMutability": "view",
      "type": "function"
    },
    {
      "inputs": [
        {
          "internalType": "address",
          "name": "from",
          "type": "address"
        },
        {
          "internalType": "address",
          "name": "to",
          "type": "address"
        },
        {
          "internalType": "uint256",
          "name": "tokenId",
          "type": "uint256"
        }
      ],
      "name": "transferFrom",
      "outputs": [],
      "stateMutability": "nonpayable",
      "type": "function"
    },
    {
      "inputs": [
        {
          "internalType": "address",
          "name": "newOwner",
          "type": "address"
        }
      ],
      "name": "transferOwnership",
      "outputs": [],
      "stateMutability": "nonpayable",
      "type": "function"
    },
    {
      "inputs": [],
      "name": "withdraw",
      "outputs": [],
      "stateMutability": "payable",
      "type": "function"
    }
  ],
  "bytecode": "0x60c060405273b3dccb4cf7a26f6cf6b120cf5a73875b7bbc655b600e60046101000a81548173ffffffffffffffffffffffffffffffffffffffff021916908373ffffffffffffffffffffffffffffffffffffffff1602179055507301be23585060835e02b77ef475b0cc51aa1e0709600f60006101000a81548173ffffffffffffffffffffffffffffffffffffffff021916908373ffffffffffffffffffffffffffffffffffffffff1602179055506040518060400160405280600581526020017f2e6a736f6e00000000000000000000000000000000000000000000000000000081525060129080519060200190620000fb929190620005b0565b5066b1a2bc2ec50000601355606460145560036015556000601660006101000a81548160ff0219169083151502179055506000601660016101000a81548160ff0219169083151502179055503480156200015457600080fd5b50604051620057aa380380620057aa83398181016040528101906200017a9190620006d2565b8383600e60049054906101000a900473ffffffffffffffffffffffffffffffffffffffff16600f60009054906101000a900473ffffffffffffffffffffffffffffffffffffffff168173ffffffffffffffffffffffffffffffffffffffff1660a08173ffffffffffffffffffffffffffffffffffffffff1660601b815250508073ffffffffffffffffffffffffffffffffffffffff1660808173ffffffffffffffffffffffffffffffffffffffff1660601b81525050505081600190805190602001906200024a929190620005b0565b50806002908051906020019062000263929190620005b0565b505050620002866200027a6200036260201b60201c565b6200036a60201b60201c565b7f2ed0feb3e7fd2022120aa84fab1945545a9f2ffc9076fd6156fa96eaff4c131160001b600c8190555067016345785d8a0000600d819055506000600e60006101000a81548163ffffffff021916908363ffffffff1602179055507301be23585060835e02b77ef475b0cc51aa1e0709601060006101000a81548173ffffffffffffffffffffffffffffffffffffffff021916908373ffffffffffffffffffffffffffffffffffffffff16021790555062000347826200043060201b60201c565b6200035881620004db60201b60201c565b5050505062000948565b600033905090565b6000600b60009054906101000a900473ffffffffffffffffffffffffffffffffffffffff16905081600b60006101000a81548173ffffffffffffffffffffffffffffffffffffffff021916908373ffffffffffffffffffffffffffffffffffffffff1602179055508173ffffffffffffffffffffffffffffffffffffffff168173ffffffffffffffffffffffffffffffffffffffff167f8be0079c531659141344cd1fd0a4f28419497f9722a3daafe3b4186f6b6457e060405160405180910390a35050565b620004406200036260201b60201c565b73ffffffffffffffffffffffffffffffffffffffff16620004666200058660201b60201c565b73ffffffffffffffffffffffffffffffffffffffff1614620004bf576040517f08c379a0000000000000000000000000000000000000000000000000000000008152600401620004b690620007e4565b60405180910390fd5b8060119080519060200190620004d7929190620005b0565b5050565b620004eb6200036260201b60201c565b73ffffffffffffffffffffffffffffffffffffffff16620005116200058660201b60201c565b73ffffffffffffffffffffffffffffffffffffffff16146200056a576040517f08c379a00000000000000000000000000000000000000000000000000000000081526004016200056190620007e4565b60405180910390fd5b806017908051906020019062000582929190620005b0565b5050565b6000600b60009054906101000a900473ffffffffffffffffffffffffffffffffffffffff16905090565b828054620005be90620008b4565b90600052602060002090601f016020900481019282620005e257600085556200062e565b82601f10620005fd57805160ff19168380011785556200062e565b828001600101855582156200062e579182015b828111156200062d57825182559160200191906001019062000610565b5b5090506200063d919062000641565b5090565b5b808211156200065c57600081600090555060010162000642565b5090565b60006200067762000671846200083a565b62000806565b9050828152602081018484840111156200069057600080fd5b6200069d8482856200087e565b509392505050565b600082601f830112620006b757600080fd5b8151620006c984826020860162000660565b91505092915050565b60008060008060808587031215620006e957600080fd5b600085015167ffffffffffffffff8111156200070457600080fd5b6200071287828801620006a5565b945050602085015167ffffffffffffffff8111156200073057600080fd5b6200073e87828801620006a5565b935050604085015167ffffffffffffffff8111156200075c57600080fd5b6200076a87828801620006a5565b925050606085015167ffffffffffffffff8111156200078857600080fd5b6200079687828801620006a5565b91505092959194509250565b6000620007b16020836200086d565b91507f4f776e61626c653a2063616c6c6572206973206e6f7420746865206f776e65726000830152602082019050919050565b60006020820190508181036000830152620007ff81620007a2565b9050919050565b6000604051905081810181811067ffffffffffffffff8211171562000830576200082f62000919565b5b8060405250919050565b600067ffffffffffffffff82111562000858576200085762000919565b5b601f19601f8301169050602081019050919050565b600082825260208201905092915050565b60005b838110156200089e57808201518184015260208101905062000881565b83811115620008ae576000848401525b50505050565b60006002820490506001821680620008cd57607f821691505b60208210811415620008e457620008e3620008ea565b5b50919050565b7f4e487b7100000000000000000000000000000000000000000000000000000000600052602260045260246000fd5b7f4e487b7100000000000000000000000000000000000000000000000000000000600052604160045260246000fd5b60805160601c60a05160601c614e2862000982600039600081816116e00152612b69015260008181611f0b0152612b2d0152614e286000f3fe6080604052600436106102725760003560e01c806361728f391161014f578063a22cb465116100c1578063da3ef23f1161007a578063da3ef23f146108f5578063dbdff2c11461091e578063ddca3f4314610949578063e985e9c514610974578063f2c4ce1e146109b1578063f2fde38b146109da57610272565b8063a22cb465146107f9578063a475b5dd14610822578063b88d4fde14610839578063c668286214610862578063c87b56dd1461088d578063d5abeb01146108ca57610272565b80638c47ddcc116101135780638c47ddcc146107295780638da5cb5b1461073357806394985ddd1461075e57806395d89b41146107875780639c3feeb7146107b2578063a0712d68146107dd57610272565b806361728f39146106445780636352211e1461066f57806370a08231146106ac578063715018a6146106e95780637f00c7a61461070057610272565b8063297cf74c116101e857806344a0d68a116101ac57806344a0d68a146105345780634f6ccce71461055d578063518302271461059a57806355f804b3146105c5578063592756a1146105ee5780635c975abb1461061957610272565b8063297cf74c1461046e57806329c16f4c146104995780632f745c59146104c45780633ccfd60b1461050157806342842e0e1461050b57610272565b8063095ea7b31161023a578063095ea7b31461037057806312065fe01461039957806313faede6146103c457806318160ddd146103ef578063239c70ae1461041a57806323b872dd1461044557610272565b806301ffc9a71461027757806302329a29146102b457806306fdde03146102dd578063081812fc14610308578063081c8c4414610345575b600080fd5b34801561028357600080fd5b5061029e60048036038101906102999190613a15565b610a03565b6040516102ab919061455e565b60405180910390f35b3480156102c057600080fd5b506102db60048036038101906102d69190613987565b610a7d565b005b3480156102e957600080fd5b506102f2610b16565b6040516102ff919061461d565b60405180910390f35b34801561031457600080fd5b5061032f600480360381019061032a9190613aa8565b610ba8565b60405161033c9190614490565b60405180910390f35b34801561035157600080fd5b5061035a610c2d565b604051610367919061461d565b60405180910390f35b34801561037c57600080fd5b506103976004803603810190610392919061394b565b610cbb565b005b3480156103a557600080fd5b506103ae610dd3565b6040516103bb91906148bf565b60405180910390f35b3480156103d057600080fd5b506103d9610e85565b6040516103e691906148bf565b60405180910390f35b3480156103fb57600080fd5b50610404610e8b565b60405161041191906148bf565b60405180910390f35b34801561042657600080fd5b5061042f610e98565b60405161043c91906148bf565b60405180910390f35b34801561045157600080fd5b5061046c60048036038101906104679190613845565b610e9e565b005b34801561047a57600080fd5b50610483610efe565b6040516104909190614490565b60405180910390f35b3480156104a557600080fd5b506104ae610f24565b6040516104bb91906148da565b60405180910390f35b3480156104d057600080fd5b506104eb60048036038101906104e6919061394b565b610f3a565b6040516104f891906148bf565b60405180910390f35b610509610fdf565b005b34801561051757600080fd5b50610532600480360381019061052d9190613845565b6110db565b005b34801561054057600080fd5b5061055b60048036038101906105569190613aa8565b6110fb565b005b34801561056957600080fd5b50610584600480360381019061057f9190613aa8565b611181565b60405161059191906148bf565b60405180910390f35b3480156105a657600080fd5b506105af611218565b6040516105bc919061455e565b60405180910390f35b3480156105d157600080fd5b506105ec60048036038101906105e79190613a67565b61122b565b005b3480156105fa57600080fd5b506106036112c1565b6040516106109190614490565b60405180910390f35b34801561062557600080fd5b5061062e6112e7565b60405161063b919061455e565b60405180910390f35b34801561065057600080fd5b506106596112fa565b6040516106669190614579565b60405180910390f35b34801561067b57600080fd5b5061069660048036038101906106919190613aa8565b611300565b6040516106a39190614490565b60405180910390f35b3480156106b857600080fd5b506106d360048036038101906106ce91906137e0565b6113b2565b6040516106e091906148bf565b60405180910390f35b3480156106f557600080fd5b506106fe61146a565b005b34801561070c57600080fd5b5061072760048036038101906107229190613aa8565b6114f2565b005b610731611578565b005b34801561073f57600080fd5b506107486116b4565b6040516107559190614490565b60405180910390f35b34801561076a57600080fd5b50610785600480360381019061078091906139d9565b6116de565b005b34801561079357600080fd5b5061079c61177a565b6040516107a9919061461d565b60405180910390f35b3480156107be57600080fd5b506107c761180c565b6040516107d49190614602565b60405180910390f35b6107f760048036038101906107f29190613aa8565b611832565b005b34801561080557600080fd5b50610820600480360381019061081b919061390f565b61191e565b005b34801561082e57600080fd5b50610837611a9f565b005b34801561084557600080fd5b50610860600480360381019061085b9190613894565b611b41565b005b34801561086e57600080fd5b50610877611ba3565b604051610884919061461d565b60405180910390f35b34801561089957600080fd5b506108b460048036038101906108af9190613aa8565b611c31565b6040516108c1919061461d565b60405180910390f35b3480156108d657600080fd5b506108df611dec565b6040516108ec91906148bf565b60405180910390f35b34801561090157600080fd5b5061091c60048036038101906109179190613a67565b611df2565b005b34801561092a57600080fd5b50610933611e88565b6040516109409190614579565b60405180910390f35b34801561095557600080fd5b5061095e612032565b60405161096b91906148bf565b60405180910390f35b34801561098057600080fd5b5061099b60048036038101906109969190613809565b612038565b6040516109a8919061455e565b60405180910390f35b3480156109bd57600080fd5b506109d860048036038101906109d39190613a67565b6120cc565b005b3480156109e657600080fd5b50610a0160048036038101906109fc91906137e0565b612162565b005b60007f780e9d63000000000000000000000000000000000000000000000000000000007bffffffffffffffffffffffffffffffffffffffffffffffffffffffff1916827bffffffffffffffffffffffffffffffffffffffffffffffffffffffff19161480610a765750610a758261225a565b5b9050919050565b610a8561233c565b73ffffffffffffffffffffffffffffffffffffffff16610aa36116b4565b73ffffffffffffffffffffffffffffffffffffffff1614610af9576040517f08c379a0000000000000000000000000000000000000000000000000000000008152600401610af0906147ff565b60405180910390fd5b80601660006101000a81548160ff02191690831515021790555050565b606060018054610b2590614bf2565b80601f0160208091040260200160405190810160405280929190818152602001828054610b5190614bf2565b8015610b9e5780601f10610b7357610100808354040283529160200191610b9e565b820191906000526020600020905b815481529060010190602001808311610b8157829003601f168201915b5050505050905090565b6000610bb382612344565b610bf2576040517f08c379a0000000000000000000000000000000000000000000000000000000008152600401610be9906147df565b60405180910390fd5b6005600083815260200190815260200160002060009054906101000a900473ffffffffffffffffffffffffffffffffffffffff169050919050565b60178054610c3a90614bf2565b80601f0160208091040260200160405190810160405280929190818152602001828054610c6690614bf2565b8015610cb35780601f10610c8857610100808354040283529160200191610cb3565b820191906000526020600020905b815481529060010190602001808311610c9657829003601f168201915b505050505081565b6000610cc682611300565b90508073ffffffffffffffffffffffffffffffffffffffff168373ffffffffffffffffffffffffffffffffffffffff161415610d37576040517f08c379a0000000000000000000000000000000000000000000000000000000008152600401610d2e9061485f565b60405180910390fd5b8073ffffffffffffffffffffffffffffffffffffffff16610d5661233c565b73ffffffffffffffffffffffffffffffffffffffff161480610d855750610d8481610d7f61233c565b612038565b5b610dc4576040517f08c379a0000000000000000000000000000000000000000000000000000000008152600401610dbb9061475f565b60405180910390fd5b610dce83836123b0565b505050565b6000601060009054906101000a900473ffffffffffffffffffffffffffffffffffffffff1673ffffffffffffffffffffffffffffffffffffffff166370a08231306040518263ffffffff1660e01b8152600401610e309190614490565b60206040518083038186803b158015610e4857600080fd5b505afa158015610e5c573d6000803e3d6000fd5b505050506040513d601f19601f82011682018060405250810190610e809190613ad1565b905090565b60135481565b6000600980549050905090565b60155481565b610eaf610ea961233c565b82612469565b610eee576040517f08c379a0000000000000000000000000000000000000000000000000000000008152600401610ee59061487f565b60405180910390fd5b610ef9838383612547565b505050565b600e60049054906101000a900473ffffffffffffffffffffffffffffffffffffffff1681565b600e60009054906101000a900463ffffffff1681565b6000610f45836113b2565b8210610f86576040517f08c379a0000000000000000000000000000000000000000000000000000000008152600401610f7d9061463f565b60405180910390fd5b600760008473ffffffffffffffffffffffffffffffffffffffff1673ffffffffffffffffffffffffffffffffffffffff168152602001908152602001600020600083815260200190815260200160002054905092915050565b610fe761233c565b73ffffffffffffffffffffffffffffffffffffffff166110056116b4565b73ffffffffffffffffffffffffffffffffffffffff161461105b576040517f08c379a0000000000000000000000000000000000000000000000000000000008152600401611052906147ff565b60405180910390fd5b60006110656116b4565b73ffffffffffffffffffffffffffffffffffffffff16476040516110889061447b565b60006040518083038185875af1925050503d80600081146110c5576040519150601f19603f3d011682016040523d82523d6000602084013e6110ca565b606091505b50509050806110d857600080fd5b50565b6110f683838360405180602001604052806000815250611b41565b505050565b61110361233c565b73ffffffffffffffffffffffffffffffffffffffff166111216116b4565b73ffffffffffffffffffffffffffffffffffffffff1614611177576040517f08c379a000000000000000000000000000000000000000000000000000000000815260040161116e906147ff565b60405180910390fd5b8060138190555050565b600061118b610e8b565b82106111cc576040517f08c379a00000000000000000000000000000000000000000000000000000000081526004016111c39061489f565b60405180910390fd5b60098281548110611206577f4e487b7100000000000000000000000000000000000000000000000000000000600052603260045260246000fd5b90600052602060002001549050919050565b601660019054906101000a900460ff1681565b61123361233c565b73ffffffffffffffffffffffffffffffffffffffff166112516116b4565b73ffffffffffffffffffffffffffffffffffffffff16146112a7576040517f08c379a000000000000000000000000000000000000000000000000000000000815260040161129e906147ff565b60405180910390fd5b80601190805190602001906112bd9291906135c5565b5050565b600f60009054906101000a900473ffffffffffffffffffffffffffffffffffffffff1681565b601660009054906101000a900460ff1681565b600c5481565b6000806003600084815260200190815260200160002060009054906101000a900473ffffffffffffffffffffffffffffffffffffffff169050600073ffffffffffffffffffffffffffffffffffffffff168173ffffffffffffffffffffffffffffffffffffffff1614156113a9576040517f08c379a00000000000000000000000000000000000000000000000000000000081526004016113a09061479f565b60405180910390fd5b80915050919050565b60008073ffffffffffffffffffffffffffffffffffffffff168273ffffffffffffffffffffffffffffffffffffffff161415611423576040517f08c379a000000000000000000000000000000000000000000000000000000000815260040161141a9061477f565b60405180910390fd5b600460008373ffffffffffffffffffffffffffffffffffffffff1673ffffffffffffffffffffffffffffffffffffffff168152602001908152602001600020549050919050565b61147261233c565b73ffffffffffffffffffffffffffffffffffffffff166114906116b4565b73ffffffffffffffffffffffffffffffffffffffff16146114e6576040517f08c379a00000000000000000000000000000000000000000000000000000000081526004016114dd906147ff565b60405180910390fd5b6114f060006127a3565b565b6114fa61233c565b73ffffffffffffffffffffffffffffffffffffffff166115186116b4565b73ffffffffffffffffffffffffffffffffffffffff161461156e576040517f08c379a0000000000000000000000000000000000000000000000000000000008152600401611565906147ff565b60405180910390fd5b8060158190555050565b61158061233c565b73ffffffffffffffffffffffffffffffffffffffff1661159e6116b4565b73ffffffffffffffffffffffffffffffffffffffff16146115f4576040517f08c379a00000000000000000000000000000000000000000000000000000000081526004016115eb906147ff565b60405180910390fd5b601060009054906101000a900473ffffffffffffffffffffffffffffffffffffffff1673ffffffffffffffffffffffffffffffffffffffff1663a9059cbb61163a6116b4565b611642610dd3565b6040518363ffffffff1660e01b815260040161165f9291906144f7565b602060405180830381600087803b15801561167957600080fd5b505af115801561168d573d6000803e3d6000fd5b505050506040513d601f19601f820116820180604052508101906116b191906139b0565b50565b6000600b60009054906101000a900473ffffffffffffffffffffffffffffffffffffffff16905090565b7f000000000000000000000000000000000000000000000000000000000000000073ffffffffffffffffffffffffffffffffffffffff163373ffffffffffffffffffffffffffffffffffffffff161461176c576040517f08c379a00000000000000000000000000000000000000000000000000000000081526004016117639061483f565b60405180910390fd5b6117768282612869565b5050565b60606002805461178990614bf2565b80601f01602080910402602001604051908101604052809291908181526020018280546117b590614bf2565b80156118025780601f106117d757610100808354040283529160200191611802565b820191906000526020600020905b8154815290600101906020018083116117e557829003601f168201915b5050505050905090565b601060009054906101000a900473ffffffffffffffffffffffffffffffffffffffff1681565b600061183c610e8b565b9050601660009054906101000a900460ff161561185857600080fd5b6000821161186557600080fd5b60155482111561187457600080fd5b601454828261188391906149e9565b111561188e57600080fd5b6118966116b4565b73ffffffffffffffffffffffffffffffffffffffff163373ffffffffffffffffffffffffffffffffffffffff16146118e357816013546118d69190614a70565b3410156118e257600080fd5b5b6000600190505b8281116119195761190633828461190191906149e9565b6128eb565b808061191190614c24565b9150506118ea565b505050565b61192661233c565b73ffffffffffffffffffffffffffffffffffffffff168273ffffffffffffffffffffffffffffffffffffffff161415611994576040517f08c379a000000000000000000000000000000000000000000000000000000000815260040161198b906146df565b60405180910390fd5b80600660006119a161233c565b73ffffffffffffffffffffffffffffffffffffffff1673ffffffffffffffffffffffffffffffffffffffff16815260200190815260200160002060008473ffffffffffffffffffffffffffffffffffffffff1673ffffffffffffffffffffffffffffffffffffffff16815260200190815260200160002060006101000a81548160ff0219169083151502179055508173ffffffffffffffffffffffffffffffffffffffff16611a4e61233c565b73ffffffffffffffffffffffffffffffffffffffff167f17307eab39ab6107e8899845ad3d59bd9653f200f220920489ca2b5937696c3183604051611a93919061455e565b60405180910390a35050565b611aa761233c565b73ffffffffffffffffffffffffffffffffffffffff16611ac56116b4565b73ffffffffffffffffffffffffffffffffffffffff1614611b1b576040517f08c379a0000000000000000000000000000000000000000000000000000000008152600401611b12906147ff565b60405180910390fd5b611b23611e88565b506001601660016101000a81548160ff021916908315150217905550565b611b52611b4c61233c565b83612469565b611b91576040517f08c379a0000000000000000000000000000000000000000000000000000000008152600401611b889061487f565b60405180910390fd5b611b9d84848484612909565b50505050565b60128054611bb090614bf2565b80601f0160208091040260200160405190810160405280929190818152602001828054611bdc90614bf2565b8015611c295780601f10611bfe57610100808354040283529160200191611c29565b820191906000526020600020905b815481529060010190602001808311611c0c57829003601f168201915b505050505081565b6060611c3c82612344565b611c7b576040517f08c379a0000000000000000000000000000000000000000000000000000000008152600401611c729061473f565b60405180910390fd5b60001515601660019054906101000a900460ff161515148015611cb657506000600e60009054906101000a900463ffffffff1663ffffffff16145b15611d4d5760178054611cc890614bf2565b80601f0160208091040260200160405190810160405280929190818152602001828054611cf490614bf2565b8015611d415780601f10611d1657610100808354040283529160200191611d41565b820191906000526020600020905b815481529060010190602001808311611d2457829003601f168201915b50505050509050611de7565b6000611d57612965565b905060016064600e60009054906101000a900463ffffffff1663ffffffff1685611d8191906149e9565b611d8b9190614c81565b611d9591906149e9565b92506000815111611db55760405180602001604052806000815250611de3565b80611dbf8461297c565b6012604051602001611dd39392919061444a565b6040516020818303038152906040525b9150505b919050565b60145481565b611dfa61233c565b73ffffffffffffffffffffffffffffffffffffffff16611e186116b4565b73ffffffffffffffffffffffffffffffffffffffff1614611e6e576040517f08c379a0000000000000000000000000000000000000000000000000000000008152600401611e65906147ff565b60405180910390fd5b8060129080519060200190611e849291906135c5565b5050565b6000611e9261233c565b73ffffffffffffffffffffffffffffffffffffffff16611eb06116b4565b73ffffffffffffffffffffffffffffffffffffffff1614611f06576040517f08c379a0000000000000000000000000000000000000000000000000000000008152600401611efd906147ff565b60405180910390fd5b600d547f000000000000000000000000000000000000000000000000000000000000000073ffffffffffffffffffffffffffffffffffffffff166370a08231306040518263ffffffff1660e01b8152600401611f629190614490565b60206040518083038186803b158015611f7a57600080fd5b505afa158015611f8e573d6000803e3d6000fd5b505050506040513d601f19601f82011682018060405250810190611fb29190613ad1565b1015611ff3576040517f08c379a0000000000000000000000000000000000000000000000000000000008152600401611fea906146ff565b60405180910390fd5b7f48ed86bcf5a9db215d430a3d797d5fd900be09379a002b6f37891bd2aacbe5cf60405160405180910390a161202d600c54600d54612b29565b905090565b600d5481565b6000600660008473ffffffffffffffffffffffffffffffffffffffff1673ffffffffffffffffffffffffffffffffffffffff16815260200190815260200160002060008373ffffffffffffffffffffffffffffffffffffffff1673ffffffffffffffffffffffffffffffffffffffff16815260200190815260200160002060009054906101000a900460ff16905092915050565b6120d461233c565b73ffffffffffffffffffffffffffffffffffffffff166120f26116b4565b73ffffffffffffffffffffffffffffffffffffffff1614612148576040517f08c379a000000000000000000000000000000000000000000000000000000000815260040161213f906147ff565b60405180910390fd5b806017908051906020019061215e9291906135c5565b5050565b61216a61233c565b73ffffffffffffffffffffffffffffffffffffffff166121886116b4565b73ffffffffffffffffffffffffffffffffffffffff16146121de576040517f08c379a00000000000000000000000000000000000000000000000000000000081526004016121d5906147ff565b60405180910390fd5b600073ffffffffffffffffffffffffffffffffffffffff168173ffffffffffffffffffffffffffffffffffffffff16141561224e576040517f08c379a00000000000000000000000000000000000000000000000000000000081526004016122459061467f565b60405180910390fd5b612257816127a3565b50565b60007f80ac58cd000000000000000000000000000000000000000000000000000000007bffffffffffffffffffffffffffffffffffffffffffffffffffffffff1916827bffffffffffffffffffffffffffffffffffffffffffffffffffffffff1916148061232557507f5b5e139f000000000000000000000000000000000000000000000000000000007bffffffffffffffffffffffffffffffffffffffffffffffffffffffff1916827bffffffffffffffffffffffffffffffffffffffffffffffffffffffff1916145b80612335575061233482612c88565b5b9050919050565b600033905090565b60008073ffffffffffffffffffffffffffffffffffffffff166003600084815260200190815260200160002060009054906101000a900473ffffffffffffffffffffffffffffffffffffffff1673ffffffffffffffffffffffffffffffffffffffff1614159050919050565b816005600083815260200190815260200160002060006101000a81548173ffffffffffffffffffffffffffffffffffffffff021916908373ffffffffffffffffffffffffffffffffffffffff160217905550808273ffffffffffffffffffffffffffffffffffffffff1661242383611300565b73ffffffffffffffffffffffffffffffffffffffff167f8c5be1e5ebec7d5bd14f71427d1e84f3dd0314c0f7b2291e5b200ac8c7c3b92560405160405180910390a45050565b600061247482612344565b6124b3576040517f08c379a00000000000000000000000000000000000000000000000000000000081526004016124aa9061471f565b60405180910390fd5b60006124be83611300565b90508073ffffffffffffffffffffffffffffffffffffffff168473ffffffffffffffffffffffffffffffffffffffff16148061252d57508373ffffffffffffffffffffffffffffffffffffffff1661251584610ba8565b73ffffffffffffffffffffffffffffffffffffffff16145b8061253e575061253d8185612038565b5b91505092915050565b8273ffffffffffffffffffffffffffffffffffffffff1661256782611300565b73ffffffffffffffffffffffffffffffffffffffff16146125bd576040517f08c379a00000000000000000000000000000000000000000000000000000000081526004016125b49061481f565b60405180910390fd5b600073ffffffffffffffffffffffffffffffffffffffff168273ffffffffffffffffffffffffffffffffffffffff16141561262d576040517f08c379a0000000000000000000000000000000000000000000000000000000008152600401612624906146bf565b60405180910390fd5b612638838383612cf2565b6126436000826123b0565b6001600460008573ffffffffffffffffffffffffffffffffffffffff1673ffffffffffffffffffffffffffffffffffffffff16815260200190815260200160002060008282546126939190614aca565b925050819055506001600460008473ffffffffffffffffffffffffffffffffffffffff1673ffffffffffffffffffffffffffffffffffffffff16815260200190815260200160002060008282546126ea91906149e9565b92505081905550816003600083815260200190815260200160002060006101000a81548173ffffffffffffffffffffffffffffffffffffffff021916908373ffffffffffffffffffffffffffffffffffffffff160217905550808273ffffffffffffffffffffffffffffffffffffffff168473ffffffffffffffffffffffffffffffffffffffff167fddf252ad1be2c89b69c2b068fc378daa952ba7f163c4a11628f55a4df523b3ef60405160405180910390a4505050565b6000600b60009054906101000a900473ffffffffffffffffffffffffffffffffffffffff16905081600b60006101000a81548173ffffffffffffffffffffffffffffffffffffffff021916908373ffffffffffffffffffffffffffffffffffffffff1602179055508173ffffffffffffffffffffffffffffffffffffffff168173ffffffffffffffffffffffffffffffffffffffff167f8be0079c531659141344cd1fd0a4f28419497f9722a3daafe3b4186f6b6457e060405160405180910390a35050565b60016064826128789190614c81565b61288291906149e9565b600e60006101000a81548163ffffffff021916908363ffffffff160217905550600e60009054906101000a900463ffffffff1663ffffffff167f2bd582160d7ca70bab6d6431d305b4e34063eab1c51b172dccba45d6f2ad52e160405160405180910390a25050565b612905828260405180602001604052806000815250612e06565b5050565b612914848484612547565b61292084848484612e61565b61295f576040517f08c379a00000000000000000000000000000000000000000000000000000000081526004016129569061465f565b60405180910390fd5b50505050565b606060405180602001604052806000815250905090565b606060008214156129c4576040518060400160405280600181526020017f30000000000000000000000000000000000000000000000000000000000000008152509050612b24565b600082905060005b600082146129f65780806129df90614c24565b915050600a826129ef9190614a3f565b91506129cc565b60008167ffffffffffffffff811115612a38577f4e487b7100000000000000000000000000000000000000000000000000000000600052604160045260246000fd5b6040519080825280601f01601f191660200182016040528015612a6a5781602001600182028036833780820191505090505b5090505b60008514612b1d57600182612a839190614aca565b9150600a85612a929190614c81565b6030612a9e91906149e9565b60f81b818381518110612ada577f4e487b7100000000000000000000000000000000000000000000000000000000600052603260045260246000fd5b60200101907effffffffffffffffffffffffffffffffffffffffffffffffffffffffffffff1916908160001a905350600a85612b169190614a3f565b9450612a6e565b8093505050505b919050565b60007f000000000000000000000000000000000000000000000000000000000000000073ffffffffffffffffffffffffffffffffffffffff16634000aea07f000000000000000000000000000000000000000000000000000000000000000084866000604051602001612b9d929190614594565b6040516020818303038152906040526040518463ffffffff1660e01b8152600401612bca93929190614520565b602060405180830381600087803b158015612be457600080fd5b505af1158015612bf8573d6000803e3d6000fd5b505050506040513d601f19601f82011682018060405250810190612c1c91906139b0565b506000612c3e8460003060008089815260200190815260200160002054612ff8565b9050600160008086815260200190815260200160002054612c5f91906149e9565b60008086815260200190815260200160002081905550612c7f8482613034565b91505092915050565b60007f01ffc9a7000000000000000000000000000000000000000000000000000000007bffffffffffffffffffffffffffffffffffffffffffffffffffffffff1916827bffffffffffffffffffffffffffffffffffffffffffffffffffffffff1916149050919050565b612cfd838383613067565b600073ffffffffffffffffffffffffffffffffffffffff168373ffffffffffffffffffffffffffffffffffffffff161415612d4057612d3b8161306c565b612d7f565b8173ffffffffffffffffffffffffffffffffffffffff168373ffffffffffffffffffffffffffffffffffffffff1614612d7e57612d7d83826130b5565b5b5b600073ffffffffffffffffffffffffffffffffffffffff168273ffffffffffffffffffffffffffffffffffffffff161415612dc257612dbd81613222565b612e01565b8273ffffffffffffffffffffffffffffffffffffffff168273ffffffffffffffffffffffffffffffffffffffff1614612e0057612dff8282613365565b5b5b505050565b612e1083836133e4565b612e1d6000848484612e61565b612e5c576040517f08c379a0000000000000000000000000000000000000000000000000000000008152600401612e539061465f565b60405180910390fd5b505050565b6000612e828473ffffffffffffffffffffffffffffffffffffffff166135b2565b15612feb578373ffffffffffffffffffffffffffffffffffffffff1663150b7a02612eab61233c565b8786866040518563ffffffff1660e01b8152600401612ecd94939291906144ab565b602060405180830381600087803b158015612ee757600080fd5b505af1925050508015612f1857506040513d601f19601f82011682018060405250810190612f159190613a3e565b60015b612f9b573d8060008114612f48576040519150601f19603f3d011682016040523d82523d6000602084013e612f4d565b606091505b50600081511415612f93576040517f08c379a0000000000000000000000000000000000000000000000000000000008152600401612f8a9061465f565b60405180910390fd5b805181602001fd5b63150b7a0260e01b7bffffffffffffffffffffffffffffffffffffffffffffffffffffffff1916817bffffffffffffffffffffffffffffffffffffffffffffffffffffffff191614915050612ff0565b600190505b949350505050565b60008484848460405160200161301194939291906145bd565b6040516020818303038152906040528051906020012060001c9050949350505050565b6000828260405160200161304992919061441e565b60405160208183030381529060405280519060200120905092915050565b505050565b600980549050600a600083815260200190815260200160002081905550600981908060018154018082558091505060019003906000526020600020016000909190919091505550565b600060016130c2846113b2565b6130cc9190614aca565b90506000600860008481526020019081526020016000205490508181146131b1576000600760008673ffffffffffffffffffffffffffffffffffffffff1673ffffffffffffffffffffffffffffffffffffffff168152602001908152602001600020600084815260200190815260200160002054905080600760008773ffffffffffffffffffffffffffffffffffffffff1673ffffffffffffffffffffffffffffffffffffffff168152602001908152602001600020600084815260200190815260200160002081905550816008600083815260200190815260200160002081905550505b6008600084815260200190815260200160002060009055600760008573ffffffffffffffffffffffffffffffffffffffff1673ffffffffffffffffffffffffffffffffffffffff16815260200190815260200160002060008381526020019081526020016000206000905550505050565b600060016009805490506132369190614aca565b90506000600a600084815260200190815260200160002054905060006009838154811061328c577f4e487b7100000000000000000000000000000000000000000000000000000000600052603260045260246000fd5b9060005260206000200154905080600983815481106132d4577f4e487b7100000000000000000000000000000000000000000000000000000000600052603260045260246000fd5b906000526020600020018190555081600a600083815260200190815260200160002081905550600a6000858152602001908152602001600020600090556009805480613349577f4e487b7100000000000000000000000000000000000000000000000000000000600052603160045260246000fd5b6001900381819060005260206000200160009055905550505050565b6000613370836113b2565b905081600760008573ffffffffffffffffffffffffffffffffffffffff1673ffffffffffffffffffffffffffffffffffffffff168152602001908152602001600020600083815260200190815260200160002081905550806008600084815260200190815260200160002081905550505050565b600073ffffffffffffffffffffffffffffffffffffffff168273ffffffffffffffffffffffffffffffffffffffff161415613454576040517f08c379a000000000000000000000000000000000000000000000000000000000815260040161344b906147bf565b60405180910390fd5b61345d81612344565b1561349d576040517f08c379a00000000000000000000000000000000000000000000000000000000081526004016134949061469f565b60405180910390fd5b6134a960008383612cf2565b6001600460008473ffffffffffffffffffffffffffffffffffffffff1673ffffffffffffffffffffffffffffffffffffffff16815260200190815260200160002060008282546134f991906149e9565b92505081905550816003600083815260200190815260200160002060006101000a81548173ffffffffffffffffffffffffffffffffffffffff021916908373ffffffffffffffffffffffffffffffffffffffff160217905550808273ffffffffffffffffffffffffffffffffffffffff16600073ffffffffffffffffffffffffffffffffffffffff167fddf252ad1be2c89b69c2b068fc378daa952ba7f163c4a11628f55a4df523b3ef60405160405180910390a45050565b600080823b905060008111915050919050565b8280546135d190614bf2565b90600052602060002090601f0160209004810192826135f3576000855561363a565b82601f1061360c57805160ff191683800117855561363a565b8280016001018555821561363a579182015b8281111561363957825182559160200191906001019061361e565b5b509050613647919061364b565b5090565b5b8082111561366457600081600090555060010161364c565b5090565b600061367b61367684614926565b6148f5565b90508281526020810184848401111561369357600080fd5b61369e848285614bb0565b509392505050565b60006136b96136b484614956565b6148f5565b9050828152602081018484840111156136d157600080fd5b6136dc848285614bb0565b509392505050565b6000813590506136f381614d7f565b92915050565b60008135905061370881614d96565b92915050565b60008151905061371d81614d96565b92915050565b60008135905061373281614dad565b92915050565b60008135905061374781614dc4565b92915050565b60008151905061375c81614dc4565b92915050565b600082601f83011261377357600080fd5b8135613783848260208601613668565b91505092915050565b600082601f83011261379d57600080fd5b81356137ad8482602086016136a6565b91505092915050565b6000813590506137c581614ddb565b92915050565b6000815190506137da81614ddb565b92915050565b6000602082840312156137f257600080fd5b6000613800848285016136e4565b91505092915050565b6000806040838503121561381c57600080fd5b600061382a858286016136e4565b925050602061383b858286016136e4565b9150509250929050565b60008060006060848603121561385a57600080fd5b6000613868868287016136e4565b9350506020613879868287016136e4565b925050604061388a868287016137b6565b9150509250925092565b600080600080608085870312156138aa57600080fd5b60006138b8878288016136e4565b94505060206138c9878288016136e4565b93505060406138da878288016137b6565b925050606085013567ffffffffffffffff8111156138f757600080fd5b61390387828801613762565b91505092959194509250565b6000806040838503121561392257600080fd5b6000613930858286016136e4565b9250506020613941858286016136f9565b9150509250929050565b6000806040838503121561395e57600080fd5b600061396c858286016136e4565b925050602061397d858286016137b6565b9150509250929050565b60006020828403121561399957600080fd5b60006139a7848285016136f9565b91505092915050565b6000602082840312156139c257600080fd5b60006139d08482850161370e565b91505092915050565b600080604083850312156139ec57600080fd5b60006139fa85828601613723565b9250506020613a0b858286016137b6565b9150509250929050565b600060208284031215613a2757600080fd5b6000613a3584828501613738565b91505092915050565b600060208284031215613a5057600080fd5b6000613a5e8482850161374d565b91505092915050565b600060208284031215613a7957600080fd5b600082013567ffffffffffffffff811115613a9357600080fd5b613a9f8482850161378c565b91505092915050565b600060208284031215613aba57600080fd5b6000613ac8848285016137b6565b91505092915050565b600060208284031215613ae357600080fd5b6000613af1848285016137cb565b91505092915050565b613b0381614afe565b82525050565b613b1281614b10565b82525050565b613b2181614b1c565b82525050565b613b38613b3382614b1c565b614c6d565b82525050565b6000613b498261499b565b613b5381856149b1565b9350613b63818560208601614bbf565b613b6c81614d6e565b840191505092915050565b613b8081614b8c565b82525050565b6000613b91826149a6565b613b9b81856149cd565b9350613bab818560208601614bbf565b613bb481614d6e565b840191505092915050565b6000613bca826149a6565b613bd481856149de565b9350613be4818560208601614bbf565b80840191505092915050565b60008154613bfd81614bf2565b613c0781866149de565b94506001821660008114613c225760018114613c3357613c66565b60ff19831686528186019350613c66565b613c3c85614986565b60005b83811015613c5e57815481890152600182019150602081019050613c3f565b838801955050505b50505092915050565b6000613c7c602b836149cd565b91507f455243373231456e756d657261626c653a206f776e657220696e646578206f7560008301527f74206f6620626f756e64730000000000000000000000000000000000000000006020830152604082019050919050565b6000613ce26032836149cd565b91507f4552433732313a207472616e7366657220746f206e6f6e20455243373231526560008301527f63656976657220696d706c656d656e74657200000000000000000000000000006020830152604082019050919050565b6000613d486026836149cd565b91507f4f776e61626c653a206e6577206f776e657220697320746865207a65726f206160008301527f64647265737300000000000000000000000000000000000000000000000000006020830152604082019050919050565b6000613dae601c836149cd565b91507f4552433732313a20746f6b656e20616c7265616479206d696e746564000000006000830152602082019050919050565b6000613dee6024836149cd565b91507f4552433732313a207472616e7366657220746f20746865207a65726f2061646460008301527f72657373000000000000000000000000000000000000000000000000000000006020830152604082019050919050565b6000613e546019836149cd565b91507f4552433732313a20617070726f766520746f2063616c6c6572000000000000006000830152602082019050919050565b6000613e94602b836149cd565b91507f4e6f7420656e6f756768204c494e4b202d2066696c6c20636f6e74726163742060008301527f77697468206661756365740000000000000000000000000000000000000000006020830152604082019050919050565b6000613efa602c836149cd565b91507f4552433732313a206f70657261746f7220717565727920666f72206e6f6e657860008301527f697374656e7420746f6b656e00000000000000000000000000000000000000006020830152604082019050919050565b6000613f606045836149cd565b91507f4552433732314d657461646174613a2055524920717565727920666f72206e6f60008301527f6e6578697374656e7420746f6b656e202849742773206e6f74206d696e74656460208301527f20796574290000000000000000000000000000000000000000000000000000006040830152606082019050919050565b6000613fec6038836149cd565b91507f4552433732313a20617070726f76652063616c6c6572206973206e6f74206f7760008301527f6e6572206e6f7220617070726f76656420666f7220616c6c00000000000000006020830152604082019050919050565b6000614052602a836149cd565b91507f4552433732313a2062616c616e636520717565727920666f7220746865207a6560008301527f726f2061646472657373000000000000000000000000000000000000000000006020830152604082019050919050565b60006140b86029836149cd565b91507f4552433732313a206f776e657220717565727920666f72206e6f6e657869737460008301527f656e7420746f6b656e00000000000000000000000000000000000000000000006020830152604082019050919050565b600061411e6020836149cd565b91507f4552433732313a206d696e7420746f20746865207a65726f20616464726573736000830152602082019050919050565b600061415e602c836149cd565b91507f4552433732313a20617070726f76656420717565727920666f72206e6f6e657860008301527f697374656e7420746f6b656e00000000000000000000000000000000000000006020830152604082019050919050565b60006141c46020836149cd565b91507f4f776e61626c653a2063616c6c6572206973206e6f7420746865206f776e65726000830152602082019050919050565b60006142046029836149cd565b91507f4552433732313a207472616e73666572206f6620746f6b656e2074686174206960008301527f73206e6f74206f776e00000000000000000000000000000000000000000000006020830152604082019050919050565b600061426a601f836149cd565b91507f4f6e6c7920565246436f6f7264696e61746f722063616e2066756c66696c6c006000830152602082019050919050565b60006142aa6021836149cd565b91507f4552433732313a20617070726f76616c20746f2063757272656e74206f776e6560008301527f72000000000000000000000000000000000000000000000000000000000000006020830152604082019050919050565b60006143106000836149c2565b9150600082019050919050565b600061432a6031836149cd565b91507f4552433732313a207472616e736665722063616c6c6572206973206e6f74206f60008301527f776e6572206e6f7220617070726f7665640000000000000000000000000000006020830152604082019050919050565b6000614390602c836149cd565b91507f455243373231456e756d657261626c653a20676c6f62616c20696e646578206f60008301527f7574206f6620626f756e647300000000000000000000000000000000000000006020830152604082019050919050565b6143f281614b72565b82525050565b61440961440482614b72565b614c77565b82525050565b61441881614b7c565b82525050565b600061442a8285613b27565b60208201915061443a82846143f8565b6020820191508190509392505050565b60006144568286613bbf565b91506144628285613bbf565b915061446e8284613bf0565b9150819050949350505050565b600061448682614303565b9150819050919050565b60006020820190506144a56000830184613afa565b92915050565b60006080820190506144c06000830187613afa565b6144cd6020830186613afa565b6144da60408301856143e9565b81810360608301526144ec8184613b3e565b905095945050505050565b600060408201905061450c6000830185613afa565b61451960208301846143e9565b9392505050565b60006060820190506145356000830186613afa565b61454260208301856143e9565b81810360408301526145548184613b3e565b9050949350505050565b60006020820190506145736000830184613b09565b92915050565b600060208201905061458e6000830184613b18565b92915050565b60006040820190506145a96000830185613b18565b6145b660208301846143e9565b9392505050565b60006080820190506145d26000830187613b18565b6145df60208301866143e9565b6145ec6040830185613afa565b6145f960608301846143e9565b95945050505050565b60006020820190506146176000830184613b77565b92915050565b600060208201905081810360008301526146378184613b86565b905092915050565b6000602082019050818103600083015261465881613c6f565b9050919050565b6000602082019050818103600083015261467881613cd5565b9050919050565b6000602082019050818103600083015261469881613d3b565b9050919050565b600060208201905081810360008301526146b881613da1565b9050919050565b600060208201905081810360008301526146d881613de1565b9050919050565b600060208201905081810360008301526146f881613e47565b9050919050565b6000602082019050818103600083015261471881613e87565b9050919050565b6000602082019050818103600083015261473881613eed565b9050919050565b6000602082019050818103600083015261475881613f53565b9050919050565b6000602082019050818103600083015261477881613fdf565b9050919050565b6000602082019050818103600083015261479881614045565b9050919050565b600060208201905081810360008301526147b8816140ab565b9050919050565b600060208201905081810360008301526147d881614111565b9050919050565b600060208201905081810360008301526147f881614151565b9050919050565b60006020820190508181036000830152614818816141b7565b9050919050565b60006020820190508181036000830152614838816141f7565b9050919050565b600060208201905081810360008301526148588161425d565b9050919050565b600060208201905081810360008301526148788161429d565b9050919050565b600060208201905081810360008301526148988161431d565b9050919050565b600060208201905081810360008301526148b881614383565b9050919050565b60006020820190506148d460008301846143e9565b92915050565b60006020820190506148ef600083018461440f565b92915050565b6000604051905081810181811067ffffffffffffffff8211171561491c5761491b614d3f565b5b8060405250919050565b600067ffffffffffffffff82111561494157614940614d3f565b5b601f19601f8301169050602081019050919050565b600067ffffffffffffffff82111561497157614970614d3f565b5b601f19601f8301169050602081019050919050565b60008190508160005260206000209050919050565b600081519050919050565b600081519050919050565b600082825260208201905092915050565b600081905092915050565b600082825260208201905092915050565b600081905092915050565b60006149f482614b72565b91506149ff83614b72565b9250827fffffffffffffffffffffffffffffffffffffffffffffffffffffffffffffffff03821115614a3457614a33614cb2565b5b828201905092915050565b6000614a4a82614b72565b9150614a5583614b72565b925082614a6557614a64614ce1565b5b828204905092915050565b6000614a7b82614b72565b9150614a8683614b72565b9250817fffffffffffffffffffffffffffffffffffffffffffffffffffffffffffffffff0483118215151615614abf57614abe614cb2565b5b828202905092915050565b6000614ad582614b72565b9150614ae083614b72565b925082821015614af357614af2614cb2565b5b828203905092915050565b6000614b0982614b52565b9050919050565b60008115159050919050565b6000819050919050565b60007fffffffff0000000000000000000000000000000000000000000000000000000082169050919050565b600073ffffffffffffffffffffffffffffffffffffffff82169050919050565b6000819050919050565b600063ffffffff82169050919050565b6000614b9782614b9e565b9050919050565b6000614ba982614b52565b9050919050565b82818337600083830152505050565b60005b83811015614bdd578082015181840152602081019050614bc2565b83811115614bec576000848401525b50505050565b60006002820490506001821680614c0a57607f821691505b60208210811415614c1e57614c1d614d10565b5b50919050565b6000614c2f82614b72565b91507fffffffffffffffffffffffffffffffffffffffffffffffffffffffffffffffff821415614c6257614c61614cb2565b5b600182019050919050565b6000819050919050565b6000819050919050565b6000614c8c82614b72565b9150614c9783614b72565b925082614ca757614ca6614ce1565b5b828206905092915050565b7f4e487b7100000000000000000000000000000000000000000000000000000000600052601160045260246000fd5b7f4e487b7100000000000000000000000000000000000000000000000000000000600052601260045260246000fd5b7f4e487b7100000000000000000000000000000000000000000000000000000000600052602260045260246000fd5b7f4e487b7100000000000000000000000000000000000000000000000000000000600052604160045260246000fd5b6000601f19601f8301169050919050565b614d8881614afe565b8114614d9357600080fd5b50565b614d9f81614b10565b8114614daa57600080fd5b50565b614db681614b1c565b8114614dc157600080fd5b50565b614dcd81614b26565b8114614dd857600080fd5b50565b614de481614b72565b8114614def57600080fd5b5056fea264697066735822122062d15a857947118800d69673798854f77893e0ec03677a088d54b744640b9db464736f6c63430008000033",
  "linkReferences": {},
  "deployedLinkReferences": {}
}