{
  "_format": "hh-sol-artifact-1",
  "contractName": "DeepEye",
  "sourceName": "contracts/DeepEye.sol",
  "abi": [
    {
      "inputs": [
        {
          "internalType": "string",
          "name": "_name",
          "type": "string"
        },
        {
          "internalType": "string",
          "name": "_symbol",
          "type": "string"
        },
        {
          "internalType": "string",
          "name": "_initBaseURI",
          "type": "string"
        },
        {
          "internalType": "string",
          "name": "_initNotRevealedUri",
          "type": "string"
        }
      ],
      "stateMutability": "nonpayable",
      "type": "constructor"
    },
    {
      "anonymous": false,
      "inputs": [
        {
          "indexed": true,
          "internalType": "address",
          "name": "owner",
          "type": "address"
        },
        {
          "indexed": true,
          "internalType": "address",
          "name": "approved",
          "type": "address"
        },
        {
          "indexed": true,
          "internalType": "uint256",
          "name": "tokenId",
          "type": "uint256"
        }
      ],
      "name": "Approval",
      "type": "event"
    },
    {
      "anonymous": false,
      "inputs": [
        {
          "indexed": true,
          "internalType": "address",
          "name": "owner",
          "type": "address"
        },
        {
          "indexed": true,
          "internalType": "address",
          "name": "operator",
          "type": "address"
        },
        {
          "indexed": false,
          "internalType": "bool",
          "name": "approved",
          "type": "bool"
        }
      ],
      "name": "ApprovalForAll",
      "type": "event"
    },
    {
      "anonymous": false,
      "inputs": [
        {
          "indexed": true,
          "internalType": "address",
          "name": "previousOwner",
          "type": "address"
        },
        {
          "indexed": true,
          "internalType": "address",
          "name": "newOwner",
          "type": "address"
        }
      ],
      "name": "OwnershipTransferred",
      "type": "event"
    },
    {
      "anonymous": false,
      "inputs": [
        {
          "indexed": true,
          "internalType": "address",
          "name": "from",
          "type": "address"
        },
        {
          "indexed": true,
          "internalType": "address",
          "name": "to",
          "type": "address"
        },
        {
          "indexed": true,
          "internalType": "uint256",
          "name": "tokenId",
          "type": "uint256"
        }
      ],
      "name": "Transfer",
      "type": "event"
    },
    {
      "inputs": [
        {
          "internalType": "address",
          "name": "to",
          "type": "address"
        },
        {
          "internalType": "uint256",
          "name": "tokenId",
          "type": "uint256"
        }
      ],
      "name": "approve",
      "outputs": [],
      "stateMutability": "nonpayable",
      "type": "function"
    },
    {
      "inputs": [
        {
          "internalType": "address",
          "name": "owner",
          "type": "address"
        }
      ],
      "name": "balanceOf",
      "outputs": [
        {
          "internalType": "uint256",
          "name": "",
          "type": "uint256"
        }
      ],
      "stateMutability": "view",
      "type": "function"
    },
    {
      "inputs": [],
      "name": "baseExtension",
      "outputs": [
        {
          "internalType": "string",
          "name": "",
          "type": "string"
        }
      ],
      "stateMutability": "view",
      "type": "function"
    },
    {
      "inputs": [],
      "name": "cost",
      "outputs": [
        {
          "internalType": "uint256",
          "name": "",
          "type": "uint256"
        }
      ],
      "stateMutability": "view",
      "type": "function"
    },
    {
      "inputs": [
        {
          "internalType": "uint256",
          "name": "tokenId",
          "type": "uint256"
        }
      ],
      "name": "getApproved",
      "outputs": [
        {
          "internalType": "address",
          "name": "",
          "type": "address"
        }
      ],
      "stateMutability": "view",
      "type": "function"
    },
    {
      "inputs": [
        {
          "internalType": "address",
          "name": "owner",
          "type": "address"
        },
        {
          "internalType": "address",
          "name": "operator",
          "type": "address"
        }
      ],
      "name": "isApprovedForAll",
      "outputs": [
        {
          "internalType": "bool",
          "name": "",
          "type": "bool"
        }
      ],
      "stateMutability": "view",
      "type": "function"
    },
    {
      "inputs": [],
      "name": "maxMintAmount",
      "outputs": [
        {
          "internalType": "uint256",
          "name": "",
          "type": "uint256"
        }
      ],
      "stateMutability": "view",
      "type": "function"
    },
    {
      "inputs": [],
      "name": "maxSupply",
      "outputs": [
        {
          "internalType": "uint256",
          "name": "",
          "type": "uint256"
        }
      ],
      "stateMutability": "view",
      "type": "function"
    },
    {
      "inputs": [
        {
          "internalType": "uint256",
          "name": "_mintAmount",
          "type": "uint256"
        }
      ],
      "name": "mint",
      "outputs": [],
      "stateMutability": "payable",
      "type": "function"
    },
    {
      "inputs": [],
      "name": "name",
      "outputs": [
        {
          "internalType": "string",
          "name": "",
          "type": "string"
        }
      ],
      "stateMutability": "view",
      "type": "function"
    },
    {
      "inputs": [],
      "name": "notRevealedUri",
      "outputs": [
        {
          "internalType": "string",
          "name": "",
          "type": "string"
        }
      ],
      "stateMutability": "view",
      "type": "function"
    },
    {
      "inputs": [],
      "name": "owner",
      "outputs": [
        {
          "internalType": "address",
          "name": "",
          "type": "address"
        }
      ],
      "stateMutability": "view",
      "type": "function"
    },
    {
      "inputs": [
        {
          "internalType": "uint256",
          "name": "tokenId",
          "type": "uint256"
        }
      ],
      "name": "ownerOf",
      "outputs": [
        {
          "internalType": "address",
          "name": "",
          "type": "address"
        }
      ],
      "stateMutability": "view",
      "type": "function"
    },
    {
      "inputs": [
        {
          "internalType": "bool",
          "name": "_state",
          "type": "bool"
        }
      ],
      "name": "pause",
      "outputs": [],
      "stateMutability": "nonpayable",
      "type": "function"
    },
    {
      "inputs": [],
      "name": "paused",
      "outputs": [
        {
          "internalType": "bool",
          "name": "",
          "type": "bool"
        }
      ],
      "stateMutability": "view",
      "type": "function"
    },
    {
      "inputs": [],
      "name": "renounceOwnership",
      "outputs": [],
      "stateMutability": "nonpayable",
      "type": "function"
    },
    {
      "inputs": [],
      "name": "reveal",
      "outputs": [],
      "stateMutability": "nonpayable",
      "type": "function"
    },
    {
      "inputs": [],
      "name": "revealed",
      "outputs": [
        {
          "internalType": "bool",
          "name": "",
          "type": "bool"
        }
      ],
      "stateMutability": "view",
      "type": "function"
    },
    {
      "inputs": [
        {
          "internalType": "address",
          "name": "from",
          "type": "address"
        },
        {
          "internalType": "address",
          "name": "to",
          "type": "address"
        },
        {
          "internalType": "uint256",
          "name": "tokenId",
          "type": "uint256"
        }
      ],
      "name": "safeTransferFrom",
      "outputs": [],
      "stateMutability": "nonpayable",
      "type": "function"
    },
    {
      "inputs": [
        {
          "internalType": "address",
          "name": "from",
          "type": "address"
        },
        {
          "internalType": "address",
          "name": "to",
          "type": "address"
        },
        {
          "internalType": "uint256",
          "name": "tokenId",
          "type": "uint256"
        },
        {
          "internalType": "bytes",
          "name": "_data",
          "type": "bytes"
        }
      ],
      "name": "safeTransferFrom",
      "outputs": [],
      "stateMutability": "nonpayable",
      "type": "function"
    },
    {
      "inputs": [
        {
          "internalType": "address",
          "name": "operator",
          "type": "address"
        },
        {
          "internalType": "bool",
          "name": "approved",
          "type": "bool"
        }
      ],
      "name": "setApprovalForAll",
      "outputs": [],
      "stateMutability": "nonpayable",
      "type": "function"
    },
    {
      "inputs": [
        {
          "internalType": "string",
          "name": "_newBaseExtension",
          "type": "string"
        }
      ],
      "name": "setBaseExtension",
      "outputs": [],
      "stateMutability": "nonpayable",
      "type": "function"
    },
    {
      "inputs": [
        {
          "internalType": "string",
          "name": "_newBaseURI",
          "type": "string"
        }
      ],
      "name": "setBaseURI",
      "outputs": [],
      "stateMutability": "nonpayable",
      "type": "function"
    },
    {
      "inputs": [
        {
          "internalType": "uint256",
          "name": "_newCost",
          "type": "uint256"
        }
      ],
      "name": "setCost",
      "outputs": [],
      "stateMutability": "nonpayable",
      "type": "function"
    },
    {
      "inputs": [
        {
          "internalType": "string",
          "name": "_notRevealedURI",
          "type": "string"
        }
      ],
      "name": "setNotRevealedURI",
      "outputs": [],
      "stateMutability": "nonpayable",
      "type": "function"
    },
    {
      "inputs": [
        {
          "internalType": "uint256",
          "name": "_newmaxMintAmount",
          "type": "uint256"
        }
      ],
      "name": "setmaxMintAmount",
      "outputs": [],
      "stateMutability": "nonpayable",
      "type": "function"
    },
    {
      "inputs": [
        {
          "internalType": "bytes4",
          "name": "interfaceId",
          "type": "bytes4"
        }
      ],
      "name": "supportsInterface",
      "outputs": [
        {
          "internalType": "bool",
          "name": "",
          "type": "bool"
        }
      ],
      "stateMutability": "view",
      "type": "function"
    },
    {
      "inputs": [],
      "name": "symbol",
      "outputs": [
        {
          "internalType": "string",
          "name": "",
          "type": "string"
        }
      ],
      "stateMutability": "view",
      "type": "function"
    },
    {
      "inputs": [
        {
          "internalType": "uint256",
          "name": "index",
          "type": "uint256"
        }
      ],
      "name": "tokenByIndex",
      "outputs": [
        {
          "internalType": "uint256",
          "name": "",
          "type": "uint256"
        }
      ],
      "stateMutability": "view",
      "type": "function"
    },
    {
      "inputs": [
        {
          "internalType": "address",
          "name": "owner",
          "type": "address"
        },
        {
          "internalType": "uint256",
          "name": "index",
          "type": "uint256"
        }
      ],
      "name": "tokenOfOwnerByIndex",
      "outputs": [
        {
          "internalType": "uint256",
          "name": "",
          "type": "uint256"
        }
      ],
      "stateMutability": "view",
      "type": "function"
    },
    {
      "inputs": [
        {
          "internalType": "uint256",
          "name": "tokenId",
          "type": "uint256"
        }
      ],
      "name": "tokenURI",
      "outputs": [
        {
          "internalType": "string",
          "name": "",
          "type": "string"
        }
      ],
      "stateMutability": "view",
      "type": "function"
    },
    {
      "inputs": [],
      "name": "totalSupply",
      "outputs": [
        {
          "internalType": "uint256",
          "name": "",
          "type": "uint256"
        }
      ],
      "stateMutability": "view",
      "type": "function"
    },
    {
      "inputs": [
        {
          "internalType": "address",
          "name": "from",
          "type": "address"
        },
        {
          "internalType": "address",
          "name": "to",
          "type": "address"
        },
        {
          "internalType": "uint256",
          "name": "tokenId",
          "type": "uint256"
        }
      ],
      "name": "transferFrom",
      "outputs": [],
      "stateMutability": "nonpayable",
      "type": "function"
    },
    {
      "inputs": [
        {
          "internalType": "address",
          "name": "newOwner",
          "type": "address"
        }
      ],
      "name": "transferOwnership",
      "outputs": [],
      "stateMutability": "nonpayable",
      "type": "function"
    },
    {
      "inputs": [],
      "name": "withdraw",
      "outputs": [],
      "stateMutability": "payable",
      "type": "function"
    }
  ],
  "bytecode": "0x60806040526040518060400160405280600581526020017f2e6a736f6e000000000000000000000000000000000000000000000000000000815250600c908051906020019062000051929190620003a1565b5066b1a2bc2ec50000600d55612710600e556014600f556000601060006101000a81548160ff0219169083151502179055506000601060016101000a81548160ff021916908315150217905550348015620000ab57600080fd5b506040516200481b3803806200481b8339818101604052810190620000d19190620004cf565b83838160009080519060200190620000eb929190620003a1565b50806001908051906020019062000104929190620003a1565b505050620001276200011b6200015360201b60201c565b6200015b60201b60201c565b62000138826200022160201b60201c565b6200014981620002cc60201b60201c565b50505050620007c4565b600033905090565b6000600a60009054906101000a900473ffffffffffffffffffffffffffffffffffffffff16905081600a60006101000a81548173ffffffffffffffffffffffffffffffffffffffff021916908373ffffffffffffffffffffffffffffffffffffffff1602179055508173ffffffffffffffffffffffffffffffffffffffff168173ffffffffffffffffffffffffffffffffffffffff167f8be0079c531659141344cd1fd0a4f28419497f9722a3daafe3b4186f6b6457e060405160405180910390a35050565b620002316200015360201b60201c565b73ffffffffffffffffffffffffffffffffffffffff16620002576200037760201b60201c565b73ffffffffffffffffffffffffffffffffffffffff1614620002b0576040517f08c379a0000000000000000000000000000000000000000000000000000000008152600401620002a790620005e4565b60405180910390fd5b80600b9080519060200190620002c8929190620003a1565b5050565b620002dc6200015360201b60201c565b73ffffffffffffffffffffffffffffffffffffffff16620003026200037760201b60201c565b73ffffffffffffffffffffffffffffffffffffffff16146200035b576040517f08c379a00000000000000000000000000000000000000000000000000000000081526004016200035290620005e4565b60405180910390fd5b806011908051906020019062000373929190620003a1565b5050565b6000600a60009054906101000a900473ffffffffffffffffffffffffffffffffffffffff16905090565b828054620003af90620006ac565b90600052602060002090601f016020900481019282620003d357600085556200041f565b82601f10620003ee57805160ff19168380011785556200041f565b828001600101855582156200041f579182015b828111156200041e57825182559160200191906001019062000401565b5b5090506200042e919062000432565b5090565b5b808211156200044d57600081600090555060010162000433565b5090565b60006200046862000462846200062f565b62000606565b9050828152602081018484840111156200048757620004866200077b565b5b6200049484828562000676565b509392505050565b600082601f830112620004b457620004b362000776565b5b8151620004c684826020860162000451565b91505092915050565b60008060008060808587031215620004ec57620004eb62000785565b5b600085015167ffffffffffffffff8111156200050d576200050c62000780565b5b6200051b878288016200049c565b945050602085015167ffffffffffffffff8111156200053f576200053e62000780565b5b6200054d878288016200049c565b935050604085015167ffffffffffffffff81111562000571576200057062000780565b5b6200057f878288016200049c565b925050606085015167ffffffffffffffff811115620005a357620005a262000780565b5b620005b1878288016200049c565b91505092959194509250565b6000620005cc60208362000665565b9150620005d9826200079b565b602082019050919050565b60006020820190508181036000830152620005ff81620005bd565b9050919050565b60006200061262000625565b9050620006208282620006e2565b919050565b6000604051905090565b600067ffffffffffffffff8211156200064d576200064c62000747565b5b62000658826200078a565b9050602081019050919050565b600082825260208201905092915050565b60005b838110156200069657808201518184015260208101905062000679565b83811115620006a6576000848401525b50505050565b60006002820490506001821680620006c557607f821691505b60208210811415620006dc57620006db62000718565b5b50919050565b620006ed826200078a565b810181811067ffffffffffffffff821117156200070f576200070e62000747565b5b80604052505050565b7f4e487b7100000000000000000000000000000000000000000000000000000000600052602260045260246000fd5b7f4e487b7100000000000000000000000000000000000000000000000000000000600052604160045260246000fd5b600080fd5b600080fd5b600080fd5b600080fd5b6000601f19601f8301169050919050565b7f4f776e61626c653a2063616c6c6572206973206e6f7420746865206f776e6572600082015250565b61404780620007d46000396000f3fe6080604052600436106102045760003560e01c80635c975abb11610118578063a475b5dd116100a0578063d5abeb011161006f578063d5abeb0114610727578063da3ef23f14610752578063e985e9c51461077b578063f2c4ce1e146107b8578063f2fde38b146107e157610204565b8063a475b5dd1461067f578063b88d4fde14610696578063c6682862146106bf578063c87b56dd146106ea57610204565b80637f00c7a6116100e75780637f00c7a6146105bb5780638da5cb5b146105e457806395d89b411461060f578063a0712d681461063a578063a22cb4651461065657610204565b80635c975abb146104ff5780636352211e1461052a57806370a0823114610567578063715018a6146105a457610204565b8063239c70ae1161019b57806342842e0e1161016a57806342842e0e1461041c57806344a0d68a146104455780634f6ccce71461046e57806351830227146104ab57806355f804b3146104d657610204565b8063239c70ae1461038157806323b872dd146103ac5780632f745c59146103d55780633ccfd60b1461041257610204565b8063081c8c44116101d7578063081c8c44146102d7578063095ea7b31461030257806313faede61461032b57806318160ddd1461035657610204565b806301ffc9a71461020957806302329a291461024657806306fdde031461026f578063081812fc1461029a575b600080fd5b34801561021557600080fd5b50610230600480360381019061022b9190612e8f565b61080a565b60405161023d9190613368565b60405180910390f35b34801561025257600080fd5b5061026d60048036038101906102689190612e62565b610884565b005b34801561027b57600080fd5b5061028461091d565b6040516102919190613383565b60405180910390f35b3480156102a657600080fd5b506102c160048036038101906102bc9190612f32565b6109af565b6040516102ce9190613301565b60405180910390f35b3480156102e357600080fd5b506102ec610a34565b6040516102f99190613383565b60405180910390f35b34801561030e57600080fd5b5061032960048036038101906103249190612e22565b610ac2565b005b34801561033757600080fd5b50610340610bda565b60405161034d91906135e5565b60405180910390f35b34801561036257600080fd5b5061036b610be0565b60405161037891906135e5565b60405180910390f35b34801561038d57600080fd5b50610396610bed565b6040516103a391906135e5565b60405180910390f35b3480156103b857600080fd5b506103d360048036038101906103ce9190612d0c565b610bf3565b005b3480156103e157600080fd5b506103fc60048036038101906103f79190612e22565b610c53565b60405161040991906135e5565b60405180910390f35b61041a610cf8565b005b34801561042857600080fd5b50610443600480360381019061043e9190612d0c565b610df4565b005b34801561045157600080fd5b5061046c60048036038101906104679190612f32565b610e14565b005b34801561047a57600080fd5b5061049560048036038101906104909190612f32565b610e9a565b6040516104a291906135e5565b60405180910390f35b3480156104b757600080fd5b506104c0610f0b565b6040516104cd9190613368565b60405180910390f35b3480156104e257600080fd5b506104fd60048036038101906104f89190612ee9565b610f1e565b005b34801561050b57600080fd5b50610514610fb4565b6040516105219190613368565b60405180910390f35b34801561053657600080fd5b50610551600480360381019061054c9190612f32565b610fc7565b60405161055e9190613301565b60405180910390f35b34801561057357600080fd5b5061058e60048036038101906105899190612c9f565b611079565b60405161059b91906135e5565b60405180910390f35b3480156105b057600080fd5b506105b9611131565b005b3480156105c757600080fd5b506105e260048036038101906105dd9190612f32565b6111b9565b005b3480156105f057600080fd5b506105f961123f565b6040516106069190613301565b60405180910390f35b34801561061b57600080fd5b50610624611269565b6040516106319190613383565b60405180910390f35b610654600480360381019061064f9190612f32565b6112fb565b005b34801561066257600080fd5b5061067d60048036038101906106789190612de2565b6113e7565b005b34801561068b57600080fd5b50610694611568565b005b3480156106a257600080fd5b506106bd60048036038101906106b89190612d5f565b611601565b005b3480156106cb57600080fd5b506106d4611663565b6040516106e19190613383565b60405180910390f35b3480156106f657600080fd5b50610711600480360381019061070c9190612f32565b6116f1565b60405161071e9190613383565b60405180910390f35b34801561073357600080fd5b5061073c611798565b60405161074991906135e5565b60405180910390f35b34801561075e57600080fd5b5061077960048036038101906107749190612ee9565b61179e565b005b34801561078757600080fd5b506107a2600480360381019061079d9190612ccc565b611834565b6040516107af9190613368565b60405180910390f35b3480156107c457600080fd5b506107df60048036038101906107da9190612ee9565b6118c8565b005b3480156107ed57600080fd5b5061080860048036038101906108039190612c9f565b61195e565b005b60007f780e9d63000000000000000000000000000000000000000000000000000000007bffffffffffffffffffffffffffffffffffffffffffffffffffffffff1916827bffffffffffffffffffffffffffffffffffffffffffffffffffffffff1916148061087d575061087c82611a56565b5b9050919050565b61088c611b38565b73ffffffffffffffffffffffffffffffffffffffff166108aa61123f565b73ffffffffffffffffffffffffffffffffffffffff1614610900576040517f08c379a00000000000000000000000000000000000000000000000000000000081526004016108f790613525565b60405180910390fd5b80601060006101000a81548160ff02191690831515021790555050565b60606000805461092c906138a0565b80601f0160208091040260200160405190810160405280929190818152602001828054610958906138a0565b80156109a55780601f1061097a576101008083540402835291602001916109a5565b820191906000526020600020905b81548152906001019060200180831161098857829003601f168201915b5050505050905090565b60006109ba82611b40565b6109f9576040517f08c379a00000000000000000000000000000000000000000000000000000000081526004016109f090613505565b60405180910390fd5b6004600083815260200190815260200160002060009054906101000a900473ffffffffffffffffffffffffffffffffffffffff169050919050565b60118054610a41906138a0565b80601f0160208091040260200160405190810160405280929190818152602001828054610a6d906138a0565b8015610aba5780601f10610a8f57610100808354040283529160200191610aba565b820191906000526020600020905b815481529060010190602001808311610a9d57829003601f168201915b505050505081565b6000610acd82610fc7565b90508073ffffffffffffffffffffffffffffffffffffffff168373ffffffffffffffffffffffffffffffffffffffff161415610b3e576040517f08c379a0000000000000000000000000000000000000000000000000000000008152600401610b3590613585565b60405180910390fd5b8073ffffffffffffffffffffffffffffffffffffffff16610b5d611b38565b73ffffffffffffffffffffffffffffffffffffffff161480610b8c5750610b8b81610b86611b38565b611834565b5b610bcb576040517f08c379a0000000000000000000000000000000000000000000000000000000008152600401610bc290613485565b60405180910390fd5b610bd58383611bac565b505050565b600d5481565b6000600880549050905090565b600f5481565b610c04610bfe611b38565b82611c65565b610c43576040517f08c379a0000000000000000000000000000000000000000000000000000000008152600401610c3a906135a5565b60405180910390fd5b610c4e838383611d43565b505050565b6000610c5e83611079565b8210610c9f576040517f08c379a0000000000000000000000000000000000000000000000000000000008152600401610c96906133a5565b60405180910390fd5b600660008473ffffffffffffffffffffffffffffffffffffffff1673ffffffffffffffffffffffffffffffffffffffff168152602001908152602001600020600083815260200190815260200160002054905092915050565b610d00611b38565b73ffffffffffffffffffffffffffffffffffffffff16610d1e61123f565b73ffffffffffffffffffffffffffffffffffffffff1614610d74576040517f08c379a0000000000000000000000000000000000000000000000000000000008152600401610d6b90613525565b60405180910390fd5b6000610d7e61123f565b73ffffffffffffffffffffffffffffffffffffffff1647604051610da1906132ec565b60006040518083038185875af1925050503d8060008114610dde576040519150601f19603f3d011682016040523d82523d6000602084013e610de3565b606091505b5050905080610df157600080fd5b50565b610e0f83838360405180602001604052806000815250611601565b505050565b610e1c611b38565b73ffffffffffffffffffffffffffffffffffffffff16610e3a61123f565b73ffffffffffffffffffffffffffffffffffffffff1614610e90576040517f08c379a0000000000000000000000000000000000000000000000000000000008152600401610e8790613525565b60405180910390fd5b80600d8190555050565b6000610ea4610be0565b8210610ee5576040517f08c379a0000000000000000000000000000000000000000000000000000000008152600401610edc906135c5565b60405180910390fd5b60088281548110610ef957610ef8613a39565b5b90600052602060002001549050919050565b601060019054906101000a900460ff1681565b610f26611b38565b73ffffffffffffffffffffffffffffffffffffffff16610f4461123f565b73ffffffffffffffffffffffffffffffffffffffff1614610f9a576040517f08c379a0000000000000000000000000000000000000000000000000000000008152600401610f9190613525565b60405180910390fd5b80600b9080519060200190610fb0929190612ab3565b5050565b601060009054906101000a900460ff1681565b6000806002600084815260200190815260200160002060009054906101000a900473ffffffffffffffffffffffffffffffffffffffff169050600073ffffffffffffffffffffffffffffffffffffffff168173ffffffffffffffffffffffffffffffffffffffff161415611070576040517f08c379a0000000000000000000000000000000000000000000000000000000008152600401611067906134c5565b60405180910390fd5b80915050919050565b60008073ffffffffffffffffffffffffffffffffffffffff168273ffffffffffffffffffffffffffffffffffffffff1614156110ea576040517f08c379a00000000000000000000000000000000000000000000000000000000081526004016110e1906134a5565b60405180910390fd5b600360008373ffffffffffffffffffffffffffffffffffffffff1673ffffffffffffffffffffffffffffffffffffffff168152602001908152602001600020549050919050565b611139611b38565b73ffffffffffffffffffffffffffffffffffffffff1661115761123f565b73ffffffffffffffffffffffffffffffffffffffff16146111ad576040517f08c379a00000000000000000000000000000000000000000000000000000000081526004016111a490613525565b60405180910390fd5b6111b76000611f9f565b565b6111c1611b38565b73ffffffffffffffffffffffffffffffffffffffff166111df61123f565b73ffffffffffffffffffffffffffffffffffffffff1614611235576040517f08c379a000000000000000000000000000000000000000000000000000000000815260040161122c90613525565b60405180910390fd5b80600f8190555050565b6000600a60009054906101000a900473ffffffffffffffffffffffffffffffffffffffff16905090565b606060018054611278906138a0565b80601f01602080910402602001604051908101604052809291908181526020018280546112a4906138a0565b80156112f15780601f106112c6576101008083540402835291602001916112f1565b820191906000526020600020905b8154815290600101906020018083116112d457829003601f168201915b5050505050905090565b6000611305610be0565b9050601060009054906101000a900460ff161561132157600080fd5b6000821161132e57600080fd5b600f5482111561133d57600080fd5b600e54828261134c91906136d5565b111561135757600080fd5b61135f61123f565b73ffffffffffffffffffffffffffffffffffffffff163373ffffffffffffffffffffffffffffffffffffffff16146113ac5781600d5461139f919061375c565b3410156113ab57600080fd5b5b6000600190505b8281116113e2576113cf3382846113ca91906136d5565b612065565b80806113da90613903565b9150506113b3565b505050565b6113ef611b38565b73ffffffffffffffffffffffffffffffffffffffff168273ffffffffffffffffffffffffffffffffffffffff16141561145d576040517f08c379a000000000000000000000000000000000000000000000000000000000815260040161145490613445565b60405180910390fd5b806005600061146a611b38565b73ffffffffffffffffffffffffffffffffffffffff1673ffffffffffffffffffffffffffffffffffffffff16815260200190815260200160002060008473ffffffffffffffffffffffffffffffffffffffff1673ffffffffffffffffffffffffffffffffffffffff16815260200190815260200160002060006101000a81548160ff0219169083151502179055508173ffffffffffffffffffffffffffffffffffffffff16611517611b38565b73ffffffffffffffffffffffffffffffffffffffff167f17307eab39ab6107e8899845ad3d59bd9653f200f220920489ca2b5937696c318360405161155c9190613368565b60405180910390a35050565b611570611b38565b73ffffffffffffffffffffffffffffffffffffffff1661158e61123f565b73ffffffffffffffffffffffffffffffffffffffff16146115e4576040517f08c379a00000000000000000000000000000000000000000000000000000000081526004016115db90613525565b60405180910390fd5b6001601060016101000a81548160ff021916908315150217905550565b61161261160c611b38565b83611c65565b611651576040517f08c379a0000000000000000000000000000000000000000000000000000000008152600401611648906135a5565b60405180910390fd5b61165d84848484612083565b50505050565b600c8054611670906138a0565b80601f016020809104026020016040519081016040528092919081815260200182805461169c906138a0565b80156116e95780601f106116be576101008083540402835291602001916116e9565b820191906000526020600020905b8154815290600101906020018083116116cc57829003601f168201915b505050505081565b60606116fc82611b40565b61173b576040517f08c379a000000000000000000000000000000000000000000000000000000000815260040161173290613565565b60405180910390fd5b60006117456120df565b905060008151116117655760405180602001604052806000815250611790565b8061176f846120f6565b6040516020016117809291906132c8565b6040516020818303038152906040525b915050919050565b600e5481565b6117a6611b38565b73ffffffffffffffffffffffffffffffffffffffff166117c461123f565b73ffffffffffffffffffffffffffffffffffffffff161461181a576040517f08c379a000000000000000000000000000000000000000000000000000000000815260040161181190613525565b60405180910390fd5b80600c9080519060200190611830929190612ab3565b5050565b6000600560008473ffffffffffffffffffffffffffffffffffffffff1673ffffffffffffffffffffffffffffffffffffffff16815260200190815260200160002060008373ffffffffffffffffffffffffffffffffffffffff1673ffffffffffffffffffffffffffffffffffffffff16815260200190815260200160002060009054906101000a900460ff16905092915050565b6118d0611b38565b73ffffffffffffffffffffffffffffffffffffffff166118ee61123f565b73ffffffffffffffffffffffffffffffffffffffff1614611944576040517f08c379a000000000000000000000000000000000000000000000000000000000815260040161193b90613525565b60405180910390fd5b806011908051906020019061195a929190612ab3565b5050565b611966611b38565b73ffffffffffffffffffffffffffffffffffffffff1661198461123f565b73ffffffffffffffffffffffffffffffffffffffff16146119da576040517f08c379a00000000000000000000000000000000000000000000000000000000081526004016119d190613525565b60405180910390fd5b600073ffffffffffffffffffffffffffffffffffffffff168173ffffffffffffffffffffffffffffffffffffffff161415611a4a576040517f08c379a0000000000000000000000000000000000000000000000000000000008152600401611a41906133e5565b60405180910390fd5b611a5381611f9f565b50565b60007f80ac58cd000000000000000000000000000000000000000000000000000000007bffffffffffffffffffffffffffffffffffffffffffffffffffffffff1916827bffffffffffffffffffffffffffffffffffffffffffffffffffffffff19161480611b2157507f5b5e139f000000000000000000000000000000000000000000000000000000007bffffffffffffffffffffffffffffffffffffffffffffffffffffffff1916827bffffffffffffffffffffffffffffffffffffffffffffffffffffffff1916145b80611b315750611b3082612257565b5b9050919050565b600033905090565b60008073ffffffffffffffffffffffffffffffffffffffff166002600084815260200190815260200160002060009054906101000a900473ffffffffffffffffffffffffffffffffffffffff1673ffffffffffffffffffffffffffffffffffffffff1614159050919050565b816004600083815260200190815260200160002060006101000a81548173ffffffffffffffffffffffffffffffffffffffff021916908373ffffffffffffffffffffffffffffffffffffffff160217905550808273ffffffffffffffffffffffffffffffffffffffff16611c1f83610fc7565b73ffffffffffffffffffffffffffffffffffffffff167f8c5be1e5ebec7d5bd14f71427d1e84f3dd0314c0f7b2291e5b200ac8c7c3b92560405160405180910390a45050565b6000611c7082611b40565b611caf576040517f08c379a0000000000000000000000000000000000000000000000000000000008152600401611ca690613465565b60405180910390fd5b6000611cba83610fc7565b90508073ffffffffffffffffffffffffffffffffffffffff168473ffffffffffffffffffffffffffffffffffffffff161480611d2957508373ffffffffffffffffffffffffffffffffffffffff16611d11846109af565b73ffffffffffffffffffffffffffffffffffffffff16145b80611d3a5750611d398185611834565b5b91505092915050565b8273ffffffffffffffffffffffffffffffffffffffff16611d6382610fc7565b73ffffffffffffffffffffffffffffffffffffffff1614611db9576040517f08c379a0000000000000000000000000000000000000000000000000000000008152600401611db090613545565b60405180910390fd5b600073ffffffffffffffffffffffffffffffffffffffff168273ffffffffffffffffffffffffffffffffffffffff161415611e29576040517f08c379a0000000000000000000000000000000000000000000000000000000008152600401611e2090613425565b60405180910390fd5b611e348383836122c1565b611e3f600082611bac565b6001600360008573ffffffffffffffffffffffffffffffffffffffff1673ffffffffffffffffffffffffffffffffffffffff1681526020019081526020016000206000828254611e8f91906137b6565b925050819055506001600360008473ffffffffffffffffffffffffffffffffffffffff1673ffffffffffffffffffffffffffffffffffffffff1681526020019081526020016000206000828254611ee691906136d5565b92505081905550816002600083815260200190815260200160002060006101000a81548173ffffffffffffffffffffffffffffffffffffffff021916908373ffffffffffffffffffffffffffffffffffffffff160217905550808273ffffffffffffffffffffffffffffffffffffffff168473ffffffffffffffffffffffffffffffffffffffff167fddf252ad1be2c89b69c2b068fc378daa952ba7f163c4a11628f55a4df523b3ef60405160405180910390a4505050565b6000600a60009054906101000a900473ffffffffffffffffffffffffffffffffffffffff16905081600a60006101000a81548173ffffffffffffffffffffffffffffffffffffffff021916908373ffffffffffffffffffffffffffffffffffffffff1602179055508173ffffffffffffffffffffffffffffffffffffffff168173ffffffffffffffffffffffffffffffffffffffff167f8be0079c531659141344cd1fd0a4f28419497f9722a3daafe3b4186f6b6457e060405160405180910390a35050565b61207f8282604051806020016040528060008152506123d5565b5050565b61208e848484611d43565b61209a84848484612430565b6120d9576040517f08c379a00000000000000000000000000000000000000000000000000000000081526004016120d0906133c5565b60405180910390fd5b50505050565b606060405180602001604052806000815250905090565b6060600082141561213e576040518060400160405280600181526020017f30000000000000000000000000000000000000000000000000000000000000008152509050612252565b600082905060005b6000821461217057808061215990613903565b915050600a82612169919061372b565b9150612146565b60008167ffffffffffffffff81111561218c5761218b613a68565b5b6040519080825280601f01601f1916602001820160405280156121be5781602001600182028036833780820191505090505b5090505b6000851461224b576001826121d791906137b6565b9150600a856121e6919061394c565b60306121f291906136d5565b60f81b81838151811061220857612207613a39565b5b60200101907effffffffffffffffffffffffffffffffffffffffffffffffffffffffffffff1916908160001a905350600a85612244919061372b565b94506121c2565b8093505050505b919050565b60007f01ffc9a7000000000000000000000000000000000000000000000000000000007bffffffffffffffffffffffffffffffffffffffffffffffffffffffff1916827bffffffffffffffffffffffffffffffffffffffffffffffffffffffff1916149050919050565b6122cc8383836125c7565b600073ffffffffffffffffffffffffffffffffffffffff168373ffffffffffffffffffffffffffffffffffffffff16141561230f5761230a816125cc565b61234e565b8173ffffffffffffffffffffffffffffffffffffffff168373ffffffffffffffffffffffffffffffffffffffff161461234d5761234c8382612615565b5b5b600073ffffffffffffffffffffffffffffffffffffffff168273ffffffffffffffffffffffffffffffffffffffff1614156123915761238c81612782565b6123d0565b8273ffffffffffffffffffffffffffffffffffffffff168273ffffffffffffffffffffffffffffffffffffffff16146123cf576123ce8282612853565b5b5b505050565b6123df83836128d2565b6123ec6000848484612430565b61242b576040517f08c379a0000000000000000000000000000000000000000000000000000000008152600401612422906133c5565b60405180910390fd5b505050565b60006124518473ffffffffffffffffffffffffffffffffffffffff16612aa0565b156125ba578373ffffffffffffffffffffffffffffffffffffffff1663150b7a0261247a611b38565b8786866040518563ffffffff1660e01b815260040161249c949392919061331c565b602060405180830381600087803b1580156124b657600080fd5b505af19250505080156124e757506040513d601f19601f820116820180604052508101906124e49190612ebc565b60015b61256a573d8060008114612517576040519150601f19603f3d011682016040523d82523d6000602084013e61251c565b606091505b50600081511415612562576040517f08c379a0000000000000000000000000000000000000000000000000000000008152600401612559906133c5565b60405180910390fd5b805181602001fd5b63150b7a0260e01b7bffffffffffffffffffffffffffffffffffffffffffffffffffffffff1916817bffffffffffffffffffffffffffffffffffffffffffffffffffffffff1916149150506125bf565b600190505b949350505050565b505050565b6008805490506009600083815260200190815260200160002081905550600881908060018154018082558091505060019003906000526020600020016000909190919091505550565b6000600161262284611079565b61262c91906137b6565b9050600060076000848152602001908152602001600020549050818114612711576000600660008673ffffffffffffffffffffffffffffffffffffffff1673ffffffffffffffffffffffffffffffffffffffff168152602001908152602001600020600084815260200190815260200160002054905080600660008773ffffffffffffffffffffffffffffffffffffffff1673ffffffffffffffffffffffffffffffffffffffff168152602001908152602001600020600084815260200190815260200160002081905550816007600083815260200190815260200160002081905550505b6007600084815260200190815260200160002060009055600660008573ffffffffffffffffffffffffffffffffffffffff1673ffffffffffffffffffffffffffffffffffffffff16815260200190815260200160002060008381526020019081526020016000206000905550505050565b6000600160088054905061279691906137b6565b90506000600960008481526020019081526020016000205490506000600883815481106127c6576127c5613a39565b5b9060005260206000200154905080600883815481106127e8576127e7613a39565b5b90600052602060002001819055508160096000838152602001908152602001600020819055506009600085815260200190815260200160002060009055600880548061283757612836613a0a565b5b6001900381819060005260206000200160009055905550505050565b600061285e83611079565b905081600660008573ffffffffffffffffffffffffffffffffffffffff1673ffffffffffffffffffffffffffffffffffffffff168152602001908152602001600020600083815260200190815260200160002081905550806007600084815260200190815260200160002081905550505050565b600073ffffffffffffffffffffffffffffffffffffffff168273ffffffffffffffffffffffffffffffffffffffff161415612942576040517f08c379a0000000000000000000000000000000000000000000000000000000008152600401612939906134e5565b60405180910390fd5b61294b81611b40565b1561298b576040517f08c379a000000000000000000000000000000000000000000000000000000000815260040161298290613405565b60405180910390fd5b612997600083836122c1565b6001600360008473ffffffffffffffffffffffffffffffffffffffff1673ffffffffffffffffffffffffffffffffffffffff16815260200190815260200160002060008282546129e791906136d5565b92505081905550816002600083815260200190815260200160002060006101000a81548173ffffffffffffffffffffffffffffffffffffffff021916908373ffffffffffffffffffffffffffffffffffffffff160217905550808273ffffffffffffffffffffffffffffffffffffffff16600073ffffffffffffffffffffffffffffffffffffffff167fddf252ad1be2c89b69c2b068fc378daa952ba7f163c4a11628f55a4df523b3ef60405160405180910390a45050565b600080823b905060008111915050919050565b828054612abf906138a0565b90600052602060002090601f016020900481019282612ae15760008555612b28565b82601f10612afa57805160ff1916838001178555612b28565b82800160010185558215612b28579182015b82811115612b27578251825591602001919060010190612b0c565b5b509050612b359190612b39565b5090565b5b80821115612b52576000816000905550600101612b3a565b5090565b6000612b69612b6484613625565b613600565b905082815260208101848484011115612b8557612b84613a9c565b5b612b9084828561385e565b509392505050565b6000612bab612ba684613656565b613600565b905082815260208101848484011115612bc757612bc6613a9c565b5b612bd284828561385e565b509392505050565b600081359050612be981613fb5565b92915050565b600081359050612bfe81613fcc565b92915050565b600081359050612c1381613fe3565b92915050565b600081519050612c2881613fe3565b92915050565b600082601f830112612c4357612c42613a97565b5b8135612c53848260208601612b56565b91505092915050565b600082601f830112612c7157612c70613a97565b5b8135612c81848260208601612b98565b91505092915050565b600081359050612c9981613ffa565b92915050565b600060208284031215612cb557612cb4613aa6565b5b6000612cc384828501612bda565b91505092915050565b60008060408385031215612ce357612ce2613aa6565b5b6000612cf185828601612bda565b9250506020612d0285828601612bda565b9150509250929050565b600080600060608486031215612d2557612d24613aa6565b5b6000612d3386828701612bda565b9350506020612d4486828701612bda565b9250506040612d5586828701612c8a565b9150509250925092565b60008060008060808587031215612d7957612d78613aa6565b5b6000612d8787828801612bda565b9450506020612d9887828801612bda565b9350506040612da987828801612c8a565b925050606085013567ffffffffffffffff811115612dca57612dc9613aa1565b5b612dd687828801612c2e565b91505092959194509250565b60008060408385031215612df957612df8613aa6565b5b6000612e0785828601612bda565b9250506020612e1885828601612bef565b9150509250929050565b60008060408385031215612e3957612e38613aa6565b5b6000612e4785828601612bda565b9250506020612e5885828601612c8a565b9150509250929050565b600060208284031215612e7857612e77613aa6565b5b6000612e8684828501612bef565b91505092915050565b600060208284031215612ea557612ea4613aa6565b5b6000612eb384828501612c04565b91505092915050565b600060208284031215612ed257612ed1613aa6565b5b6000612ee084828501612c19565b91505092915050565b600060208284031215612eff57612efe613aa6565b5b600082013567ffffffffffffffff811115612f1d57612f1c613aa1565b5b612f2984828501612c5c565b91505092915050565b600060208284031215612f4857612f47613aa6565b5b6000612f5684828501612c8a565b91505092915050565b612f68816137ea565b82525050565b612f77816137fc565b82525050565b6000612f8882613687565b612f92818561369d565b9350612fa281856020860161386d565b612fab81613aab565b840191505092915050565b6000612fc182613692565b612fcb81856136b9565b9350612fdb81856020860161386d565b612fe481613aab565b840191505092915050565b6000612ffa82613692565b61300481856136ca565b935061301481856020860161386d565b80840191505092915050565b600061302d602b836136b9565b915061303882613abc565b604082019050919050565b60006130506032836136b9565b915061305b82613b0b565b604082019050919050565b60006130736026836136b9565b915061307e82613b5a565b604082019050919050565b6000613096601c836136b9565b91506130a182613ba9565b602082019050919050565b60006130b96024836136b9565b91506130c482613bd2565b604082019050919050565b60006130dc6019836136b9565b91506130e782613c21565b602082019050919050565b60006130ff602c836136b9565b915061310a82613c4a565b604082019050919050565b60006131226038836136b9565b915061312d82613c99565b604082019050919050565b6000613145602a836136b9565b915061315082613ce8565b604082019050919050565b60006131686029836136b9565b915061317382613d37565b604082019050919050565b600061318b6020836136b9565b915061319682613d86565b602082019050919050565b60006131ae602c836136b9565b91506131b982613daf565b604082019050919050565b60006131d16020836136b9565b91506131dc82613dfe565b602082019050919050565b60006131f46029836136b9565b91506131ff82613e27565b604082019050919050565b6000613217602f836136b9565b915061322282613e76565b604082019050919050565b600061323a6021836136b9565b915061324582613ec5565b604082019050919050565b600061325d6000836136ae565b915061326882613f14565b600082019050919050565b60006132806031836136b9565b915061328b82613f17565b604082019050919050565b60006132a3602c836136b9565b91506132ae82613f66565b604082019050919050565b6132c281613854565b82525050565b60006132d48285612fef565b91506132e08284612fef565b91508190509392505050565b60006132f782613250565b9150819050919050565b60006020820190506133166000830184612f5f565b92915050565b60006080820190506133316000830187612f5f565b61333e6020830186612f5f565b61334b60408301856132b9565b818103606083015261335d8184612f7d565b905095945050505050565b600060208201905061337d6000830184612f6e565b92915050565b6000602082019050818103600083015261339d8184612fb6565b905092915050565b600060208201905081810360008301526133be81613020565b9050919050565b600060208201905081810360008301526133de81613043565b9050919050565b600060208201905081810360008301526133fe81613066565b9050919050565b6000602082019050818103600083015261341e81613089565b9050919050565b6000602082019050818103600083015261343e816130ac565b9050919050565b6000602082019050818103600083015261345e816130cf565b9050919050565b6000602082019050818103600083015261347e816130f2565b9050919050565b6000602082019050818103600083015261349e81613115565b9050919050565b600060208201905081810360008301526134be81613138565b9050919050565b600060208201905081810360008301526134de8161315b565b9050919050565b600060208201905081810360008301526134fe8161317e565b9050919050565b6000602082019050818103600083015261351e816131a1565b9050919050565b6000602082019050818103600083015261353e816131c4565b9050919050565b6000602082019050818103600083015261355e816131e7565b9050919050565b6000602082019050818103600083015261357e8161320a565b9050919050565b6000602082019050818103600083015261359e8161322d565b9050919050565b600060208201905081810360008301526135be81613273565b9050919050565b600060208201905081810360008301526135de81613296565b9050919050565b60006020820190506135fa60008301846132b9565b92915050565b600061360a61361b565b905061361682826138d2565b919050565b6000604051905090565b600067ffffffffffffffff8211156136405761363f613a68565b5b61364982613aab565b9050602081019050919050565b600067ffffffffffffffff82111561367157613670613a68565b5b61367a82613aab565b9050602081019050919050565b600081519050919050565b600081519050919050565b600082825260208201905092915050565b600081905092915050565b600082825260208201905092915050565b600081905092915050565b60006136e082613854565b91506136eb83613854565b9250827fffffffffffffffffffffffffffffffffffffffffffffffffffffffffffffffff038211156137205761371f61397d565b5b828201905092915050565b600061373682613854565b915061374183613854565b925082613751576137506139ac565b5b828204905092915050565b600061376782613854565b915061377283613854565b9250817fffffffffffffffffffffffffffffffffffffffffffffffffffffffffffffffff04831182151516156137ab576137aa61397d565b5b828202905092915050565b60006137c182613854565b91506137cc83613854565b9250828210156137df576137de61397d565b5b828203905092915050565b60006137f582613834565b9050919050565b60008115159050919050565b60007fffffffff0000000000000000000000000000000000000000000000000000000082169050919050565b600073ffffffffffffffffffffffffffffffffffffffff82169050919050565b6000819050919050565b82818337600083830152505050565b60005b8381101561388b578082015181840152602081019050613870565b8381111561389a576000848401525b50505050565b600060028204905060018216806138b857607f821691505b602082108114156138cc576138cb6139db565b5b50919050565b6138db82613aab565b810181811067ffffffffffffffff821117156138fa576138f9613a68565b5b80604052505050565b600061390e82613854565b91507fffffffffffffffffffffffffffffffffffffffffffffffffffffffffffffffff8214156139415761394061397d565b5b600182019050919050565b600061395782613854565b915061396283613854565b925082613972576139716139ac565b5b828206905092915050565b7f4e487b7100000000000000000000000000000000000000000000000000000000600052601160045260246000fd5b7f4e487b7100000000000000000000000000000000000000000000000000000000600052601260045260246000fd5b7f4e487b7100000000000000000000000000000000000000000000000000000000600052602260045260246000fd5b7f4e487b7100000000000000000000000000000000000000000000000000000000600052603160045260246000fd5b7f4e487b7100000000000000000000000000000000000000000000000000000000600052603260045260246000fd5b7f4e487b7100000000000000000000000000000000000000000000000000000000600052604160045260246000fd5b600080fd5b600080fd5b600080fd5b600080fd5b6000601f19601f8301169050919050565b7f455243373231456e756d657261626c653a206f776e657220696e646578206f7560008201527f74206f6620626f756e6473000000000000000000000000000000000000000000602082015250565b7f4552433732313a207472616e7366657220746f206e6f6e20455243373231526560008201527f63656976657220696d706c656d656e7465720000000000000000000000000000602082015250565b7f4f776e61626c653a206e6577206f776e657220697320746865207a65726f206160008201527f6464726573730000000000000000000000000000000000000000000000000000602082015250565b7f4552433732313a20746f6b656e20616c7265616479206d696e74656400000000600082015250565b7f4552433732313a207472616e7366657220746f20746865207a65726f2061646460008201527f7265737300000000000000000000000000000000000000000000000000000000602082015250565b7f4552433732313a20617070726f766520746f2063616c6c657200000000000000600082015250565b7f4552433732313a206f70657261746f7220717565727920666f72206e6f6e657860008201527f697374656e7420746f6b656e0000000000000000000000000000000000000000602082015250565b7f4552433732313a20617070726f76652063616c6c6572206973206e6f74206f7760008201527f6e6572206e6f7220617070726f76656420666f7220616c6c0000000000000000602082015250565b7f4552433732313a2062616c616e636520717565727920666f7220746865207a6560008201527f726f206164647265737300000000000000000000000000000000000000000000602082015250565b7f4552433732313a206f776e657220717565727920666f72206e6f6e657869737460008201527f656e7420746f6b656e0000000000000000000000000000000000000000000000602082015250565b7f4552433732313a206d696e7420746f20746865207a65726f2061646472657373600082015250565b7f4552433732313a20617070726f76656420717565727920666f72206e6f6e657860008201527f697374656e7420746f6b656e0000000000000000000000000000000000000000602082015250565b7f4f776e61626c653a2063616c6c6572206973206e6f7420746865206f776e6572600082015250565b7f4552433732313a207472616e73666572206f6620746f6b656e2074686174206960008201527f73206e6f74206f776e0000000000000000000000000000000000000000000000602082015250565b7f4552433732314d657461646174613a2055524920717565727920666f72206e6f60008201527f6e6578697374656e7420746f6b656e0000000000000000000000000000000000602082015250565b7f4552433732313a20617070726f76616c20746f2063757272656e74206f776e6560008201527f7200000000000000000000000000000000000000000000000000000000000000602082015250565b50565b7f4552433732313a207472616e736665722063616c6c6572206973206e6f74206f60008201527f776e6572206e6f7220617070726f766564000000000000000000000000000000602082015250565b7f455243373231456e756d657261626c653a20676c6f62616c20696e646578206f60008201527f7574206f6620626f756e64730000000000000000000000000000000000000000602082015250565b613fbe816137ea565b8114613fc957600080fd5b50565b613fd5816137fc565b8114613fe057600080fd5b50565b613fec81613808565b8114613ff757600080fd5b50565b61400381613854565b811461400e57600080fd5b5056fea2646970667358221220968f75b0600d7f57b980aba5f3f4c3c44d4575b492921831344149bb9a331be564736f6c63430008070033",
  "linkReferences": {},
  "deployedLinkReferences": {}
}