{
  "_format": "hh-sol-artifact-1",
  "contractName": "DeepEye",
  "sourceName": "contracts/DeepEye.sol",
  "abi": [
    {
      "inputs": [
        {
          "internalType": "string",
          "name": "_name",
          "type": "string"
        },
        {
          "internalType": "string",
          "name": "_symbol",
          "type": "string"
        },
        {
          "internalType": "string",
          "name": "_initBaseURI",
          "type": "string"
        },
        {
          "internalType": "string",
          "name": "_initNotRevealedUri",
          "type": "string"
        }
      ],
      "stateMutability": "nonpayable",
      "type": "constructor"
    },
    {
      "anonymous": false,
      "inputs": [
        {
          "indexed": true,
          "internalType": "address",
          "name": "owner",
          "type": "address"
        },
        {
          "indexed": true,
          "internalType": "address",
          "name": "approved",
          "type": "address"
        },
        {
          "indexed": true,
          "internalType": "uint256",
          "name": "tokenId",
          "type": "uint256"
        }
      ],
      "name": "Approval",
      "type": "event"
    },
    {
      "anonymous": false,
      "inputs": [
        {
          "indexed": true,
          "internalType": "address",
          "name": "owner",
          "type": "address"
        },
        {
          "indexed": true,
          "internalType": "address",
          "name": "operator",
          "type": "address"
        },
        {
          "indexed": false,
          "internalType": "bool",
          "name": "approved",
          "type": "bool"
        }
      ],
      "name": "ApprovalForAll",
      "type": "event"
    },
    {
      "anonymous": false,
      "inputs": [
        {
          "indexed": true,
          "internalType": "address",
          "name": "previousOwner",
          "type": "address"
        },
        {
          "indexed": true,
          "internalType": "address",
          "name": "newOwner",
          "type": "address"
        }
      ],
      "name": "OwnershipTransferred",
      "type": "event"
    },
    {
      "anonymous": false,
      "inputs": [
        {
          "indexed": true,
          "internalType": "address",
          "name": "from",
          "type": "address"
        },
        {
          "indexed": true,
          "internalType": "address",
          "name": "to",
          "type": "address"
        },
        {
          "indexed": true,
          "internalType": "uint256",
          "name": "tokenId",
          "type": "uint256"
        }
      ],
      "name": "Transfer",
      "type": "event"
    },
    {
      "inputs": [
        {
          "internalType": "address",
          "name": "to",
          "type": "address"
        },
        {
          "internalType": "uint256",
          "name": "tokenId",
          "type": "uint256"
        }
      ],
      "name": "approve",
      "outputs": [],
      "stateMutability": "nonpayable",
      "type": "function"
    },
    {
      "inputs": [
        {
          "internalType": "address",
          "name": "owner",
          "type": "address"
        }
      ],
      "name": "balanceOf",
      "outputs": [
        {
          "internalType": "uint256",
          "name": "",
          "type": "uint256"
        }
      ],
      "stateMutability": "view",
      "type": "function"
    },
    {
      "inputs": [],
      "name": "baseExtension",
      "outputs": [
        {
          "internalType": "string",
          "name": "",
          "type": "string"
        }
      ],
      "stateMutability": "view",
      "type": "function"
    },
    {
      "inputs": [],
      "name": "cost",
      "outputs": [
        {
          "internalType": "uint256",
          "name": "",
          "type": "uint256"
        }
      ],
      "stateMutability": "view",
      "type": "function"
    },
    {
      "inputs": [
        {
          "internalType": "uint256",
          "name": "tokenId",
          "type": "uint256"
        }
      ],
      "name": "getApproved",
      "outputs": [
        {
          "internalType": "address",
          "name": "",
          "type": "address"
        }
      ],
      "stateMutability": "view",
      "type": "function"
    },
    {
      "inputs": [
        {
          "internalType": "address",
          "name": "owner",
          "type": "address"
        },
        {
          "internalType": "address",
          "name": "operator",
          "type": "address"
        }
      ],
      "name": "isApprovedForAll",
      "outputs": [
        {
          "internalType": "bool",
          "name": "",
          "type": "bool"
        }
      ],
      "stateMutability": "view",
      "type": "function"
    },
    {
      "inputs": [],
      "name": "maxMintAmount",
      "outputs": [
        {
          "internalType": "uint256",
          "name": "",
          "type": "uint256"
        }
      ],
      "stateMutability": "view",
      "type": "function"
    },
    {
      "inputs": [],
      "name": "maxSupply",
      "outputs": [
        {
          "internalType": "uint256",
          "name": "",
          "type": "uint256"
        }
      ],
      "stateMutability": "view",
      "type": "function"
    },
    {
      "inputs": [
        {
          "internalType": "uint256",
          "name": "_mintAmount",
          "type": "uint256"
        }
      ],
      "name": "mint",
      "outputs": [],
      "stateMutability": "payable",
      "type": "function"
    },
    {
      "inputs": [],
      "name": "name",
      "outputs": [
        {
          "internalType": "string",
          "name": "",
          "type": "string"
        }
      ],
      "stateMutability": "view",
      "type": "function"
    },
    {
      "inputs": [],
      "name": "notRevealedUri",
      "outputs": [
        {
          "internalType": "string",
          "name": "",
          "type": "string"
        }
      ],
      "stateMutability": "view",
      "type": "function"
    },
    {
      "inputs": [],
      "name": "owner",
      "outputs": [
        {
          "internalType": "address",
          "name": "",
          "type": "address"
        }
      ],
      "stateMutability": "view",
      "type": "function"
    },
    {
      "inputs": [
        {
          "internalType": "uint256",
          "name": "tokenId",
          "type": "uint256"
        }
      ],
      "name": "ownerOf",
      "outputs": [
        {
          "internalType": "address",
          "name": "",
          "type": "address"
        }
      ],
      "stateMutability": "view",
      "type": "function"
    },
    {
      "inputs": [
        {
          "internalType": "bool",
          "name": "_state",
          "type": "bool"
        }
      ],
      "name": "pause",
      "outputs": [],
      "stateMutability": "nonpayable",
      "type": "function"
    },
    {
      "inputs": [],
      "name": "paused",
      "outputs": [
        {
          "internalType": "bool",
          "name": "",
          "type": "bool"
        }
      ],
      "stateMutability": "view",
      "type": "function"
    },
    {
      "inputs": [],
      "name": "renounceOwnership",
      "outputs": [],
      "stateMutability": "nonpayable",
      "type": "function"
    },
    {
      "inputs": [],
      "name": "reveal",
      "outputs": [],
      "stateMutability": "nonpayable",
      "type": "function"
    },
    {
      "inputs": [],
      "name": "revealed",
      "outputs": [
        {
          "internalType": "bool",
          "name": "",
          "type": "bool"
        }
      ],
      "stateMutability": "view",
      "type": "function"
    },
    {
      "inputs": [
        {
          "internalType": "address",
          "name": "from",
          "type": "address"
        },
        {
          "internalType": "address",
          "name": "to",
          "type": "address"
        },
        {
          "internalType": "uint256",
          "name": "tokenId",
          "type": "uint256"
        }
      ],
      "name": "safeTransferFrom",
      "outputs": [],
      "stateMutability": "nonpayable",
      "type": "function"
    },
    {
      "inputs": [
        {
          "internalType": "address",
          "name": "from",
          "type": "address"
        },
        {
          "internalType": "address",
          "name": "to",
          "type": "address"
        },
        {
          "internalType": "uint256",
          "name": "tokenId",
          "type": "uint256"
        },
        {
          "internalType": "bytes",
          "name": "_data",
          "type": "bytes"
        }
      ],
      "name": "safeTransferFrom",
      "outputs": [],
      "stateMutability": "nonpayable",
      "type": "function"
    },
    {
      "inputs": [
        {
          "internalType": "address",
          "name": "operator",
          "type": "address"
        },
        {
          "internalType": "bool",
          "name": "approved",
          "type": "bool"
        }
      ],
      "name": "setApprovalForAll",
      "outputs": [],
      "stateMutability": "nonpayable",
      "type": "function"
    },
    {
      "inputs": [
        {
          "internalType": "string",
          "name": "_newBaseExtension",
          "type": "string"
        }
      ],
      "name": "setBaseExtension",
      "outputs": [],
      "stateMutability": "nonpayable",
      "type": "function"
    },
    {
      "inputs": [
        {
          "internalType": "string",
          "name": "_newBaseURI",
          "type": "string"
        }
      ],
      "name": "setBaseURI",
      "outputs": [],
      "stateMutability": "nonpayable",
      "type": "function"
    },
    {
      "inputs": [
        {
          "internalType": "uint256",
          "name": "_newCost",
          "type": "uint256"
        }
      ],
      "name": "setCost",
      "outputs": [],
      "stateMutability": "nonpayable",
      "type": "function"
    },
    {
      "inputs": [
        {
          "internalType": "string",
          "name": "_notRevealedURI",
          "type": "string"
        }
      ],
      "name": "setNotRevealedURI",
      "outputs": [],
      "stateMutability": "nonpayable",
      "type": "function"
    },
    {
      "inputs": [
        {
          "internalType": "uint256",
          "name": "_newmaxMintAmount",
          "type": "uint256"
        }
      ],
      "name": "setmaxMintAmount",
      "outputs": [],
      "stateMutability": "nonpayable",
      "type": "function"
    },
    {
      "inputs": [
        {
          "internalType": "bytes4",
          "name": "interfaceId",
          "type": "bytes4"
        }
      ],
      "name": "supportsInterface",
      "outputs": [
        {
          "internalType": "bool",
          "name": "",
          "type": "bool"
        }
      ],
      "stateMutability": "view",
      "type": "function"
    },
    {
      "inputs": [],
      "name": "symbol",
      "outputs": [
        {
          "internalType": "string",
          "name": "",
          "type": "string"
        }
      ],
      "stateMutability": "view",
      "type": "function"
    },
    {
      "inputs": [
        {
          "internalType": "uint256",
          "name": "index",
          "type": "uint256"
        }
      ],
      "name": "tokenByIndex",
      "outputs": [
        {
          "internalType": "uint256",
          "name": "",
          "type": "uint256"
        }
      ],
      "stateMutability": "view",
      "type": "function"
    },
    {
      "inputs": [
        {
          "internalType": "address",
          "name": "owner",
          "type": "address"
        },
        {
          "internalType": "uint256",
          "name": "index",
          "type": "uint256"
        }
      ],
      "name": "tokenOfOwnerByIndex",
      "outputs": [
        {
          "internalType": "uint256",
          "name": "",
          "type": "uint256"
        }
      ],
      "stateMutability": "view",
      "type": "function"
    },
    {
      "inputs": [
        {
          "internalType": "uint256",
          "name": "tokenId",
          "type": "uint256"
        }
      ],
      "name": "tokenURI",
      "outputs": [
        {
          "internalType": "string",
          "name": "",
          "type": "string"
        }
      ],
      "stateMutability": "view",
      "type": "function"
    },
    {
      "inputs": [],
      "name": "totalSupply",
      "outputs": [
        {
          "internalType": "uint256",
          "name": "",
          "type": "uint256"
        }
      ],
      "stateMutability": "view",
      "type": "function"
    },
    {
      "inputs": [
        {
          "internalType": "address",
          "name": "from",
          "type": "address"
        },
        {
          "internalType": "address",
          "name": "to",
          "type": "address"
        },
        {
          "internalType": "uint256",
          "name": "tokenId",
          "type": "uint256"
        }
      ],
      "name": "transferFrom",
      "outputs": [],
      "stateMutability": "nonpayable",
      "type": "function"
    },
    {
      "inputs": [
        {
          "internalType": "address",
          "name": "newOwner",
          "type": "address"
        }
      ],
      "name": "transferOwnership",
      "outputs": [],
      "stateMutability": "nonpayable",
      "type": "function"
    },
    {
      "inputs": [],
      "name": "withdraw",
      "outputs": [],
      "stateMutability": "payable",
      "type": "function"
    }
  ],
  "bytecode": "0x60806040526040518060400160405280600581526020017f2e6a736f6e000000000000000000000000000000000000000000000000000000815250600c908051906020019062000051929190620003a1565b5066b1a2bc2ec50000600d55612710600e556014600f556000601060006101000a81548160ff0219169083151502179055506000601060016101000a81548160ff021916908315150217905550348015620000ab57600080fd5b50604051620046b3380380620046b38339818101604052810190620000d19190620004c3565b83838160009080519060200190620000eb929190620003a1565b50806001908051906020019062000104929190620003a1565b505050620001276200011b6200015360201b60201c565b6200015b60201b60201c565b62000138826200022160201b60201c565b6200014981620002cc60201b60201c565b5050505062000739565b600033905090565b6000600a60009054906101000a900473ffffffffffffffffffffffffffffffffffffffff16905081600a60006101000a81548173ffffffffffffffffffffffffffffffffffffffff021916908373ffffffffffffffffffffffffffffffffffffffff1602179055508173ffffffffffffffffffffffffffffffffffffffff168173ffffffffffffffffffffffffffffffffffffffff167f8be0079c531659141344cd1fd0a4f28419497f9722a3daafe3b4186f6b6457e060405160405180910390a35050565b620002316200015360201b60201c565b73ffffffffffffffffffffffffffffffffffffffff16620002576200037760201b60201c565b73ffffffffffffffffffffffffffffffffffffffff1614620002b0576040517f08c379a0000000000000000000000000000000000000000000000000000000008152600401620002a790620005d5565b60405180910390fd5b80600b9080519060200190620002c8929190620003a1565b5050565b620002dc6200015360201b60201c565b73ffffffffffffffffffffffffffffffffffffffff16620003026200037760201b60201c565b73ffffffffffffffffffffffffffffffffffffffff16146200035b576040517f08c379a00000000000000000000000000000000000000000000000000000000081526004016200035290620005d5565b60405180910390fd5b806011908051906020019062000373929190620003a1565b5050565b6000600a60009054906101000a900473ffffffffffffffffffffffffffffffffffffffff16905090565b828054620003af90620006a5565b90600052602060002090601f016020900481019282620003d357600085556200041f565b82601f10620003ee57805160ff19168380011785556200041f565b828001600101855582156200041f579182015b828111156200041e57825182559160200191906001019062000401565b5b5090506200042e919062000432565b5090565b5b808211156200044d57600081600090555060010162000433565b5090565b60006200046862000462846200062b565b620005f7565b9050828152602081018484840111156200048157600080fd5b6200048e8482856200066f565b509392505050565b600082601f830112620004a857600080fd5b8151620004ba84826020860162000451565b91505092915050565b60008060008060808587031215620004da57600080fd5b600085015167ffffffffffffffff811115620004f557600080fd5b620005038782880162000496565b945050602085015167ffffffffffffffff8111156200052157600080fd5b6200052f8782880162000496565b935050604085015167ffffffffffffffff8111156200054d57600080fd5b6200055b8782880162000496565b925050606085015167ffffffffffffffff8111156200057957600080fd5b620005878782880162000496565b91505092959194509250565b6000620005a26020836200065e565b91507f4f776e61626c653a2063616c6c6572206973206e6f7420746865206f776e65726000830152602082019050919050565b60006020820190508181036000830152620005f08162000593565b9050919050565b6000604051905081810181811067ffffffffffffffff821117156200062157620006206200070a565b5b8060405250919050565b600067ffffffffffffffff8211156200064957620006486200070a565b5b601f19601f8301169050602081019050919050565b600082825260208201905092915050565b60005b838110156200068f57808201518184015260208101905062000672565b838111156200069f576000848401525b50505050565b60006002820490506001821680620006be57607f821691505b60208210811415620006d557620006d4620006db565b5b50919050565b7f4e487b7100000000000000000000000000000000000000000000000000000000600052602260045260246000fd5b7f4e487b7100000000000000000000000000000000000000000000000000000000600052604160045260246000fd5b613f6a80620007496000396000f3fe6080604052600436106102045760003560e01c80635c975abb11610118578063a475b5dd116100a0578063d5abeb011161006f578063d5abeb0114610727578063da3ef23f14610752578063e985e9c51461077b578063f2c4ce1e146107b8578063f2fde38b146107e157610204565b8063a475b5dd1461067f578063b88d4fde14610696578063c6682862146106bf578063c87b56dd146106ea57610204565b80637f00c7a6116100e75780637f00c7a6146105bb5780638da5cb5b146105e457806395d89b411461060f578063a0712d681461063a578063a22cb4651461065657610204565b80635c975abb146104ff5780636352211e1461052a57806370a0823114610567578063715018a6146105a457610204565b8063239c70ae1161019b57806342842e0e1161016a57806342842e0e1461041c57806344a0d68a146104455780634f6ccce71461046e57806351830227146104ab57806355f804b3146104d657610204565b8063239c70ae1461038157806323b872dd146103ac5780632f745c59146103d55780633ccfd60b1461041257610204565b8063081c8c44116101d7578063081c8c44146102d7578063095ea7b31461030257806313faede61461032b57806318160ddd1461035657610204565b806301ffc9a71461020957806302329a291461024657806306fdde031461026f578063081812fc1461029a575b600080fd5b34801561021557600080fd5b50610230600480360381019061022b9190612f43565b61080a565b60405161023d919061381d565b60405180910390f35b34801561025257600080fd5b5061026d60048036038101906102689190612f1a565b610884565b005b34801561027b57600080fd5b5061028461091d565b6040516102919190613838565b60405180910390f35b3480156102a657600080fd5b506102c160048036038101906102bc9190612fd6565b6109af565b6040516102ce91906137b6565b60405180910390f35b3480156102e357600080fd5b506102ec610a34565b6040516102f99190613838565b60405180910390f35b34801561030e57600080fd5b5061032960048036038101906103249190612ede565b610ac2565b005b34801561033757600080fd5b50610340610bda565b60405161034d9190613a9a565b60405180910390f35b34801561036257600080fd5b5061036b610be0565b6040516103789190613a9a565b60405180910390f35b34801561038d57600080fd5b50610396610bed565b6040516103a39190613a9a565b60405180910390f35b3480156103b857600080fd5b506103d360048036038101906103ce9190612dd8565b610bf3565b005b3480156103e157600080fd5b506103fc60048036038101906103f79190612ede565b610c53565b6040516104099190613a9a565b60405180910390f35b61041a610cf8565b005b34801561042857600080fd5b50610443600480360381019061043e9190612dd8565b610df4565b005b34801561045157600080fd5b5061046c60048036038101906104679190612fd6565b610e14565b005b34801561047a57600080fd5b5061049560048036038101906104909190612fd6565b610e9a565b6040516104a29190613a9a565b60405180910390f35b3480156104b757600080fd5b506104c0610f31565b6040516104cd919061381d565b60405180910390f35b3480156104e257600080fd5b506104fd60048036038101906104f89190612f95565b610f44565b005b34801561050b57600080fd5b50610514610fda565b604051610521919061381d565b60405180910390f35b34801561053657600080fd5b50610551600480360381019061054c9190612fd6565b610fed565b60405161055e91906137b6565b60405180910390f35b34801561057357600080fd5b5061058e60048036038101906105899190612d73565b61109f565b60405161059b9190613a9a565b60405180910390f35b3480156105b057600080fd5b506105b9611157565b005b3480156105c757600080fd5b506105e260048036038101906105dd9190612fd6565b6111df565b005b3480156105f057600080fd5b506105f9611265565b60405161060691906137b6565b60405180910390f35b34801561061b57600080fd5b5061062461128f565b6040516106319190613838565b60405180910390f35b610654600480360381019061064f9190612fd6565b611321565b005b34801561066257600080fd5b5061067d60048036038101906106789190612ea2565b61140d565b005b34801561068b57600080fd5b5061069461158e565b005b3480156106a257600080fd5b506106bd60048036038101906106b89190612e27565b611627565b005b3480156106cb57600080fd5b506106d4611689565b6040516106e19190613838565b60405180910390f35b3480156106f657600080fd5b50610711600480360381019061070c9190612fd6565b611717565b60405161071e9190613838565b60405180910390f35b34801561073357600080fd5b5061073c6117be565b6040516107499190613a9a565b60405180910390f35b34801561075e57600080fd5b5061077960048036038101906107749190612f95565b6117c4565b005b34801561078757600080fd5b506107a2600480360381019061079d9190612d9c565b61185a565b6040516107af919061381d565b60405180910390f35b3480156107c457600080fd5b506107df60048036038101906107da9190612f95565b6118ee565b005b3480156107ed57600080fd5b5061080860048036038101906108039190612d73565b611984565b005b60007f780e9d63000000000000000000000000000000000000000000000000000000007bffffffffffffffffffffffffffffffffffffffffffffffffffffffff1916827bffffffffffffffffffffffffffffffffffffffffffffffffffffffff1916148061087d575061087c82611a7c565b5b9050919050565b61088c611b5e565b73ffffffffffffffffffffffffffffffffffffffff166108aa611265565b73ffffffffffffffffffffffffffffffffffffffff1614610900576040517f08c379a00000000000000000000000000000000000000000000000000000000081526004016108f7906139da565b60405180910390fd5b80601060006101000a81548160ff02191690831515021790555050565b60606000805461092c90613d5f565b80601f016020809104026020016040519081016040528092919081815260200182805461095890613d5f565b80156109a55780601f1061097a576101008083540402835291602001916109a5565b820191906000526020600020905b81548152906001019060200180831161098857829003601f168201915b5050505050905090565b60006109ba82611b66565b6109f9576040517f08c379a00000000000000000000000000000000000000000000000000000000081526004016109f0906139ba565b60405180910390fd5b6004600083815260200190815260200160002060009054906101000a900473ffffffffffffffffffffffffffffffffffffffff169050919050565b60118054610a4190613d5f565b80601f0160208091040260200160405190810160405280929190818152602001828054610a6d90613d5f565b8015610aba5780601f10610a8f57610100808354040283529160200191610aba565b820191906000526020600020905b815481529060010190602001808311610a9d57829003601f168201915b505050505081565b6000610acd82610fed565b90508073ffffffffffffffffffffffffffffffffffffffff168373ffffffffffffffffffffffffffffffffffffffff161415610b3e576040517f08c379a0000000000000000000000000000000000000000000000000000000008152600401610b3590613a3a565b60405180910390fd5b8073ffffffffffffffffffffffffffffffffffffffff16610b5d611b5e565b73ffffffffffffffffffffffffffffffffffffffff161480610b8c5750610b8b81610b86611b5e565b61185a565b5b610bcb576040517f08c379a0000000000000000000000000000000000000000000000000000000008152600401610bc29061393a565b60405180910390fd5b610bd58383611bd2565b505050565b600d5481565b6000600880549050905090565b600f5481565b610c04610bfe611b5e565b82611c8b565b610c43576040517f08c379a0000000000000000000000000000000000000000000000000000000008152600401610c3a90613a5a565b60405180910390fd5b610c4e838383611d69565b505050565b6000610c5e8361109f565b8210610c9f576040517f08c379a0000000000000000000000000000000000000000000000000000000008152600401610c969061385a565b60405180910390fd5b600660008473ffffffffffffffffffffffffffffffffffffffff1673ffffffffffffffffffffffffffffffffffffffff168152602001908152602001600020600083815260200190815260200160002054905092915050565b610d00611b5e565b73ffffffffffffffffffffffffffffffffffffffff16610d1e611265565b73ffffffffffffffffffffffffffffffffffffffff1614610d74576040517f08c379a0000000000000000000000000000000000000000000000000000000008152600401610d6b906139da565b60405180910390fd5b6000610d7e611265565b73ffffffffffffffffffffffffffffffffffffffff1647604051610da1906137a1565b60006040518083038185875af1925050503d8060008114610dde576040519150601f19603f3d011682016040523d82523d6000602084013e610de3565b606091505b5050905080610df157600080fd5b50565b610e0f83838360405180602001604052806000815250611627565b505050565b610e1c611b5e565b73ffffffffffffffffffffffffffffffffffffffff16610e3a611265565b73ffffffffffffffffffffffffffffffffffffffff1614610e90576040517f08c379a0000000000000000000000000000000000000000000000000000000008152600401610e87906139da565b60405180910390fd5b80600d8190555050565b6000610ea4610be0565b8210610ee5576040517f08c379a0000000000000000000000000000000000000000000000000000000008152600401610edc90613a7a565b60405180910390fd5b60088281548110610f1f577f4e487b7100000000000000000000000000000000000000000000000000000000600052603260045260246000fd5b90600052602060002001549050919050565b601060019054906101000a900460ff1681565b610f4c611b5e565b73ffffffffffffffffffffffffffffffffffffffff16610f6a611265565b73ffffffffffffffffffffffffffffffffffffffff1614610fc0576040517f08c379a0000000000000000000000000000000000000000000000000000000008152600401610fb7906139da565b60405180910390fd5b80600b9080519060200190610fd6929190612b97565b5050565b601060009054906101000a900460ff1681565b6000806002600084815260200190815260200160002060009054906101000a900473ffffffffffffffffffffffffffffffffffffffff169050600073ffffffffffffffffffffffffffffffffffffffff168173ffffffffffffffffffffffffffffffffffffffff161415611096576040517f08c379a000000000000000000000000000000000000000000000000000000000815260040161108d9061397a565b60405180910390fd5b80915050919050565b60008073ffffffffffffffffffffffffffffffffffffffff168273ffffffffffffffffffffffffffffffffffffffff161415611110576040517f08c379a00000000000000000000000000000000000000000000000000000000081526004016111079061395a565b60405180910390fd5b600360008373ffffffffffffffffffffffffffffffffffffffff1673ffffffffffffffffffffffffffffffffffffffff168152602001908152602001600020549050919050565b61115f611b5e565b73ffffffffffffffffffffffffffffffffffffffff1661117d611265565b73ffffffffffffffffffffffffffffffffffffffff16146111d3576040517f08c379a00000000000000000000000000000000000000000000000000000000081526004016111ca906139da565b60405180910390fd5b6111dd6000611fc5565b565b6111e7611b5e565b73ffffffffffffffffffffffffffffffffffffffff16611205611265565b73ffffffffffffffffffffffffffffffffffffffff161461125b576040517f08c379a0000000000000000000000000000000000000000000000000000000008152600401611252906139da565b60405180910390fd5b80600f8190555050565b6000600a60009054906101000a900473ffffffffffffffffffffffffffffffffffffffff16905090565b60606001805461129e90613d5f565b80601f01602080910402602001604051908101604052809291908181526020018280546112ca90613d5f565b80156113175780601f106112ec57610100808354040283529160200191611317565b820191906000526020600020905b8154815290600101906020018083116112fa57829003601f168201915b5050505050905090565b600061132b610be0565b9050601060009054906101000a900460ff161561134757600080fd5b6000821161135457600080fd5b600f5482111561136357600080fd5b600e5482826113729190613b94565b111561137d57600080fd5b611385611265565b73ffffffffffffffffffffffffffffffffffffffff163373ffffffffffffffffffffffffffffffffffffffff16146113d25781600d546113c59190613c1b565b3410156113d157600080fd5b5b6000600190505b828111611408576113f53382846113f09190613b94565b61208b565b808061140090613d91565b9150506113d9565b505050565b611415611b5e565b73ffffffffffffffffffffffffffffffffffffffff168273ffffffffffffffffffffffffffffffffffffffff161415611483576040517f08c379a000000000000000000000000000000000000000000000000000000000815260040161147a906138fa565b60405180910390fd5b8060056000611490611b5e565b73ffffffffffffffffffffffffffffffffffffffff1673ffffffffffffffffffffffffffffffffffffffff16815260200190815260200160002060008473ffffffffffffffffffffffffffffffffffffffff1673ffffffffffffffffffffffffffffffffffffffff16815260200190815260200160002060006101000a81548160ff0219169083151502179055508173ffffffffffffffffffffffffffffffffffffffff1661153d611b5e565b73ffffffffffffffffffffffffffffffffffffffff167f17307eab39ab6107e8899845ad3d59bd9653f200f220920489ca2b5937696c3183604051611582919061381d565b60405180910390a35050565b611596611b5e565b73ffffffffffffffffffffffffffffffffffffffff166115b4611265565b73ffffffffffffffffffffffffffffffffffffffff161461160a576040517f08c379a0000000000000000000000000000000000000000000000000000000008152600401611601906139da565b60405180910390fd5b6001601060016101000a81548160ff021916908315150217905550565b611638611632611b5e565b83611c8b565b611677576040517f08c379a000000000000000000000000000000000000000000000000000000000815260040161166e90613a5a565b60405180910390fd5b611683848484846120a9565b50505050565b600c805461169690613d5f565b80601f01602080910402602001604051908101604052809291908181526020018280546116c290613d5f565b801561170f5780601f106116e45761010080835404028352916020019161170f565b820191906000526020600020905b8154815290600101906020018083116116f257829003601f168201915b505050505081565b606061172282611b66565b611761576040517f08c379a000000000000000000000000000000000000000000000000000000000815260040161175890613a1a565b60405180910390fd5b600061176b612105565b9050600081511161178b57604051806020016040528060008152506117b6565b806117958461211c565b6040516020016117a692919061377d565b6040516020818303038152906040525b915050919050565b600e5481565b6117cc611b5e565b73ffffffffffffffffffffffffffffffffffffffff166117ea611265565b73ffffffffffffffffffffffffffffffffffffffff1614611840576040517f08c379a0000000000000000000000000000000000000000000000000000000008152600401611837906139da565b60405180910390fd5b80600c9080519060200190611856929190612b97565b5050565b6000600560008473ffffffffffffffffffffffffffffffffffffffff1673ffffffffffffffffffffffffffffffffffffffff16815260200190815260200160002060008373ffffffffffffffffffffffffffffffffffffffff1673ffffffffffffffffffffffffffffffffffffffff16815260200190815260200160002060009054906101000a900460ff16905092915050565b6118f6611b5e565b73ffffffffffffffffffffffffffffffffffffffff16611914611265565b73ffffffffffffffffffffffffffffffffffffffff161461196a576040517f08c379a0000000000000000000000000000000000000000000000000000000008152600401611961906139da565b60405180910390fd5b8060119080519060200190611980929190612b97565b5050565b61198c611b5e565b73ffffffffffffffffffffffffffffffffffffffff166119aa611265565b73ffffffffffffffffffffffffffffffffffffffff1614611a00576040517f08c379a00000000000000000000000000000000000000000000000000000000081526004016119f7906139da565b60405180910390fd5b600073ffffffffffffffffffffffffffffffffffffffff168173ffffffffffffffffffffffffffffffffffffffff161415611a70576040517f08c379a0000000000000000000000000000000000000000000000000000000008152600401611a679061389a565b60405180910390fd5b611a7981611fc5565b50565b60007f80ac58cd000000000000000000000000000000000000000000000000000000007bffffffffffffffffffffffffffffffffffffffffffffffffffffffff1916827bffffffffffffffffffffffffffffffffffffffffffffffffffffffff19161480611b4757507f5b5e139f000000000000000000000000000000000000000000000000000000007bffffffffffffffffffffffffffffffffffffffffffffffffffffffff1916827bffffffffffffffffffffffffffffffffffffffffffffffffffffffff1916145b80611b575750611b56826122c9565b5b9050919050565b600033905090565b60008073ffffffffffffffffffffffffffffffffffffffff166002600084815260200190815260200160002060009054906101000a900473ffffffffffffffffffffffffffffffffffffffff1673ffffffffffffffffffffffffffffffffffffffff1614159050919050565b816004600083815260200190815260200160002060006101000a81548173ffffffffffffffffffffffffffffffffffffffff021916908373ffffffffffffffffffffffffffffffffffffffff160217905550808273ffffffffffffffffffffffffffffffffffffffff16611c4583610fed565b73ffffffffffffffffffffffffffffffffffffffff167f8c5be1e5ebec7d5bd14f71427d1e84f3dd0314c0f7b2291e5b200ac8c7c3b92560405160405180910390a45050565b6000611c9682611b66565b611cd5576040517f08c379a0000000000000000000000000000000000000000000000000000000008152600401611ccc9061391a565b60405180910390fd5b6000611ce083610fed565b90508073ffffffffffffffffffffffffffffffffffffffff168473ffffffffffffffffffffffffffffffffffffffff161480611d4f57508373ffffffffffffffffffffffffffffffffffffffff16611d37846109af565b73ffffffffffffffffffffffffffffffffffffffff16145b80611d605750611d5f818561185a565b5b91505092915050565b8273ffffffffffffffffffffffffffffffffffffffff16611d8982610fed565b73ffffffffffffffffffffffffffffffffffffffff1614611ddf576040517f08c379a0000000000000000000000000000000000000000000000000000000008152600401611dd6906139fa565b60405180910390fd5b600073ffffffffffffffffffffffffffffffffffffffff168273ffffffffffffffffffffffffffffffffffffffff161415611e4f576040517f08c379a0000000000000000000000000000000000000000000000000000000008152600401611e46906138da565b60405180910390fd5b611e5a838383612333565b611e65600082611bd2565b6001600360008573ffffffffffffffffffffffffffffffffffffffff1673ffffffffffffffffffffffffffffffffffffffff1681526020019081526020016000206000828254611eb59190613c75565b925050819055506001600360008473ffffffffffffffffffffffffffffffffffffffff1673ffffffffffffffffffffffffffffffffffffffff1681526020019081526020016000206000828254611f0c9190613b94565b92505081905550816002600083815260200190815260200160002060006101000a81548173ffffffffffffffffffffffffffffffffffffffff021916908373ffffffffffffffffffffffffffffffffffffffff160217905550808273ffffffffffffffffffffffffffffffffffffffff168473ffffffffffffffffffffffffffffffffffffffff167fddf252ad1be2c89b69c2b068fc378daa952ba7f163c4a11628f55a4df523b3ef60405160405180910390a4505050565b6000600a60009054906101000a900473ffffffffffffffffffffffffffffffffffffffff16905081600a60006101000a81548173ffffffffffffffffffffffffffffffffffffffff021916908373ffffffffffffffffffffffffffffffffffffffff1602179055508173ffffffffffffffffffffffffffffffffffffffff168173ffffffffffffffffffffffffffffffffffffffff167f8be0079c531659141344cd1fd0a4f28419497f9722a3daafe3b4186f6b6457e060405160405180910390a35050565b6120a5828260405180602001604052806000815250612447565b5050565b6120b4848484611d69565b6120c0848484846124a2565b6120ff576040517f08c379a00000000000000000000000000000000000000000000000000000000081526004016120f69061387a565b60405180910390fd5b50505050565b606060405180602001604052806000815250905090565b60606000821415612164576040518060400160405280600181526020017f300000000000000000000000000000000000000000000000000000000000000081525090506122c4565b600082905060005b6000821461219657808061217f90613d91565b915050600a8261218f9190613bea565b915061216c565b60008167ffffffffffffffff8111156121d8577f4e487b7100000000000000000000000000000000000000000000000000000000600052604160045260246000fd5b6040519080825280601f01601f19166020018201604052801561220a5781602001600182028036833780820191505090505b5090505b600085146122bd576001826122239190613c75565b9150600a856122329190613dda565b603061223e9190613b94565b60f81b81838151811061227a577f4e487b7100000000000000000000000000000000000000000000000000000000600052603260045260246000fd5b60200101907effffffffffffffffffffffffffffffffffffffffffffffffffffffffffffff1916908160001a905350600a856122b69190613bea565b945061220e565b8093505050505b919050565b60007f01ffc9a7000000000000000000000000000000000000000000000000000000007bffffffffffffffffffffffffffffffffffffffffffffffffffffffff1916827bffffffffffffffffffffffffffffffffffffffffffffffffffffffff1916149050919050565b61233e838383612639565b600073ffffffffffffffffffffffffffffffffffffffff168373ffffffffffffffffffffffffffffffffffffffff1614156123815761237c8161263e565b6123c0565b8173ffffffffffffffffffffffffffffffffffffffff168373ffffffffffffffffffffffffffffffffffffffff16146123bf576123be8382612687565b5b5b600073ffffffffffffffffffffffffffffffffffffffff168273ffffffffffffffffffffffffffffffffffffffff161415612403576123fe816127f4565b612442565b8273ffffffffffffffffffffffffffffffffffffffff168273ffffffffffffffffffffffffffffffffffffffff1614612441576124408282612937565b5b5b505050565b61245183836129b6565b61245e60008484846124a2565b61249d576040517f08c379a00000000000000000000000000000000000000000000000000000000081526004016124949061387a565b60405180910390fd5b505050565b60006124c38473ffffffffffffffffffffffffffffffffffffffff16612b84565b1561262c578373ffffffffffffffffffffffffffffffffffffffff1663150b7a026124ec611b5e565b8786866040518563ffffffff1660e01b815260040161250e94939291906137d1565b602060405180830381600087803b15801561252857600080fd5b505af192505050801561255957506040513d601f19601f820116820180604052508101906125569190612f6c565b60015b6125dc573d8060008114612589576040519150601f19603f3d011682016040523d82523d6000602084013e61258e565b606091505b506000815114156125d4576040517f08c379a00000000000000000000000000000000000000000000000000000000081526004016125cb9061387a565b60405180910390fd5b805181602001fd5b63150b7a0260e01b7bffffffffffffffffffffffffffffffffffffffffffffffffffffffff1916817bffffffffffffffffffffffffffffffffffffffffffffffffffffffff191614915050612631565b600190505b949350505050565b505050565b6008805490506009600083815260200190815260200160002081905550600881908060018154018082558091505060019003906000526020600020016000909190919091505550565b600060016126948461109f565b61269e9190613c75565b9050600060076000848152602001908152602001600020549050818114612783576000600660008673ffffffffffffffffffffffffffffffffffffffff1673ffffffffffffffffffffffffffffffffffffffff168152602001908152602001600020600084815260200190815260200160002054905080600660008773ffffffffffffffffffffffffffffffffffffffff1673ffffffffffffffffffffffffffffffffffffffff168152602001908152602001600020600084815260200190815260200160002081905550816007600083815260200190815260200160002081905550505b6007600084815260200190815260200160002060009055600660008573ffffffffffffffffffffffffffffffffffffffff1673ffffffffffffffffffffffffffffffffffffffff16815260200190815260200160002060008381526020019081526020016000206000905550505050565b600060016008805490506128089190613c75565b905060006009600084815260200190815260200160002054905060006008838154811061285e577f4e487b7100000000000000000000000000000000000000000000000000000000600052603260045260246000fd5b9060005260206000200154905080600883815481106128a6577f4e487b7100000000000000000000000000000000000000000000000000000000600052603260045260246000fd5b90600052602060002001819055508160096000838152602001908152602001600020819055506009600085815260200190815260200160002060009055600880548061291b577f4e487b7100000000000000000000000000000000000000000000000000000000600052603160045260246000fd5b6001900381819060005260206000200160009055905550505050565b60006129428361109f565b905081600660008573ffffffffffffffffffffffffffffffffffffffff1673ffffffffffffffffffffffffffffffffffffffff168152602001908152602001600020600083815260200190815260200160002081905550806007600084815260200190815260200160002081905550505050565b600073ffffffffffffffffffffffffffffffffffffffff168273ffffffffffffffffffffffffffffffffffffffff161415612a26576040517f08c379a0000000000000000000000000000000000000000000000000000000008152600401612a1d9061399a565b60405180910390fd5b612a2f81611b66565b15612a6f576040517f08c379a0000000000000000000000000000000000000000000000000000000008152600401612a66906138ba565b60405180910390fd5b612a7b60008383612333565b6001600360008473ffffffffffffffffffffffffffffffffffffffff1673ffffffffffffffffffffffffffffffffffffffff1681526020019081526020016000206000828254612acb9190613b94565b92505081905550816002600083815260200190815260200160002060006101000a81548173ffffffffffffffffffffffffffffffffffffffff021916908373ffffffffffffffffffffffffffffffffffffffff160217905550808273ffffffffffffffffffffffffffffffffffffffff16600073ffffffffffffffffffffffffffffffffffffffff167fddf252ad1be2c89b69c2b068fc378daa952ba7f163c4a11628f55a4df523b3ef60405160405180910390a45050565b600080823b905060008111915050919050565b828054612ba390613d5f565b90600052602060002090601f016020900481019282612bc55760008555612c0c565b82601f10612bde57805160ff1916838001178555612c0c565b82800160010185558215612c0c579182015b82811115612c0b578251825591602001919060010190612bf0565b5b509050612c199190612c1d565b5090565b5b80821115612c36576000816000905550600101612c1e565b5090565b6000612c4d612c4884613ae6565b613ab5565b905082815260208101848484011115612c6557600080fd5b612c70848285613d1d565b509392505050565b6000612c8b612c8684613b16565b613ab5565b905082815260208101848484011115612ca357600080fd5b612cae848285613d1d565b509392505050565b600081359050612cc581613ed8565b92915050565b600081359050612cda81613eef565b92915050565b600081359050612cef81613f06565b92915050565b600081519050612d0481613f06565b92915050565b600082601f830112612d1b57600080fd5b8135612d2b848260208601612c3a565b91505092915050565b600082601f830112612d4557600080fd5b8135612d55848260208601612c78565b91505092915050565b600081359050612d6d81613f1d565b92915050565b600060208284031215612d8557600080fd5b6000612d9384828501612cb6565b91505092915050565b60008060408385031215612daf57600080fd5b6000612dbd85828601612cb6565b9250506020612dce85828601612cb6565b9150509250929050565b600080600060608486031215612ded57600080fd5b6000612dfb86828701612cb6565b9350506020612e0c86828701612cb6565b9250506040612e1d86828701612d5e565b9150509250925092565b60008060008060808587031215612e3d57600080fd5b6000612e4b87828801612cb6565b9450506020612e5c87828801612cb6565b9350506040612e6d87828801612d5e565b925050606085013567ffffffffffffffff811115612e8a57600080fd5b612e9687828801612d0a565b91505092959194509250565b60008060408385031215612eb557600080fd5b6000612ec385828601612cb6565b9250506020612ed485828601612ccb565b9150509250929050565b60008060408385031215612ef157600080fd5b6000612eff85828601612cb6565b9250506020612f1085828601612d5e565b9150509250929050565b600060208284031215612f2c57600080fd5b6000612f3a84828501612ccb565b91505092915050565b600060208284031215612f5557600080fd5b6000612f6384828501612ce0565b91505092915050565b600060208284031215612f7e57600080fd5b6000612f8c84828501612cf5565b91505092915050565b600060208284031215612fa757600080fd5b600082013567ffffffffffffffff811115612fc157600080fd5b612fcd84828501612d34565b91505092915050565b600060208284031215612fe857600080fd5b6000612ff684828501612d5e565b91505092915050565b61300881613ca9565b82525050565b61301781613cbb565b82525050565b600061302882613b46565b6130328185613b5c565b9350613042818560208601613d2c565b61304b81613ec7565b840191505092915050565b600061306182613b51565b61306b8185613b78565b935061307b818560208601613d2c565b61308481613ec7565b840191505092915050565b600061309a82613b51565b6130a48185613b89565b93506130b4818560208601613d2c565b80840191505092915050565b60006130cd602b83613b78565b91507f455243373231456e756d657261626c653a206f776e657220696e646578206f7560008301527f74206f6620626f756e64730000000000000000000000000000000000000000006020830152604082019050919050565b6000613133603283613b78565b91507f4552433732313a207472616e7366657220746f206e6f6e20455243373231526560008301527f63656976657220696d706c656d656e74657200000000000000000000000000006020830152604082019050919050565b6000613199602683613b78565b91507f4f776e61626c653a206e6577206f776e657220697320746865207a65726f206160008301527f64647265737300000000000000000000000000000000000000000000000000006020830152604082019050919050565b60006131ff601c83613b78565b91507f4552433732313a20746f6b656e20616c7265616479206d696e746564000000006000830152602082019050919050565b600061323f602483613b78565b91507f4552433732313a207472616e7366657220746f20746865207a65726f2061646460008301527f72657373000000000000000000000000000000000000000000000000000000006020830152604082019050919050565b60006132a5601983613b78565b91507f4552433732313a20617070726f766520746f2063616c6c6572000000000000006000830152602082019050919050565b60006132e5602c83613b78565b91507f4552433732313a206f70657261746f7220717565727920666f72206e6f6e657860008301527f697374656e7420746f6b656e00000000000000000000000000000000000000006020830152604082019050919050565b600061334b603883613b78565b91507f4552433732313a20617070726f76652063616c6c6572206973206e6f74206f7760008301527f6e6572206e6f7220617070726f76656420666f7220616c6c00000000000000006020830152604082019050919050565b60006133b1602a83613b78565b91507f4552433732313a2062616c616e636520717565727920666f7220746865207a6560008301527f726f2061646472657373000000000000000000000000000000000000000000006020830152604082019050919050565b6000613417602983613b78565b91507f4552433732313a206f776e657220717565727920666f72206e6f6e657869737460008301527f656e7420746f6b656e00000000000000000000000000000000000000000000006020830152604082019050919050565b600061347d602083613b78565b91507f4552433732313a206d696e7420746f20746865207a65726f20616464726573736000830152602082019050919050565b60006134bd602c83613b78565b91507f4552433732313a20617070726f76656420717565727920666f72206e6f6e657860008301527f697374656e7420746f6b656e00000000000000000000000000000000000000006020830152604082019050919050565b6000613523602083613b78565b91507f4f776e61626c653a2063616c6c6572206973206e6f7420746865206f776e65726000830152602082019050919050565b6000613563602983613b78565b91507f4552433732313a207472616e73666572206f6620746f6b656e2074686174206960008301527f73206e6f74206f776e00000000000000000000000000000000000000000000006020830152604082019050919050565b60006135c9602f83613b78565b91507f4552433732314d657461646174613a2055524920717565727920666f72206e6f60008301527f6e6578697374656e7420746f6b656e00000000000000000000000000000000006020830152604082019050919050565b600061362f602183613b78565b91507f4552433732313a20617070726f76616c20746f2063757272656e74206f776e6560008301527f72000000000000000000000000000000000000000000000000000000000000006020830152604082019050919050565b6000613695600083613b6d565b9150600082019050919050565b60006136af603183613b78565b91507f4552433732313a207472616e736665722063616c6c6572206973206e6f74206f60008301527f776e6572206e6f7220617070726f7665640000000000000000000000000000006020830152604082019050919050565b6000613715602c83613b78565b91507f455243373231456e756d657261626c653a20676c6f62616c20696e646578206f60008301527f7574206f6620626f756e647300000000000000000000000000000000000000006020830152604082019050919050565b61377781613d13565b82525050565b6000613789828561308f565b9150613795828461308f565b91508190509392505050565b60006137ac82613688565b9150819050919050565b60006020820190506137cb6000830184612fff565b92915050565b60006080820190506137e66000830187612fff565b6137f36020830186612fff565b613800604083018561376e565b8181036060830152613812818461301d565b905095945050505050565b6000602082019050613832600083018461300e565b92915050565b600060208201905081810360008301526138528184613056565b905092915050565b60006020820190508181036000830152613873816130c0565b9050919050565b6000602082019050818103600083015261389381613126565b9050919050565b600060208201905081810360008301526138b38161318c565b9050919050565b600060208201905081810360008301526138d3816131f2565b9050919050565b600060208201905081810360008301526138f381613232565b9050919050565b6000602082019050818103600083015261391381613298565b9050919050565b60006020820190508181036000830152613933816132d8565b9050919050565b600060208201905081810360008301526139538161333e565b9050919050565b60006020820190508181036000830152613973816133a4565b9050919050565b600060208201905081810360008301526139938161340a565b9050919050565b600060208201905081810360008301526139b381613470565b9050919050565b600060208201905081810360008301526139d3816134b0565b9050919050565b600060208201905081810360008301526139f381613516565b9050919050565b60006020820190508181036000830152613a1381613556565b9050919050565b60006020820190508181036000830152613a33816135bc565b9050919050565b60006020820190508181036000830152613a5381613622565b9050919050565b60006020820190508181036000830152613a73816136a2565b9050919050565b60006020820190508181036000830152613a9381613708565b9050919050565b6000602082019050613aaf600083018461376e565b92915050565b6000604051905081810181811067ffffffffffffffff82111715613adc57613adb613e98565b5b8060405250919050565b600067ffffffffffffffff821115613b0157613b00613e98565b5b601f19601f8301169050602081019050919050565b600067ffffffffffffffff821115613b3157613b30613e98565b5b601f19601f8301169050602081019050919050565b600081519050919050565b600081519050919050565b600082825260208201905092915050565b600081905092915050565b600082825260208201905092915050565b600081905092915050565b6000613b9f82613d13565b9150613baa83613d13565b9250827fffffffffffffffffffffffffffffffffffffffffffffffffffffffffffffffff03821115613bdf57613bde613e0b565b5b828201905092915050565b6000613bf582613d13565b9150613c0083613d13565b925082613c1057613c0f613e3a565b5b828204905092915050565b6000613c2682613d13565b9150613c3183613d13565b9250817fffffffffffffffffffffffffffffffffffffffffffffffffffffffffffffffff0483118215151615613c6a57613c69613e0b565b5b828202905092915050565b6000613c8082613d13565b9150613c8b83613d13565b925082821015613c9e57613c9d613e0b565b5b828203905092915050565b6000613cb482613cf3565b9050919050565b60008115159050919050565b60007fffffffff0000000000000000000000000000000000000000000000000000000082169050919050565b600073ffffffffffffffffffffffffffffffffffffffff82169050919050565b6000819050919050565b82818337600083830152505050565b60005b83811015613d4a578082015181840152602081019050613d2f565b83811115613d59576000848401525b50505050565b60006002820490506001821680613d7757607f821691505b60208210811415613d8b57613d8a613e69565b5b50919050565b6000613d9c82613d13565b91507fffffffffffffffffffffffffffffffffffffffffffffffffffffffffffffffff821415613dcf57613dce613e0b565b5b600182019050919050565b6000613de582613d13565b9150613df083613d13565b925082613e0057613dff613e3a565b5b828206905092915050565b7f4e487b7100000000000000000000000000000000000000000000000000000000600052601160045260246000fd5b7f4e487b7100000000000000000000000000000000000000000000000000000000600052601260045260246000fd5b7f4e487b7100000000000000000000000000000000000000000000000000000000600052602260045260246000fd5b7f4e487b7100000000000000000000000000000000000000000000000000000000600052604160045260246000fd5b6000601f19601f8301169050919050565b613ee181613ca9565b8114613eec57600080fd5b50565b613ef881613cbb565b8114613f0357600080fd5b50565b613f0f81613cc7565b8114613f1a57600080fd5b50565b613f2681613d13565b8114613f3157600080fd5b5056fea264697066735822122042b5e75ac2a1d05be64f2fa92de820c56efe332e98414e636e18d7168feb76ab64736f6c63430008000033",
  "linkReferences": {},
  "deployedLinkReferences": {}
}