{
  "_format": "hh-sol-artifact-1",
  "contractName": "Randomness",
  "sourceName": "contracts/Randomness.sol",
  "abi": [
    {
      "inputs": [],
      "stateMutability": "nonpayable",
      "type": "constructor"
    },
    {
      "anonymous": false,
      "inputs": [
        {
          "indexed": true,
          "internalType": "uint256",
          "name": "result",
          "type": "uint256"
        }
      ],
      "name": "DiceLanded",
      "type": "event"
    },
    {
      "anonymous": false,
      "inputs": [],
      "name": "DiceRolled",
      "type": "event"
    },
    {
      "inputs": [],
      "name": "LINK_token",
      "outputs": [
        {
          "internalType": "address",
          "name": "",
          "type": "address"
        }
      ],
      "stateMutability": "view",
      "type": "function"
    },
    {
      "inputs": [],
      "name": "VRF_Coordinator",
      "outputs": [
        {
          "internalType": "address",
          "name": "",
          "type": "address"
        }
      ],
      "stateMutability": "view",
      "type": "function"
    },
    {
      "inputs": [],
      "name": "fee",
      "outputs": [
        {
          "internalType": "uint256",
          "name": "",
          "type": "uint256"
        }
      ],
      "stateMutability": "view",
      "type": "function"
    },
    {
      "inputs": [],
      "name": "getRandomNumber",
      "outputs": [
        {
          "internalType": "bytes32",
          "name": "requestId",
          "type": "bytes32"
        }
      ],
      "stateMutability": "nonpayable",
      "type": "function"
    },
    {
      "inputs": [],
      "name": "keyHash",
      "outputs": [
        {
          "internalType": "bytes32",
          "name": "",
          "type": "bytes32"
        }
      ],
      "stateMutability": "view",
      "type": "function"
    },
    {
      "inputs": [
        {
          "internalType": "bytes32",
          "name": "requestId",
          "type": "bytes32"
        },
        {
          "internalType": "uint256",
          "name": "randomness",
          "type": "uint256"
        }
      ],
      "name": "rawFulfillRandomness",
      "outputs": [],
      "stateMutability": "nonpayable",
      "type": "function"
    },
    {
      "inputs": [],
      "name": "tokenIdShifter",
      "outputs": [
        {
          "internalType": "uint32",
          "name": "",
          "type": "uint32"
        }
      ],
      "stateMutability": "view",
      "type": "function"
    }
  ],
  "bytecode": "0x60c060405273dd3782915140c8f3b190b5d67eac6dc5760c46e9600360046101000a81548173ffffffffffffffffffffffffffffffffffffffff021916908373ffffffffffffffffffffffffffffffffffffffff16021790555073a36085f69e2889c224210f603d836748e7dc0088600460006101000a81548173ffffffffffffffffffffffffffffffffffffffff021916908373ffffffffffffffffffffffffffffffffffffffff1602179055503480156100ba57600080fd5b50600360049054906101000a900473ffffffffffffffffffffffffffffffffffffffff16600460009054906101000a900473ffffffffffffffffffffffffffffffffffffffff168173ffffffffffffffffffffffffffffffffffffffff1660a08173ffffffffffffffffffffffffffffffffffffffff1660601b815250508073ffffffffffffffffffffffffffffffffffffffff1660808173ffffffffffffffffffffffffffffffffffffffff1660601b8152505050507f6c3699283bda56ad74f6b855546325b68d482e983852a7a82979cc4807b641f460001b60018190555067016345785d8a00006002819055506000600360006101000a81548163ffffffff021916908363ffffffff16021790555060805160601c60a05160601c610bd0610205600039600081816101bc015261044c01526000818161025d01526104100152610bd06000f3fe608060405234801561001057600080fd5b506004361061007d5760003560e01c806361728f391161005b57806361728f39146100dc57806394985ddd146100fa578063dbdff2c114610116578063ddca3f43146101345761007d565b8063297cf74c1461008257806329c16f4c146100a0578063592756a1146100be575b600080fd5b61008a610152565b6040516100979190610831565b60405180910390f35b6100a8610178565b6040516100b5919061096e565b60405180910390f35b6100c661018e565b6040516100d39190610831565b60405180910390f35b6100e46101b4565b6040516100f1919061088a565b60405180910390f35b610114600480360381019061010f9190610657565b6101ba565b005b61011e610256565b60405161012b919061088a565b60405180910390f35b61013c610384565b6040516101499190610953565b60405180910390f35b600360049054906101000a900473ffffffffffffffffffffffffffffffffffffffff1681565b600360009054906101000a900463ffffffff1681565b600460009054906101000a900473ffffffffffffffffffffffffffffffffffffffff1681565b60015481565b7f000000000000000000000000000000000000000000000000000000000000000073ffffffffffffffffffffffffffffffffffffffff163373ffffffffffffffffffffffffffffffffffffffff1614610248576040517f08c379a000000000000000000000000000000000000000000000000000000000815260040161023f90610933565b60405180910390fd5b610252828261038a565b5050565b60006002547f000000000000000000000000000000000000000000000000000000000000000073ffffffffffffffffffffffffffffffffffffffff166370a08231306040518263ffffffff1660e01b81526004016102b49190610831565b60206040518083038186803b1580156102cc57600080fd5b505afa1580156102e0573d6000803e3d6000fd5b505050506040513d601f19601f820116820180604052508101906103049190610693565b1015610345576040517f08c379a000000000000000000000000000000000000000000000000000000000815260040161033c90610913565b60405180910390fd5b7f48ed86bcf5a9db215d430a3d797d5fd900be09379a002b6f37891bd2aacbe5cf60405160405180910390a161037f60015460025461040c565b905090565b60025481565b60016064826103999190610ab5565b6103a391906109b6565b600360006101000a81548163ffffffff021916908363ffffffff160217905550600360009054906101000a900463ffffffff1663ffffffff167f0fa143af3152b0314efb7493de77eccd78bf3b5a8520cf84c9894d597cca08c060405160405180910390a25050565b60007f000000000000000000000000000000000000000000000000000000000000000073ffffffffffffffffffffffffffffffffffffffff16634000aea07f0000000000000000000000000000000000000000000000000000000000000000848660006040516020016104809291906108a5565b6040516020818303038152906040526040518463ffffffff1660e01b81526004016104ad9392919061084c565b602060405180830381600087803b1580156104c757600080fd5b505af11580156104db573d6000803e3d6000fd5b505050506040513d601f19601f820116820180604052508101906104ff919061062e565b506000610521846000306000808981526020019081526020016000205461056b565b905060016000808681526020019081526020016000205461054291906109b6565b6000808681526020019081526020016000208190555061056284826105a7565b91505092915050565b60008484848460405160200161058494939291906108ce565b6040516020818303038152906040528051906020012060001c9050949350505050565b600082826040516020016105bc929190610805565b60405160208183030381529060405280519060200120905092915050565b6000815190506105e981610b55565b92915050565b6000813590506105fe81610b6c565b92915050565b60008135905061061381610b83565b92915050565b60008151905061062881610b83565b92915050565b60006020828403121561064057600080fd5b600061064e848285016105da565b91505092915050565b6000806040838503121561066a57600080fd5b6000610678858286016105ef565b925050602061068985828601610604565b9150509250929050565b6000602082840312156106a557600080fd5b60006106b384828501610619565b91505092915050565b6106c581610a0c565b82525050565b6106d481610a2a565b82525050565b6106eb6106e682610a2a565b610aa1565b82525050565b60006106fc82610989565b6107068185610994565b9350610716818560208601610a6e565b61071f81610b44565b840191505092915050565b6000610737602b836109a5565b91507f4e6f7420656e6f756768204c494e4b202d2066696c6c20636f6e74726163742060008301527f77697468206661756365740000000000000000000000000000000000000000006020830152604082019050919050565b600061079d601f836109a5565b91507f4f6e6c7920565246436f6f7264696e61746f722063616e2066756c66696c6c006000830152602082019050919050565b6107d981610a54565b82525050565b6107f06107eb82610a54565b610aab565b82525050565b6107ff81610a5e565b82525050565b600061081182856106da565b60208201915061082182846107df565b6020820191508190509392505050565b600060208201905061084660008301846106bc565b92915050565b600060608201905061086160008301866106bc565b61086e60208301856107d0565b818103604083015261088081846106f1565b9050949350505050565b600060208201905061089f60008301846106cb565b92915050565b60006040820190506108ba60008301856106cb565b6108c760208301846107d0565b9392505050565b60006080820190506108e360008301876106cb565b6108f060208301866107d0565b6108fd60408301856106bc565b61090a60608301846107d0565b95945050505050565b6000602082019050818103600083015261092c8161072a565b9050919050565b6000602082019050818103600083015261094c81610790565b9050919050565b600060208201905061096860008301846107d0565b92915050565b600060208201905061098360008301846107f6565b92915050565b600081519050919050565b600082825260208201905092915050565b600082825260208201905092915050565b60006109c182610a54565b91506109cc83610a54565b9250827fffffffffffffffffffffffffffffffffffffffffffffffffffffffffffffffff03821115610a0157610a00610ae6565b5b828201905092915050565b6000610a1782610a34565b9050919050565b60008115159050919050565b6000819050919050565b600073ffffffffffffffffffffffffffffffffffffffff82169050919050565b6000819050919050565b600063ffffffff82169050919050565b60005b83811015610a8c578082015181840152602081019050610a71565b83811115610a9b576000848401525b50505050565b6000819050919050565b6000819050919050565b6000610ac082610a54565b9150610acb83610a54565b925082610adb57610ada610b15565b5b828206905092915050565b7f4e487b7100000000000000000000000000000000000000000000000000000000600052601160045260246000fd5b7f4e487b7100000000000000000000000000000000000000000000000000000000600052601260045260246000fd5b6000601f19601f8301169050919050565b610b5e81610a1e565b8114610b6957600080fd5b50565b610b7581610a2a565b8114610b8057600080fd5b50565b610b8c81610a54565b8114610b9757600080fd5b5056fea26469706673582212208a27a8d74fc2f0219002c3c7114b6d61dee64c6c232fd8026c30795a06b5816264736f6c63430008000033",
  "linkReferences": {},
  "deployedLinkReferences": {}
}