{
  "_format": "hh-sol-artifact-1",
  "contractName": "Randomness",
  "sourceName": "contracts/Randomness.sol",
  "abi": [
    {
      "inputs": [],
      "stateMutability": "nonpayable",
      "type": "constructor"
    },
    {
      "anonymous": false,
      "inputs": [
        {
          "indexed": true,
          "internalType": "bytes32",
          "name": "requestId",
          "type": "bytes32"
        },
        {
          "indexed": true,
          "internalType": "uint256",
          "name": "result",
          "type": "uint256"
        }
      ],
      "name": "DiceLanded",
      "type": "event"
    },
    {
      "anonymous": false,
      "inputs": [
        {
          "indexed": true,
          "internalType": "bytes32",
          "name": "requestId",
          "type": "bytes32"
        }
      ],
      "name": "DiceRolled",
      "type": "event"
    },
    {
      "inputs": [],
      "name": "LINK_token",
      "outputs": [
        {
          "internalType": "address",
          "name": "",
          "type": "address"
        }
      ],
      "stateMutability": "view",
      "type": "function"
    },
    {
      "inputs": [],
      "name": "VRF_Coordinator",
      "outputs": [
        {
          "internalType": "address",
          "name": "",
          "type": "address"
        }
      ],
      "stateMutability": "view",
      "type": "function"
    },
    {
      "inputs": [],
      "name": "fee",
      "outputs": [
        {
          "internalType": "uint256",
          "name": "",
          "type": "uint256"
        }
      ],
      "stateMutability": "view",
      "type": "function"
    },
    {
      "inputs": [],
      "name": "getRandomNumber",
      "outputs": [
        {
          "internalType": "bytes32",
          "name": "requestId",
          "type": "bytes32"
        }
      ],
      "stateMutability": "nonpayable",
      "type": "function"
    },
    {
      "inputs": [],
      "name": "keyHash",
      "outputs": [
        {
          "internalType": "bytes32",
          "name": "",
          "type": "bytes32"
        }
      ],
      "stateMutability": "view",
      "type": "function"
    },
    {
      "inputs": [],
      "name": "randomResult",
      "outputs": [
        {
          "internalType": "uint256",
          "name": "",
          "type": "uint256"
        }
      ],
      "stateMutability": "view",
      "type": "function"
    },
    {
      "inputs": [
        {
          "internalType": "bytes32",
          "name": "requestId",
          "type": "bytes32"
        },
        {
          "internalType": "uint256",
          "name": "randomness",
          "type": "uint256"
        }
      ],
      "name": "rawFulfillRandomness",
      "outputs": [],
      "stateMutability": "nonpayable",
      "type": "function"
    }
  ],
  "bytecode": "0x60c060405273dd3782915140c8f3b190b5d67eac6dc5760c46e9600460006101000a81548173ffffffffffffffffffffffffffffffffffffffff021916908373ffffffffffffffffffffffffffffffffffffffff16021790555073a36085f69e2889c224210f603d836748e7dc0088600560006101000a81548173ffffffffffffffffffffffffffffffffffffffff021916908373ffffffffffffffffffffffffffffffffffffffff1602179055503480156100ba57600080fd5b50600460009054906101000a900473ffffffffffffffffffffffffffffffffffffffff16600560009054906101000a900473ffffffffffffffffffffffffffffffffffffffff168173ffffffffffffffffffffffffffffffffffffffff1660a08173ffffffffffffffffffffffffffffffffffffffff1660601b815250508073ffffffffffffffffffffffffffffffffffffffff1660808173ffffffffffffffffffffffffffffffffffffffff1660601b8152505050507f6c3699283bda56ad74f6b855546325b68d482e983852a7a82979cc4807b641f460001b60018190555067016345785d8a000060028190555060805160601c60a05160601c610b596101e3600039600081816101ac015261040f01526000818161024d01526103d30152610b596000f3fe608060405234801561001057600080fd5b506004361061007d5760003560e01c806361728f391161005b57806361728f39146100dc57806394985ddd146100fa578063dbdff2c114610116578063ddca3f43146101345761007d565b8063297cf74c1461008257806342619f66146100a0578063592756a1146100be575b600080fd5b61008a610152565b60405161009791906107e5565b60405180910390f35b6100a8610178565b6040516100b59190610907565b60405180910390f35b6100c661017e565b6040516100d391906107e5565b60405180910390f35b6100e46101a4565b6040516100f1919061083e565b60405180910390f35b610114600480360381019061010f919061061a565b6101aa565b005b61011e610246565b60405161012b919061083e565b60405180910390f35b61013c610375565b6040516101499190610907565b60405180910390f35b600460009054906101000a900473ffffffffffffffffffffffffffffffffffffffff1681565b60035481565b600560009054906101000a900473ffffffffffffffffffffffffffffffffffffffff1681565b60015481565b7f000000000000000000000000000000000000000000000000000000000000000073ffffffffffffffffffffffffffffffffffffffff163373ffffffffffffffffffffffffffffffffffffffff1614610238576040517f08c379a000000000000000000000000000000000000000000000000000000000815260040161022f906108e7565b60405180910390fd5b610242828261037b565b5050565b60006002547f000000000000000000000000000000000000000000000000000000000000000073ffffffffffffffffffffffffffffffffffffffff166370a08231306040518263ffffffff1660e01b81526004016102a491906107e5565b60206040518083038186803b1580156102bc57600080fd5b505afa1580156102d0573d6000803e3d6000fd5b505050506040513d601f19601f820116820180604052508101906102f49190610656565b1015610335576040517f08c379a000000000000000000000000000000000000000000000000000000000815260040161032c906108c7565b60405180910390fd5b807f9a60e24d77db60770e329ff79cabe9da80fbdaf57c289a8d0d40f4b6921ccc3060405160405180910390a26103706001546002546103cf565b905090565b60025481565b60016123288261038b9190610a3e565b610395919061094f565b600381905550600354827f909dd726737b7ffa4ae9d137e9edebe8a74a9c2910a4b60e8112f93ab217083760405160405180910390a35050565b60007f000000000000000000000000000000000000000000000000000000000000000073ffffffffffffffffffffffffffffffffffffffff16634000aea07f000000000000000000000000000000000000000000000000000000000000000084866000604051602001610443929190610859565b6040516020818303038152906040526040518463ffffffff1660e01b815260040161047093929190610800565b602060405180830381600087803b15801561048a57600080fd5b505af115801561049e573d6000803e3d6000fd5b505050506040513d601f19601f820116820180604052508101906104c291906105f1565b5060006104e4846000306000808981526020019081526020016000205461052e565b9050600160008086815260200190815260200160002054610505919061094f565b60008086815260200190815260200160002081905550610525848261056a565b91505092915050565b6000848484846040516020016105479493929190610882565b6040516020818303038152906040528051906020012060001c9050949350505050565b6000828260405160200161057f9291906107b9565b60405160208183030381529060405280519060200120905092915050565b6000815190506105ac81610ade565b92915050565b6000813590506105c181610af5565b92915050565b6000813590506105d681610b0c565b92915050565b6000815190506105eb81610b0c565b92915050565b60006020828403121561060357600080fd5b60006106118482850161059d565b91505092915050565b6000806040838503121561062d57600080fd5b600061063b858286016105b2565b925050602061064c858286016105c7565b9150509250929050565b60006020828403121561066857600080fd5b6000610676848285016105dc565b91505092915050565b610688816109a5565b82525050565b610697816109c3565b82525050565b6106ae6106a9826109c3565b610a2a565b82525050565b60006106bf82610922565b6106c9818561092d565b93506106d98185602086016109f7565b6106e281610acd565b840191505092915050565b60006106fa602b8361093e565b91507f4e6f7420656e6f756768204c494e4b202d2066696c6c20636f6e74726163742060008301527f77697468206661756365740000000000000000000000000000000000000000006020830152604082019050919050565b6000610760601f8361093e565b91507f4f6e6c7920565246436f6f7264696e61746f722063616e2066756c66696c6c006000830152602082019050919050565b61079c816109ed565b82525050565b6107b36107ae826109ed565b610a34565b82525050565b60006107c5828561069d565b6020820191506107d582846107a2565b6020820191508190509392505050565b60006020820190506107fa600083018461067f565b92915050565b6000606082019050610815600083018661067f565b6108226020830185610793565b818103604083015261083481846106b4565b9050949350505050565b6000602082019050610853600083018461068e565b92915050565b600060408201905061086e600083018561068e565b61087b6020830184610793565b9392505050565b6000608082019050610897600083018761068e565b6108a46020830186610793565b6108b1604083018561067f565b6108be6060830184610793565b95945050505050565b600060208201905081810360008301526108e0816106ed565b9050919050565b6000602082019050818103600083015261090081610753565b9050919050565b600060208201905061091c6000830184610793565b92915050565b600081519050919050565b600082825260208201905092915050565b600082825260208201905092915050565b600061095a826109ed565b9150610965836109ed565b9250827fffffffffffffffffffffffffffffffffffffffffffffffffffffffffffffffff0382111561099a57610999610a6f565b5b828201905092915050565b60006109b0826109cd565b9050919050565b60008115159050919050565b6000819050919050565b600073ffffffffffffffffffffffffffffffffffffffff82169050919050565b6000819050919050565b60005b83811015610a155780820151818401526020810190506109fa565b83811115610a24576000848401525b50505050565b6000819050919050565b6000819050919050565b6000610a49826109ed565b9150610a54836109ed565b925082610a6457610a63610a9e565b5b828206905092915050565b7f4e487b7100000000000000000000000000000000000000000000000000000000600052601160045260246000fd5b7f4e487b7100000000000000000000000000000000000000000000000000000000600052601260045260246000fd5b6000601f19601f8301169050919050565b610ae7816109b7565b8114610af257600080fd5b50565b610afe816109c3565b8114610b0957600080fd5b50565b610b15816109ed565b8114610b2057600080fd5b5056fea264697066735822122099796467e7ae5738619af848475e36e210d3eb170198d7c988d13ad9c7322c1964736f6c63430008000033",
  "linkReferences": {},
  "deployedLinkReferences": {}
}