{
  "_format": "hh-sol-artifact-1",
  "contractName": "Randomness",
  "sourceName": "contracts/Randomness.sol",
  "abi": [
    {
      "inputs": [],
      "stateMutability": "nonpayable",
      "type": "constructor"
    },
    {
      "anonymous": false,
      "inputs": [
        {
          "indexed": true,
          "internalType": "uint256",
          "name": "result",
          "type": "uint256"
        }
      ],
      "name": "DiceLanded",
      "type": "event"
    },
    {
      "anonymous": false,
      "inputs": [],
      "name": "DiceRolled",
      "type": "event"
    },
    {
      "anonymous": false,
      "inputs": [
        {
          "indexed": true,
          "internalType": "address",
          "name": "previousOwner",
          "type": "address"
        },
        {
          "indexed": true,
          "internalType": "address",
          "name": "newOwner",
          "type": "address"
        }
      ],
      "name": "OwnershipTransferred",
      "type": "event"
    },
    {
      "inputs": [],
      "name": "LINK_token",
      "outputs": [
        {
          "internalType": "address",
          "name": "",
          "type": "address"
        }
      ],
      "stateMutability": "view",
      "type": "function"
    },
    {
      "inputs": [],
      "name": "VRF_Coordinator",
      "outputs": [
        {
          "internalType": "address",
          "name": "",
          "type": "address"
        }
      ],
      "stateMutability": "view",
      "type": "function"
    },
    {
      "inputs": [],
      "name": "fee",
      "outputs": [
        {
          "internalType": "uint256",
          "name": "",
          "type": "uint256"
        }
      ],
      "stateMutability": "view",
      "type": "function"
    },
    {
      "inputs": [],
      "name": "getRandomNumber",
      "outputs": [
        {
          "internalType": "bytes32",
          "name": "requestId",
          "type": "bytes32"
        }
      ],
      "stateMutability": "nonpayable",
      "type": "function"
    },
    {
      "inputs": [],
      "name": "keyHash",
      "outputs": [
        {
          "internalType": "bytes32",
          "name": "",
          "type": "bytes32"
        }
      ],
      "stateMutability": "view",
      "type": "function"
    },
    {
      "inputs": [],
      "name": "owner",
      "outputs": [
        {
          "internalType": "address",
          "name": "",
          "type": "address"
        }
      ],
      "stateMutability": "view",
      "type": "function"
    },
    {
      "inputs": [
        {
          "internalType": "bytes32",
          "name": "requestId",
          "type": "bytes32"
        },
        {
          "internalType": "uint256",
          "name": "randomness",
          "type": "uint256"
        }
      ],
      "name": "rawFulfillRandomness",
      "outputs": [],
      "stateMutability": "nonpayable",
      "type": "function"
    },
    {
      "inputs": [],
      "name": "renounceOwnership",
      "outputs": [],
      "stateMutability": "nonpayable",
      "type": "function"
    },
    {
      "inputs": [],
      "name": "tokenIdShifter",
      "outputs": [
        {
          "internalType": "uint32",
          "name": "",
          "type": "uint32"
        }
      ],
      "stateMutability": "view",
      "type": "function"
    },
    {
      "inputs": [
        {
          "internalType": "address",
          "name": "newOwner",
          "type": "address"
        }
      ],
      "name": "transferOwnership",
      "outputs": [],
      "stateMutability": "nonpayable",
      "type": "function"
    }
  ],
  "bytecode": "0x60c060405273dd3782915140c8f3b190b5d67eac6dc5760c46e96004806101000a81548173ffffffffffffffffffffffffffffffffffffffff021916908373ffffffffffffffffffffffffffffffffffffffff16021790555073a36085f69e2889c224210f603d836748e7dc0088600560006101000a81548173ffffffffffffffffffffffffffffffffffffffff021916908373ffffffffffffffffffffffffffffffffffffffff1602179055503480156100b957600080fd5b5060048054906101000a900473ffffffffffffffffffffffffffffffffffffffff16600560009054906101000a900473ffffffffffffffffffffffffffffffffffffffff168173ffffffffffffffffffffffffffffffffffffffff1660a08173ffffffffffffffffffffffffffffffffffffffff1660601b815250508073ffffffffffffffffffffffffffffffffffffffff1660808173ffffffffffffffffffffffffffffffffffffffff1660601b81525050505061018a61017f6101ea60201b60201c565b6101f260201b60201c565b7f6c3699283bda56ad74f6b855546325b68d482e983852a7a82979cc4807b641f460001b60028190555067016345785d8a00006003819055506000600460006101000a81548163ffffffff021916908363ffffffff1602179055506102b8565b600033905090565b6000600160009054906101000a900473ffffffffffffffffffffffffffffffffffffffff16905081600160006101000a81548173ffffffffffffffffffffffffffffffffffffffff021916908373ffffffffffffffffffffffffffffffffffffffff1602179055508173ffffffffffffffffffffffffffffffffffffffff168173ffffffffffffffffffffffffffffffffffffffff167f8be0079c531659141344cd1fd0a4f28419497f9722a3daafe3b4186f6b6457e060405160405180910390a35050565b60805160601c60a05160601c6110626102f1600039600081816102d101526107a30152600081816103ee015261076701526110626000f3fe608060405234801561001057600080fd5b506004361061009e5760003560e01c80638da5cb5b116100665780638da5cb5b1461012557806394985ddd14610143578063dbdff2c11461015f578063ddca3f431461017d578063f2fde38b1461019b5761009e565b8063297cf74c146100a357806329c16f4c146100c1578063592756a1146100df57806361728f39146100fd578063715018a61461011b575b600080fd5b6100ab6101b7565b6040516100b89190610c6c565b60405180910390f35b6100c96101db565b6040516100d69190610de9565b60405180910390f35b6100e76101f1565b6040516100f49190610c6c565b60405180910390f35b610105610217565b6040516101129190610cc5565b60405180910390f35b61012361021d565b005b61012d6102a5565b60405161013a9190610c6c565b60405180910390f35b61015d600480360381019061015891906109ec565b6102cf565b005b61016761036b565b6040516101749190610cc5565b60405180910390f35b610185610515565b6040516101929190610dce565b60405180910390f35b6101b560048036038101906101b0919061099a565b61051b565b005b60048054906101000a900473ffffffffffffffffffffffffffffffffffffffff1681565b600460009054906101000a900463ffffffff1681565b600560009054906101000a900473ffffffffffffffffffffffffffffffffffffffff1681565b60025481565b610225610613565b73ffffffffffffffffffffffffffffffffffffffff166102436102a5565b73ffffffffffffffffffffffffffffffffffffffff1614610299576040517f08c379a000000000000000000000000000000000000000000000000000000000815260040161029090610d8e565b60405180910390fd5b6102a3600061061b565b565b6000600160009054906101000a900473ffffffffffffffffffffffffffffffffffffffff16905090565b7f000000000000000000000000000000000000000000000000000000000000000073ffffffffffffffffffffffffffffffffffffffff163373ffffffffffffffffffffffffffffffffffffffff161461035d576040517f08c379a000000000000000000000000000000000000000000000000000000000815260040161035490610dae565b60405180910390fd5b61036782826106e1565b5050565b6000610375610613565b73ffffffffffffffffffffffffffffffffffffffff166103936102a5565b73ffffffffffffffffffffffffffffffffffffffff16146103e9576040517f08c379a00000000000000000000000000000000000000000000000000000000081526004016103e090610d8e565b60405180910390fd5b6003547f000000000000000000000000000000000000000000000000000000000000000073ffffffffffffffffffffffffffffffffffffffff166370a08231306040518263ffffffff1660e01b81526004016104459190610c6c565b60206040518083038186803b15801561045d57600080fd5b505afa158015610471573d6000803e3d6000fd5b505050506040513d601f19601f820116820180604052508101906104959190610a28565b10156104d6576040517f08c379a00000000000000000000000000000000000000000000000000000000081526004016104cd90610d6e565b60405180910390fd5b7f48ed86bcf5a9db215d430a3d797d5fd900be09379a002b6f37891bd2aacbe5cf60405160405180910390a1610510600254600354610763565b905090565b60035481565b610523610613565b73ffffffffffffffffffffffffffffffffffffffff166105416102a5565b73ffffffffffffffffffffffffffffffffffffffff1614610597576040517f08c379a000000000000000000000000000000000000000000000000000000000815260040161058e90610d8e565b60405180910390fd5b600073ffffffffffffffffffffffffffffffffffffffff168173ffffffffffffffffffffffffffffffffffffffff161415610607576040517f08c379a00000000000000000000000000000000000000000000000000000000081526004016105fe90610d4e565b60405180910390fd5b6106108161061b565b50565b600033905090565b6000600160009054906101000a900473ffffffffffffffffffffffffffffffffffffffff16905081600160006101000a81548173ffffffffffffffffffffffffffffffffffffffff021916908373ffffffffffffffffffffffffffffffffffffffff1602179055508173ffffffffffffffffffffffffffffffffffffffff168173ffffffffffffffffffffffffffffffffffffffff167f8be0079c531659141344cd1fd0a4f28419497f9722a3daafe3b4186f6b6457e060405160405180910390a35050565b60016064826106f09190610f30565b6106fa9190610e31565b600460006101000a81548163ffffffff021916908363ffffffff160217905550600460009054906101000a900463ffffffff1663ffffffff167f0fa143af3152b0314efb7493de77eccd78bf3b5a8520cf84c9894d597cca08c060405160405180910390a25050565b60007f000000000000000000000000000000000000000000000000000000000000000073ffffffffffffffffffffffffffffffffffffffff16634000aea07f0000000000000000000000000000000000000000000000000000000000000000848660006040516020016107d7929190610ce0565b6040516020818303038152906040526040518463ffffffff1660e01b815260040161080493929190610c87565b602060405180830381600087803b15801561081e57600080fd5b505af1158015610832573d6000803e3d6000fd5b505050506040513d601f19601f8201168201806040525081019061085691906109c3565b50600061087884600030600080898152602001908152602001600020546108c2565b90506001600080868152602001908152602001600020546108999190610e31565b600080868152602001908152602001600020819055506108b984826108fe565b91505092915050565b6000848484846040516020016108db9493929190610d09565b6040516020818303038152906040528051906020012060001c9050949350505050565b60008282604051602001610913929190610c40565b60405160208183030381529060405280519060200120905092915050565b60008135905061094081610fd0565b92915050565b60008151905061095581610fe7565b92915050565b60008135905061096a81610ffe565b92915050565b60008135905061097f81611015565b92915050565b60008151905061099481611015565b92915050565b6000602082840312156109ac57600080fd5b60006109ba84828501610931565b91505092915050565b6000602082840312156109d557600080fd5b60006109e384828501610946565b91505092915050565b600080604083850312156109ff57600080fd5b6000610a0d8582860161095b565b9250506020610a1e85828601610970565b9150509250929050565b600060208284031215610a3a57600080fd5b6000610a4884828501610985565b91505092915050565b610a5a81610e87565b82525050565b610a6981610ea5565b82525050565b610a80610a7b82610ea5565b610f1c565b82525050565b6000610a9182610e04565b610a9b8185610e0f565b9350610aab818560208601610ee9565b610ab481610fbf565b840191505092915050565b6000610acc602683610e20565b91507f4f776e61626c653a206e6577206f776e657220697320746865207a65726f206160008301527f64647265737300000000000000000000000000000000000000000000000000006020830152604082019050919050565b6000610b32602b83610e20565b91507f4e6f7420656e6f756768204c494e4b202d2066696c6c20636f6e74726163742060008301527f77697468206661756365740000000000000000000000000000000000000000006020830152604082019050919050565b6000610b98602083610e20565b91507f4f776e61626c653a2063616c6c6572206973206e6f7420746865206f776e65726000830152602082019050919050565b6000610bd8601f83610e20565b91507f4f6e6c7920565246436f6f7264696e61746f722063616e2066756c66696c6c006000830152602082019050919050565b610c1481610ecf565b82525050565b610c2b610c2682610ecf565b610f26565b82525050565b610c3a81610ed9565b82525050565b6000610c4c8285610a6f565b602082019150610c5c8284610c1a565b6020820191508190509392505050565b6000602082019050610c816000830184610a51565b92915050565b6000606082019050610c9c6000830186610a51565b610ca96020830185610c0b565b8181036040830152610cbb8184610a86565b9050949350505050565b6000602082019050610cda6000830184610a60565b92915050565b6000604082019050610cf56000830185610a60565b610d026020830184610c0b565b9392505050565b6000608082019050610d1e6000830187610a60565b610d2b6020830186610c0b565b610d386040830185610a51565b610d456060830184610c0b565b95945050505050565b60006020820190508181036000830152610d6781610abf565b9050919050565b60006020820190508181036000830152610d8781610b25565b9050919050565b60006020820190508181036000830152610da781610b8b565b9050919050565b60006020820190508181036000830152610dc781610bcb565b9050919050565b6000602082019050610de36000830184610c0b565b92915050565b6000602082019050610dfe6000830184610c31565b92915050565b600081519050919050565b600082825260208201905092915050565b600082825260208201905092915050565b6000610e3c82610ecf565b9150610e4783610ecf565b9250827fffffffffffffffffffffffffffffffffffffffffffffffffffffffffffffffff03821115610e7c57610e7b610f61565b5b828201905092915050565b6000610e9282610eaf565b9050919050565b60008115159050919050565b6000819050919050565b600073ffffffffffffffffffffffffffffffffffffffff82169050919050565b6000819050919050565b600063ffffffff82169050919050565b60005b83811015610f07578082015181840152602081019050610eec565b83811115610f16576000848401525b50505050565b6000819050919050565b6000819050919050565b6000610f3b82610ecf565b9150610f4683610ecf565b925082610f5657610f55610f90565b5b828206905092915050565b7f4e487b7100000000000000000000000000000000000000000000000000000000600052601160045260246000fd5b7f4e487b7100000000000000000000000000000000000000000000000000000000600052601260045260246000fd5b6000601f19601f8301169050919050565b610fd981610e87565b8114610fe457600080fd5b50565b610ff081610e99565b8114610ffb57600080fd5b50565b61100781610ea5565b811461101257600080fd5b50565b61101e81610ecf565b811461102957600080fd5b5056fea26469706673582212201c469874df96e59fad3a713c53ca5bae2197392d26e8fdbc53b60e6ae69eb00564736f6c63430008000033",
  "linkReferences": {},
  "deployedLinkReferences": {}
}