{
  "_format": "hh-sol-artifact-1",
  "contractName": "Randomness",
  "sourceName": "contracts/Randomness.sol",
  "abi": [
    {
      "inputs": [],
      "stateMutability": "nonpayable",
      "type": "constructor"
    },
    {
      "anonymous": false,
      "inputs": [
        {
          "indexed": true,
          "internalType": "uint32",
          "name": "result",
          "type": "uint32"
        }
      ],
      "name": "DiceLanded",
      "type": "event"
    },
    {
      "anonymous": false,
      "inputs": [],
      "name": "DiceRolled",
      "type": "event"
    },
    {
      "anonymous": false,
      "inputs": [
        {
          "indexed": true,
          "internalType": "address",
          "name": "previousOwner",
          "type": "address"
        },
        {
          "indexed": true,
          "internalType": "address",
          "name": "newOwner",
          "type": "address"
        }
      ],
      "name": "OwnershipTransferred",
      "type": "event"
    },
    {
      "inputs": [],
      "name": "LINK_token",
      "outputs": [
        {
          "internalType": "address",
          "name": "",
          "type": "address"
        }
      ],
      "stateMutability": "view",
      "type": "function"
    },
    {
      "inputs": [],
      "name": "VRF_Coordinator",
      "outputs": [
        {
          "internalType": "address",
          "name": "",
          "type": "address"
        }
      ],
      "stateMutability": "view",
      "type": "function"
    },
    {
      "inputs": [],
      "name": "chainlink",
      "outputs": [
        {
          "internalType": "contract IERC20",
          "name": "",
          "type": "address"
        }
      ],
      "stateMutability": "view",
      "type": "function"
    },
    {
      "inputs": [],
      "name": "fee",
      "outputs": [
        {
          "internalType": "uint256",
          "name": "",
          "type": "uint256"
        }
      ],
      "stateMutability": "view",
      "type": "function"
    },
    {
      "inputs": [],
      "name": "getBalance",
      "outputs": [
        {
          "internalType": "uint256",
          "name": "",
          "type": "uint256"
        }
      ],
      "stateMutability": "view",
      "type": "function"
    },
    {
      "inputs": [],
      "name": "getRandomNumber",
      "outputs": [
        {
          "internalType": "bytes32",
          "name": "requestId",
          "type": "bytes32"
        }
      ],
      "stateMutability": "nonpayable",
      "type": "function"
    },
    {
      "inputs": [],
      "name": "keyHash",
      "outputs": [
        {
          "internalType": "bytes32",
          "name": "",
          "type": "bytes32"
        }
      ],
      "stateMutability": "view",
      "type": "function"
    },
    {
      "inputs": [],
      "name": "owner",
      "outputs": [
        {
          "internalType": "address",
          "name": "",
          "type": "address"
        }
      ],
      "stateMutability": "view",
      "type": "function"
    },
    {
      "inputs": [
        {
          "internalType": "bytes32",
          "name": "requestId",
          "type": "bytes32"
        },
        {
          "internalType": "uint256",
          "name": "randomness",
          "type": "uint256"
        }
      ],
      "name": "rawFulfillRandomness",
      "outputs": [],
      "stateMutability": "nonpayable",
      "type": "function"
    },
    {
      "inputs": [],
      "name": "refundOwner",
      "outputs": [],
      "stateMutability": "payable",
      "type": "function"
    },
    {
      "inputs": [],
      "name": "renounceOwnership",
      "outputs": [],
      "stateMutability": "nonpayable",
      "type": "function"
    },
    {
      "inputs": [],
      "name": "tokenIdShifter",
      "outputs": [
        {
          "internalType": "uint32",
          "name": "",
          "type": "uint32"
        }
      ],
      "stateMutability": "view",
      "type": "function"
    },
    {
      "inputs": [
        {
          "internalType": "address",
          "name": "newOwner",
          "type": "address"
        }
      ],
      "name": "transferOwnership",
      "outputs": [],
      "stateMutability": "nonpayable",
      "type": "function"
    }
  ],
  "bytecode": "0x60c060405273b3dccb4cf7a26f6cf6b120cf5a73875b7bbc655b6004806101000a81548173ffffffffffffffffffffffffffffffffffffffff021916908373ffffffffffffffffffffffffffffffffffffffff1602179055507301be23585060835e02b77ef475b0cc51aa1e0709600560006101000a81548173ffffffffffffffffffffffffffffffffffffffff021916908373ffffffffffffffffffffffffffffffffffffffff1602179055503480156100b957600080fd5b5060048054906101000a900473ffffffffffffffffffffffffffffffffffffffff16600560009054906101000a900473ffffffffffffffffffffffffffffffffffffffff168173ffffffffffffffffffffffffffffffffffffffff1660a08173ffffffffffffffffffffffffffffffffffffffff1660601b815250508073ffffffffffffffffffffffffffffffffffffffff1660808173ffffffffffffffffffffffffffffffffffffffff1660601b81525050505061018a61017f61023f60201b60201c565b61024760201b60201c565b7f2ed0feb3e7fd2022120aa84fab1945545a9f2ffc9076fd6156fa96eaff4c131160001b60028190555067016345785d8a00006003819055506000600460006101000a81548163ffffffff021916908363ffffffff1602179055507301be23585060835e02b77ef475b0cc51aa1e0709600660006101000a81548173ffffffffffffffffffffffffffffffffffffffff021916908373ffffffffffffffffffffffffffffffffffffffff16021790555061030d565b600033905090565b6000600160009054906101000a900473ffffffffffffffffffffffffffffffffffffffff16905081600160006101000a81548173ffffffffffffffffffffffffffffffffffffffff021916908373ffffffffffffffffffffffffffffffffffffffff1602179055508173ffffffffffffffffffffffffffffffffffffffff168173ffffffffffffffffffffffffffffffffffffffff167f8be0079c531659141344cd1fd0a4f28419497f9722a3daafe3b4186f6b6457e060405160405180910390a35050565b60805160601c60a05160601c6113f3610346600039600081816105c50152610abd0152600081816107080152610a8101526113f36000f3fe6080604052600436106100c25760003560e01c80638c47ddcc1161007f5780639c3feeb7116100595780639c3feeb714610213578063dbdff2c11461023e578063ddca3f4314610269578063f2fde38b14610294576100c2565b80638c47ddcc146101b55780638da5cb5b146101bf57806394985ddd146101ea576100c2565b806312065fe0146100c7578063297cf74c146100f257806329c16f4c1461011d578063592756a11461014857806361728f3914610173578063715018a61461019e575b600080fd5b3480156100d357600080fd5b506100dc6102bd565b6040516100e9919061113b565b60405180910390f35b3480156100fe57600080fd5b5061010761036f565b6040516101149190610f95565b60405180910390f35b34801561012957600080fd5b50610132610393565b60405161013f9190611156565b60405180910390f35b34801561015457600080fd5b5061015d6103a9565b60405161016a9190610f95565b60405180910390f35b34801561017f57600080fd5b506101886103cf565b6040516101959190611017565b60405180910390f35b3480156101aa57600080fd5b506101b36103d5565b005b6101bd61045d565b005b3480156101cb57600080fd5b506101d4610599565b6040516101e19190610f95565b60405180910390f35b3480156101f657600080fd5b50610211600480360381019061020c9190610d06565b6105c3565b005b34801561021f57600080fd5b5061022861065f565b60405161023591906110a0565b60405180910390f35b34801561024a57600080fd5b50610253610685565b6040516102609190611017565b60405180910390f35b34801561027557600080fd5b5061027e61082f565b60405161028b919061113b565b60405180910390f35b3480156102a057600080fd5b506102bb60048036038101906102b69190610cb4565b610835565b005b6000600660009054906101000a900473ffffffffffffffffffffffffffffffffffffffff1673ffffffffffffffffffffffffffffffffffffffff166370a08231306040518263ffffffff1660e01b815260040161031a9190610f95565b60206040518083038186803b15801561033257600080fd5b505afa158015610346573d6000803e3d6000fd5b505050506040513d601f19601f8201168201806040525081019061036a9190610d42565b905090565b60048054906101000a900473ffffffffffffffffffffffffffffffffffffffff1681565b600460009054906101000a900463ffffffff1681565b600560009054906101000a900473ffffffffffffffffffffffffffffffffffffffff1681565b60025481565b6103dd61092d565b73ffffffffffffffffffffffffffffffffffffffff166103fb610599565b73ffffffffffffffffffffffffffffffffffffffff1614610451576040517f08c379a0000000000000000000000000000000000000000000000000000000008152600401610448906110fb565b60405180910390fd5b61045b6000610935565b565b61046561092d565b73ffffffffffffffffffffffffffffffffffffffff16610483610599565b73ffffffffffffffffffffffffffffffffffffffff16146104d9576040517f08c379a00000000000000000000000000000000000000000000000000000000081526004016104d0906110fb565b60405180910390fd5b600660009054906101000a900473ffffffffffffffffffffffffffffffffffffffff1673ffffffffffffffffffffffffffffffffffffffff1663a9059cbb61051f610599565b6105276102bd565b6040518363ffffffff1660e01b8152600401610544929190610fb0565b602060405180830381600087803b15801561055e57600080fd5b505af1158015610572573d6000803e3d6000fd5b505050506040513d601f19601f820116820180604052508101906105969190610cdd565b50565b6000600160009054906101000a900473ffffffffffffffffffffffffffffffffffffffff16905090565b7f000000000000000000000000000000000000000000000000000000000000000073ffffffffffffffffffffffffffffffffffffffff163373ffffffffffffffffffffffffffffffffffffffff1614610651576040517f08c379a00000000000000000000000000000000000000000000000000000000081526004016106489061111b565b60405180910390fd5b61065b82826109fb565b5050565b600660009054906101000a900473ffffffffffffffffffffffffffffffffffffffff1681565b600061068f61092d565b73ffffffffffffffffffffffffffffffffffffffff166106ad610599565b73ffffffffffffffffffffffffffffffffffffffff1614610703576040517f08c379a00000000000000000000000000000000000000000000000000000000081526004016106fa906110fb565b60405180910390fd5b6003547f000000000000000000000000000000000000000000000000000000000000000073ffffffffffffffffffffffffffffffffffffffff166370a08231306040518263ffffffff1660e01b815260040161075f9190610f95565b60206040518083038186803b15801561077757600080fd5b505afa15801561078b573d6000803e3d6000fd5b505050506040513d601f19601f820116820180604052508101906107af9190610d42565b10156107f0576040517f08c379a00000000000000000000000000000000000000000000000000000000081526004016107e7906110db565b60405180910390fd5b7f48ed86bcf5a9db215d430a3d797d5fd900be09379a002b6f37891bd2aacbe5cf60405160405180910390a161082a600254600354610a7d565b905090565b60035481565b61083d61092d565b73ffffffffffffffffffffffffffffffffffffffff1661085b610599565b73ffffffffffffffffffffffffffffffffffffffff16146108b1576040517f08c379a00000000000000000000000000000000000000000000000000000000081526004016108a8906110fb565b60405180910390fd5b600073ffffffffffffffffffffffffffffffffffffffff168173ffffffffffffffffffffffffffffffffffffffff161415610921576040517f08c379a0000000000000000000000000000000000000000000000000000000008152600401610918906110bb565b60405180910390fd5b61092a81610935565b50565b600033905090565b6000600160009054906101000a900473ffffffffffffffffffffffffffffffffffffffff16905081600160006101000a81548173ffffffffffffffffffffffffffffffffffffffff021916908373ffffffffffffffffffffffffffffffffffffffff1602179055508173ffffffffffffffffffffffffffffffffffffffff168173ffffffffffffffffffffffffffffffffffffffff167f8be0079c531659141344cd1fd0a4f28419497f9722a3daafe3b4186f6b6457e060405160405180910390a35050565b6001606482610a0a91906112c1565b610a14919061119e565b600460006101000a81548163ffffffff021916908363ffffffff160217905550600460009054906101000a900463ffffffff1663ffffffff167f2bd582160d7ca70bab6d6431d305b4e34063eab1c51b172dccba45d6f2ad52e160405160405180910390a25050565b60007f000000000000000000000000000000000000000000000000000000000000000073ffffffffffffffffffffffffffffffffffffffff16634000aea07f000000000000000000000000000000000000000000000000000000000000000084866000604051602001610af1929190611032565b6040516020818303038152906040526040518463ffffffff1660e01b8152600401610b1e93929190610fd9565b602060405180830381600087803b158015610b3857600080fd5b505af1158015610b4c573d6000803e3d6000fd5b505050506040513d601f19601f82011682018060405250810190610b709190610cdd565b506000610b928460003060008089815260200190815260200160002054610bdc565b9050600160008086815260200190815260200160002054610bb3919061119e565b60008086815260200190815260200160002081905550610bd38482610c18565b91505092915050565b600084848484604051602001610bf5949392919061105b565b6040516020818303038152906040528051906020012060001c9050949350505050565b60008282604051602001610c2d929190610f69565b60405160208183030381529060405280519060200120905092915050565b600081359050610c5a81611361565b92915050565b600081519050610c6f81611378565b92915050565b600081359050610c848161138f565b92915050565b600081359050610c99816113a6565b92915050565b600081519050610cae816113a6565b92915050565b600060208284031215610cc657600080fd5b6000610cd484828501610c4b565b91505092915050565b600060208284031215610cef57600080fd5b6000610cfd84828501610c60565b91505092915050565b60008060408385031215610d1957600080fd5b6000610d2785828601610c75565b9250506020610d3885828601610c8a565b9150509250929050565b600060208284031215610d5457600080fd5b6000610d6284828501610c9f565b91505092915050565b610d74816111f4565b82525050565b610d8381611212565b82525050565b610d9a610d9582611212565b6112ad565b82525050565b6000610dab82611171565b610db5818561117c565b9350610dc581856020860161127a565b610dce81611350565b840191505092915050565b610de281611256565b82525050565b6000610df560268361118d565b91507f4f776e61626c653a206e6577206f776e657220697320746865207a65726f206160008301527f64647265737300000000000000000000000000000000000000000000000000006020830152604082019050919050565b6000610e5b602b8361118d565b91507f4e6f7420656e6f756768204c494e4b202d2066696c6c20636f6e74726163742060008301527f77697468206661756365740000000000000000000000000000000000000000006020830152604082019050919050565b6000610ec160208361118d565b91507f4f776e61626c653a2063616c6c6572206973206e6f7420746865206f776e65726000830152602082019050919050565b6000610f01601f8361118d565b91507f4f6e6c7920565246436f6f7264696e61746f722063616e2066756c66696c6c006000830152602082019050919050565b610f3d8161123c565b82525050565b610f54610f4f8261123c565b6112b7565b82525050565b610f6381611246565b82525050565b6000610f758285610d89565b602082019150610f858284610f43565b6020820191508190509392505050565b6000602082019050610faa6000830184610d6b565b92915050565b6000604082019050610fc56000830185610d6b565b610fd26020830184610f34565b9392505050565b6000606082019050610fee6000830186610d6b565b610ffb6020830185610f34565b818103604083015261100d8184610da0565b9050949350505050565b600060208201905061102c6000830184610d7a565b92915050565b60006040820190506110476000830185610d7a565b6110546020830184610f34565b9392505050565b60006080820190506110706000830187610d7a565b61107d6020830186610f34565b61108a6040830185610d6b565b6110976060830184610f34565b95945050505050565b60006020820190506110b56000830184610dd9565b92915050565b600060208201905081810360008301526110d481610de8565b9050919050565b600060208201905081810360008301526110f481610e4e565b9050919050565b6000602082019050818103600083015261111481610eb4565b9050919050565b6000602082019050818103600083015261113481610ef4565b9050919050565b60006020820190506111506000830184610f34565b92915050565b600060208201905061116b6000830184610f5a565b92915050565b600081519050919050565b600082825260208201905092915050565b600082825260208201905092915050565b60006111a98261123c565b91506111b48361123c565b9250827fffffffffffffffffffffffffffffffffffffffffffffffffffffffffffffffff038211156111e9576111e86112f2565b5b828201905092915050565b60006111ff8261121c565b9050919050565b60008115159050919050565b6000819050919050565b600073ffffffffffffffffffffffffffffffffffffffff82169050919050565b6000819050919050565b600063ffffffff82169050919050565b600061126182611268565b9050919050565b60006112738261121c565b9050919050565b60005b8381101561129857808201518184015260208101905061127d565b838111156112a7576000848401525b50505050565b6000819050919050565b6000819050919050565b60006112cc8261123c565b91506112d78361123c565b9250826112e7576112e6611321565b5b828206905092915050565b7f4e487b7100000000000000000000000000000000000000000000000000000000600052601160045260246000fd5b7f4e487b7100000000000000000000000000000000000000000000000000000000600052601260045260246000fd5b6000601f19601f8301169050919050565b61136a816111f4565b811461137557600080fd5b50565b61138181611206565b811461138c57600080fd5b50565b61139881611212565b81146113a357600080fd5b50565b6113af8161123c565b81146113ba57600080fd5b5056fea2646970667358221220ad9dd8f5936522fa59bd5f96569bc45e0f3f8d8f8270080fe2e8b062df94f47f64736f6c63430008000033",
  "linkReferences": {},
  "deployedLinkReferences": {}
}